{"abi":[{"inputs":[{"internalType":"uint256","name":"minimum","type":"uint256"},{"internalType":"address","name":"creator","type":"address"},{"internalType":"string","name":"_title","type":"string"},{"internalType":"string","name":"_description","type":"string"},{"internalType":"string","name":"_category","type":"string"},{"internalType":"uint256","name":"_goal","type":"uint256"}],"stateMutability":"nonpayable","type":"constructor"},{"inputs":[{"internalType":"uint256","name":"index","type":"uint256"}],"name":"approveRequest","outputs":[],"stateMutability":"nonpayable","type":"function"},{"inputs":[{"internalType":"address","name":"","type":"address"}],"name":"approvers","outputs":[{"internalType":"bool","name":"","type":"bool"}],"stateMutability":"view","type":"function"},{"inputs":[],"name":"approversCount","outputs":[{"internalType":"uint256","name":"","type":"uint256"}],"stateMutability":"view","type":"function"},{"inputs":[],"name":"category","outputs":[{"internalType":"string","name":"","type":"string"}],"stateMutability":"view","type":"function"},{"inputs":[],"name":"contribute","outputs":[],"stateMutability":"payable","type":"function"},{"inputs":[{"internalType":"string","name":"_description","type":"string"},{"internalType":"uint256","name":"value","type":"uint256"},{"internalType":"address payable","name":"recipient","type":"address"}],"name":"createRequest","outputs":[],"stateMutability":"nonpayable","type":"function"},{"inputs":[],"name":"createdAt","outputs":[{"internalType":"uint256","name":"","type":"uint256"}],"stateMutability":"view","type":"function"},{"inputs":[],"name":"description","outputs":[{"internalType":"string","name":"","type":"string"}],"stateMutability":"view","type":"function"},{"inputs":[{"internalType":"uint256","name":"index","type":"uint256"}],"name":"finalizeRequest","outputs":[],"stateMutability":"nonpayable","type":"function"},{"inputs":[],"name":"getRequestsCount","outputs":[{"internalType":"uint256","name":"","type":"uint256"}],"stateMutability":"view","type":"function"},{"inputs":[],"name":"getSummary","outputs":[{"internalType":"string","name":"_title","type":"string"},{"internalType":"string","name":"_description","type":"string"},{"internalType":"string","name":"_category","type":"string"},{"internalType":"uint256","name":"_goal","type":"uint256"},{"internalType":"uint256","name":"_minimumContribution","type":"uint256"},{"internalType":"uint256","name":"_balance","type":"uint256"},{"internalType":"uint256","name":"_approversCount","type":"uint256"},{"internalType":"uint256","name":"_requestsCount","type":"uint256"},{"internalType":"address","name":"_manager","type":"address"},{"internalType":"uint256","name":"_createdAt","type":"uint256"},{"internalType":"uint256","name":"_lastContributedAt","type":"uint256"}],"stateMutability":"view","type":"function"},{"inputs":[],"name":"goal","outputs":[{"internalType":"uint256","name":"","type":"uint256"}],"stateMutability":"view","type":"function"},{"inputs":[],"name":"lastContributedAt","outputs":[{"internalType":"uint256","name":"","type":"uint256"}],"stateMutability":"view","type":"function"},{"inputs":[],"name":"manager","outputs":[{"internalType":"address","name":"","type":"address"}],"stateMutability":"view","type":"function"},{"inputs":[],"name":"minimumContribution","outputs":[{"internalType":"uint256","name":"","type":"uint256"}],"stateMutability":"view","type":"function"},{"inputs":[{"internalType":"uint256","name":"","type":"uint256"}],"name":"requests","outputs":[{"internalType":"string","name":"description","type":"string"},{"internalType":"uint256","name":"value","type":"uint256"},{"internalType":"address payable","name":"recipient","type":"address"},{"internalType":"bool","name":"complete","type":"bool"},{"internalType":"uint256","name":"approvalCount","type":"uint256"}],"stateMutability":"view","type":"function"},{"inputs":[],"name":"title","outputs":[{"internalType":"string","name":"","type":"string"}],"stateMutability":"view","type":"function"}],"devdoc":{"kind":"dev","methods":{},"version":1},"evm":{"assembly":"    /* \"Campaign.sol\":637:7016  contract Campaign {... */\n  mstore(0x40, 0x80)\n    /* \"Campaign.sol\":1920:1921  0 */\n  0x00\n    /* \"Campaign.sol\":1891:1921  uint public approversCount = 0 */\n  0x0a\n  sstore\n    /* \"Campaign.sol\":2462:2949  constructor(... */\n  callvalue\n  dup1\n  iszero\n  tag_1\n  jumpi\n  revert(0x00, 0x00)\ntag_1:\n  pop\n  mload(0x40)\n  sub(codesize, bytecodeSize)\n  dup1\n  bytecodeSize\n  dup4\n  codecopy\n  dup2\n  dup2\n  add\n  0x40\n  mstore\n  dup2\n  add\n  swap1\n  tag_2\n  swap2\n  swap1\n  tag_3\n  jump\t// in\ntag_2:\n    /* \"Campaign.sol\":2680:2687  creator */\n  dup5\n    /* \"Campaign.sol\":2670:2677  manager */\n  0x07\n  0x00\n    /* \"Campaign.sol\":2670:2687  manager = creator */\n  0x0100\n  exp\n  dup2\n  sload\n  dup2\n  0xffffffffffffffffffffffffffffffffffffffff\n  mul\n  not\n  and\n  swap1\n  dup4\n  0xffffffffffffffffffffffffffffffffffffffff\n  and\n  mul\n  or\n  swap1\n  sstore\n  pop\n    /* \"Campaign.sol\":2720:2727  minimum */\n  dup6\n    /* \"Campaign.sol\":2698:2717  minimumContribution */\n  0x08\n    /* \"Campaign.sol\":2698:2727  minimumContribution = minimum */\n  dup2\n  swap1\n  sstore\n  pop\n    /* \"Campaign.sol\":2746:2752  _title */\n  dup4\n    /* \"Campaign.sol\":2738:2743  title */\n  0x00\n    /* \"Campaign.sol\":2738:2752  title = _title */\n  swap1\n  dup2\n  tag_6\n  swap2\n  swap1\n  tag_7\n  jump\t// in\ntag_6:\n  pop\n    /* \"Campaign.sol\":2777:2789  _description */\n  dup3\n    /* \"Campaign.sol\":2763:2774  description */\n  0x01\n    /* \"Campaign.sol\":2763:2789  description = _description */\n  swap1\n  dup2\n  tag_8\n  swap2\n  swap1\n  tag_7\n  jump\t// in\ntag_8:\n  pop\n    /* \"Campaign.sol\":2811:2820  _category */\n  dup2\n    /* \"Campaign.sol\":2800:2808  category */\n  0x02\n    /* \"Campaign.sol\":2800:2820  category = _category */\n  swap1\n  dup2\n  tag_9\n  swap2\n  swap1\n  tag_7\n  jump\t// in\ntag_9:\n  pop\n    /* \"Campaign.sol\":2838:2843  _goal */\n  dup1\n    /* \"Campaign.sol\":2831:2835  goal */\n  0x03\n    /* \"Campaign.sol\":2831:2843  goal = _goal */\n  dup2\n  swap1\n  sstore\n  pop\n    /* \"Campaign.sol\":2866:2881  block.timestamp */\n  timestamp\n    /* \"Campaign.sol\":2854:2863  createdAt */\n  0x04\n    /* \"Campaign.sol\":2854:2881  createdAt = block.timestamp */\n  dup2\n  swap1\n  sstore\n  pop\n    /* \"Campaign.sol\":2912:2913  0 */\n  0x00\n    /* \"Campaign.sol\":2892:2909  lastContributedAt */\n  0x05\n    /* \"Campaign.sol\":2892:2913  lastContributedAt = 0 */\n  dup2\n  swap1\n  sstore\n  pop\n    /* \"Campaign.sol\":2462:2949  constructor(... */\n  pop\n  pop\n  pop\n  pop\n  pop\n  pop\n    /* \"Campaign.sol\":637:7016  contract Campaign {... */\n  jump(tag_10)\n    /* \"#utility.yul\":7:82   */\ntag_11:\n    /* \"#utility.yul\":40:46   */\n  0x00\n    /* \"#utility.yul\":73:75   */\n  0x40\n    /* \"#utility.yul\":67:76   */\n  mload\n    /* \"#utility.yul\":57:76   */\n  swap1\n  pop\n    /* \"#utility.yul\":7:82   */\n  swap1\n  jump\t// out\n    /* \"#utility.yul\":88:205   */\ntag_12:\n    /* \"#utility.yul\":197:198   */\n  0x00\n    /* \"#utility.yul\":194:195   */\n  0x00\n    /* \"#utility.yul\":187:199   */\n  revert\n    /* \"#utility.yul\":211:328   */\ntag_13:\n    /* \"#utility.yul\":320:321   */\n  0x00\n    /* \"#utility.yul\":317:318   */\n  0x00\n    /* \"#utility.yul\":310:322   */\n  revert\n    /* \"#utility.yul\":334:411   */\ntag_14:\n    /* \"#utility.yul\":371:378   */\n  0x00\n    /* \"#utility.yul\":400:405   */\n  dup2\n    /* \"#utility.yul\":389:405   */\n  swap1\n  pop\n    /* \"#utility.yul\":334:411   */\n  swap2\n  swap1\n  pop\n  jump\t// out\n    /* \"#utility.yul\":417:539   */\ntag_15:\n    /* \"#utility.yul\":490:514   */\n  tag_55\n    /* \"#utility.yul\":508:513   */\n  dup2\n    /* \"#utility.yul\":490:514   */\n  tag_14\n  jump\t// in\ntag_55:\n    /* \"#utility.yul\":483:488   */\n  dup2\n    /* \"#utility.yul\":480:515   */\n  eq\n    /* \"#utility.yul\":470:533   */\n  tag_56\n  jumpi\n    /* \"#utility.yul\":529:530   */\n  0x00\n    /* \"#utility.yul\":526:527   */\n  0x00\n    /* \"#utility.yul\":519:531   */\n  revert\n    /* \"#utility.yul\":470:533   */\ntag_56:\n    /* \"#utility.yul\":417:539   */\n  pop\n  jump\t// out\n    /* \"#utility.yul\":545:688   */\ntag_16:\n    /* \"#utility.yul\":602:607   */\n  0x00\n    /* \"#utility.yul\":633:639   */\n  dup2\n    /* \"#utility.yul\":627:640   */\n  mload\n    /* \"#utility.yul\":618:640   */\n  swap1\n  pop\n    /* \"#utility.yul\":649:682   */\n  tag_58\n    /* \"#utility.yul\":676:681   */\n  dup2\n    /* \"#utility.yul\":649:682   */\n  tag_15\n  jump\t// in\ntag_58:\n    /* \"#utility.yul\":545:688   */\n  swap3\n  swap2\n  pop\n  pop\n  jump\t// out\n    /* \"#utility.yul\":694:820   */\ntag_17:\n    /* \"#utility.yul\":731:738   */\n  0x00\n    /* \"#utility.yul\":771:813   */\n  0xffffffffffffffffffffffffffffffffffffffff\n    /* \"#utility.yul\":764:769   */\n  dup3\n    /* \"#utility.yul\":760:814   */\n  and\n    /* \"#utility.yul\":749:814   */\n  swap1\n  pop\n    /* \"#utility.yul\":694:820   */\n  swap2\n  swap1\n  pop\n  jump\t// out\n    /* \"#utility.yul\":826:922   */\ntag_18:\n    /* \"#utility.yul\":863:870   */\n  0x00\n    /* \"#utility.yul\":892:916   */\n  tag_61\n    /* \"#utility.yul\":910:915   */\n  dup3\n    /* \"#utility.yul\":892:916   */\n  tag_17\n  jump\t// in\ntag_61:\n    /* \"#utility.yul\":881:916   */\n  swap1\n  pop\n    /* \"#utility.yul\":826:922   */\n  swap2\n  swap1\n  pop\n  jump\t// out\n    /* \"#utility.yul\":928:1050   */\ntag_19:\n    /* \"#utility.yul\":1001:1025   */\n  tag_63\n    /* \"#utility.yul\":1019:1024   */\n  dup2\n    /* \"#utility.yul\":1001:1025   */\n  tag_18\n  jump\t// in\ntag_63:\n    /* \"#utility.yul\":994:999   */\n  dup2\n    /* \"#utility.yul\":991:1026   */\n  eq\n    /* \"#utility.yul\":981:1044   */\n  tag_64\n  jumpi\n    /* \"#utility.yul\":1040:1041   */\n  0x00\n    /* \"#utility.yul\":1037:1038   */\n  0x00\n    /* \"#utility.yul\":1030:1042   */\n  revert\n    /* \"#utility.yul\":981:1044   */\ntag_64:\n    /* \"#utility.yul\":928:1050   */\n  pop\n  jump\t// out\n    /* \"#utility.yul\":1056:1199   */\ntag_20:\n    /* \"#utility.yul\":1113:1118   */\n  0x00\n    /* \"#utility.yul\":1144:1150   */\n  dup2\n    /* \"#utility.yul\":1138:1151   */\n  mload\n    /* \"#utility.yul\":1129:1151   */\n  swap1\n  pop\n    /* \"#utility.yul\":1160:1193   */\n  tag_66\n    /* \"#utility.yul\":1187:1192   */\n  dup2\n    /* \"#utility.yul\":1160:1193   */\n  tag_19\n  jump\t// in\ntag_66:\n    /* \"#utility.yul\":1056:1199   */\n  swap3\n  swap2\n  pop\n  pop\n  jump\t// out\n    /* \"#utility.yul\":1205:1322   */\ntag_21:\n    /* \"#utility.yul\":1314:1315   */\n  0x00\n    /* \"#utility.yul\":1311:1312   */\n  0x00\n    /* \"#utility.yul\":1304:1316   */\n  revert\n    /* \"#utility.yul\":1328:1445   */\ntag_22:\n    /* \"#utility.yul\":1437:1438   */\n  0x00\n    /* \"#utility.yul\":1434:1435   */\n  0x00\n    /* \"#utility.yul\":1427:1439   */\n  revert\n    /* \"#utility.yul\":1451:1553   */\ntag_23:\n    /* \"#utility.yul\":1492:1498   */\n  0x00\n    /* \"#utility.yul\":1543:1545   */\n  0x1f\n    /* \"#utility.yul\":1539:1546   */\n  not\n    /* \"#utility.yul\":1534:1536   */\n  0x1f\n    /* \"#utility.yul\":1527:1532   */\n  dup4\n    /* \"#utility.yul\":1523:1537   */\n  add\n    /* \"#utility.yul\":1519:1547   */\n  and\n    /* \"#utility.yul\":1509:1547   */\n  swap1\n  pop\n    /* \"#utility.yul\":1451:1553   */\n  swap2\n  swap1\n  pop\n  jump\t// out\n    /* \"#utility.yul\":1559:1739   */\ntag_24:\n    /* \"#utility.yul\":1607:1684   */\n  0x4e487b7100000000000000000000000000000000000000000000000000000000\n    /* \"#utility.yul\":1604:1605   */\n  0x00\n    /* \"#utility.yul\":1597:1685   */\n  mstore\n    /* \"#utility.yul\":1704:1708   */\n  0x41\n    /* \"#utility.yul\":1701:1702   */\n  0x04\n    /* \"#utility.yul\":1694:1709   */\n  mstore\n    /* \"#utility.yul\":1728:1732   */\n  0x24\n    /* \"#utility.yul\":1725:1726   */\n  0x00\n    /* \"#utility.yul\":1718:1733   */\n  revert\n    /* \"#utility.yul\":1745:2026   */\ntag_25:\n    /* \"#utility.yul\":1828:1855   */\n  tag_72\n    /* \"#utility.yul\":1850:1854   */\n  dup3\n    /* \"#utility.yul\":1828:1855   */\n  tag_23\n  jump\t// in\ntag_72:\n    /* \"#utility.yul\":1820:1826   */\n  dup2\n    /* \"#utility.yul\":1816:1856   */\n  add\n    /* \"#utility.yul\":1958:1964   */\n  dup2\n    /* \"#utility.yul\":1946:1956   */\n  dup2\n    /* \"#utility.yul\":1943:1965   */\n  lt\n    /* \"#utility.yul\":1922:1940   */\n  0xffffffffffffffff\n    /* \"#utility.yul\":1910:1920   */\n  dup3\n    /* \"#utility.yul\":1907:1941   */\n  gt\n    /* \"#utility.yul\":1904:1966   */\n  or\n    /* \"#utility.yul\":1901:1989   */\n  iszero\n  tag_73\n  jumpi\n    /* \"#utility.yul\":1969:1987   */\n  tag_74\n  tag_24\n  jump\t// in\ntag_74:\n    /* \"#utility.yul\":1901:1989   */\ntag_73:\n    /* \"#utility.yul\":2009:2019   */\n  dup1\n    /* \"#utility.yul\":2005:2007   */\n  0x40\n    /* \"#utility.yul\":1998:2020   */\n  mstore\n    /* \"#utility.yul\":1788:2026   */\n  pop\n    /* \"#utility.yul\":1745:2026   */\n  pop\n  pop\n  jump\t// out\n    /* \"#utility.yul\":2032:2161   */\ntag_26:\n    /* \"#utility.yul\":2066:2072   */\n  0x00\n    /* \"#utility.yul\":2093:2113   */\n  tag_76\n  tag_11\n  jump\t// in\ntag_76:\n    /* \"#utility.yul\":2083:2113   */\n  swap1\n  pop\n    /* \"#utility.yul\":2122:2155   */\n  tag_77\n    /* \"#utility.yul\":2150:2154   */\n  dup3\n    /* \"#utility.yul\":2142:2148   */\n  dup3\n    /* \"#utility.yul\":2122:2155   */\n  tag_25\n  jump\t// in\ntag_77:\n    /* \"#utility.yul\":2032:2161   */\n  swap2\n  swap1\n  pop\n  jump\t// out\n    /* \"#utility.yul\":2167:2475   */\ntag_27:\n    /* \"#utility.yul\":2229:2233   */\n  0x00\n    /* \"#utility.yul\":2319:2337   */\n  0xffffffffffffffff\n    /* \"#utility.yul\":2311:2317   */\n  dup3\n    /* \"#utility.yul\":2308:2338   */\n  gt\n    /* \"#utility.yul\":2305:2361   */\n  iszero\n  tag_79\n  jumpi\n    /* \"#utility.yul\":2341:2359   */\n  tag_80\n  tag_24\n  jump\t// in\ntag_80:\n    /* \"#utility.yul\":2305:2361   */\ntag_79:\n    /* \"#utility.yul\":2379:2408   */\n  tag_81\n    /* \"#utility.yul\":2401:2407   */\n  dup3\n    /* \"#utility.yul\":2379:2408   */\n  tag_23\n  jump\t// in\ntag_81:\n    /* \"#utility.yul\":2371:2408   */\n  swap1\n  pop\n    /* \"#utility.yul\":2463:2467   */\n  0x20\n    /* \"#utility.yul\":2457:2461   */\n  dup2\n    /* \"#utility.yul\":2453:2468   */\n  add\n    /* \"#utility.yul\":2445:2468   */\n  swap1\n  pop\n    /* \"#utility.yul\":2167:2475   */\n  swap2\n  swap1\n  pop\n  jump\t// out\n    /* \"#utility.yul\":2481:2620   */\ntag_28:\n    /* \"#utility.yul\":2570:2576   */\n  dup3\n    /* \"#utility.yul\":2565:2568   */\n  dup2\n    /* \"#utility.yul\":2560:2563   */\n  dup4\n    /* \"#utility.yul\":2554:2577   */\n  mcopy\n    /* \"#utility.yul\":2611:2612   */\n  0x00\n    /* \"#utility.yul\":2602:2608   */\n  dup4\n    /* \"#utility.yul\":2597:2600   */\n  dup4\n    /* \"#utility.yul\":2593:2609   */\n  add\n    /* \"#utility.yul\":2586:2613   */\n  mstore\n    /* \"#utility.yul\":2481:2620   */\n  pop\n  pop\n  pop\n  jump\t// out\n    /* \"#utility.yul\":2626:3060   */\ntag_29:\n    /* \"#utility.yul\":2715:2720   */\n  0x00\n    /* \"#utility.yul\":2740:2806   */\n  tag_84\n    /* \"#utility.yul\":2756:2805   */\n  tag_85\n    /* \"#utility.yul\":2798:2804   */\n  dup5\n    /* \"#utility.yul\":2756:2805   */\n  tag_27\n  jump\t// in\ntag_85:\n    /* \"#utility.yul\":2740:2806   */\n  tag_26\n  jump\t// in\ntag_84:\n    /* \"#utility.yul\":2731:2806   */\n  swap1\n  pop\n    /* \"#utility.yul\":2829:2835   */\n  dup3\n    /* \"#utility.yul\":2822:2827   */\n  dup2\n    /* \"#utility.yul\":2815:2836   */\n  mstore\n    /* \"#utility.yul\":2867:2871   */\n  0x20\n    /* \"#utility.yul\":2860:2865   */\n  dup2\n    /* \"#utility.yul\":2856:2872   */\n  add\n    /* \"#utility.yul\":2905:2908   */\n  dup5\n    /* \"#utility.yul\":2896:2902   */\n  dup5\n    /* \"#utility.yul\":2891:2894   */\n  dup5\n    /* \"#utility.yul\":2887:2903   */\n  add\n    /* \"#utility.yul\":2884:2909   */\n  gt\n    /* \"#utility.yul\":2881:2993   */\n  iszero\n  tag_86\n  jumpi\n    /* \"#utility.yul\":2912:2991   */\n  tag_87\n  tag_22\n  jump\t// in\ntag_87:\n    /* \"#utility.yul\":2881:2993   */\ntag_86:\n    /* \"#utility.yul\":3002:3054   */\n  tag_88\n    /* \"#utility.yul\":3047:3053   */\n  dup5\n    /* \"#utility.yul\":3042:3045   */\n  dup3\n    /* \"#utility.yul\":3037:3040   */\n  dup6\n    /* \"#utility.yul\":3002:3054   */\n  tag_28\n  jump\t// in\ntag_88:\n    /* \"#utility.yul\":2721:3060   */\n  pop\n    /* \"#utility.yul\":2626:3060   */\n  swap4\n  swap3\n  pop\n  pop\n  pop\n  jump\t// out\n    /* \"#utility.yul\":3080:3435   */\ntag_30:\n    /* \"#utility.yul\":3147:3152   */\n  0x00\n    /* \"#utility.yul\":3196:3199   */\n  dup3\n    /* \"#utility.yul\":3189:3193   */\n  0x1f\n    /* \"#utility.yul\":3181:3187   */\n  dup4\n    /* \"#utility.yul\":3177:3194   */\n  add\n    /* \"#utility.yul\":3173:3200   */\n  slt\n    /* \"#utility.yul\":3163:3285   */\n  tag_90\n  jumpi\n    /* \"#utility.yul\":3204:3283   */\n  tag_91\n  tag_21\n  jump\t// in\ntag_91:\n    /* \"#utility.yul\":3163:3285   */\ntag_90:\n    /* \"#utility.yul\":3314:3320   */\n  dup2\n    /* \"#utility.yul\":3308:3321   */\n  mload\n    /* \"#utility.yul\":3339:3429   */\n  tag_92\n    /* \"#utility.yul\":3425:3428   */\n  dup5\n    /* \"#utility.yul\":3417:3423   */\n  dup3\n    /* \"#utility.yul\":3410:3414   */\n  0x20\n    /* \"#utility.yul\":3402:3408   */\n  dup7\n    /* \"#utility.yul\":3398:3415   */\n  add\n    /* \"#utility.yul\":3339:3429   */\n  tag_29\n  jump\t// in\ntag_92:\n    /* \"#utility.yul\":3330:3429   */\n  swap2\n  pop\n    /* \"#utility.yul\":3153:3435   */\n  pop\n    /* \"#utility.yul\":3080:3435   */\n  swap3\n  swap2\n  pop\n  pop\n  jump\t// out\n    /* \"#utility.yul\":3441:5094   */\ntag_3:\n    /* \"#utility.yul\":3586:3592   */\n  0x00\n    /* \"#utility.yul\":3594:3600   */\n  0x00\n    /* \"#utility.yul\":3602:3608   */\n  0x00\n    /* \"#utility.yul\":3610:3616   */\n  0x00\n    /* \"#utility.yul\":3618:3624   */\n  0x00\n    /* \"#utility.yul\":3626:3632   */\n  0x00\n    /* \"#utility.yul\":3675:3678   */\n  0xc0\n    /* \"#utility.yul\":3663:3672   */\n  dup8\n    /* \"#utility.yul\":3654:3661   */\n  dup10\n    /* \"#utility.yul\":3650:3673   */\n  sub\n    /* \"#utility.yul\":3646:3679   */\n  slt\n    /* \"#utility.yul\":3643:3763   */\n  iszero\n  tag_94\n  jumpi\n    /* \"#utility.yul\":3682:3761   */\n  tag_95\n  tag_12\n  jump\t// in\ntag_95:\n    /* \"#utility.yul\":3643:3763   */\ntag_94:\n    /* \"#utility.yul\":3802:3803   */\n  0x00\n    /* \"#utility.yul\":3827:3891   */\n  tag_96\n    /* \"#utility.yul\":3883:3890   */\n  dup10\n    /* \"#utility.yul\":3874:3880   */\n  dup3\n    /* \"#utility.yul\":3863:3872   */\n  dup11\n    /* \"#utility.yul\":3859:3881   */\n  add\n    /* \"#utility.yul\":3827:3891   */\n  tag_16\n  jump\t// in\ntag_96:\n    /* \"#utility.yul\":3817:3891   */\n  swap7\n  pop\n    /* \"#utility.yul\":3773:3901   */\n  pop\n    /* \"#utility.yul\":3940:3942   */\n  0x20\n    /* \"#utility.yul\":3966:4030   */\n  tag_97\n    /* \"#utility.yul\":4022:4029   */\n  dup10\n    /* \"#utility.yul\":4013:4019   */\n  dup3\n    /* \"#utility.yul\":4002:4011   */\n  dup11\n    /* \"#utility.yul\":3998:4020   */\n  add\n    /* \"#utility.yul\":3966:4030   */\n  tag_20\n  jump\t// in\ntag_97:\n    /* \"#utility.yul\":3956:4030   */\n  swap6\n  pop\n    /* \"#utility.yul\":3911:4040   */\n  pop\n    /* \"#utility.yul\":4100:4102   */\n  0x40\n    /* \"#utility.yul\":4089:4098   */\n  dup8\n    /* \"#utility.yul\":4085:4103   */\n  add\n    /* \"#utility.yul\":4079:4104   */\n  mload\n    /* \"#utility.yul\":4131:4149   */\n  0xffffffffffffffff\n    /* \"#utility.yul\":4123:4129   */\n  dup2\n    /* \"#utility.yul\":4120:4150   */\n  gt\n    /* \"#utility.yul\":4117:4234   */\n  iszero\n  tag_98\n  jumpi\n    /* \"#utility.yul\":4153:4232   */\n  tag_99\n  tag_13\n  jump\t// in\ntag_99:\n    /* \"#utility.yul\":4117:4234   */\ntag_98:\n    /* \"#utility.yul\":4258:4332   */\n  tag_100\n    /* \"#utility.yul\":4324:4331   */\n  dup10\n    /* \"#utility.yul\":4315:4321   */\n  dup3\n    /* \"#utility.yul\":4304:4313   */\n  dup11\n    /* \"#utility.yul\":4300:4322   */\n  add\n    /* \"#utility.yul\":4258:4332   */\n  tag_30\n  jump\t// in\ntag_100:\n    /* \"#utility.yul\":4248:4332   */\n  swap5\n  pop\n    /* \"#utility.yul\":4050:4342   */\n  pop\n    /* \"#utility.yul\":4402:4404   */\n  0x60\n    /* \"#utility.yul\":4391:4400   */\n  dup8\n    /* \"#utility.yul\":4387:4405   */\n  add\n    /* \"#utility.yul\":4381:4406   */\n  mload\n    /* \"#utility.yul\":4433:4451   */\n  0xffffffffffffffff\n    /* \"#utility.yul\":4425:4431   */\n  dup2\n    /* \"#utility.yul\":4422:4452   */\n  gt\n    /* \"#utility.yul\":4419:4536   */\n  iszero\n  tag_101\n  jumpi\n    /* \"#utility.yul\":4455:4534   */\n  tag_102\n  tag_13\n  jump\t// in\ntag_102:\n    /* \"#utility.yul\":4419:4536   */\ntag_101:\n    /* \"#utility.yul\":4560:4634   */\n  tag_103\n    /* \"#utility.yul\":4626:4633   */\n  dup10\n    /* \"#utility.yul\":4617:4623   */\n  dup3\n    /* \"#utility.yul\":4606:4615   */\n  dup11\n    /* \"#utility.yul\":4602:4624   */\n  add\n    /* \"#utility.yul\":4560:4634   */\n  tag_30\n  jump\t// in\ntag_103:\n    /* \"#utility.yul\":4550:4634   */\n  swap4\n  pop\n    /* \"#utility.yul\":4352:4644   */\n  pop\n    /* \"#utility.yul\":4704:4707   */\n  0x80\n    /* \"#utility.yul\":4693:4702   */\n  dup8\n    /* \"#utility.yul\":4689:4708   */\n  add\n    /* \"#utility.yul\":4683:4709   */\n  mload\n    /* \"#utility.yul\":4736:4754   */\n  0xffffffffffffffff\n    /* \"#utility.yul\":4728:4734   */\n  dup2\n    /* \"#utility.yul\":4725:4755   */\n  gt\n    /* \"#utility.yul\":4722:4839   */\n  iszero\n  tag_104\n  jumpi\n    /* \"#utility.yul\":4758:4837   */\n  tag_105\n  tag_13\n  jump\t// in\ntag_105:\n    /* \"#utility.yul\":4722:4839   */\ntag_104:\n    /* \"#utility.yul\":4863:4937   */\n  tag_106\n    /* \"#utility.yul\":4929:4936   */\n  dup10\n    /* \"#utility.yul\":4920:4926   */\n  dup3\n    /* \"#utility.yul\":4909:4918   */\n  dup11\n    /* \"#utility.yul\":4905:4927   */\n  add\n    /* \"#utility.yul\":4863:4937   */\n  tag_30\n  jump\t// in\ntag_106:\n    /* \"#utility.yul\":4853:4937   */\n  swap3\n  pop\n    /* \"#utility.yul\":4654:4947   */\n  pop\n    /* \"#utility.yul\":4986:4989   */\n  0xa0\n    /* \"#utility.yul\":5013:5077   */\n  tag_107\n    /* \"#utility.yul\":5069:5076   */\n  dup10\n    /* \"#utility.yul\":5060:5066   */\n  dup3\n    /* \"#utility.yul\":5049:5058   */\n  dup11\n    /* \"#utility.yul\":5045:5067   */\n  add\n    /* \"#utility.yul\":5013:5077   */\n  tag_16\n  jump\t// in\ntag_107:\n    /* \"#utility.yul\":5003:5077   */\n  swap2\n  pop\n    /* \"#utility.yul\":4957:5087   */\n  pop\n    /* \"#utility.yul\":3441:5094   */\n  swap3\n  swap6\n  pop\n  swap3\n  swap6\n  pop\n  swap3\n  swap6\n  jump\t// out\n    /* \"#utility.yul\":5100:5199   */\ntag_31:\n    /* \"#utility.yul\":5152:5158   */\n  0x00\n    /* \"#utility.yul\":5186:5191   */\n  dup2\n    /* \"#utility.yul\":5180:5192   */\n  mload\n    /* \"#utility.yul\":5170:5192   */\n  swap1\n  pop\n    /* \"#utility.yul\":5100:5199   */\n  swap2\n  swap1\n  pop\n  jump\t// out\n    /* \"#utility.yul\":5205:5385   */\ntag_32:\n    /* \"#utility.yul\":5253:5330   */\n  0x4e487b7100000000000000000000000000000000000000000000000000000000\n    /* \"#utility.yul\":5250:5251   */\n  0x00\n    /* \"#utility.yul\":5243:5331   */\n  mstore\n    /* \"#utility.yul\":5350:5354   */\n  0x22\n    /* \"#utility.yul\":5347:5348   */\n  0x04\n    /* \"#utility.yul\":5340:5355   */\n  mstore\n    /* \"#utility.yul\":5374:5378   */\n  0x24\n    /* \"#utility.yul\":5371:5372   */\n  0x00\n    /* \"#utility.yul\":5364:5379   */\n  revert\n    /* \"#utility.yul\":5391:5711   */\ntag_33:\n    /* \"#utility.yul\":5435:5441   */\n  0x00\n    /* \"#utility.yul\":5472:5473   */\n  0x02\n    /* \"#utility.yul\":5466:5470   */\n  dup3\n    /* \"#utility.yul\":5462:5474   */\n  div\n    /* \"#utility.yul\":5452:5474   */\n  swap1\n  pop\n    /* \"#utility.yul\":5519:5520   */\n  0x01\n    /* \"#utility.yul\":5513:5517   */\n  dup3\n    /* \"#utility.yul\":5509:5521   */\n  and\n    /* \"#utility.yul\":5540:5558   */\n  dup1\n    /* \"#utility.yul\":5530:5611   */\n  tag_111\n  jumpi\n    /* \"#utility.yul\":5596:5600   */\n  0x7f\n    /* \"#utility.yul\":5588:5594   */\n  dup3\n    /* \"#utility.yul\":5584:5601   */\n  and\n    /* \"#utility.yul\":5574:5601   */\n  swap2\n  pop\n    /* \"#utility.yul\":5530:5611   */\ntag_111:\n    /* \"#utility.yul\":5658:5660   */\n  0x20\n    /* \"#utility.yul\":5650:5656   */\n  dup3\n    /* \"#utility.yul\":5647:5661   */\n  lt\n    /* \"#utility.yul\":5627:5645   */\n  dup2\n    /* \"#utility.yul\":5624:5662   */\n  sub\n    /* \"#utility.yul\":5621:5705   */\n  tag_112\n  jumpi\n    /* \"#utility.yul\":5677:5695   */\n  tag_113\n  tag_32\n  jump\t// in\ntag_113:\n    /* \"#utility.yul\":5621:5705   */\ntag_112:\n    /* \"#utility.yul\":5442:5711   */\n  pop\n    /* \"#utility.yul\":5391:5711   */\n  swap2\n  swap1\n  pop\n  jump\t// out\n    /* \"#utility.yul\":5717:5858   */\ntag_34:\n    /* \"#utility.yul\":5766:5770   */\n  0x00\n    /* \"#utility.yul\":5789:5792   */\n  dup2\n    /* \"#utility.yul\":5781:5792   */\n  swap1\n  pop\n    /* \"#utility.yul\":5812:5815   */\n  dup2\n    /* \"#utility.yul\":5809:5810   */\n  0x00\n    /* \"#utility.yul\":5802:5816   */\n  mstore\n    /* \"#utility.yul\":5846:5850   */\n  0x20\n    /* \"#utility.yul\":5843:5844   */\n  0x00\n    /* \"#utility.yul\":5833:5851   */\n  keccak256\n    /* \"#utility.yul\":5825:5851   */\n  swap1\n  pop\n    /* \"#utility.yul\":5717:5858   */\n  swap2\n  swap1\n  pop\n  jump\t// out\n    /* \"#utility.yul\":5864:5957   */\ntag_35:\n    /* \"#utility.yul\":5901:5907   */\n  0x00\n    /* \"#utility.yul\":5948:5950   */\n  0x20\n    /* \"#utility.yul\":5943:5945   */\n  0x1f\n    /* \"#utility.yul\":5936:5941   */\n  dup4\n    /* \"#utility.yul\":5932:5946   */\n  add\n    /* \"#utility.yul\":5928:5951   */\n  div\n    /* \"#utility.yul\":5918:5951   */\n  swap1\n  pop\n    /* \"#utility.yul\":5864:5957   */\n  swap2\n  swap1\n  pop\n  jump\t// out\n    /* \"#utility.yul\":5963:6070   */\ntag_36:\n    /* \"#utility.yul\":6007:6015   */\n  0x00\n    /* \"#utility.yul\":6057:6062   */\n  dup3\n    /* \"#utility.yul\":6051:6055   */\n  dup3\n    /* \"#utility.yul\":6047:6063   */\n  shl\n    /* \"#utility.yul\":6026:6063   */\n  swap1\n  pop\n    /* \"#utility.yul\":5963:6070   */\n  swap3\n  swap2\n  pop\n  pop\n  jump\t// out\n    /* \"#utility.yul\":6076:6469   */\ntag_37:\n    /* \"#utility.yul\":6145:6151   */\n  0x00\n    /* \"#utility.yul\":6195:6196   */\n  0x08\n    /* \"#utility.yul\":6183:6193   */\n  dup4\n    /* \"#utility.yul\":6179:6197   */\n  mul\n    /* \"#utility.yul\":6218:6315   */\n  tag_118\n    /* \"#utility.yul\":6248:6314   */\n  0xffffffffffffffffffffffffffffffffffffffffffffffffffffffffffffffff\n    /* \"#utility.yul\":6237:6246   */\n  dup3\n    /* \"#utility.yul\":6218:6315   */\n  tag_36\n  jump\t// in\ntag_118:\n    /* \"#utility.yul\":6336:6375   */\n  tag_119\n    /* \"#utility.yul\":6366:6374   */\n  dup7\n    /* \"#utility.yul\":6355:6364   */\n  dup4\n    /* \"#utility.yul\":6336:6375   */\n  tag_36\n  jump\t// in\ntag_119:\n    /* \"#utility.yul\":6324:6375   */\n  swap6\n  pop\n    /* \"#utility.yul\":6408:6412   */\n  dup1\n    /* \"#utility.yul\":6404:6413   */\n  not\n    /* \"#utility.yul\":6397:6402   */\n  dup5\n    /* \"#utility.yul\":6393:6414   */\n  and\n    /* \"#utility.yul\":6384:6414   */\n  swap4\n  pop\n    /* \"#utility.yul\":6457:6461   */\n  dup1\n    /* \"#utility.yul\":6447:6455   */\n  dup7\n    /* \"#utility.yul\":6443:6462   */\n  and\n    /* \"#utility.yul\":6436:6441   */\n  dup5\n    /* \"#utility.yul\":6433:6463   */\n  or\n    /* \"#utility.yul\":6423:6463   */\n  swap3\n  pop\n    /* \"#utility.yul\":6152:6469   */\n  pop\n  pop\n    /* \"#utility.yul\":6076:6469   */\n  swap4\n  swap3\n  pop\n  pop\n  pop\n  jump\t// out\n    /* \"#utility.yul\":6475:6535   */\ntag_38:\n    /* \"#utility.yul\":6503:6506   */\n  0x00\n    /* \"#utility.yul\":6524:6529   */\n  dup2\n    /* \"#utility.yul\":6517:6529   */\n  swap1\n  pop\n    /* \"#utility.yul\":6475:6535   */\n  swap2\n  swap1\n  pop\n  jump\t// out\n    /* \"#utility.yul\":6541:6683   */\ntag_39:\n    /* \"#utility.yul\":6591:6600   */\n  0x00\n    /* \"#utility.yul\":6624:6677   */\n  tag_122\n    /* \"#utility.yul\":6642:6676   */\n  tag_123\n    /* \"#utility.yul\":6651:6675   */\n  tag_124\n    /* \"#utility.yul\":6669:6674   */\n  dup5\n    /* \"#utility.yul\":6651:6675   */\n  tag_14\n  jump\t// in\ntag_124:\n    /* \"#utility.yul\":6642:6676   */\n  tag_38\n  jump\t// in\ntag_123:\n    /* \"#utility.yul\":6624:6677   */\n  tag_14\n  jump\t// in\ntag_122:\n    /* \"#utility.yul\":6611:6677   */\n  swap1\n  pop\n    /* \"#utility.yul\":6541:6683   */\n  swap2\n  swap1\n  pop\n  jump\t// out\n    /* \"#utility.yul\":6689:6764   */\ntag_40:\n    /* \"#utility.yul\":6732:6735   */\n  0x00\n    /* \"#utility.yul\":6753:6758   */\n  dup2\n    /* \"#utility.yul\":6746:6758   */\n  swap1\n  pop\n    /* \"#utility.yul\":6689:6764   */\n  swap2\n  swap1\n  pop\n  jump\t// out\n    /* \"#utility.yul\":6770:7039   */\ntag_41:\n    /* \"#utility.yul\":6880:6919   */\n  tag_127\n    /* \"#utility.yul\":6911:6918   */\n  dup4\n    /* \"#utility.yul\":6880:6919   */\n  tag_39\n  jump\t// in\ntag_127:\n    /* \"#utility.yul\":6941:7032   */\n  tag_128\n    /* \"#utility.yul\":6990:7031   */\n  tag_129\n    /* \"#utility.yul\":7014:7030   */\n  dup3\n    /* \"#utility.yul\":6990:7031   */\n  tag_40\n  jump\t// in\ntag_129:\n    /* \"#utility.yul\":6982:6988   */\n  dup5\n    /* \"#utility.yul\":6975:6979   */\n  dup5\n    /* \"#utility.yul\":6969:6980   */\n  sload\n    /* \"#utility.yul\":6941:7032   */\n  tag_37\n  jump\t// in\ntag_128:\n    /* \"#utility.yul\":6935:6939   */\n  dup3\n    /* \"#utility.yul\":6928:7033   */\n  sstore\n    /* \"#utility.yul\":6846:7039   */\n  pop\n    /* \"#utility.yul\":6770:7039   */\n  pop\n  pop\n  pop\n  jump\t// out\n    /* \"#utility.yul\":7045:7118   */\ntag_42:\n    /* \"#utility.yul\":7090:7093   */\n  0x00\n    /* \"#utility.yul\":7111:7112   */\n  0x00\n    /* \"#utility.yul\":7104:7112   */\n  swap1\n  pop\n    /* \"#utility.yul\":7045:7118   */\n  swap1\n  jump\t// out\n    /* \"#utility.yul\":7124:7313   */\ntag_43:\n    /* \"#utility.yul\":7201:7233   */\n  tag_132\n  tag_42\n  jump\t// in\ntag_132:\n    /* \"#utility.yul\":7242:7307   */\n  tag_133\n    /* \"#utility.yul\":7300:7306   */\n  dup2\n    /* \"#utility.yul\":7292:7298   */\n  dup5\n    /* \"#utility.yul\":7286:7290   */\n  dup5\n    /* \"#utility.yul\":7242:7307   */\n  tag_41\n  jump\t// in\ntag_133:\n    /* \"#utility.yul\":7177:7313   */\n  pop\n    /* \"#utility.yul\":7124:7313   */\n  pop\n  pop\n  jump\t// out\n    /* \"#utility.yul\":7319:7505   */\ntag_44:\n    /* \"#utility.yul\":7379:7499   */\ntag_135:\n    /* \"#utility.yul\":7396:7399   */\n  dup2\n    /* \"#utility.yul\":7389:7394   */\n  dup2\n    /* \"#utility.yul\":7386:7400   */\n  lt\n    /* \"#utility.yul\":7379:7499   */\n  iszero\n  tag_137\n  jumpi\n    /* \"#utility.yul\":7450:7489   */\n  tag_138\n    /* \"#utility.yul\":7487:7488   */\n  0x00\n    /* \"#utility.yul\":7480:7485   */\n  dup3\n    /* \"#utility.yul\":7450:7489   */\n  tag_43\n  jump\t// in\ntag_138:\n    /* \"#utility.yul\":7423:7424   */\n  0x01\n    /* \"#utility.yul\":7416:7421   */\n  dup2\n    /* \"#utility.yul\":7412:7425   */\n  add\n    /* \"#utility.yul\":7403:7425   */\n  swap1\n  pop\n    /* \"#utility.yul\":7379:7499   */\n  jump(tag_135)\ntag_137:\n    /* \"#utility.yul\":7319:7505   */\n  pop\n  pop\n  jump\t// out\n    /* \"#utility.yul\":7511:8054   */\ntag_45:\n    /* \"#utility.yul\":7612:7614   */\n  0x1f\n    /* \"#utility.yul\":7607:7610   */\n  dup3\n    /* \"#utility.yul\":7604:7615   */\n  gt\n    /* \"#utility.yul\":7601:8047   */\n  iszero\n  tag_140\n  jumpi\n    /* \"#utility.yul\":7646:7684   */\n  tag_141\n    /* \"#utility.yul\":7678:7683   */\n  dup2\n    /* \"#utility.yul\":7646:7684   */\n  tag_34\n  jump\t// in\ntag_141:\n    /* \"#utility.yul\":7730:7759   */\n  tag_142\n    /* \"#utility.yul\":7748:7758   */\n  dup5\n    /* \"#utility.yul\":7730:7759   */\n  tag_35\n  jump\t// in\ntag_142:\n    /* \"#utility.yul\":7720:7728   */\n  dup2\n    /* \"#utility.yul\":7716:7760   */\n  add\n    /* \"#utility.yul\":7913:7915   */\n  0x20\n    /* \"#utility.yul\":7901:7911   */\n  dup6\n    /* \"#utility.yul\":7898:7916   */\n  lt\n    /* \"#utility.yul\":7895:7944   */\n  iszero\n  tag_143\n  jumpi\n    /* \"#utility.yul\":7934:7942   */\n  dup2\n    /* \"#utility.yul\":7919:7942   */\n  swap1\n  pop\n    /* \"#utility.yul\":7895:7944   */\ntag_143:\n    /* \"#utility.yul\":7957:8037   */\n  tag_144\n    /* \"#utility.yul\":8013:8035   */\n  tag_145\n    /* \"#utility.yul\":8031:8034   */\n  dup6\n    /* \"#utility.yul\":8013:8035   */\n  tag_35\n  jump\t// in\ntag_145:\n    /* \"#utility.yul\":8003:8011   */\n  dup4\n    /* \"#utility.yul\":7999:8036   */\n  add\n    /* \"#utility.yul\":7986:7997   */\n  dup3\n    /* \"#utility.yul\":7957:8037   */\n  tag_44\n  jump\t// in\ntag_144:\n    /* \"#utility.yul\":7616:8047   */\n  pop\n  pop\n    /* \"#utility.yul\":7601:8047   */\ntag_140:\n    /* \"#utility.yul\":7511:8054   */\n  pop\n  pop\n  pop\n  jump\t// out\n    /* \"#utility.yul\":8060:8177   */\ntag_46:\n    /* \"#utility.yul\":8114:8122   */\n  0x00\n    /* \"#utility.yul\":8164:8169   */\n  dup3\n    /* \"#utility.yul\":8158:8162   */\n  dup3\n    /* \"#utility.yul\":8154:8170   */\n  shr\n    /* \"#utility.yul\":8133:8170   */\n  swap1\n  pop\n    /* \"#utility.yul\":8060:8177   */\n  swap3\n  swap2\n  pop\n  pop\n  jump\t// out\n    /* \"#utility.yul\":8183:8352   */\ntag_47:\n    /* \"#utility.yul\":8227:8233   */\n  0x00\n    /* \"#utility.yul\":8260:8311   */\n  tag_148\n    /* \"#utility.yul\":8308:8309   */\n  0x00\n    /* \"#utility.yul\":8304:8310   */\n  not\n    /* \"#utility.yul\":8296:8301   */\n  dup5\n    /* \"#utility.yul\":8293:8294   */\n  0x08\n    /* \"#utility.yul\":8289:8302   */\n  mul\n    /* \"#utility.yul\":8260:8311   */\n  tag_46\n  jump\t// in\ntag_148:\n    /* \"#utility.yul\":8256:8312   */\n  not\n    /* \"#utility.yul\":8341:8345   */\n  dup1\n    /* \"#utility.yul\":8335:8339   */\n  dup4\n    /* \"#utility.yul\":8331:8346   */\n  and\n    /* \"#utility.yul\":8321:8346   */\n  swap2\n  pop\n    /* \"#utility.yul\":8234:8352   */\n  pop\n    /* \"#utility.yul\":8183:8352   */\n  swap3\n  swap2\n  pop\n  pop\n  jump\t// out\n    /* \"#utility.yul\":8357:8652   */\ntag_48:\n    /* \"#utility.yul\":8433:8437   */\n  0x00\n    /* \"#utility.yul\":8579:8608   */\n  tag_150\n    /* \"#utility.yul\":8604:8607   */\n  dup4\n    /* \"#utility.yul\":8598:8602   */\n  dup4\n    /* \"#utility.yul\":8579:8608   */\n  tag_47\n  jump\t// in\ntag_150:\n    /* \"#utility.yul\":8571:8608   */\n  swap2\n  pop\n    /* \"#utility.yul\":8641:8644   */\n  dup3\n    /* \"#utility.yul\":8638:8639   */\n  0x02\n    /* \"#utility.yul\":8634:8645   */\n  mul\n    /* \"#utility.yul\":8628:8632   */\n  dup3\n    /* \"#utility.yul\":8625:8646   */\n  or\n    /* \"#utility.yul\":8617:8646   */\n  swap1\n  pop\n    /* \"#utility.yul\":8357:8652   */\n  swap3\n  swap2\n  pop\n  pop\n  jump\t// out\n    /* \"#utility.yul\":8657:10052   */\ntag_7:\n    /* \"#utility.yul\":8774:8811   */\n  tag_152\n    /* \"#utility.yul\":8807:8810   */\n  dup3\n    /* \"#utility.yul\":8774:8811   */\n  tag_31\n  jump\t// in\ntag_152:\n    /* \"#utility.yul\":8876:8894   */\n  0xffffffffffffffff\n    /* \"#utility.yul\":8868:8874   */\n  dup2\n    /* \"#utility.yul\":8865:8895   */\n  gt\n    /* \"#utility.yul\":8862:8918   */\n  iszero\n  tag_153\n  jumpi\n    /* \"#utility.yul\":8898:8916   */\n  tag_154\n  tag_24\n  jump\t// in\ntag_154:\n    /* \"#utility.yul\":8862:8918   */\ntag_153:\n    /* \"#utility.yul\":8942:8980   */\n  tag_155\n    /* \"#utility.yul\":8974:8978   */\n  dup3\n    /* \"#utility.yul\":8968:8979   */\n  sload\n    /* \"#utility.yul\":8942:8980   */\n  tag_33\n  jump\t// in\ntag_155:\n    /* \"#utility.yul\":9027:9094   */\n  tag_156\n    /* \"#utility.yul\":9087:9093   */\n  dup3\n    /* \"#utility.yul\":9079:9085   */\n  dup3\n    /* \"#utility.yul\":9073:9077   */\n  dup6\n    /* \"#utility.yul\":9027:9094   */\n  tag_45\n  jump\t// in\ntag_156:\n    /* \"#utility.yul\":9121:9122   */\n  0x00\n    /* \"#utility.yul\":9145:9149   */\n  0x20\n    /* \"#utility.yul\":9132:9149   */\n  swap1\n  pop\n    /* \"#utility.yul\":9177:9179   */\n  0x1f\n    /* \"#utility.yul\":9169:9175   */\n  dup4\n    /* \"#utility.yul\":9166:9180   */\n  gt\n    /* \"#utility.yul\":9194:9195   */\n  0x01\n    /* \"#utility.yul\":9189:9807   */\n  dup2\n  eq\n  tag_158\n  jumpi\n    /* \"#utility.yul\":9851:9852   */\n  0x00\n    /* \"#utility.yul\":9868:9874   */\n  dup5\n    /* \"#utility.yul\":9865:9942   */\n  iszero\n  tag_159\n  jumpi\n    /* \"#utility.yul\":9917:9926   */\n  dup3\n    /* \"#utility.yul\":9912:9915   */\n  dup8\n    /* \"#utility.yul\":9908:9927   */\n  add\n    /* \"#utility.yul\":9902:9928   */\n  mload\n    /* \"#utility.yul\":9893:9928   */\n  swap1\n  pop\n    /* \"#utility.yul\":9865:9942   */\ntag_159:\n    /* \"#utility.yul\":9968:10035   */\n  tag_160\n    /* \"#utility.yul\":10028:10034   */\n  dup6\n    /* \"#utility.yul\":10021:10026   */\n  dup3\n    /* \"#utility.yul\":9968:10035   */\n  tag_48\n  jump\t// in\ntag_160:\n    /* \"#utility.yul\":9962:9966   */\n  dup7\n    /* \"#utility.yul\":9955:10036   */\n  sstore\n    /* \"#utility.yul\":9824:10046   */\n  pop\n    /* \"#utility.yul\":9159:10046   */\n  jump(tag_157)\n    /* \"#utility.yul\":9189:9807   */\ntag_158:\n    /* \"#utility.yul\":9241:9245   */\n  0x1f\n    /* \"#utility.yul\":9237:9246   */\n  not\n    /* \"#utility.yul\":9229:9235   */\n  dup5\n    /* \"#utility.yul\":9225:9247   */\n  and\n    /* \"#utility.yul\":9275:9312   */\n  tag_161\n    /* \"#utility.yul\":9307:9311   */\n  dup7\n    /* \"#utility.yul\":9275:9312   */\n  tag_34\n  jump\t// in\ntag_161:\n    /* \"#utility.yul\":9334:9335   */\n  0x00\n    /* \"#utility.yul\":9348:9556   */\ntag_162:\n    /* \"#utility.yul\":9362:9369   */\n  dup3\n    /* \"#utility.yul\":9359:9360   */\n  dup2\n    /* \"#utility.yul\":9356:9370   */\n  lt\n    /* \"#utility.yul\":9348:9556   */\n  iszero\n  tag_164\n  jumpi\n    /* \"#utility.yul\":9441:9450   */\n  dup5\n    /* \"#utility.yul\":9436:9439   */\n  dup10\n    /* \"#utility.yul\":9432:9451   */\n  add\n    /* \"#utility.yul\":9426:9452   */\n  mload\n    /* \"#utility.yul\":9418:9424   */\n  dup3\n    /* \"#utility.yul\":9411:9453   */\n  sstore\n    /* \"#utility.yul\":9492:9493   */\n  0x01\n    /* \"#utility.yul\":9484:9490   */\n  dup3\n    /* \"#utility.yul\":9480:9494   */\n  add\n    /* \"#utility.yul\":9470:9494   */\n  swap2\n  pop\n    /* \"#utility.yul\":9539:9541   */\n  0x20\n    /* \"#utility.yul\":9528:9537   */\n  dup6\n    /* \"#utility.yul\":9524:9542   */\n  add\n    /* \"#utility.yul\":9511:9542   */\n  swap5\n  pop\n    /* \"#utility.yul\":9385:9389   */\n  0x20\n    /* \"#utility.yul\":9382:9383   */\n  dup2\n    /* \"#utility.yul\":9378:9390   */\n  add\n    /* \"#utility.yul\":9373:9390   */\n  swap1\n  pop\n    /* \"#utility.yul\":9348:9556   */\n  jump(tag_162)\ntag_164:\n    /* \"#utility.yul\":9584:9590   */\n  dup7\n    /* \"#utility.yul\":9575:9582   */\n  dup4\n    /* \"#utility.yul\":9572:9591   */\n  lt\n    /* \"#utility.yul\":9569:9748   */\n  iszero\n  tag_165\n  jumpi\n    /* \"#utility.yul\":9642:9651   */\n  dup5\n    /* \"#utility.yul\":9637:9640   */\n  dup10\n    /* \"#utility.yul\":9633:9652   */\n  add\n    /* \"#utility.yul\":9627:9653   */\n  mload\n    /* \"#utility.yul\":9685:9733   */\n  tag_166\n    /* \"#utility.yul\":9727:9731   */\n  0x1f\n    /* \"#utility.yul\":9719:9725   */\n  dup10\n    /* \"#utility.yul\":9715:9732   */\n  and\n    /* \"#utility.yul\":9704:9713   */\n  dup3\n    /* \"#utility.yul\":9685:9733   */\n  tag_47\n  jump\t// in\ntag_166:\n    /* \"#utility.yul\":9677:9683   */\n  dup4\n    /* \"#utility.yul\":9670:9734   */\n  sstore\n    /* \"#utility.yul\":9592:9748   */\n  pop\n    /* \"#utility.yul\":9569:9748   */\ntag_165:\n    /* \"#utility.yul\":9794:9795   */\n  0x01\n    /* \"#utility.yul\":9790:9791   */\n  0x02\n    /* \"#utility.yul\":9782:9788   */\n  dup9\n    /* \"#utility.yul\":9778:9792   */\n  mul\n    /* \"#utility.yul\":9774:9796   */\n  add\n    /* \"#utility.yul\":9768:9772   */\n  dup9\n    /* \"#utility.yul\":9761:9797   */\n  sstore\n    /* \"#utility.yul\":9196:9807   */\n  pop\n  pop\n  pop\n    /* \"#utility.yul\":9159:10046   */\ntag_157:\n  pop\n    /* \"#utility.yul\":8749:10052   */\n  pop\n  pop\n  pop\n    /* \"#utility.yul\":8657:10052   */\n  pop\n  pop\n  jump\t// out\n    /* \"Campaign.sol\":637:7016  contract Campaign {... */\ntag_10:\n  dataSize(sub_0)\n  dup1\n  dataOffset(sub_0)\n  0x00\n  codecopy\n  0x00\n  return\nstop\n\nsub_0: assembly {\n        /* \"Campaign.sol\":637:7016  contract Campaign {... */\n      mstore(0x40, 0x80)\n      jumpi(tag_1, lt(calldatasize, 0x04))\n      shr(0xe0, calldataload(0x00))\n      dup1\n      0x81d12c58\n      gt\n      tag_19\n      jumpi\n      dup1\n      0xb4f73584\n      gt\n      tag_20\n      jumpi\n      dup1\n      0xb4f73584\n      eq\n      tag_14\n      jumpi\n      dup1\n      0xcf09e0d0\n      eq\n      tag_15\n      jumpi\n      dup1\n      0xd7bb99ba\n      eq\n      tag_16\n      jumpi\n      dup1\n      0xd7d1bbdb\n      eq\n      tag_17\n      jumpi\n      dup1\n      0xef430aa6\n      eq\n      tag_18\n      jumpi\n      jump(tag_1)\n    tag_20:\n      dup1\n      0x81d12c58\n      eq\n      tag_10\n      jumpi\n      dup1\n      0x82fde093\n      eq\n      tag_11\n      jumpi\n      dup1\n      0x8a9cfd55\n      eq\n      tag_12\n      jumpi\n      dup1\n      0x937e09b1\n      eq\n      tag_13\n      jumpi\n      jump(tag_1)\n    tag_19:\n      dup1\n      0x4051ddac\n      gt\n      tag_21\n      jumpi\n      dup1\n      0x4051ddac\n      eq\n      tag_6\n      jumpi\n      dup1\n      0x481c6a75\n      eq\n      tag_7\n      jumpi\n      dup1\n      0x4a79d50c\n      eq\n      tag_8\n      jumpi\n      dup1\n      0x7284e416\n      eq\n      tag_9\n      jumpi\n      jump(tag_1)\n    tag_21:\n      dup1\n      0x03441006\n      eq\n      tag_2\n      jumpi\n      dup1\n      0x0a144391\n      eq\n      tag_3\n      jumpi\n      dup1\n      0x3410452a\n      eq\n      tag_4\n      jumpi\n      dup1\n      0x40193883\n      eq\n      tag_5\n      jumpi\n    tag_1:\n      revert(0x00, 0x00)\n        /* \"Campaign.sol\":5422:5881  function finalizeRequest(uint index) public restricted {... */\n    tag_2:\n      callvalue\n      dup1\n      iszero\n      tag_22\n      jumpi\n      revert(0x00, 0x00)\n    tag_22:\n      pop\n      tag_23\n      0x04\n      dup1\n      calldatasize\n      sub\n      dup2\n      add\n      swap1\n      tag_24\n      swap2\n      swap1\n      tag_25\n      jump\t// in\n    tag_24:\n      tag_26\n      jump\t// in\n    tag_23:\n      stop\n        /* \"Campaign.sol\":1843:1884  mapping(address => bool) public approvers */\n    tag_3:\n      callvalue\n      dup1\n      iszero\n      tag_27\n      jumpi\n      revert(0x00, 0x00)\n    tag_27:\n      pop\n      tag_28\n      0x04\n      dup1\n      calldatasize\n      sub\n      dup2\n      add\n      swap1\n      tag_29\n      swap2\n      swap1\n      tag_30\n      jump\t// in\n    tag_29:\n      tag_31\n      jump\t// in\n    tag_28:\n      mload(0x40)\n      tag_32\n      swap2\n      swap1\n      tag_33\n      jump\t// in\n    tag_32:\n      mload(0x40)\n      dup1\n      swap2\n      sub\n      swap1\n      return\n        /* \"Campaign.sol\":6092:6188  function getRequestsCount() public view returns (uint) {... */\n    tag_4:\n      callvalue\n      dup1\n      iszero\n      tag_34\n      jumpi\n      revert(0x00, 0x00)\n    tag_34:\n      pop\n      tag_35\n      tag_36\n      jump\t// in\n    tag_35:\n      mload(0x40)\n      tag_37\n      swap2\n      swap1\n      tag_38\n      jump\t// in\n    tag_37:\n      mload(0x40)\n      dup1\n      swap2\n      sub\n      swap1\n      return\n        /* \"Campaign.sol\":1333:1352  uint256 public goal */\n    tag_5:\n      callvalue\n      dup1\n      iszero\n      tag_39\n      jumpi\n      revert(0x00, 0x00)\n    tag_39:\n      pop\n      tag_40\n      tag_41\n      jump\t// in\n    tag_40:\n      mload(0x40)\n      tag_42\n      swap2\n      swap1\n      tag_38\n      jump\t// in\n    tag_42:\n      mload(0x40)\n      dup1\n      swap2\n      sub\n      swap1\n      return\n        /* \"Campaign.sol\":6279:7013  function getSummary() public view returns (... */\n    tag_6:\n      callvalue\n      dup1\n      iszero\n      tag_43\n      jumpi\n      revert(0x00, 0x00)\n    tag_43:\n      pop\n      tag_44\n      tag_45\n      jump\t// in\n    tag_44:\n      mload(0x40)\n      tag_46\n      swap12\n      swap11\n      swap10\n      swap9\n      swap8\n      swap7\n      swap6\n      swap5\n      swap4\n      swap3\n      swap2\n      swap1\n      tag_47\n      jump\t// in\n    tag_46:\n      mload(0x40)\n      dup1\n      swap2\n      sub\n      swap1\n      return\n        /* \"Campaign.sol\":1773:1795  address public manager */\n    tag_7:\n      callvalue\n      dup1\n      iszero\n      tag_48\n      jumpi\n      revert(0x00, 0x00)\n    tag_48:\n      pop\n      tag_49\n      tag_50\n      jump\t// in\n    tag_49:\n      mload(0x40)\n      tag_51\n      swap2\n      swap1\n      tag_52\n      jump\t// in\n    tag_51:\n      mload(0x40)\n      dup1\n      swap2\n      sub\n      swap1\n      return\n        /* \"Campaign.sol\":1246:1265  string public title */\n    tag_8:\n      callvalue\n      dup1\n      iszero\n      tag_53\n      jumpi\n      revert(0x00, 0x00)\n    tag_53:\n      pop\n      tag_54\n      tag_55\n      jump\t// in\n    tag_54:\n      mload(0x40)\n      tag_56\n      swap2\n      swap1\n      tag_57\n      jump\t// in\n    tag_56:\n      mload(0x40)\n      dup1\n      swap2\n      sub\n      swap1\n      return\n        /* \"Campaign.sol\":1272:1297  string public description */\n    tag_9:\n      callvalue\n      dup1\n      iszero\n      tag_58\n      jumpi\n      revert(0x00, 0x00)\n    tag_58:\n      pop\n      tag_59\n      tag_60\n      jump\t// in\n    tag_59:\n      mload(0x40)\n      tag_61\n      swap2\n      swap1\n      tag_57\n      jump\t// in\n    tag_61:\n      mload(0x40)\n      dup1\n      swap2\n      sub\n      swap1\n      return\n        /* \"Campaign.sol\":1741:1766  Request[] public requests */\n    tag_10:\n      callvalue\n      dup1\n      iszero\n      tag_62\n      jumpi\n      revert(0x00, 0x00)\n    tag_62:\n      pop\n      tag_63\n      0x04\n      dup1\n      calldatasize\n      sub\n      dup2\n      add\n      swap1\n      tag_64\n      swap2\n      swap1\n      tag_25\n      jump\t// in\n    tag_64:\n      tag_65\n      jump\t// in\n    tag_63:\n      mload(0x40)\n      tag_66\n      swap6\n      swap5\n      swap4\n      swap3\n      swap2\n      swap1\n      tag_67\n      jump\t// in\n    tag_66:\n      mload(0x40)\n      dup1\n      swap2\n      sub\n      swap1\n      return\n        /* \"Campaign.sol\":1891:1921  uint public approversCount = 0 */\n    tag_11:\n      callvalue\n      dup1\n      iszero\n      tag_68\n      jumpi\n      revert(0x00, 0x00)\n    tag_68:\n      pop\n      tag_69\n      tag_70\n      jump\t// in\n    tag_69:\n      mload(0x40)\n      tag_71\n      swap2\n      swap1\n      tag_38\n      jump\t// in\n    tag_71:\n      mload(0x40)\n      dup1\n      swap2\n      sub\n      swap1\n      return\n        /* \"Campaign.sol\":3879:4330  function createRequest(... */\n    tag_12:\n      callvalue\n      dup1\n      iszero\n      tag_72\n      jumpi\n      revert(0x00, 0x00)\n    tag_72:\n      pop\n      tag_73\n      0x04\n      dup1\n      calldatasize\n      sub\n      dup2\n      add\n      swap1\n      tag_74\n      swap2\n      swap1\n      tag_75\n      jump\t// in\n    tag_74:\n      tag_76\n      jump\t// in\n    tag_73:\n      stop\n        /* \"Campaign.sol\":1802:1836  uint256 public minimumContribution */\n    tag_13:\n      callvalue\n      dup1\n      iszero\n      tag_77\n      jumpi\n      revert(0x00, 0x00)\n    tag_77:\n      pop\n      tag_78\n      tag_79\n      jump\t// in\n    tag_78:\n      mload(0x40)\n      tag_80\n      swap2\n      swap1\n      tag_38\n      jump\t// in\n    tag_80:\n      mload(0x40)\n      dup1\n      swap2\n      sub\n      swap1\n      return\n        /* \"Campaign.sol\":1467:1499  uint256 public lastContributedAt */\n    tag_14:\n      callvalue\n      dup1\n      iszero\n      tag_81\n      jumpi\n      revert(0x00, 0x00)\n    tag_81:\n      pop\n      tag_82\n      tag_83\n      jump\t// in\n    tag_82:\n      mload(0x40)\n      tag_84\n      swap2\n      swap1\n      tag_38\n      jump\t// in\n    tag_84:\n      mload(0x40)\n      dup1\n      swap2\n      sub\n      swap1\n      return\n        /* \"Campaign.sol\":1398:1422  uint256 public createdAt */\n    tag_15:\n      callvalue\n      dup1\n      iszero\n      tag_85\n      jumpi\n      revert(0x00, 0x00)\n    tag_85:\n      pop\n      tag_86\n      tag_87\n      jump\t// in\n    tag_86:\n      mload(0x40)\n      tag_88\n      swap2\n      swap1\n      tag_38\n      jump\t// in\n    tag_88:\n      mload(0x40)\n      dup1\n      swap2\n      sub\n      swap1\n      return\n        /* \"Campaign.sol\":3301:3672  function contribute() public payable {... */\n    tag_16:\n      tag_89\n      tag_90\n      jump\t// in\n    tag_89:\n      stop\n        /* \"Campaign.sol\":4592:5150  function approveRequest(uint256 index) public {... */\n    tag_17:\n      callvalue\n      dup1\n      iszero\n      tag_91\n      jumpi\n      revert(0x00, 0x00)\n    tag_91:\n      pop\n      tag_92\n      0x04\n      dup1\n      calldatasize\n      sub\n      dup2\n      add\n      swap1\n      tag_93\n      swap2\n      swap1\n      tag_25\n      jump\t// in\n    tag_93:\n      tag_94\n      jump\t// in\n    tag_92:\n      stop\n        /* \"Campaign.sol\":1304:1326  string public category */\n    tag_18:\n      callvalue\n      dup1\n      iszero\n      tag_95\n      jumpi\n      revert(0x00, 0x00)\n    tag_95:\n      pop\n      tag_96\n      tag_97\n      jump\t// in\n    tag_96:\n      mload(0x40)\n      tag_98\n      swap2\n      swap1\n      tag_57\n      jump\t// in\n    tag_98:\n      mload(0x40)\n      dup1\n      swap2\n      sub\n      swap1\n      return\n        /* \"Campaign.sol\":5422:5881  function finalizeRequest(uint index) public restricted {... */\n    tag_26:\n        /* \"Campaign.sol\":2184:2191  manager */\n      0x07\n      0x00\n      swap1\n      sload\n      swap1\n      0x0100\n      exp\n      swap1\n      div\n      0xffffffffffffffffffffffffffffffffffffffff\n      and\n        /* \"Campaign.sol\":2170:2191  msg.sender == manager */\n      0xffffffffffffffffffffffffffffffffffffffff\n      and\n        /* \"Campaign.sol\":2170:2180  msg.sender */\n      caller\n        /* \"Campaign.sol\":2170:2191  msg.sender == manager */\n      0xffffffffffffffffffffffffffffffffffffffff\n      and\n      eq\n        /* \"Campaign.sol\":2162:2232  require(msg.sender == manager, \"Only manager can perform this action\") */\n      tag_100\n      jumpi\n      mload(0x40)\n      0x08c379a000000000000000000000000000000000000000000000000000000000\n      dup2\n      mstore\n      0x04\n      add\n      tag_101\n      swap1\n      tag_102\n      jump\t// in\n    tag_101:\n      mload(0x40)\n      dup1\n      swap2\n      sub\n      swap1\n      revert\n    tag_100:\n        /* \"Campaign.sol\":5488:5511  Request storage request */\n      0x00\n        /* \"Campaign.sol\":5514:5522  requests */\n      0x06\n        /* \"Campaign.sol\":5523:5528  index */\n      dup3\n        /* \"Campaign.sol\":5514:5529  requests[index] */\n      dup2\n      sload\n      dup2\n      lt\n      tag_104\n      jumpi\n      tag_105\n      tag_106\n      jump\t// in\n    tag_105:\n    tag_104:\n      swap1\n      0x00\n      mstore\n      keccak256(0x00, 0x20)\n      swap1\n      0x05\n      mul\n      add\n        /* \"Campaign.sol\":5488:5529  Request storage request = requests[index] */\n      swap1\n      pop\n        /* \"Campaign.sol\":5606:5607  2 */\n      0x02\n        /* \"Campaign.sol\":5589:5603  approversCount */\n      sload(0x0a)\n        /* \"Campaign.sol\":5589:5607  approversCount / 2 */\n      tag_108\n      swap2\n      swap1\n      tag_109\n      jump\t// in\n    tag_108:\n        /* \"Campaign.sol\":5564:5571  request */\n      dup2\n        /* \"Campaign.sol\":5564:5585  request.approvalCount */\n      0x03\n      add\n      sload\n        /* \"Campaign.sol\":5564:5608  request.approvalCount > (approversCount / 2) */\n      gt\n        /* \"Campaign.sol\":5542:5668  require(... */\n      tag_110\n      jumpi\n      mload(0x40)\n      0x08c379a000000000000000000000000000000000000000000000000000000000\n      dup2\n      mstore\n      0x04\n      add\n      tag_111\n      swap1\n      tag_112\n      jump\t// in\n    tag_111:\n      mload(0x40)\n      dup1\n      swap2\n      sub\n      swap1\n      revert\n    tag_110:\n        /* \"Campaign.sol\":5702:5709  request */\n      dup1\n        /* \"Campaign.sol\":5702:5718  request.complete */\n      0x02\n      add\n      0x14\n      swap1\n      sload\n      swap1\n      0x0100\n      exp\n      swap1\n      div\n      0xff\n      and\n        /* \"Campaign.sol\":5701:5718  !request.complete */\n      iszero\n        /* \"Campaign.sol\":5679:5785  require(... */\n      tag_113\n      jumpi\n      mload(0x40)\n      0x08c379a000000000000000000000000000000000000000000000000000000000\n      dup2\n      mstore\n      0x04\n      add\n      tag_114\n      swap1\n      tag_115\n      jump\t// in\n    tag_114:\n      mload(0x40)\n      dup1\n      swap2\n      sub\n      swap1\n      revert\n    tag_113:\n        /* \"Campaign.sol\":5798:5805  request */\n      dup1\n        /* \"Campaign.sol\":5798:5815  request.recipient */\n      0x02\n      add\n      0x00\n      swap1\n      sload\n      swap1\n      0x0100\n      exp\n      swap1\n      div\n      0xffffffffffffffffffffffffffffffffffffffff\n      and\n        /* \"Campaign.sol\":5798:5824  request.recipient.transfer */\n      0xffffffffffffffffffffffffffffffffffffffff\n      and\n        /* \"Campaign.sol\":5798:5839  request.recipient.transfer(request.value) */\n      0x08fc\n        /* \"Campaign.sol\":5825:5832  request */\n      dup3\n        /* \"Campaign.sol\":5825:5838  request.value */\n      0x01\n      add\n      sload\n        /* \"Campaign.sol\":5798:5839  request.recipient.transfer(request.value) */\n      swap1\n      dup2\n      iszero\n      mul\n      swap1\n      mload(0x40)\n      0x00\n      mload(0x40)\n      dup1\n      dup4\n      sub\n      dup2\n      dup6\n      dup9\n      dup9\n      call\n      swap4\n      pop\n      pop\n      pop\n      pop\n      iszero\n      dup1\n      iszero\n      tag_117\n      jumpi\n      returndatacopy(0x00, 0x00, returndatasize)\n      revert(0x00, returndatasize)\n    tag_117:\n      pop\n        /* \"Campaign.sol\":5869:5873  true */\n      0x01\n        /* \"Campaign.sol\":5850:5857  request */\n      dup2\n        /* \"Campaign.sol\":5850:5866  request.complete */\n      0x02\n      add\n      0x14\n        /* \"Campaign.sol\":5850:5873  request.complete = true */\n      0x0100\n      exp\n      dup2\n      sload\n      dup2\n      0xff\n      mul\n      not\n      and\n      swap1\n      dup4\n      iszero\n      iszero\n      mul\n      or\n      swap1\n      sstore\n      pop\n        /* \"Campaign.sol\":5477:5881  {... */\n      pop\n        /* \"Campaign.sol\":5422:5881  function finalizeRequest(uint index) public restricted {... */\n      pop\n      jump\t// out\n        /* \"Campaign.sol\":1843:1884  mapping(address => bool) public approvers */\n    tag_31:\n      mstore(0x20, 0x09)\n      dup1\n      0x00\n      mstore\n      keccak256(0x00, 0x40)\n      0x00\n      swap2\n      pop\n      sload\n      swap1\n      0x0100\n      exp\n      swap1\n      div\n      0xff\n      and\n      dup2\n      jump\t// out\n        /* \"Campaign.sol\":6092:6188  function getRequestsCount() public view returns (uint) {... */\n    tag_36:\n        /* \"Campaign.sol\":6141:6145  uint */\n      0x00\n        /* \"Campaign.sol\":6165:6173  requests */\n      0x06\n        /* \"Campaign.sol\":6165:6180  requests.length */\n      dup1\n      sload\n      swap1\n      pop\n        /* \"Campaign.sol\":6158:6180  return requests.length */\n      swap1\n      pop\n        /* \"Campaign.sol\":6092:6188  function getRequestsCount() public view returns (uint) {... */\n      swap1\n      jump\t// out\n        /* \"Campaign.sol\":1333:1352  uint256 public goal */\n    tag_41:\n      sload(0x03)\n      dup2\n      jump\t// out\n        /* \"Campaign.sol\":6279:7013  function getSummary() public view returns (... */\n    tag_45:\n        /* \"Campaign.sol\":6332:6352  string memory _title */\n      0x60\n        /* \"Campaign.sol\":6363:6389  string memory _description */\n      dup1\n        /* \"Campaign.sol\":6400:6423  string memory _category */\n      0x60\n        /* \"Campaign.sol\":6434:6447  uint256 _goal */\n      0x00\n        /* \"Campaign.sol\":6458:6486  uint256 _minimumContribution */\n      0x00\n        /* \"Campaign.sol\":6497:6513  uint256 _balance */\n      0x00\n        /* \"Campaign.sol\":6524:6547  uint256 _approversCount */\n      0x00\n        /* \"Campaign.sol\":6558:6580  uint256 _requestsCount */\n      0x00\n        /* \"Campaign.sol\":6591:6607  address _manager */\n      0x00\n        /* \"Campaign.sol\":6618:6636  uint256 _createdAt */\n      0x00\n        /* \"Campaign.sol\":6647:6673  uint256 _lastContributedAt */\n      0x00\n        /* \"Campaign.sol\":6714:6719  title */\n      0x00\n        /* \"Campaign.sol\":6734:6745  description */\n      0x01\n        /* \"Campaign.sol\":6760:6768  category */\n      0x02\n        /* \"Campaign.sol\":6783:6787  goal */\n      sload(0x03)\n        /* \"Campaign.sol\":6802:6821  minimumContribution */\n      sload(0x08)\n        /* \"Campaign.sol\":6836:6857  address(this).balance */\n      selfbalance\n        /* \"Campaign.sol\":6872:6886  approversCount */\n      sload(0x0a)\n        /* \"Campaign.sol\":6901:6909  requests */\n      0x06\n        /* \"Campaign.sol\":6901:6916  requests.length */\n      dup1\n      sload\n      swap1\n      pop\n        /* \"Campaign.sol\":6931:6938  manager */\n      0x07\n      0x00\n      swap1\n      sload\n      swap1\n      0x0100\n      exp\n      swap1\n      div\n      0xffffffffffffffffffffffffffffffffffffffff\n      and\n        /* \"Campaign.sol\":6953:6962  createdAt */\n      sload(0x04)\n        /* \"Campaign.sol\":6977:6994  lastContributedAt */\n      sload(0x05)\n        /* \"Campaign.sol\":6692:7005  return (... */\n      dup11\n      dup1\n      sload\n      tag_120\n      swap1\n      tag_121\n      jump\t// in\n    tag_120:\n      dup1\n      0x1f\n      add\n      0x20\n      dup1\n      swap2\n      div\n      mul\n      0x20\n      add\n      mload(0x40)\n      swap1\n      dup2\n      add\n      0x40\n      mstore\n      dup1\n      swap3\n      swap2\n      swap1\n      dup2\n      dup2\n      mstore\n      0x20\n      add\n      dup3\n      dup1\n      sload\n      tag_122\n      swap1\n      tag_121\n      jump\t// in\n    tag_122:\n      dup1\n      iszero\n      tag_123\n      jumpi\n      dup1\n      0x1f\n      lt\n      tag_124\n      jumpi\n      0x0100\n      dup1\n      dup4\n      sload\n      div\n      mul\n      dup4\n      mstore\n      swap2\n      0x20\n      add\n      swap2\n      jump(tag_123)\n    tag_124:\n      dup3\n      add\n      swap2\n      swap1\n      0x00\n      mstore\n      keccak256(0x00, 0x20)\n      swap1\n    tag_125:\n      dup2\n      sload\n      dup2\n      mstore\n      swap1\n      0x01\n      add\n      swap1\n      0x20\n      add\n      dup1\n      dup4\n      gt\n      tag_125\n      jumpi\n      dup3\n      swap1\n      sub\n      0x1f\n      and\n      dup3\n      add\n      swap2\n    tag_123:\n      pop\n      pop\n      pop\n      pop\n      pop\n      swap11\n      pop\n      dup10\n      dup1\n      sload\n      tag_126\n      swap1\n      tag_121\n      jump\t// in\n    tag_126:\n      dup1\n      0x1f\n      add\n      0x20\n      dup1\n      swap2\n      div\n      mul\n      0x20\n      add\n      mload(0x40)\n      swap1\n      dup2\n      add\n      0x40\n      mstore\n      dup1\n      swap3\n      swap2\n      swap1\n      dup2\n      dup2\n      mstore\n      0x20\n      add\n      dup3\n      dup1\n      sload\n      tag_127\n      swap1\n      tag_121\n      jump\t// in\n    tag_127:\n      dup1\n      iszero\n      tag_128\n      jumpi\n      dup1\n      0x1f\n      lt\n      tag_129\n      jumpi\n      0x0100\n      dup1\n      dup4\n      sload\n      div\n      mul\n      dup4\n      mstore\n      swap2\n      0x20\n      add\n      swap2\n      jump(tag_128)\n    tag_129:\n      dup3\n      add\n      swap2\n      swap1\n      0x00\n      mstore\n      keccak256(0x00, 0x20)\n      swap1\n    tag_130:\n      dup2\n      sload\n      dup2\n      mstore\n      swap1\n      0x01\n      add\n      swap1\n      0x20\n      add\n      dup1\n      dup4\n      gt\n      tag_130\n      jumpi\n      dup3\n      swap1\n      sub\n      0x1f\n      and\n      dup3\n      add\n      swap2\n    tag_128:\n      pop\n      pop\n      pop\n      pop\n      pop\n      swap10\n      pop\n      dup9\n      dup1\n      sload\n      tag_131\n      swap1\n      tag_121\n      jump\t// in\n    tag_131:\n      dup1\n      0x1f\n      add\n      0x20\n      dup1\n      swap2\n      div\n      mul\n      0x20\n      add\n      mload(0x40)\n      swap1\n      dup2\n      add\n      0x40\n      mstore\n      dup1\n      swap3\n      swap2\n      swap1\n      dup2\n      dup2\n      mstore\n      0x20\n      add\n      dup3\n      dup1\n      sload\n      tag_132\n      swap1\n      tag_121\n      jump\t// in\n    tag_132:\n      dup1\n      iszero\n      tag_133\n      jumpi\n      dup1\n      0x1f\n      lt\n      tag_134\n      jumpi\n      0x0100\n      dup1\n      dup4\n      sload\n      div\n      mul\n      dup4\n      mstore\n      swap2\n      0x20\n      add\n      swap2\n      jump(tag_133)\n    tag_134:\n      dup3\n      add\n      swap2\n      swap1\n      0x00\n      mstore\n      keccak256(0x00, 0x20)\n      swap1\n    tag_135:\n      dup2\n      sload\n      dup2\n      mstore\n      swap1\n      0x01\n      add\n      swap1\n      0x20\n      add\n      dup1\n      dup4\n      gt\n      tag_135\n      jumpi\n      dup3\n      swap1\n      sub\n      0x1f\n      and\n      dup3\n      add\n      swap2\n    tag_133:\n      pop\n      pop\n      pop\n      pop\n      pop\n      swap9\n      pop\n      swap11\n      pop\n      swap11\n      pop\n      swap11\n      pop\n      swap11\n      pop\n      swap11\n      pop\n      swap11\n      pop\n      swap11\n      pop\n      swap11\n      pop\n      swap11\n      pop\n      swap11\n      pop\n      swap11\n      pop\n        /* \"Campaign.sol\":6279:7013  function getSummary() public view returns (... */\n      swap1\n      swap2\n      swap3\n      swap4\n      swap5\n      swap6\n      swap7\n      swap8\n      swap9\n      swap10\n      swap11\n      jump\t// out\n        /* \"Campaign.sol\":1773:1795  address public manager */\n    tag_50:\n      0x07\n      0x00\n      swap1\n      sload\n      swap1\n      0x0100\n      exp\n      swap1\n      div\n      0xffffffffffffffffffffffffffffffffffffffff\n      and\n      dup2\n      jump\t// out\n        /* \"Campaign.sol\":1246:1265  string public title */\n    tag_55:\n      0x00\n      dup1\n      sload\n      tag_136\n      swap1\n      tag_121\n      jump\t// in\n    tag_136:\n      dup1\n      0x1f\n      add\n      0x20\n      dup1\n      swap2\n      div\n      mul\n      0x20\n      add\n      mload(0x40)\n      swap1\n      dup2\n      add\n      0x40\n      mstore\n      dup1\n      swap3\n      swap2\n      swap1\n      dup2\n      dup2\n      mstore\n      0x20\n      add\n      dup3\n      dup1\n      sload\n      tag_137\n      swap1\n      tag_121\n      jump\t// in\n    tag_137:\n      dup1\n      iszero\n      tag_138\n      jumpi\n      dup1\n      0x1f\n      lt\n      tag_139\n      jumpi\n      0x0100\n      dup1\n      dup4\n      sload\n      div\n      mul\n      dup4\n      mstore\n      swap2\n      0x20\n      add\n      swap2\n      jump(tag_138)\n    tag_139:\n      dup3\n      add\n      swap2\n      swap1\n      0x00\n      mstore\n      keccak256(0x00, 0x20)\n      swap1\n    tag_140:\n      dup2\n      sload\n      dup2\n      mstore\n      swap1\n      0x01\n      add\n      swap1\n      0x20\n      add\n      dup1\n      dup4\n      gt\n      tag_140\n      jumpi\n      dup3\n      swap1\n      sub\n      0x1f\n      and\n      dup3\n      add\n      swap2\n    tag_138:\n      pop\n      pop\n      pop\n      pop\n      pop\n      dup2\n      jump\t// out\n        /* \"Campaign.sol\":1272:1297  string public description */\n    tag_60:\n      0x01\n      dup1\n      sload\n      tag_141\n      swap1\n      tag_121\n      jump\t// in\n    tag_141:\n      dup1\n      0x1f\n      add\n      0x20\n      dup1\n      swap2\n      div\n      mul\n      0x20\n      add\n      mload(0x40)\n      swap1\n      dup2\n      add\n      0x40\n      mstore\n      dup1\n      swap3\n      swap2\n      swap1\n      dup2\n      dup2\n      mstore\n      0x20\n      add\n      dup3\n      dup1\n      sload\n      tag_142\n      swap1\n      tag_121\n      jump\t// in\n    tag_142:\n      dup1\n      iszero\n      tag_143\n      jumpi\n      dup1\n      0x1f\n      lt\n      tag_144\n      jumpi\n      0x0100\n      dup1\n      dup4\n      sload\n      div\n      mul\n      dup4\n      mstore\n      swap2\n      0x20\n      add\n      swap2\n      jump(tag_143)\n    tag_144:\n      dup3\n      add\n      swap2\n      swap1\n      0x00\n      mstore\n      keccak256(0x00, 0x20)\n      swap1\n    tag_145:\n      dup2\n      sload\n      dup2\n      mstore\n      swap1\n      0x01\n      add\n      swap1\n      0x20\n      add\n      dup1\n      dup4\n      gt\n      tag_145\n      jumpi\n      dup3\n      swap1\n      sub\n      0x1f\n      and\n      dup3\n      add\n      swap2\n    tag_143:\n      pop\n      pop\n      pop\n      pop\n      pop\n      dup2\n      jump\t// out\n        /* \"Campaign.sol\":1741:1766  Request[] public requests */\n    tag_65:\n      0x06\n      dup2\n      dup2\n      sload\n      dup2\n      lt\n      tag_146\n      jumpi\n      0x00\n      dup1\n      revert\n    tag_146:\n      swap1\n      0x00\n      mstore\n      keccak256(0x00, 0x20)\n      swap1\n      0x05\n      mul\n      add\n      0x00\n      swap2\n      pop\n      swap1\n      pop\n      dup1\n      0x00\n      add\n      dup1\n      sload\n      tag_148\n      swap1\n      tag_121\n      jump\t// in\n    tag_148:\n      dup1\n      0x1f\n      add\n      0x20\n      dup1\n      swap2\n      div\n      mul\n      0x20\n      add\n      mload(0x40)\n      swap1\n      dup2\n      add\n      0x40\n      mstore\n      dup1\n      swap3\n      swap2\n      swap1\n      dup2\n      dup2\n      mstore\n      0x20\n      add\n      dup3\n      dup1\n      sload\n      tag_149\n      swap1\n      tag_121\n      jump\t// in\n    tag_149:\n      dup1\n      iszero\n      tag_150\n      jumpi\n      dup1\n      0x1f\n      lt\n      tag_151\n      jumpi\n      0x0100\n      dup1\n      dup4\n      sload\n      div\n      mul\n      dup4\n      mstore\n      swap2\n      0x20\n      add\n      swap2\n      jump(tag_150)\n    tag_151:\n      dup3\n      add\n      swap2\n      swap1\n      0x00\n      mstore\n      keccak256(0x00, 0x20)\n      swap1\n    tag_152:\n      dup2\n      sload\n      dup2\n      mstore\n      swap1\n      0x01\n      add\n      swap1\n      0x20\n      add\n      dup1\n      dup4\n      gt\n      tag_152\n      jumpi\n      dup3\n      swap1\n      sub\n      0x1f\n      and\n      dup3\n      add\n      swap2\n    tag_150:\n      pop\n      pop\n      pop\n      pop\n      pop\n      swap1\n      dup1\n      0x01\n      add\n      sload\n      swap1\n      dup1\n      0x02\n      add\n      0x00\n      swap1\n      sload\n      swap1\n      0x0100\n      exp\n      swap1\n      div\n      0xffffffffffffffffffffffffffffffffffffffff\n      and\n      swap1\n      dup1\n      0x02\n      add\n      0x14\n      swap1\n      sload\n      swap1\n      0x0100\n      exp\n      swap1\n      div\n      0xff\n      and\n      swap1\n      dup1\n      0x03\n      add\n      sload\n      swap1\n      pop\n      dup6\n      jump\t// out\n        /* \"Campaign.sol\":1891:1921  uint public approversCount = 0 */\n    tag_70:\n      sload(0x0a)\n      dup2\n      jump\t// out\n        /* \"Campaign.sol\":3879:4330  function createRequest(... */\n    tag_76:\n        /* \"Campaign.sol\":2184:2191  manager */\n      0x07\n      0x00\n      swap1\n      sload\n      swap1\n      0x0100\n      exp\n      swap1\n      div\n      0xffffffffffffffffffffffffffffffffffffffff\n      and\n        /* \"Campaign.sol\":2170:2191  msg.sender == manager */\n      0xffffffffffffffffffffffffffffffffffffffff\n      and\n        /* \"Campaign.sol\":2170:2180  msg.sender */\n      caller\n        /* \"Campaign.sol\":2170:2191  msg.sender == manager */\n      0xffffffffffffffffffffffffffffffffffffffff\n      and\n      eq\n        /* \"Campaign.sol\":2162:2232  require(msg.sender == manager, \"Only manager can perform this action\") */\n      tag_154\n      jumpi\n      mload(0x40)\n      0x08c379a000000000000000000000000000000000000000000000000000000000\n      dup2\n      mstore\n      0x04\n      add\n      tag_155\n      swap1\n      tag_102\n      jump\t// in\n    tag_155:\n      mload(0x40)\n      dup1\n      swap2\n      sub\n      swap1\n      revert\n    tag_154:\n        /* \"Campaign.sol\":4035:4043  requests */\n      0x06\n        /* \"Campaign.sol\":4035:4050  requests.push() */\n      0x01\n      dup2\n      0x01\n      dup2\n      sload\n      add\n      dup1\n      dup3\n      sstore\n      dup1\n      swap2\n      pop\n      pop\n      sub\n      swap1\n      0x00\n      mstore\n      keccak256(0x00, 0x20)\n      swap1\n      pop\n      pop\n        /* \"Campaign.sol\":4061:4087  Request storage newRequest */\n      0x00\n        /* \"Campaign.sol\":4090:4098  requests */\n      0x06\n        /* \"Campaign.sol\":4117:4118  1 */\n      0x01\n        /* \"Campaign.sol\":4099:4107  requests */\n      0x06\n        /* \"Campaign.sol\":4099:4114  requests.length */\n      dup1\n      sload\n      swap1\n      pop\n        /* \"Campaign.sol\":4099:4118  requests.length - 1 */\n      tag_158\n      swap2\n      swap1\n      tag_159\n      jump\t// in\n    tag_158:\n        /* \"Campaign.sol\":4090:4119  requests[requests.length - 1] */\n      dup2\n      sload\n      dup2\n      lt\n      tag_160\n      jumpi\n      tag_161\n      tag_106\n      jump\t// in\n    tag_161:\n    tag_160:\n      swap1\n      0x00\n      mstore\n      keccak256(0x00, 0x20)\n      swap1\n      0x05\n      mul\n      add\n        /* \"Campaign.sol\":4061:4119  Request storage newRequest = requests[requests.length - 1] */\n      swap1\n      pop\n        /* \"Campaign.sol\":4155:4167  _description */\n      dup4\n        /* \"Campaign.sol\":4130:4140  newRequest */\n      dup2\n        /* \"Campaign.sol\":4130:4152  newRequest.description */\n      0x00\n      add\n        /* \"Campaign.sol\":4130:4167  newRequest.description = _description */\n      swap1\n      dup2\n      tag_163\n      swap2\n      swap1\n      tag_164\n      jump\t// in\n    tag_163:\n      pop\n        /* \"Campaign.sol\":4197:4202  value */\n      dup3\n        /* \"Campaign.sol\":4178:4188  newRequest */\n      dup2\n        /* \"Campaign.sol\":4178:4194  newRequest.value */\n      0x01\n      add\n        /* \"Campaign.sol\":4178:4202  newRequest.value = value */\n      dup2\n      swap1\n      sstore\n      pop\n        /* \"Campaign.sol\":4236:4245  recipient */\n      dup2\n        /* \"Campaign.sol\":4213:4223  newRequest */\n      dup2\n        /* \"Campaign.sol\":4213:4233  newRequest.recipient */\n      0x02\n      add\n      0x00\n        /* \"Campaign.sol\":4213:4245  newRequest.recipient = recipient */\n      0x0100\n      exp\n      dup2\n      sload\n      dup2\n      0xffffffffffffffffffffffffffffffffffffffff\n      mul\n      not\n      and\n      swap1\n      dup4\n      0xffffffffffffffffffffffffffffffffffffffff\n      and\n      mul\n      or\n      swap1\n      sstore\n      pop\n        /* \"Campaign.sol\":4278:4283  false */\n      0x00\n        /* \"Campaign.sol\":4256:4266  newRequest */\n      dup2\n        /* \"Campaign.sol\":4256:4275  newRequest.complete */\n      0x02\n      add\n      0x14\n        /* \"Campaign.sol\":4256:4283  newRequest.complete = false */\n      0x0100\n      exp\n      dup2\n      sload\n      dup2\n      0xff\n      mul\n      not\n      and\n      swap1\n      dup4\n      iszero\n      iszero\n      mul\n      or\n      swap1\n      sstore\n      pop\n        /* \"Campaign.sol\":4321:4322  0 */\n      0x00\n        /* \"Campaign.sol\":4294:4304  newRequest */\n      dup2\n        /* \"Campaign.sol\":4294:4318  newRequest.approvalCount */\n      0x03\n      add\n        /* \"Campaign.sol\":4294:4322  newRequest.approvalCount = 0 */\n      dup2\n      swap1\n      sstore\n      pop\n        /* \"Campaign.sol\":4024:4330  {... */\n      pop\n        /* \"Campaign.sol\":3879:4330  function createRequest(... */\n      pop\n      pop\n      pop\n      jump\t// out\n        /* \"Campaign.sol\":1802:1836  uint256 public minimumContribution */\n    tag_79:\n      sload(0x08)\n      dup2\n      jump\t// out\n        /* \"Campaign.sol\":1467:1499  uint256 public lastContributedAt */\n    tag_83:\n      sload(0x05)\n      dup2\n      jump\t// out\n        /* \"Campaign.sol\":1398:1422  uint256 public createdAt */\n    tag_87:\n      sload(0x04)\n      dup2\n      jump\t// out\n        /* \"Campaign.sol\":3301:3672  function contribute() public payable {... */\n    tag_90:\n        /* \"Campaign.sol\":3384:3403  minimumContribution */\n      sload(0x08)\n        /* \"Campaign.sol\":3371:3380  msg.value */\n      callvalue\n        /* \"Campaign.sol\":3371:3403  msg.value >= minimumContribution */\n      lt\n      iszero\n        /* \"Campaign.sol\":3349:3472  require(... */\n      tag_166\n      jumpi\n      mload(0x40)\n      0x08c379a000000000000000000000000000000000000000000000000000000000\n      dup2\n      mstore\n      0x04\n      add\n      tag_167\n      swap1\n      tag_168\n      jump\t// in\n    tag_167:\n      mload(0x40)\n      dup1\n      swap2\n      sub\n      swap1\n      revert\n    tag_166:\n        /* \"Campaign.sol\":3490:3499  approvers */\n      0x09\n        /* \"Campaign.sol\":3490:3511  approvers[msg.sender] */\n      0x00\n        /* \"Campaign.sol\":3500:3510  msg.sender */\n      caller\n        /* \"Campaign.sol\":3490:3511  approvers[msg.sender] */\n      0xffffffffffffffffffffffffffffffffffffffff\n      and\n      0xffffffffffffffffffffffffffffffffffffffff\n      and\n      dup2\n      mstore\n      0x20\n      add\n      swap1\n      dup2\n      mstore\n      0x20\n      add\n      0x00\n      keccak256\n      0x00\n      swap1\n      sload\n      swap1\n      0x0100\n      exp\n      swap1\n      div\n      0xff\n      and\n        /* \"Campaign.sol\":3485:3599  if (!approvers[msg.sender]) {... */\n      tag_169\n      jumpi\n        /* \"Campaign.sol\":3552:3556  true */\n      0x01\n        /* \"Campaign.sol\":3528:3537  approvers */\n      0x09\n        /* \"Campaign.sol\":3528:3549  approvers[msg.sender] */\n      0x00\n        /* \"Campaign.sol\":3538:3548  msg.sender */\n      caller\n        /* \"Campaign.sol\":3528:3549  approvers[msg.sender] */\n      0xffffffffffffffffffffffffffffffffffffffff\n      and\n      0xffffffffffffffffffffffffffffffffffffffff\n      and\n      dup2\n      mstore\n      0x20\n      add\n      swap1\n      dup2\n      mstore\n      0x20\n      add\n      0x00\n      keccak256\n      0x00\n        /* \"Campaign.sol\":3528:3556  approvers[msg.sender] = true */\n      0x0100\n      exp\n      dup2\n      sload\n      dup2\n      0xff\n      mul\n      not\n      and\n      swap1\n      dup4\n      iszero\n      iszero\n      mul\n      or\n      swap1\n      sstore\n      pop\n        /* \"Campaign.sol\":3571:3585  approversCount */\n      0x0a\n      0x00\n        /* \"Campaign.sol\":3571:3587  approversCount++ */\n      dup2\n      sload\n      dup1\n      swap3\n      swap2\n      swap1\n      tag_170\n      swap1\n      tag_171\n      jump\t// in\n    tag_170:\n      swap2\n      swap1\n      pop\n      sstore\n      pop\n        /* \"Campaign.sol\":3485:3599  if (!approvers[msg.sender]) {... */\n    tag_169:\n        /* \"Campaign.sol\":3631:3646  block.timestamp */\n      timestamp\n        /* \"Campaign.sol\":3611:3628  lastContributedAt */\n      0x05\n        /* \"Campaign.sol\":3611:3646  lastContributedAt = block.timestamp */\n      dup2\n      swap1\n      sstore\n      pop\n        /* \"Campaign.sol\":3301:3672  function contribute() public payable {... */\n      jump\t// out\n        /* \"Campaign.sol\":4592:5150  function approveRequest(uint256 index) public {... */\n    tag_94:\n        /* \"Campaign.sol\":4649:4672  Request storage request */\n      0x00\n        /* \"Campaign.sol\":4675:4683  requests */\n      0x06\n        /* \"Campaign.sol\":4684:4689  index */\n      dup3\n        /* \"Campaign.sol\":4675:4690  requests[index] */\n      dup2\n      sload\n      dup2\n      lt\n      tag_173\n      jumpi\n      tag_174\n      tag_106\n      jump\t// in\n    tag_174:\n    tag_173:\n      swap1\n      0x00\n      mstore\n      keccak256(0x00, 0x20)\n      swap1\n      0x05\n      mul\n      add\n        /* \"Campaign.sol\":4649:4690  Request storage request = requests[index] */\n      swap1\n      pop\n        /* \"Campaign.sol\":4725:4734  approvers */\n      0x09\n        /* \"Campaign.sol\":4725:4746  approvers[msg.sender] */\n      0x00\n        /* \"Campaign.sol\":4735:4745  msg.sender */\n      caller\n        /* \"Campaign.sol\":4725:4746  approvers[msg.sender] */\n      0xffffffffffffffffffffffffffffffffffffffff\n      and\n      0xffffffffffffffffffffffffffffffffffffffff\n      and\n      dup2\n      mstore\n      0x20\n      add\n      swap1\n      dup2\n      mstore\n      0x20\n      add\n      0x00\n      keccak256\n      0x00\n      swap1\n      sload\n      swap1\n      0x0100\n      exp\n      swap1\n      div\n      0xff\n      and\n        /* \"Campaign.sol\":4703:4807  require(... */\n      tag_176\n      jumpi\n      mload(0x40)\n      0x08c379a000000000000000000000000000000000000000000000000000000000\n      dup2\n      mstore\n      0x04\n      add\n      tag_177\n      swap1\n      tag_178\n      jump\t// in\n    tag_177:\n      mload(0x40)\n      dup1\n      swap2\n      sub\n      swap1\n      revert\n    tag_176:\n        /* \"Campaign.sol\":4854:4861  manager */\n      0x07\n      0x00\n      swap1\n      sload\n      swap1\n      0x0100\n      exp\n      swap1\n      div\n      0xffffffffffffffffffffffffffffffffffffffff\n      and\n        /* \"Campaign.sol\":4840:4861  msg.sender != manager */\n      0xffffffffffffffffffffffffffffffffffffffff\n      and\n        /* \"Campaign.sol\":4840:4850  msg.sender */\n      caller\n        /* \"Campaign.sol\":4840:4861  msg.sender != manager */\n      0xffffffffffffffffffffffffffffffffffffffff\n      and\n      sub\n        /* \"Campaign.sol\":4818:4930  require(... */\n      tag_179\n      jumpi\n      mload(0x40)\n      0x08c379a000000000000000000000000000000000000000000000000000000000\n      dup2\n      mstore\n      0x04\n      add\n      tag_180\n      swap1\n      tag_181\n      jump\t// in\n    tag_180:\n      mload(0x40)\n      dup1\n      swap2\n      sub\n      swap1\n      revert\n    tag_179:\n        /* \"Campaign.sol\":4964:4971  request */\n      dup1\n        /* \"Campaign.sol\":4964:4981  request.approvals */\n      0x04\n      add\n        /* \"Campaign.sol\":4964:4993  request.approvals[msg.sender] */\n      0x00\n        /* \"Campaign.sol\":4982:4992  msg.sender */\n      caller\n        /* \"Campaign.sol\":4964:4993  request.approvals[msg.sender] */\n      0xffffffffffffffffffffffffffffffffffffffff\n      and\n      0xffffffffffffffffffffffffffffffffffffffff\n      and\n      dup2\n      mstore\n      0x20\n      add\n      swap1\n      dup2\n      mstore\n      0x20\n      add\n      0x00\n      keccak256\n      0x00\n      swap1\n      sload\n      swap1\n      0x0100\n      exp\n      swap1\n      div\n      0xff\n      and\n        /* \"Campaign.sol\":4963:4993  !request.approvals[msg.sender] */\n      iszero\n        /* \"Campaign.sol\":4941:5059  require(... */\n      tag_182\n      jumpi\n      mload(0x40)\n      0x08c379a000000000000000000000000000000000000000000000000000000000\n      dup2\n      mstore\n      0x04\n      add\n      tag_183\n      swap1\n      tag_184\n      jump\t// in\n    tag_183:\n      mload(0x40)\n      dup1\n      swap2\n      sub\n      swap1\n      revert\n    tag_182:\n        /* \"Campaign.sol\":5104:5108  true */\n      0x01\n        /* \"Campaign.sol\":5072:5079  request */\n      dup2\n        /* \"Campaign.sol\":5072:5089  request.approvals */\n      0x04\n      add\n        /* \"Campaign.sol\":5072:5101  request.approvals[msg.sender] */\n      0x00\n        /* \"Campaign.sol\":5090:5100  msg.sender */\n      caller\n        /* \"Campaign.sol\":5072:5101  request.approvals[msg.sender] */\n      0xffffffffffffffffffffffffffffffffffffffff\n      and\n      0xffffffffffffffffffffffffffffffffffffffff\n      and\n      dup2\n      mstore\n      0x20\n      add\n      swap1\n      dup2\n      mstore\n      0x20\n      add\n      0x00\n      keccak256\n      0x00\n        /* \"Campaign.sol\":5072:5108  request.approvals[msg.sender] = true */\n      0x0100\n      exp\n      dup2\n      sload\n      dup2\n      0xff\n      mul\n      not\n      and\n      swap1\n      dup4\n      iszero\n      iszero\n      mul\n      or\n      swap1\n      sstore\n      pop\n        /* \"Campaign.sol\":5119:5126  request */\n      dup1\n        /* \"Campaign.sol\":5119:5140  request.approvalCount */\n      0x03\n      add\n      0x00\n        /* \"Campaign.sol\":5119:5142  request.approvalCount++ */\n      dup2\n      sload\n      dup1\n      swap3\n      swap2\n      swap1\n      tag_185\n      swap1\n      tag_171\n      jump\t// in\n    tag_185:\n      swap2\n      swap1\n      pop\n      sstore\n      pop\n        /* \"Campaign.sol\":4638:5150  {... */\n      pop\n        /* \"Campaign.sol\":4592:5150  function approveRequest(uint256 index) public {... */\n      pop\n      jump\t// out\n        /* \"Campaign.sol\":1304:1326  string public category */\n    tag_97:\n      0x02\n      dup1\n      sload\n      tag_186\n      swap1\n      tag_121\n      jump\t// in\n    tag_186:\n      dup1\n      0x1f\n      add\n      0x20\n      dup1\n      swap2\n      div\n      mul\n      0x20\n      add\n      mload(0x40)\n      swap1\n      dup2\n      add\n      0x40\n      mstore\n      dup1\n      swap3\n      swap2\n      swap1\n      dup2\n      dup2\n      mstore\n      0x20\n      add\n      dup3\n      dup1\n      sload\n      tag_187\n      swap1\n      tag_121\n      jump\t// in\n    tag_187:\n      dup1\n      iszero\n      tag_188\n      jumpi\n      dup1\n      0x1f\n      lt\n      tag_189\n      jumpi\n      0x0100\n      dup1\n      dup4\n      sload\n      div\n      mul\n      dup4\n      mstore\n      swap2\n      0x20\n      add\n      swap2\n      jump(tag_188)\n    tag_189:\n      dup3\n      add\n      swap2\n      swap1\n      0x00\n      mstore\n      keccak256(0x00, 0x20)\n      swap1\n    tag_190:\n      dup2\n      sload\n      dup2\n      mstore\n      swap1\n      0x01\n      add\n      swap1\n      0x20\n      add\n      dup1\n      dup4\n      gt\n      tag_190\n      jumpi\n      dup3\n      swap1\n      sub\n      0x1f\n      and\n      dup3\n      add\n      swap2\n    tag_188:\n      pop\n      pop\n      pop\n      pop\n      pop\n      dup2\n      jump\t// out\n        /* \"#utility.yul\":7:82   */\n    tag_191:\n        /* \"#utility.yul\":40:46   */\n      0x00\n        /* \"#utility.yul\":73:75   */\n      0x40\n        /* \"#utility.yul\":67:76   */\n      mload\n        /* \"#utility.yul\":57:76   */\n      swap1\n      pop\n        /* \"#utility.yul\":7:82   */\n      swap1\n      jump\t// out\n        /* \"#utility.yul\":88:205   */\n    tag_192:\n        /* \"#utility.yul\":197:198   */\n      0x00\n        /* \"#utility.yul\":194:195   */\n      0x00\n        /* \"#utility.yul\":187:199   */\n      revert\n        /* \"#utility.yul\":211:328   */\n    tag_193:\n        /* \"#utility.yul\":320:321   */\n      0x00\n        /* \"#utility.yul\":317:318   */\n      0x00\n        /* \"#utility.yul\":310:322   */\n      revert\n        /* \"#utility.yul\":334:411   */\n    tag_194:\n        /* \"#utility.yul\":371:378   */\n      0x00\n        /* \"#utility.yul\":400:405   */\n      dup2\n        /* \"#utility.yul\":389:405   */\n      swap1\n      pop\n        /* \"#utility.yul\":334:411   */\n      swap2\n      swap1\n      pop\n      jump\t// out\n        /* \"#utility.yul\":417:539   */\n    tag_195:\n        /* \"#utility.yul\":490:514   */\n      tag_261\n        /* \"#utility.yul\":508:513   */\n      dup2\n        /* \"#utility.yul\":490:514   */\n      tag_194\n      jump\t// in\n    tag_261:\n        /* \"#utility.yul\":483:488   */\n      dup2\n        /* \"#utility.yul\":480:515   */\n      eq\n        /* \"#utility.yul\":470:533   */\n      tag_262\n      jumpi\n        /* \"#utility.yul\":529:530   */\n      0x00\n        /* \"#utility.yul\":526:527   */\n      0x00\n        /* \"#utility.yul\":519:531   */\n      revert\n        /* \"#utility.yul\":470:533   */\n    tag_262:\n        /* \"#utility.yul\":417:539   */\n      pop\n      jump\t// out\n        /* \"#utility.yul\":545:684   */\n    tag_196:\n        /* \"#utility.yul\":591:596   */\n      0x00\n        /* \"#utility.yul\":629:635   */\n      dup2\n        /* \"#utility.yul\":616:636   */\n      calldataload\n        /* \"#utility.yul\":607:636   */\n      swap1\n      pop\n        /* \"#utility.yul\":645:678   */\n      tag_264\n        /* \"#utility.yul\":672:677   */\n      dup2\n        /* \"#utility.yul\":645:678   */\n      tag_195\n      jump\t// in\n    tag_264:\n        /* \"#utility.yul\":545:684   */\n      swap3\n      swap2\n      pop\n      pop\n      jump\t// out\n        /* \"#utility.yul\":690:1019   */\n    tag_25:\n        /* \"#utility.yul\":749:755   */\n      0x00\n        /* \"#utility.yul\":798:800   */\n      0x20\n        /* \"#utility.yul\":786:795   */\n      dup3\n        /* \"#utility.yul\":777:784   */\n      dup5\n        /* \"#utility.yul\":773:796   */\n      sub\n        /* \"#utility.yul\":769:801   */\n      slt\n        /* \"#utility.yul\":766:885   */\n      iszero\n      tag_266\n      jumpi\n        /* \"#utility.yul\":804:883   */\n      tag_267\n      tag_192\n      jump\t// in\n    tag_267:\n        /* \"#utility.yul\":766:885   */\n    tag_266:\n        /* \"#utility.yul\":924:925   */\n      0x00\n        /* \"#utility.yul\":949:1002   */\n      tag_268\n        /* \"#utility.yul\":994:1001   */\n      dup5\n        /* \"#utility.yul\":985:991   */\n      dup3\n        /* \"#utility.yul\":974:983   */\n      dup6\n        /* \"#utility.yul\":970:992   */\n      add\n        /* \"#utility.yul\":949:1002   */\n      tag_196\n      jump\t// in\n    tag_268:\n        /* \"#utility.yul\":939:1002   */\n      swap2\n      pop\n        /* \"#utility.yul\":895:1012   */\n      pop\n        /* \"#utility.yul\":690:1019   */\n      swap3\n      swap2\n      pop\n      pop\n      jump\t// out\n        /* \"#utility.yul\":1025:1151   */\n    tag_197:\n        /* \"#utility.yul\":1062:1069   */\n      0x00\n        /* \"#utility.yul\":1102:1144   */\n      0xffffffffffffffffffffffffffffffffffffffff\n        /* \"#utility.yul\":1095:1100   */\n      dup3\n        /* \"#utility.yul\":1091:1145   */\n      and\n        /* \"#utility.yul\":1080:1145   */\n      swap1\n      pop\n        /* \"#utility.yul\":1025:1151   */\n      swap2\n      swap1\n      pop\n      jump\t// out\n        /* \"#utility.yul\":1157:1253   */\n    tag_198:\n        /* \"#utility.yul\":1194:1201   */\n      0x00\n        /* \"#utility.yul\":1223:1247   */\n      tag_271\n        /* \"#utility.yul\":1241:1246   */\n      dup3\n        /* \"#utility.yul\":1223:1247   */\n      tag_197\n      jump\t// in\n    tag_271:\n        /* \"#utility.yul\":1212:1247   */\n      swap1\n      pop\n        /* \"#utility.yul\":1157:1253   */\n      swap2\n      swap1\n      pop\n      jump\t// out\n        /* \"#utility.yul\":1259:1381   */\n    tag_199:\n        /* \"#utility.yul\":1332:1356   */\n      tag_273\n        /* \"#utility.yul\":1350:1355   */\n      dup2\n        /* \"#utility.yul\":1332:1356   */\n      tag_198\n      jump\t// in\n    tag_273:\n        /* \"#utility.yul\":1325:1330   */\n      dup2\n        /* \"#utility.yul\":1322:1357   */\n      eq\n        /* \"#utility.yul\":1312:1375   */\n      tag_274\n      jumpi\n        /* \"#utility.yul\":1371:1372   */\n      0x00\n        /* \"#utility.yul\":1368:1369   */\n      0x00\n        /* \"#utility.yul\":1361:1373   */\n      revert\n        /* \"#utility.yul\":1312:1375   */\n    tag_274:\n        /* \"#utility.yul\":1259:1381   */\n      pop\n      jump\t// out\n        /* \"#utility.yul\":1387:1526   */\n    tag_200:\n        /* \"#utility.yul\":1433:1438   */\n      0x00\n        /* \"#utility.yul\":1471:1477   */\n      dup2\n        /* \"#utility.yul\":1458:1478   */\n      calldataload\n        /* \"#utility.yul\":1449:1478   */\n      swap1\n      pop\n        /* \"#utility.yul\":1487:1520   */\n      tag_276\n        /* \"#utility.yul\":1514:1519   */\n      dup2\n        /* \"#utility.yul\":1487:1520   */\n      tag_199\n      jump\t// in\n    tag_276:\n        /* \"#utility.yul\":1387:1526   */\n      swap3\n      swap2\n      pop\n      pop\n      jump\t// out\n        /* \"#utility.yul\":1532:1861   */\n    tag_30:\n        /* \"#utility.yul\":1591:1597   */\n      0x00\n        /* \"#utility.yul\":1640:1642   */\n      0x20\n        /* \"#utility.yul\":1628:1637   */\n      dup3\n        /* \"#utility.yul\":1619:1626   */\n      dup5\n        /* \"#utility.yul\":1615:1638   */\n      sub\n        /* \"#utility.yul\":1611:1643   */\n      slt\n        /* \"#utility.yul\":1608:1727   */\n      iszero\n      tag_278\n      jumpi\n        /* \"#utility.yul\":1646:1725   */\n      tag_279\n      tag_192\n      jump\t// in\n    tag_279:\n        /* \"#utility.yul\":1608:1727   */\n    tag_278:\n        /* \"#utility.yul\":1766:1767   */\n      0x00\n        /* \"#utility.yul\":1791:1844   */\n      tag_280\n        /* \"#utility.yul\":1836:1843   */\n      dup5\n        /* \"#utility.yul\":1827:1833   */\n      dup3\n        /* \"#utility.yul\":1816:1825   */\n      dup6\n        /* \"#utility.yul\":1812:1834   */\n      add\n        /* \"#utility.yul\":1791:1844   */\n      tag_200\n      jump\t// in\n    tag_280:\n        /* \"#utility.yul\":1781:1844   */\n      swap2\n      pop\n        /* \"#utility.yul\":1737:1854   */\n      pop\n        /* \"#utility.yul\":1532:1861   */\n      swap3\n      swap2\n      pop\n      pop\n      jump\t// out\n        /* \"#utility.yul\":1867:1957   */\n    tag_201:\n        /* \"#utility.yul\":1901:1908   */\n      0x00\n        /* \"#utility.yul\":1944:1949   */\n      dup2\n        /* \"#utility.yul\":1937:1950   */\n      iszero\n        /* \"#utility.yul\":1930:1951   */\n      iszero\n        /* \"#utility.yul\":1919:1951   */\n      swap1\n      pop\n        /* \"#utility.yul\":1867:1957   */\n      swap2\n      swap1\n      pop\n      jump\t// out\n        /* \"#utility.yul\":1963:2072   */\n    tag_202:\n        /* \"#utility.yul\":2044:2065   */\n      tag_283\n        /* \"#utility.yul\":2059:2064   */\n      dup2\n        /* \"#utility.yul\":2044:2065   */\n      tag_201\n      jump\t// in\n    tag_283:\n        /* \"#utility.yul\":2039:2042   */\n      dup3\n        /* \"#utility.yul\":2032:2066   */\n      mstore\n        /* \"#utility.yul\":1963:2072   */\n      pop\n      pop\n      jump\t// out\n        /* \"#utility.yul\":2078:2288   */\n    tag_33:\n        /* \"#utility.yul\":2165:2169   */\n      0x00\n        /* \"#utility.yul\":2203:2205   */\n      0x20\n        /* \"#utility.yul\":2192:2201   */\n      dup3\n        /* \"#utility.yul\":2188:2206   */\n      add\n        /* \"#utility.yul\":2180:2206   */\n      swap1\n      pop\n        /* \"#utility.yul\":2216:2281   */\n      tag_285\n        /* \"#utility.yul\":2278:2279   */\n      0x00\n        /* \"#utility.yul\":2267:2276   */\n      dup4\n        /* \"#utility.yul\":2263:2280   */\n      add\n        /* \"#utility.yul\":2254:2260   */\n      dup5\n        /* \"#utility.yul\":2216:2281   */\n      tag_202\n      jump\t// in\n    tag_285:\n        /* \"#utility.yul\":2078:2288   */\n      swap3\n      swap2\n      pop\n      pop\n      jump\t// out\n        /* \"#utility.yul\":2294:2412   */\n    tag_203:\n        /* \"#utility.yul\":2381:2405   */\n      tag_287\n        /* \"#utility.yul\":2399:2404   */\n      dup2\n        /* \"#utility.yul\":2381:2405   */\n      tag_194\n      jump\t// in\n    tag_287:\n        /* \"#utility.yul\":2376:2379   */\n      dup3\n        /* \"#utility.yul\":2369:2406   */\n      mstore\n        /* \"#utility.yul\":2294:2412   */\n      pop\n      pop\n      jump\t// out\n        /* \"#utility.yul\":2418:2640   */\n    tag_38:\n        /* \"#utility.yul\":2511:2515   */\n      0x00\n        /* \"#utility.yul\":2549:2551   */\n      0x20\n        /* \"#utility.yul\":2538:2547   */\n      dup3\n        /* \"#utility.yul\":2534:2552   */\n      add\n        /* \"#utility.yul\":2526:2552   */\n      swap1\n      pop\n        /* \"#utility.yul\":2562:2633   */\n      tag_289\n        /* \"#utility.yul\":2630:2631   */\n      0x00\n        /* \"#utility.yul\":2619:2628   */\n      dup4\n        /* \"#utility.yul\":2615:2632   */\n      add\n        /* \"#utility.yul\":2606:2612   */\n      dup5\n        /* \"#utility.yul\":2562:2633   */\n      tag_203\n      jump\t// in\n    tag_289:\n        /* \"#utility.yul\":2418:2640   */\n      swap3\n      swap2\n      pop\n      pop\n      jump\t// out\n        /* \"#utility.yul\":2646:2745   */\n    tag_204:\n        /* \"#utility.yul\":2698:2704   */\n      0x00\n        /* \"#utility.yul\":2732:2737   */\n      dup2\n        /* \"#utility.yul\":2726:2738   */\n      mload\n        /* \"#utility.yul\":2716:2738   */\n      swap1\n      pop\n        /* \"#utility.yul\":2646:2745   */\n      swap2\n      swap1\n      pop\n      jump\t// out\n        /* \"#utility.yul\":2751:2920   */\n    tag_205:\n        /* \"#utility.yul\":2835:2846   */\n      0x00\n        /* \"#utility.yul\":2869:2875   */\n      dup3\n        /* \"#utility.yul\":2864:2867   */\n      dup3\n        /* \"#utility.yul\":2857:2876   */\n      mstore\n        /* \"#utility.yul\":2909:2913   */\n      0x20\n        /* \"#utility.yul\":2904:2907   */\n      dup3\n        /* \"#utility.yul\":2900:2914   */\n      add\n        /* \"#utility.yul\":2885:2914   */\n      swap1\n      pop\n        /* \"#utility.yul\":2751:2920   */\n      swap3\n      swap2\n      pop\n      pop\n      jump\t// out\n        /* \"#utility.yul\":2926:3065   */\n    tag_206:\n        /* \"#utility.yul\":3015:3021   */\n      dup3\n        /* \"#utility.yul\":3010:3013   */\n      dup2\n        /* \"#utility.yul\":3005:3008   */\n      dup4\n        /* \"#utility.yul\":2999:3022   */\n      mcopy\n        /* \"#utility.yul\":3056:3057   */\n      0x00\n        /* \"#utility.yul\":3047:3053   */\n      dup4\n        /* \"#utility.yul\":3042:3045   */\n      dup4\n        /* \"#utility.yul\":3038:3054   */\n      add\n        /* \"#utility.yul\":3031:3058   */\n      mstore\n        /* \"#utility.yul\":2926:3065   */\n      pop\n      pop\n      pop\n      jump\t// out\n        /* \"#utility.yul\":3071:3173   */\n    tag_207:\n        /* \"#utility.yul\":3112:3118   */\n      0x00\n        /* \"#utility.yul\":3163:3165   */\n      0x1f\n        /* \"#utility.yul\":3159:3166   */\n      not\n        /* \"#utility.yul\":3154:3156   */\n      0x1f\n        /* \"#utility.yul\":3147:3152   */\n      dup4\n        /* \"#utility.yul\":3143:3157   */\n      add\n        /* \"#utility.yul\":3139:3167   */\n      and\n        /* \"#utility.yul\":3129:3167   */\n      swap1\n      pop\n        /* \"#utility.yul\":3071:3173   */\n      swap2\n      swap1\n      pop\n      jump\t// out\n        /* \"#utility.yul\":3179:3556   */\n    tag_208:\n        /* \"#utility.yul\":3267:3270   */\n      0x00\n        /* \"#utility.yul\":3295:3334   */\n      tag_295\n        /* \"#utility.yul\":3328:3333   */\n      dup3\n        /* \"#utility.yul\":3295:3334   */\n      tag_204\n      jump\t// in\n    tag_295:\n        /* \"#utility.yul\":3350:3421   */\n      tag_296\n        /* \"#utility.yul\":3414:3420   */\n      dup2\n        /* \"#utility.yul\":3409:3412   */\n      dup6\n        /* \"#utility.yul\":3350:3421   */\n      tag_205\n      jump\t// in\n    tag_296:\n        /* \"#utility.yul\":3343:3421   */\n      swap4\n      pop\n        /* \"#utility.yul\":3430:3495   */\n      tag_297\n        /* \"#utility.yul\":3488:3494   */\n      dup2\n        /* \"#utility.yul\":3483:3486   */\n      dup6\n        /* \"#utility.yul\":3476:3480   */\n      0x20\n        /* \"#utility.yul\":3469:3474   */\n      dup7\n        /* \"#utility.yul\":3465:3481   */\n      add\n        /* \"#utility.yul\":3430:3495   */\n      tag_206\n      jump\t// in\n    tag_297:\n        /* \"#utility.yul\":3520:3549   */\n      tag_298\n        /* \"#utility.yul\":3542:3548   */\n      dup2\n        /* \"#utility.yul\":3520:3549   */\n      tag_207\n      jump\t// in\n    tag_298:\n        /* \"#utility.yul\":3515:3518   */\n      dup5\n        /* \"#utility.yul\":3511:3550   */\n      add\n        /* \"#utility.yul\":3504:3550   */\n      swap2\n      pop\n        /* \"#utility.yul\":3271:3556   */\n      pop\n        /* \"#utility.yul\":3179:3556   */\n      swap3\n      swap2\n      pop\n      pop\n      jump\t// out\n        /* \"#utility.yul\":3562:3680   */\n    tag_209:\n        /* \"#utility.yul\":3649:3673   */\n      tag_300\n        /* \"#utility.yul\":3667:3672   */\n      dup2\n        /* \"#utility.yul\":3649:3673   */\n      tag_198\n      jump\t// in\n    tag_300:\n        /* \"#utility.yul\":3644:3647   */\n      dup3\n        /* \"#utility.yul\":3637:3674   */\n      mstore\n        /* \"#utility.yul\":3562:3680   */\n      pop\n      pop\n      jump\t// out\n        /* \"#utility.yul\":3686:5291   */\n    tag_47:\n        /* \"#utility.yul\":4120:4124   */\n      0x00\n        /* \"#utility.yul\":4158:4161   */\n      0x0160\n        /* \"#utility.yul\":4147:4156   */\n      dup3\n        /* \"#utility.yul\":4143:4162   */\n      add\n        /* \"#utility.yul\":4135:4162   */\n      swap1\n      pop\n        /* \"#utility.yul\":4208:4217   */\n      dup2\n        /* \"#utility.yul\":4202:4206   */\n      dup2\n        /* \"#utility.yul\":4198:4218   */\n      sub\n        /* \"#utility.yul\":4194:4195   */\n      0x00\n        /* \"#utility.yul\":4183:4192   */\n      dup4\n        /* \"#utility.yul\":4179:4196   */\n      add\n        /* \"#utility.yul\":4172:4219   */\n      mstore\n        /* \"#utility.yul\":4236:4314   */\n      tag_302\n        /* \"#utility.yul\":4309:4313   */\n      dup2\n        /* \"#utility.yul\":4300:4306   */\n      dup15\n        /* \"#utility.yul\":4236:4314   */\n      tag_208\n      jump\t// in\n    tag_302:\n        /* \"#utility.yul\":4228:4314   */\n      swap1\n      pop\n        /* \"#utility.yul\":4361:4370   */\n      dup2\n        /* \"#utility.yul\":4355:4359   */\n      dup2\n        /* \"#utility.yul\":4351:4371   */\n      sub\n        /* \"#utility.yul\":4346:4348   */\n      0x20\n        /* \"#utility.yul\":4335:4344   */\n      dup4\n        /* \"#utility.yul\":4331:4349   */\n      add\n        /* \"#utility.yul\":4324:4372   */\n      mstore\n        /* \"#utility.yul\":4389:4467   */\n      tag_303\n        /* \"#utility.yul\":4462:4466   */\n      dup2\n        /* \"#utility.yul\":4453:4459   */\n      dup14\n        /* \"#utility.yul\":4389:4467   */\n      tag_208\n      jump\t// in\n    tag_303:\n        /* \"#utility.yul\":4381:4467   */\n      swap1\n      pop\n        /* \"#utility.yul\":4514:4523   */\n      dup2\n        /* \"#utility.yul\":4508:4512   */\n      dup2\n        /* \"#utility.yul\":4504:4524   */\n      sub\n        /* \"#utility.yul\":4499:4501   */\n      0x40\n        /* \"#utility.yul\":4488:4497   */\n      dup4\n        /* \"#utility.yul\":4484:4502   */\n      add\n        /* \"#utility.yul\":4477:4525   */\n      mstore\n        /* \"#utility.yul\":4542:4620   */\n      tag_304\n        /* \"#utility.yul\":4615:4619   */\n      dup2\n        /* \"#utility.yul\":4606:4612   */\n      dup13\n        /* \"#utility.yul\":4542:4620   */\n      tag_208\n      jump\t// in\n    tag_304:\n        /* \"#utility.yul\":4534:4620   */\n      swap1\n      pop\n        /* \"#utility.yul\":4630:4702   */\n      tag_305\n        /* \"#utility.yul\":4698:4700   */\n      0x60\n        /* \"#utility.yul\":4687:4696   */\n      dup4\n        /* \"#utility.yul\":4683:4701   */\n      add\n        /* \"#utility.yul\":4674:4680   */\n      dup12\n        /* \"#utility.yul\":4630:4702   */\n      tag_203\n      jump\t// in\n    tag_305:\n        /* \"#utility.yul\":4712:4785   */\n      tag_306\n        /* \"#utility.yul\":4780:4783   */\n      0x80\n        /* \"#utility.yul\":4769:4778   */\n      dup4\n        /* \"#utility.yul\":4765:4784   */\n      add\n        /* \"#utility.yul\":4756:4762   */\n      dup11\n        /* \"#utility.yul\":4712:4785   */\n      tag_203\n      jump\t// in\n    tag_306:\n        /* \"#utility.yul\":4795:4868   */\n      tag_307\n        /* \"#utility.yul\":4863:4866   */\n      0xa0\n        /* \"#utility.yul\":4852:4861   */\n      dup4\n        /* \"#utility.yul\":4848:4867   */\n      add\n        /* \"#utility.yul\":4839:4845   */\n      dup10\n        /* \"#utility.yul\":4795:4868   */\n      tag_203\n      jump\t// in\n    tag_307:\n        /* \"#utility.yul\":4878:4951   */\n      tag_308\n        /* \"#utility.yul\":4946:4949   */\n      0xc0\n        /* \"#utility.yul\":4935:4944   */\n      dup4\n        /* \"#utility.yul\":4931:4950   */\n      add\n        /* \"#utility.yul\":4922:4928   */\n      dup9\n        /* \"#utility.yul\":4878:4951   */\n      tag_203\n      jump\t// in\n    tag_308:\n        /* \"#utility.yul\":4961:5034   */\n      tag_309\n        /* \"#utility.yul\":5029:5032   */\n      0xe0\n        /* \"#utility.yul\":5018:5027   */\n      dup4\n        /* \"#utility.yul\":5014:5033   */\n      add\n        /* \"#utility.yul\":5005:5011   */\n      dup8\n        /* \"#utility.yul\":4961:5034   */\n      tag_203\n      jump\t// in\n    tag_309:\n        /* \"#utility.yul\":5044:5117   */\n      tag_310\n        /* \"#utility.yul\":5112:5115   */\n      0x0100\n        /* \"#utility.yul\":5101:5110   */\n      dup4\n        /* \"#utility.yul\":5097:5116   */\n      add\n        /* \"#utility.yul\":5088:5094   */\n      dup7\n        /* \"#utility.yul\":5044:5117   */\n      tag_209\n      jump\t// in\n    tag_310:\n        /* \"#utility.yul\":5127:5200   */\n      tag_311\n        /* \"#utility.yul\":5195:5198   */\n      0x0120\n        /* \"#utility.yul\":5184:5193   */\n      dup4\n        /* \"#utility.yul\":5180:5199   */\n      add\n        /* \"#utility.yul\":5171:5177   */\n      dup6\n        /* \"#utility.yul\":5127:5200   */\n      tag_203\n      jump\t// in\n    tag_311:\n        /* \"#utility.yul\":5210:5284   */\n      tag_312\n        /* \"#utility.yul\":5279:5282   */\n      0x0140\n        /* \"#utility.yul\":5268:5277   */\n      dup4\n        /* \"#utility.yul\":5264:5283   */\n      add\n        /* \"#utility.yul\":5254:5261   */\n      dup5\n        /* \"#utility.yul\":5210:5284   */\n      tag_203\n      jump\t// in\n    tag_312:\n        /* \"#utility.yul\":3686:5291   */\n      swap13\n      swap12\n      pop\n      pop\n      pop\n      pop\n      pop\n      pop\n      pop\n      pop\n      pop\n      pop\n      pop\n      pop\n      jump\t// out\n        /* \"#utility.yul\":5297:5519   */\n    tag_52:\n        /* \"#utility.yul\":5390:5394   */\n      0x00\n        /* \"#utility.yul\":5428:5430   */\n      0x20\n        /* \"#utility.yul\":5417:5426   */\n      dup3\n        /* \"#utility.yul\":5413:5431   */\n      add\n        /* \"#utility.yul\":5405:5431   */\n      swap1\n      pop\n        /* \"#utility.yul\":5441:5512   */\n      tag_314\n        /* \"#utility.yul\":5509:5510   */\n      0x00\n        /* \"#utility.yul\":5498:5507   */\n      dup4\n        /* \"#utility.yul\":5494:5511   */\n      add\n        /* \"#utility.yul\":5485:5491   */\n      dup5\n        /* \"#utility.yul\":5441:5512   */\n      tag_209\n      jump\t// in\n    tag_314:\n        /* \"#utility.yul\":5297:5519   */\n      swap3\n      swap2\n      pop\n      pop\n      jump\t// out\n        /* \"#utility.yul\":5525:5838   */\n    tag_57:\n        /* \"#utility.yul\":5638:5642   */\n      0x00\n        /* \"#utility.yul\":5676:5678   */\n      0x20\n        /* \"#utility.yul\":5665:5674   */\n      dup3\n        /* \"#utility.yul\":5661:5679   */\n      add\n        /* \"#utility.yul\":5653:5679   */\n      swap1\n      pop\n        /* \"#utility.yul\":5725:5734   */\n      dup2\n        /* \"#utility.yul\":5719:5723   */\n      dup2\n        /* \"#utility.yul\":5715:5735   */\n      sub\n        /* \"#utility.yul\":5711:5712   */\n      0x00\n        /* \"#utility.yul\":5700:5709   */\n      dup4\n        /* \"#utility.yul\":5696:5713   */\n      add\n        /* \"#utility.yul\":5689:5736   */\n      mstore\n        /* \"#utility.yul\":5753:5831   */\n      tag_316\n        /* \"#utility.yul\":5826:5830   */\n      dup2\n        /* \"#utility.yul\":5817:5823   */\n      dup5\n        /* \"#utility.yul\":5753:5831   */\n      tag_208\n      jump\t// in\n    tag_316:\n        /* \"#utility.yul\":5745:5831   */\n      swap1\n      pop\n        /* \"#utility.yul\":5525:5838   */\n      swap3\n      swap2\n      pop\n      pop\n      jump\t// out\n        /* \"#utility.yul\":5844:5948   */\n    tag_210:\n        /* \"#utility.yul\":5889:5896   */\n      0x00\n        /* \"#utility.yul\":5918:5942   */\n      tag_318\n        /* \"#utility.yul\":5936:5941   */\n      dup3\n        /* \"#utility.yul\":5918:5942   */\n      tag_197\n      jump\t// in\n    tag_318:\n        /* \"#utility.yul\":5907:5942   */\n      swap1\n      pop\n        /* \"#utility.yul\":5844:5948   */\n      swap2\n      swap1\n      pop\n      jump\t// out\n        /* \"#utility.yul\":5954:6096   */\n    tag_211:\n        /* \"#utility.yul\":6057:6089   */\n      tag_320\n        /* \"#utility.yul\":6083:6088   */\n      dup2\n        /* \"#utility.yul\":6057:6089   */\n      tag_210\n      jump\t// in\n    tag_320:\n        /* \"#utility.yul\":6052:6055   */\n      dup3\n        /* \"#utility.yul\":6045:6090   */\n      mstore\n        /* \"#utility.yul\":5954:6096   */\n      pop\n      pop\n      jump\t// out\n        /* \"#utility.yul\":6102:6877   */\n    tag_67:\n        /* \"#utility.yul\":6337:6341   */\n      0x00\n        /* \"#utility.yul\":6375:6378   */\n      0xa0\n        /* \"#utility.yul\":6364:6373   */\n      dup3\n        /* \"#utility.yul\":6360:6379   */\n      add\n        /* \"#utility.yul\":6352:6379   */\n      swap1\n      pop\n        /* \"#utility.yul\":6425:6434   */\n      dup2\n        /* \"#utility.yul\":6419:6423   */\n      dup2\n        /* \"#utility.yul\":6415:6435   */\n      sub\n        /* \"#utility.yul\":6411:6412   */\n      0x00\n        /* \"#utility.yul\":6400:6409   */\n      dup4\n        /* \"#utility.yul\":6396:6413   */\n      add\n        /* \"#utility.yul\":6389:6436   */\n      mstore\n        /* \"#utility.yul\":6453:6531   */\n      tag_322\n        /* \"#utility.yul\":6526:6530   */\n      dup2\n        /* \"#utility.yul\":6517:6523   */\n      dup9\n        /* \"#utility.yul\":6453:6531   */\n      tag_208\n      jump\t// in\n    tag_322:\n        /* \"#utility.yul\":6445:6531   */\n      swap1\n      pop\n        /* \"#utility.yul\":6541:6613   */\n      tag_323\n        /* \"#utility.yul\":6609:6611   */\n      0x20\n        /* \"#utility.yul\":6598:6607   */\n      dup4\n        /* \"#utility.yul\":6594:6612   */\n      add\n        /* \"#utility.yul\":6585:6591   */\n      dup8\n        /* \"#utility.yul\":6541:6613   */\n      tag_203\n      jump\t// in\n    tag_323:\n        /* \"#utility.yul\":6623:6711   */\n      tag_324\n        /* \"#utility.yul\":6707:6709   */\n      0x40\n        /* \"#utility.yul\":6696:6705   */\n      dup4\n        /* \"#utility.yul\":6692:6710   */\n      add\n        /* \"#utility.yul\":6683:6689   */\n      dup7\n        /* \"#utility.yul\":6623:6711   */\n      tag_211\n      jump\t// in\n    tag_324:\n        /* \"#utility.yul\":6721:6787   */\n      tag_325\n        /* \"#utility.yul\":6783:6785   */\n      0x60\n        /* \"#utility.yul\":6772:6781   */\n      dup4\n        /* \"#utility.yul\":6768:6786   */\n      add\n        /* \"#utility.yul\":6759:6765   */\n      dup6\n        /* \"#utility.yul\":6721:6787   */\n      tag_202\n      jump\t// in\n    tag_325:\n        /* \"#utility.yul\":6797:6870   */\n      tag_326\n        /* \"#utility.yul\":6865:6868   */\n      0x80\n        /* \"#utility.yul\":6854:6863   */\n      dup4\n        /* \"#utility.yul\":6850:6869   */\n      add\n        /* \"#utility.yul\":6841:6847   */\n      dup5\n        /* \"#utility.yul\":6797:6870   */\n      tag_203\n      jump\t// in\n    tag_326:\n        /* \"#utility.yul\":6102:6877   */\n      swap7\n      swap6\n      pop\n      pop\n      pop\n      pop\n      pop\n      pop\n      jump\t// out\n        /* \"#utility.yul\":6883:7000   */\n    tag_212:\n        /* \"#utility.yul\":6992:6993   */\n      0x00\n        /* \"#utility.yul\":6989:6990   */\n      0x00\n        /* \"#utility.yul\":6982:6994   */\n      revert\n        /* \"#utility.yul\":7006:7123   */\n    tag_213:\n        /* \"#utility.yul\":7115:7116   */\n      0x00\n        /* \"#utility.yul\":7112:7113   */\n      0x00\n        /* \"#utility.yul\":7105:7117   */\n      revert\n        /* \"#utility.yul\":7129:7309   */\n    tag_214:\n        /* \"#utility.yul\":7177:7254   */\n      0x4e487b7100000000000000000000000000000000000000000000000000000000\n        /* \"#utility.yul\":7174:7175   */\n      0x00\n        /* \"#utility.yul\":7167:7255   */\n      mstore\n        /* \"#utility.yul\":7274:7278   */\n      0x41\n        /* \"#utility.yul\":7271:7272   */\n      0x04\n        /* \"#utility.yul\":7264:7279   */\n      mstore\n        /* \"#utility.yul\":7298:7302   */\n      0x24\n        /* \"#utility.yul\":7295:7296   */\n      0x00\n        /* \"#utility.yul\":7288:7303   */\n      revert\n        /* \"#utility.yul\":7315:7596   */\n    tag_215:\n        /* \"#utility.yul\":7398:7425   */\n      tag_331\n        /* \"#utility.yul\":7420:7424   */\n      dup3\n        /* \"#utility.yul\":7398:7425   */\n      tag_207\n      jump\t// in\n    tag_331:\n        /* \"#utility.yul\":7390:7396   */\n      dup2\n        /* \"#utility.yul\":7386:7426   */\n      add\n        /* \"#utility.yul\":7528:7534   */\n      dup2\n        /* \"#utility.yul\":7516:7526   */\n      dup2\n        /* \"#utility.yul\":7513:7535   */\n      lt\n        /* \"#utility.yul\":7492:7510   */\n      0xffffffffffffffff\n        /* \"#utility.yul\":7480:7490   */\n      dup3\n        /* \"#utility.yul\":7477:7511   */\n      gt\n        /* \"#utility.yul\":7474:7536   */\n      or\n        /* \"#utility.yul\":7471:7559   */\n      iszero\n      tag_332\n      jumpi\n        /* \"#utility.yul\":7539:7557   */\n      tag_333\n      tag_214\n      jump\t// in\n    tag_333:\n        /* \"#utility.yul\":7471:7559   */\n    tag_332:\n        /* \"#utility.yul\":7579:7589   */\n      dup1\n        /* \"#utility.yul\":7575:7577   */\n      0x40\n        /* \"#utility.yul\":7568:7590   */\n      mstore\n        /* \"#utility.yul\":7358:7596   */\n      pop\n        /* \"#utility.yul\":7315:7596   */\n      pop\n      pop\n      jump\t// out\n        /* \"#utility.yul\":7602:7731   */\n    tag_216:\n        /* \"#utility.yul\":7636:7642   */\n      0x00\n        /* \"#utility.yul\":7663:7683   */\n      tag_335\n      tag_191\n      jump\t// in\n    tag_335:\n        /* \"#utility.yul\":7653:7683   */\n      swap1\n      pop\n        /* \"#utility.yul\":7692:7725   */\n      tag_336\n        /* \"#utility.yul\":7720:7724   */\n      dup3\n        /* \"#utility.yul\":7712:7718   */\n      dup3\n        /* \"#utility.yul\":7692:7725   */\n      tag_215\n      jump\t// in\n    tag_336:\n        /* \"#utility.yul\":7602:7731   */\n      swap2\n      swap1\n      pop\n      jump\t// out\n        /* \"#utility.yul\":7737:8045   */\n    tag_217:\n        /* \"#utility.yul\":7799:7803   */\n      0x00\n        /* \"#utility.yul\":7889:7907   */\n      0xffffffffffffffff\n        /* \"#utility.yul\":7881:7887   */\n      dup3\n        /* \"#utility.yul\":7878:7908   */\n      gt\n        /* \"#utility.yul\":7875:7931   */\n      iszero\n      tag_338\n      jumpi\n        /* \"#utility.yul\":7911:7929   */\n      tag_339\n      tag_214\n      jump\t// in\n    tag_339:\n        /* \"#utility.yul\":7875:7931   */\n    tag_338:\n        /* \"#utility.yul\":7949:7978   */\n      tag_340\n        /* \"#utility.yul\":7971:7977   */\n      dup3\n        /* \"#utility.yul\":7949:7978   */\n      tag_207\n      jump\t// in\n    tag_340:\n        /* \"#utility.yul\":7941:7978   */\n      swap1\n      pop\n        /* \"#utility.yul\":8033:8037   */\n      0x20\n        /* \"#utility.yul\":8027:8031   */\n      dup2\n        /* \"#utility.yul\":8023:8038   */\n      add\n        /* \"#utility.yul\":8015:8038   */\n      swap1\n      pop\n        /* \"#utility.yul\":7737:8045   */\n      swap2\n      swap1\n      pop\n      jump\t// out\n        /* \"#utility.yul\":8051:8199   */\n    tag_218:\n        /* \"#utility.yul\":8149:8155   */\n      dup3\n        /* \"#utility.yul\":8144:8147   */\n      dup2\n        /* \"#utility.yul\":8139:8142   */\n      dup4\n        /* \"#utility.yul\":8126:8156   */\n      calldatacopy\n        /* \"#utility.yul\":8190:8191   */\n      0x00\n        /* \"#utility.yul\":8181:8187   */\n      dup4\n        /* \"#utility.yul\":8176:8179   */\n      dup4\n        /* \"#utility.yul\":8172:8188   */\n      add\n        /* \"#utility.yul\":8165:8192   */\n      mstore\n        /* \"#utility.yul\":8051:8199   */\n      pop\n      pop\n      pop\n      jump\t// out\n        /* \"#utility.yul\":8205:8630   */\n    tag_219:\n        /* \"#utility.yul\":8283:8288   */\n      0x00\n        /* \"#utility.yul\":8308:8374   */\n      tag_343\n        /* \"#utility.yul\":8324:8373   */\n      tag_344\n        /* \"#utility.yul\":8366:8372   */\n      dup5\n        /* \"#utility.yul\":8324:8373   */\n      tag_217\n      jump\t// in\n    tag_344:\n        /* \"#utility.yul\":8308:8374   */\n      tag_216\n      jump\t// in\n    tag_343:\n        /* \"#utility.yul\":8299:8374   */\n      swap1\n      pop\n        /* \"#utility.yul\":8397:8403   */\n      dup3\n        /* \"#utility.yul\":8390:8395   */\n      dup2\n        /* \"#utility.yul\":8383:8404   */\n      mstore\n        /* \"#utility.yul\":8435:8439   */\n      0x20\n        /* \"#utility.yul\":8428:8433   */\n      dup2\n        /* \"#utility.yul\":8424:8440   */\n      add\n        /* \"#utility.yul\":8473:8476   */\n      dup5\n        /* \"#utility.yul\":8464:8470   */\n      dup5\n        /* \"#utility.yul\":8459:8462   */\n      dup5\n        /* \"#utility.yul\":8455:8471   */\n      add\n        /* \"#utility.yul\":8452:8477   */\n      gt\n        /* \"#utility.yul\":8449:8561   */\n      iszero\n      tag_345\n      jumpi\n        /* \"#utility.yul\":8480:8559   */\n      tag_346\n      tag_213\n      jump\t// in\n    tag_346:\n        /* \"#utility.yul\":8449:8561   */\n    tag_345:\n        /* \"#utility.yul\":8570:8624   */\n      tag_347\n        /* \"#utility.yul\":8617:8623   */\n      dup5\n        /* \"#utility.yul\":8612:8615   */\n      dup3\n        /* \"#utility.yul\":8607:8610   */\n      dup6\n        /* \"#utility.yul\":8570:8624   */\n      tag_218\n      jump\t// in\n    tag_347:\n        /* \"#utility.yul\":8289:8630   */\n      pop\n        /* \"#utility.yul\":8205:8630   */\n      swap4\n      swap3\n      pop\n      pop\n      pop\n      jump\t// out\n        /* \"#utility.yul\":8650:8990   */\n    tag_220:\n        /* \"#utility.yul\":8706:8711   */\n      0x00\n        /* \"#utility.yul\":8755:8758   */\n      dup3\n        /* \"#utility.yul\":8748:8752   */\n      0x1f\n        /* \"#utility.yul\":8740:8746   */\n      dup4\n        /* \"#utility.yul\":8736:8753   */\n      add\n        /* \"#utility.yul\":8732:8759   */\n      slt\n        /* \"#utility.yul\":8722:8844   */\n      tag_349\n      jumpi\n        /* \"#utility.yul\":8763:8842   */\n      tag_350\n      tag_212\n      jump\t// in\n    tag_350:\n        /* \"#utility.yul\":8722:8844   */\n    tag_349:\n        /* \"#utility.yul\":8880:8886   */\n      dup2\n        /* \"#utility.yul\":8867:8887   */\n      calldataload\n        /* \"#utility.yul\":8905:8984   */\n      tag_351\n        /* \"#utility.yul\":8980:8983   */\n      dup5\n        /* \"#utility.yul\":8972:8978   */\n      dup3\n        /* \"#utility.yul\":8965:8969   */\n      0x20\n        /* \"#utility.yul\":8957:8963   */\n      dup7\n        /* \"#utility.yul\":8953:8970   */\n      add\n        /* \"#utility.yul\":8905:8984   */\n      tag_219\n      jump\t// in\n    tag_351:\n        /* \"#utility.yul\":8896:8984   */\n      swap2\n      pop\n        /* \"#utility.yul\":8712:8990   */\n      pop\n        /* \"#utility.yul\":8650:8990   */\n      swap3\n      swap2\n      pop\n      pop\n      jump\t// out\n        /* \"#utility.yul\":8996:9134   */\n    tag_221:\n        /* \"#utility.yul\":9077:9109   */\n      tag_353\n        /* \"#utility.yul\":9103:9108   */\n      dup2\n        /* \"#utility.yul\":9077:9109   */\n      tag_210\n      jump\t// in\n    tag_353:\n        /* \"#utility.yul\":9070:9075   */\n      dup2\n        /* \"#utility.yul\":9067:9110   */\n      eq\n        /* \"#utility.yul\":9057:9128   */\n      tag_354\n      jumpi\n        /* \"#utility.yul\":9124:9125   */\n      0x00\n        /* \"#utility.yul\":9121:9122   */\n      0x00\n        /* \"#utility.yul\":9114:9126   */\n      revert\n        /* \"#utility.yul\":9057:9128   */\n    tag_354:\n        /* \"#utility.yul\":8996:9134   */\n      pop\n      jump\t// out\n        /* \"#utility.yul\":9140:9295   */\n    tag_222:\n        /* \"#utility.yul\":9194:9199   */\n      0x00\n        /* \"#utility.yul\":9232:9238   */\n      dup2\n        /* \"#utility.yul\":9219:9239   */\n      calldataload\n        /* \"#utility.yul\":9210:9239   */\n      swap1\n      pop\n        /* \"#utility.yul\":9248:9289   */\n      tag_356\n        /* \"#utility.yul\":9283:9288   */\n      dup2\n        /* \"#utility.yul\":9248:9289   */\n      tag_221\n      jump\t// in\n    tag_356:\n        /* \"#utility.yul\":9140:9295   */\n      swap3\n      swap2\n      pop\n      pop\n      jump\t// out\n        /* \"#utility.yul\":9301:10116   */\n    tag_75:\n        /* \"#utility.yul\":9396:9402   */\n      0x00\n        /* \"#utility.yul\":9404:9410   */\n      0x00\n        /* \"#utility.yul\":9412:9418   */\n      0x00\n        /* \"#utility.yul\":9461:9463   */\n      0x60\n        /* \"#utility.yul\":9449:9458   */\n      dup5\n        /* \"#utility.yul\":9440:9447   */\n      dup7\n        /* \"#utility.yul\":9436:9459   */\n      sub\n        /* \"#utility.yul\":9432:9464   */\n      slt\n        /* \"#utility.yul\":9429:9548   */\n      iszero\n      tag_358\n      jumpi\n        /* \"#utility.yul\":9467:9546   */\n      tag_359\n      tag_192\n      jump\t// in\n    tag_359:\n        /* \"#utility.yul\":9429:9548   */\n    tag_358:\n        /* \"#utility.yul\":9615:9616   */\n      0x00\n        /* \"#utility.yul\":9604:9613   */\n      dup5\n        /* \"#utility.yul\":9600:9617   */\n      add\n        /* \"#utility.yul\":9587:9618   */\n      calldataload\n        /* \"#utility.yul\":9645:9663   */\n      0xffffffffffffffff\n        /* \"#utility.yul\":9637:9643   */\n      dup2\n        /* \"#utility.yul\":9634:9664   */\n      gt\n        /* \"#utility.yul\":9631:9748   */\n      iszero\n      tag_360\n      jumpi\n        /* \"#utility.yul\":9667:9746   */\n      tag_361\n      tag_193\n      jump\t// in\n    tag_361:\n        /* \"#utility.yul\":9631:9748   */\n    tag_360:\n        /* \"#utility.yul\":9772:9835   */\n      tag_362\n        /* \"#utility.yul\":9827:9834   */\n      dup7\n        /* \"#utility.yul\":9818:9824   */\n      dup3\n        /* \"#utility.yul\":9807:9816   */\n      dup8\n        /* \"#utility.yul\":9803:9825   */\n      add\n        /* \"#utility.yul\":9772:9835   */\n      tag_220\n      jump\t// in\n    tag_362:\n        /* \"#utility.yul\":9762:9835   */\n      swap4\n      pop\n        /* \"#utility.yul\":9558:9845   */\n      pop\n        /* \"#utility.yul\":9884:9886   */\n      0x20\n        /* \"#utility.yul\":9910:9963   */\n      tag_363\n        /* \"#utility.yul\":9955:9962   */\n      dup7\n        /* \"#utility.yul\":9946:9952   */\n      dup3\n        /* \"#utility.yul\":9935:9944   */\n      dup8\n        /* \"#utility.yul\":9931:9953   */\n      add\n        /* \"#utility.yul\":9910:9963   */\n      tag_196\n      jump\t// in\n    tag_363:\n        /* \"#utility.yul\":9900:9963   */\n      swap3\n      pop\n        /* \"#utility.yul\":9855:9973   */\n      pop\n        /* \"#utility.yul\":10012:10014   */\n      0x40\n        /* \"#utility.yul\":10038:10099   */\n      tag_364\n        /* \"#utility.yul\":10091:10098   */\n      dup7\n        /* \"#utility.yul\":10082:10088   */\n      dup3\n        /* \"#utility.yul\":10071:10080   */\n      dup8\n        /* \"#utility.yul\":10067:10089   */\n      add\n        /* \"#utility.yul\":10038:10099   */\n      tag_222\n      jump\t// in\n    tag_364:\n        /* \"#utility.yul\":10028:10099   */\n      swap2\n      pop\n        /* \"#utility.yul\":9983:10109   */\n      pop\n        /* \"#utility.yul\":9301:10116   */\n      swap3\n      pop\n      swap3\n      pop\n      swap3\n      jump\t// out\n        /* \"#utility.yul\":10122:10345   */\n    tag_223:\n        /* \"#utility.yul\":10262:10296   */\n      0x4f6e6c79206d616e616765722063616e20706572666f726d2074686973206163\n        /* \"#utility.yul\":10258:10259   */\n      0x00\n        /* \"#utility.yul\":10250:10256   */\n      dup3\n        /* \"#utility.yul\":10246:10260   */\n      add\n        /* \"#utility.yul\":10239:10297   */\n      mstore\n        /* \"#utility.yul\":10331:10337   */\n      0x74696f6e00000000000000000000000000000000000000000000000000000000\n        /* \"#utility.yul\":10326:10328   */\n      0x20\n        /* \"#utility.yul\":10318:10324   */\n      dup3\n        /* \"#utility.yul\":10314:10329   */\n      add\n        /* \"#utility.yul\":10307:10338   */\n      mstore\n        /* \"#utility.yul\":10122:10345   */\n      pop\n      jump\t// out\n        /* \"#utility.yul\":10351:10717   */\n    tag_224:\n        /* \"#utility.yul\":10493:10496   */\n      0x00\n        /* \"#utility.yul\":10514:10581   */\n      tag_367\n        /* \"#utility.yul\":10578:10580   */\n      0x24\n        /* \"#utility.yul\":10573:10576   */\n      dup4\n        /* \"#utility.yul\":10514:10581   */\n      tag_205\n      jump\t// in\n    tag_367:\n        /* \"#utility.yul\":10507:10581   */\n      swap2\n      pop\n        /* \"#utility.yul\":10590:10683   */\n      tag_368\n        /* \"#utility.yul\":10679:10682   */\n      dup3\n        /* \"#utility.yul\":10590:10683   */\n      tag_223\n      jump\t// in\n    tag_368:\n        /* \"#utility.yul\":10708:10710   */\n      0x40\n        /* \"#utility.yul\":10703:10706   */\n      dup3\n        /* \"#utility.yul\":10699:10711   */\n      add\n        /* \"#utility.yul\":10692:10711   */\n      swap1\n      pop\n        /* \"#utility.yul\":10351:10717   */\n      swap2\n      swap1\n      pop\n      jump\t// out\n        /* \"#utility.yul\":10723:11142   */\n    tag_102:\n        /* \"#utility.yul\":10889:10893   */\n      0x00\n        /* \"#utility.yul\":10927:10929   */\n      0x20\n        /* \"#utility.yul\":10916:10925   */\n      dup3\n        /* \"#utility.yul\":10912:10930   */\n      add\n        /* \"#utility.yul\":10904:10930   */\n      swap1\n      pop\n        /* \"#utility.yul\":10976:10985   */\n      dup2\n        /* \"#utility.yul\":10970:10974   */\n      dup2\n        /* \"#utility.yul\":10966:10986   */\n      sub\n        /* \"#utility.yul\":10962:10963   */\n      0x00\n        /* \"#utility.yul\":10951:10960   */\n      dup4\n        /* \"#utility.yul\":10947:10964   */\n      add\n        /* \"#utility.yul\":10940:10987   */\n      mstore\n        /* \"#utility.yul\":11004:11135   */\n      tag_370\n        /* \"#utility.yul\":11130:11134   */\n      dup2\n        /* \"#utility.yul\":11004:11135   */\n      tag_224\n      jump\t// in\n    tag_370:\n        /* \"#utility.yul\":10996:11135   */\n      swap1\n      pop\n        /* \"#utility.yul\":10723:11142   */\n      swap2\n      swap1\n      pop\n      jump\t// out\n        /* \"#utility.yul\":11148:11328   */\n    tag_106:\n        /* \"#utility.yul\":11196:11273   */\n      0x4e487b7100000000000000000000000000000000000000000000000000000000\n        /* \"#utility.yul\":11193:11194   */\n      0x00\n        /* \"#utility.yul\":11186:11274   */\n      mstore\n        /* \"#utility.yul\":11293:11297   */\n      0x32\n        /* \"#utility.yul\":11290:11291   */\n      0x04\n        /* \"#utility.yul\":11283:11298   */\n      mstore\n        /* \"#utility.yul\":11317:11321   */\n      0x24\n        /* \"#utility.yul\":11314:11315   */\n      0x00\n        /* \"#utility.yul\":11307:11322   */\n      revert\n        /* \"#utility.yul\":11334:11514   */\n    tag_225:\n        /* \"#utility.yul\":11382:11459   */\n      0x4e487b7100000000000000000000000000000000000000000000000000000000\n        /* \"#utility.yul\":11379:11380   */\n      0x00\n        /* \"#utility.yul\":11372:11460   */\n      mstore\n        /* \"#utility.yul\":11479:11483   */\n      0x12\n        /* \"#utility.yul\":11476:11477   */\n      0x04\n        /* \"#utility.yul\":11469:11484   */\n      mstore\n        /* \"#utility.yul\":11503:11507   */\n      0x24\n        /* \"#utility.yul\":11500:11501   */\n      0x00\n        /* \"#utility.yul\":11493:11508   */\n      revert\n        /* \"#utility.yul\":11520:11700   */\n    tag_226:\n        /* \"#utility.yul\":11568:11645   */\n      0x4e487b7100000000000000000000000000000000000000000000000000000000\n        /* \"#utility.yul\":11565:11566   */\n      0x00\n        /* \"#utility.yul\":11558:11646   */\n      mstore\n        /* \"#utility.yul\":11665:11669   */\n      0x11\n        /* \"#utility.yul\":11662:11663   */\n      0x04\n        /* \"#utility.yul\":11655:11670   */\n      mstore\n        /* \"#utility.yul\":11689:11693   */\n      0x24\n        /* \"#utility.yul\":11686:11687   */\n      0x00\n        /* \"#utility.yul\":11679:11694   */\n      revert\n        /* \"#utility.yul\":11706:11891   */\n    tag_109:\n        /* \"#utility.yul\":11746:11747   */\n      0x00\n        /* \"#utility.yul\":11763:11783   */\n      tag_375\n        /* \"#utility.yul\":11781:11782   */\n      dup3\n        /* \"#utility.yul\":11763:11783   */\n      tag_194\n      jump\t// in\n    tag_375:\n        /* \"#utility.yul\":11758:11783   */\n      swap2\n      pop\n        /* \"#utility.yul\":11797:11817   */\n      tag_376\n        /* \"#utility.yul\":11815:11816   */\n      dup4\n        /* \"#utility.yul\":11797:11817   */\n      tag_194\n      jump\t// in\n    tag_376:\n        /* \"#utility.yul\":11792:11817   */\n      swap3\n      pop\n        /* \"#utility.yul\":11836:11837   */\n      dup3\n        /* \"#utility.yul\":11826:11861   */\n      tag_377\n      jumpi\n        /* \"#utility.yul\":11841:11859   */\n      tag_378\n      tag_225\n      jump\t// in\n    tag_378:\n        /* \"#utility.yul\":11826:11861   */\n    tag_377:\n        /* \"#utility.yul\":11883:11884   */\n      dup3\n        /* \"#utility.yul\":11880:11881   */\n      dup3\n        /* \"#utility.yul\":11876:11885   */\n      div\n        /* \"#utility.yul\":11871:11885   */\n      swap1\n      pop\n        /* \"#utility.yul\":11706:11891   */\n      swap3\n      swap2\n      pop\n      pop\n      jump\t// out\n        /* \"#utility.yul\":11897:12079   */\n    tag_227:\n        /* \"#utility.yul\":12037:12071   */\n      0x4e6f7420656e6f75676820617070726f76616c7320746f2066696e616c697a65\n        /* \"#utility.yul\":12033:12034   */\n      0x00\n        /* \"#utility.yul\":12025:12031   */\n      dup3\n        /* \"#utility.yul\":12021:12035   */\n      add\n        /* \"#utility.yul\":12014:12072   */\n      mstore\n        /* \"#utility.yul\":11897:12079   */\n      pop\n      jump\t// out\n        /* \"#utility.yul\":12085:12451   */\n    tag_228:\n        /* \"#utility.yul\":12227:12230   */\n      0x00\n        /* \"#utility.yul\":12248:12315   */\n      tag_381\n        /* \"#utility.yul\":12312:12314   */\n      0x20\n        /* \"#utility.yul\":12307:12310   */\n      dup4\n        /* \"#utility.yul\":12248:12315   */\n      tag_205\n      jump\t// in\n    tag_381:\n        /* \"#utility.yul\":12241:12315   */\n      swap2\n      pop\n        /* \"#utility.yul\":12324:12417   */\n      tag_382\n        /* \"#utility.yul\":12413:12416   */\n      dup3\n        /* \"#utility.yul\":12324:12417   */\n      tag_227\n      jump\t// in\n    tag_382:\n        /* \"#utility.yul\":12442:12444   */\n      0x20\n        /* \"#utility.yul\":12437:12440   */\n      dup3\n        /* \"#utility.yul\":12433:12445   */\n      add\n        /* \"#utility.yul\":12426:12445   */\n      swap1\n      pop\n        /* \"#utility.yul\":12085:12451   */\n      swap2\n      swap1\n      pop\n      jump\t// out\n        /* \"#utility.yul\":12457:12876   */\n    tag_112:\n        /* \"#utility.yul\":12623:12627   */\n      0x00\n        /* \"#utility.yul\":12661:12663   */\n      0x20\n        /* \"#utility.yul\":12650:12659   */\n      dup3\n        /* \"#utility.yul\":12646:12664   */\n      add\n        /* \"#utility.yul\":12638:12664   */\n      swap1\n      pop\n        /* \"#utility.yul\":12710:12719   */\n      dup2\n        /* \"#utility.yul\":12704:12708   */\n      dup2\n        /* \"#utility.yul\":12700:12720   */\n      sub\n        /* \"#utility.yul\":12696:12697   */\n      0x00\n        /* \"#utility.yul\":12685:12694   */\n      dup4\n        /* \"#utility.yul\":12681:12698   */\n      add\n        /* \"#utility.yul\":12674:12721   */\n      mstore\n        /* \"#utility.yul\":12738:12869   */\n      tag_384\n        /* \"#utility.yul\":12864:12868   */\n      dup2\n        /* \"#utility.yul\":12738:12869   */\n      tag_228\n      jump\t// in\n    tag_384:\n        /* \"#utility.yul\":12730:12869   */\n      swap1\n      pop\n        /* \"#utility.yul\":12457:12876   */\n      swap2\n      swap1\n      pop\n      jump\t// out\n        /* \"#utility.yul\":12882:13108   */\n    tag_229:\n        /* \"#utility.yul\":13022:13056   */\n      0x5468697320726571756573742068617320616c7265616479206265656e20636f\n        /* \"#utility.yul\":13018:13019   */\n      0x00\n        /* \"#utility.yul\":13010:13016   */\n      dup3\n        /* \"#utility.yul\":13006:13020   */\n      add\n        /* \"#utility.yul\":12999:13057   */\n      mstore\n        /* \"#utility.yul\":13091:13100   */\n      0x6d706c6574656400000000000000000000000000000000000000000000000000\n        /* \"#utility.yul\":13086:13088   */\n      0x20\n        /* \"#utility.yul\":13078:13084   */\n      dup3\n        /* \"#utility.yul\":13074:13089   */\n      add\n        /* \"#utility.yul\":13067:13101   */\n      mstore\n        /* \"#utility.yul\":12882:13108   */\n      pop\n      jump\t// out\n        /* \"#utility.yul\":13114:13480   */\n    tag_230:\n        /* \"#utility.yul\":13256:13259   */\n      0x00\n        /* \"#utility.yul\":13277:13344   */\n      tag_387\n        /* \"#utility.yul\":13341:13343   */\n      0x27\n        /* \"#utility.yul\":13336:13339   */\n      dup4\n        /* \"#utility.yul\":13277:13344   */\n      tag_205\n      jump\t// in\n    tag_387:\n        /* \"#utility.yul\":13270:13344   */\n      swap2\n      pop\n        /* \"#utility.yul\":13353:13446   */\n      tag_388\n        /* \"#utility.yul\":13442:13445   */\n      dup3\n        /* \"#utility.yul\":13353:13446   */\n      tag_229\n      jump\t// in\n    tag_388:\n        /* \"#utility.yul\":13471:13473   */\n      0x40\n        /* \"#utility.yul\":13466:13469   */\n      dup3\n        /* \"#utility.yul\":13462:13474   */\n      add\n        /* \"#utility.yul\":13455:13474   */\n      swap1\n      pop\n        /* \"#utility.yul\":13114:13480   */\n      swap2\n      swap1\n      pop\n      jump\t// out\n        /* \"#utility.yul\":13486:13905   */\n    tag_115:\n        /* \"#utility.yul\":13652:13656   */\n      0x00\n        /* \"#utility.yul\":13690:13692   */\n      0x20\n        /* \"#utility.yul\":13679:13688   */\n      dup3\n        /* \"#utility.yul\":13675:13693   */\n      add\n        /* \"#utility.yul\":13667:13693   */\n      swap1\n      pop\n        /* \"#utility.yul\":13739:13748   */\n      dup2\n        /* \"#utility.yul\":13733:13737   */\n      dup2\n        /* \"#utility.yul\":13729:13749   */\n      sub\n        /* \"#utility.yul\":13725:13726   */\n      0x00\n        /* \"#utility.yul\":13714:13723   */\n      dup4\n        /* \"#utility.yul\":13710:13727   */\n      add\n        /* \"#utility.yul\":13703:13750   */\n      mstore\n        /* \"#utility.yul\":13767:13898   */\n      tag_390\n        /* \"#utility.yul\":13893:13897   */\n      dup2\n        /* \"#utility.yul\":13767:13898   */\n      tag_230\n      jump\t// in\n    tag_390:\n        /* \"#utility.yul\":13759:13898   */\n      swap1\n      pop\n        /* \"#utility.yul\":13486:13905   */\n      swap2\n      swap1\n      pop\n      jump\t// out\n        /* \"#utility.yul\":13911:14091   */\n    tag_231:\n        /* \"#utility.yul\":13959:14036   */\n      0x4e487b7100000000000000000000000000000000000000000000000000000000\n        /* \"#utility.yul\":13956:13957   */\n      0x00\n        /* \"#utility.yul\":13949:14037   */\n      mstore\n        /* \"#utility.yul\":14056:14060   */\n      0x22\n        /* \"#utility.yul\":14053:14054   */\n      0x04\n        /* \"#utility.yul\":14046:14061   */\n      mstore\n        /* \"#utility.yul\":14080:14084   */\n      0x24\n        /* \"#utility.yul\":14077:14078   */\n      0x00\n        /* \"#utility.yul\":14070:14085   */\n      revert\n        /* \"#utility.yul\":14097:14417   */\n    tag_121:\n        /* \"#utility.yul\":14141:14147   */\n      0x00\n        /* \"#utility.yul\":14178:14179   */\n      0x02\n        /* \"#utility.yul\":14172:14176   */\n      dup3\n        /* \"#utility.yul\":14168:14180   */\n      div\n        /* \"#utility.yul\":14158:14180   */\n      swap1\n      pop\n        /* \"#utility.yul\":14225:14226   */\n      0x01\n        /* \"#utility.yul\":14219:14223   */\n      dup3\n        /* \"#utility.yul\":14215:14227   */\n      and\n        /* \"#utility.yul\":14246:14264   */\n      dup1\n        /* \"#utility.yul\":14236:14317   */\n      tag_393\n      jumpi\n        /* \"#utility.yul\":14302:14306   */\n      0x7f\n        /* \"#utility.yul\":14294:14300   */\n      dup3\n        /* \"#utility.yul\":14290:14307   */\n      and\n        /* \"#utility.yul\":14280:14307   */\n      swap2\n      pop\n        /* \"#utility.yul\":14236:14317   */\n    tag_393:\n        /* \"#utility.yul\":14364:14366   */\n      0x20\n        /* \"#utility.yul\":14356:14362   */\n      dup3\n        /* \"#utility.yul\":14353:14367   */\n      lt\n        /* \"#utility.yul\":14333:14351   */\n      dup2\n        /* \"#utility.yul\":14330:14368   */\n      sub\n        /* \"#utility.yul\":14327:14411   */\n      tag_394\n      jumpi\n        /* \"#utility.yul\":14383:14401   */\n      tag_395\n      tag_231\n      jump\t// in\n    tag_395:\n        /* \"#utility.yul\":14327:14411   */\n    tag_394:\n        /* \"#utility.yul\":14148:14417   */\n      pop\n        /* \"#utility.yul\":14097:14417   */\n      swap2\n      swap1\n      pop\n      jump\t// out\n        /* \"#utility.yul\":14423:14617   */\n    tag_159:\n        /* \"#utility.yul\":14463:14467   */\n      0x00\n        /* \"#utility.yul\":14483:14503   */\n      tag_397\n        /* \"#utility.yul\":14501:14502   */\n      dup3\n        /* \"#utility.yul\":14483:14503   */\n      tag_194\n      jump\t// in\n    tag_397:\n        /* \"#utility.yul\":14478:14503   */\n      swap2\n      pop\n        /* \"#utility.yul\":14517:14537   */\n      tag_398\n        /* \"#utility.yul\":14535:14536   */\n      dup4\n        /* \"#utility.yul\":14517:14537   */\n      tag_194\n      jump\t// in\n    tag_398:\n        /* \"#utility.yul\":14512:14537   */\n      swap3\n      pop\n        /* \"#utility.yul\":14561:14562   */\n      dup3\n        /* \"#utility.yul\":14558:14559   */\n      dup3\n        /* \"#utility.yul\":14554:14563   */\n      sub\n        /* \"#utility.yul\":14546:14563   */\n      swap1\n      pop\n        /* \"#utility.yul\":14585:14586   */\n      dup2\n        /* \"#utility.yul\":14579:14583   */\n      dup2\n        /* \"#utility.yul\":14576:14587   */\n      gt\n        /* \"#utility.yul\":14573:14610   */\n      iszero\n      tag_399\n      jumpi\n        /* \"#utility.yul\":14590:14608   */\n      tag_400\n      tag_226\n      jump\t// in\n    tag_400:\n        /* \"#utility.yul\":14573:14610   */\n    tag_399:\n        /* \"#utility.yul\":14423:14617   */\n      swap3\n      swap2\n      pop\n      pop\n      jump\t// out\n        /* \"#utility.yul\":14623:14764   */\n    tag_232:\n        /* \"#utility.yul\":14672:14676   */\n      0x00\n        /* \"#utility.yul\":14695:14698   */\n      dup2\n        /* \"#utility.yul\":14687:14698   */\n      swap1\n      pop\n        /* \"#utility.yul\":14718:14721   */\n      dup2\n        /* \"#utility.yul\":14715:14716   */\n      0x00\n        /* \"#utility.yul\":14708:14722   */\n      mstore\n        /* \"#utility.yul\":14752:14756   */\n      0x20\n        /* \"#utility.yul\":14749:14750   */\n      0x00\n        /* \"#utility.yul\":14739:14757   */\n      keccak256\n        /* \"#utility.yul\":14731:14757   */\n      swap1\n      pop\n        /* \"#utility.yul\":14623:14764   */\n      swap2\n      swap1\n      pop\n      jump\t// out\n        /* \"#utility.yul\":14770:14863   */\n    tag_233:\n        /* \"#utility.yul\":14807:14813   */\n      0x00\n        /* \"#utility.yul\":14854:14856   */\n      0x20\n        /* \"#utility.yul\":14849:14851   */\n      0x1f\n        /* \"#utility.yul\":14842:14847   */\n      dup4\n        /* \"#utility.yul\":14838:14852   */\n      add\n        /* \"#utility.yul\":14834:14857   */\n      div\n        /* \"#utility.yul\":14824:14857   */\n      swap1\n      pop\n        /* \"#utility.yul\":14770:14863   */\n      swap2\n      swap1\n      pop\n      jump\t// out\n        /* \"#utility.yul\":14869:14976   */\n    tag_234:\n        /* \"#utility.yul\":14913:14921   */\n      0x00\n        /* \"#utility.yul\":14963:14968   */\n      dup3\n        /* \"#utility.yul\":14957:14961   */\n      dup3\n        /* \"#utility.yul\":14953:14969   */\n      shl\n        /* \"#utility.yul\":14932:14969   */\n      swap1\n      pop\n        /* \"#utility.yul\":14869:14976   */\n      swap3\n      swap2\n      pop\n      pop\n      jump\t// out\n        /* \"#utility.yul\":14982:15375   */\n    tag_235:\n        /* \"#utility.yul\":15051:15057   */\n      0x00\n        /* \"#utility.yul\":15101:15102   */\n      0x08\n        /* \"#utility.yul\":15089:15099   */\n      dup4\n        /* \"#utility.yul\":15085:15103   */\n      mul\n        /* \"#utility.yul\":15124:15221   */\n      tag_405\n        /* \"#utility.yul\":15154:15220   */\n      0xffffffffffffffffffffffffffffffffffffffffffffffffffffffffffffffff\n        /* \"#utility.yul\":15143:15152   */\n      dup3\n        /* \"#utility.yul\":15124:15221   */\n      tag_234\n      jump\t// in\n    tag_405:\n        /* \"#utility.yul\":15242:15281   */\n      tag_406\n        /* \"#utility.yul\":15272:15280   */\n      dup7\n        /* \"#utility.yul\":15261:15270   */\n      dup4\n        /* \"#utility.yul\":15242:15281   */\n      tag_234\n      jump\t// in\n    tag_406:\n        /* \"#utility.yul\":15230:15281   */\n      swap6\n      pop\n        /* \"#utility.yul\":15314:15318   */\n      dup1\n        /* \"#utility.yul\":15310:15319   */\n      not\n        /* \"#utility.yul\":15303:15308   */\n      dup5\n        /* \"#utility.yul\":15299:15320   */\n      and\n        /* \"#utility.yul\":15290:15320   */\n      swap4\n      pop\n        /* \"#utility.yul\":15363:15367   */\n      dup1\n        /* \"#utility.yul\":15353:15361   */\n      dup7\n        /* \"#utility.yul\":15349:15368   */\n      and\n        /* \"#utility.yul\":15342:15347   */\n      dup5\n        /* \"#utility.yul\":15339:15369   */\n      or\n        /* \"#utility.yul\":15329:15369   */\n      swap3\n      pop\n        /* \"#utility.yul\":15058:15375   */\n      pop\n      pop\n        /* \"#utility.yul\":14982:15375   */\n      swap4\n      swap3\n      pop\n      pop\n      pop\n      jump\t// out\n        /* \"#utility.yul\":15381:15441   */\n    tag_236:\n        /* \"#utility.yul\":15409:15412   */\n      0x00\n        /* \"#utility.yul\":15430:15435   */\n      dup2\n        /* \"#utility.yul\":15423:15435   */\n      swap1\n      pop\n        /* \"#utility.yul\":15381:15441   */\n      swap2\n      swap1\n      pop\n      jump\t// out\n        /* \"#utility.yul\":15447:15589   */\n    tag_237:\n        /* \"#utility.yul\":15497:15506   */\n      0x00\n        /* \"#utility.yul\":15530:15583   */\n      tag_409\n        /* \"#utility.yul\":15548:15582   */\n      tag_410\n        /* \"#utility.yul\":15557:15581   */\n      tag_411\n        /* \"#utility.yul\":15575:15580   */\n      dup5\n        /* \"#utility.yul\":15557:15581   */\n      tag_194\n      jump\t// in\n    tag_411:\n        /* \"#utility.yul\":15548:15582   */\n      tag_236\n      jump\t// in\n    tag_410:\n        /* \"#utility.yul\":15530:15583   */\n      tag_194\n      jump\t// in\n    tag_409:\n        /* \"#utility.yul\":15517:15583   */\n      swap1\n      pop\n        /* \"#utility.yul\":15447:15589   */\n      swap2\n      swap1\n      pop\n      jump\t// out\n        /* \"#utility.yul\":15595:15670   */\n    tag_238:\n        /* \"#utility.yul\":15638:15641   */\n      0x00\n        /* \"#utility.yul\":15659:15664   */\n      dup2\n        /* \"#utility.yul\":15652:15664   */\n      swap1\n      pop\n        /* \"#utility.yul\":15595:15670   */\n      swap2\n      swap1\n      pop\n      jump\t// out\n        /* \"#utility.yul\":15676:15945   */\n    tag_239:\n        /* \"#utility.yul\":15786:15825   */\n      tag_414\n        /* \"#utility.yul\":15817:15824   */\n      dup4\n        /* \"#utility.yul\":15786:15825   */\n      tag_237\n      jump\t// in\n    tag_414:\n        /* \"#utility.yul\":15847:15938   */\n      tag_415\n        /* \"#utility.yul\":15896:15937   */\n      tag_416\n        /* \"#utility.yul\":15920:15936   */\n      dup3\n        /* \"#utility.yul\":15896:15937   */\n      tag_238\n      jump\t// in\n    tag_416:\n        /* \"#utility.yul\":15888:15894   */\n      dup5\n        /* \"#utility.yul\":15881:15885   */\n      dup5\n        /* \"#utility.yul\":15875:15886   */\n      sload\n        /* \"#utility.yul\":15847:15938   */\n      tag_235\n      jump\t// in\n    tag_415:\n        /* \"#utility.yul\":15841:15845   */\n      dup3\n        /* \"#utility.yul\":15834:15939   */\n      sstore\n        /* \"#utility.yul\":15752:15945   */\n      pop\n        /* \"#utility.yul\":15676:15945   */\n      pop\n      pop\n      pop\n      jump\t// out\n        /* \"#utility.yul\":15951:16024   */\n    tag_240:\n        /* \"#utility.yul\":15996:15999   */\n      0x00\n        /* \"#utility.yul\":16017:16018   */\n      0x00\n        /* \"#utility.yul\":16010:16018   */\n      swap1\n      pop\n        /* \"#utility.yul\":15951:16024   */\n      swap1\n      jump\t// out\n        /* \"#utility.yul\":16030:16219   */\n    tag_241:\n        /* \"#utility.yul\":16107:16139   */\n      tag_419\n      tag_240\n      jump\t// in\n    tag_419:\n        /* \"#utility.yul\":16148:16213   */\n      tag_420\n        /* \"#utility.yul\":16206:16212   */\n      dup2\n        /* \"#utility.yul\":16198:16204   */\n      dup5\n        /* \"#utility.yul\":16192:16196   */\n      dup5\n        /* \"#utility.yul\":16148:16213   */\n      tag_239\n      jump\t// in\n    tag_420:\n        /* \"#utility.yul\":16083:16219   */\n      pop\n        /* \"#utility.yul\":16030:16219   */\n      pop\n      pop\n      jump\t// out\n        /* \"#utility.yul\":16225:16411   */\n    tag_242:\n        /* \"#utility.yul\":16285:16405   */\n    tag_422:\n        /* \"#utility.yul\":16302:16305   */\n      dup2\n        /* \"#utility.yul\":16295:16300   */\n      dup2\n        /* \"#utility.yul\":16292:16306   */\n      lt\n        /* \"#utility.yul\":16285:16405   */\n      iszero\n      tag_424\n      jumpi\n        /* \"#utility.yul\":16356:16395   */\n      tag_425\n        /* \"#utility.yul\":16393:16394   */\n      0x00\n        /* \"#utility.yul\":16386:16391   */\n      dup3\n        /* \"#utility.yul\":16356:16395   */\n      tag_241\n      jump\t// in\n    tag_425:\n        /* \"#utility.yul\":16329:16330   */\n      0x01\n        /* \"#utility.yul\":16322:16327   */\n      dup2\n        /* \"#utility.yul\":16318:16331   */\n      add\n        /* \"#utility.yul\":16309:16331   */\n      swap1\n      pop\n        /* \"#utility.yul\":16285:16405   */\n      jump(tag_422)\n    tag_424:\n        /* \"#utility.yul\":16225:16411   */\n      pop\n      pop\n      jump\t// out\n        /* \"#utility.yul\":16417:16960   */\n    tag_243:\n        /* \"#utility.yul\":16518:16520   */\n      0x1f\n        /* \"#utility.yul\":16513:16516   */\n      dup3\n        /* \"#utility.yul\":16510:16521   */\n      gt\n        /* \"#utility.yul\":16507:16953   */\n      iszero\n      tag_427\n      jumpi\n        /* \"#utility.yul\":16552:16590   */\n      tag_428\n        /* \"#utility.yul\":16584:16589   */\n      dup2\n        /* \"#utility.yul\":16552:16590   */\n      tag_232\n      jump\t// in\n    tag_428:\n        /* \"#utility.yul\":16636:16665   */\n      tag_429\n        /* \"#utility.yul\":16654:16664   */\n      dup5\n        /* \"#utility.yul\":16636:16665   */\n      tag_233\n      jump\t// in\n    tag_429:\n        /* \"#utility.yul\":16626:16634   */\n      dup2\n        /* \"#utility.yul\":16622:16666   */\n      add\n        /* \"#utility.yul\":16819:16821   */\n      0x20\n        /* \"#utility.yul\":16807:16817   */\n      dup6\n        /* \"#utility.yul\":16804:16822   */\n      lt\n        /* \"#utility.yul\":16801:16850   */\n      iszero\n      tag_430\n      jumpi\n        /* \"#utility.yul\":16840:16848   */\n      dup2\n        /* \"#utility.yul\":16825:16848   */\n      swap1\n      pop\n        /* \"#utility.yul\":16801:16850   */\n    tag_430:\n        /* \"#utility.yul\":16863:16943   */\n      tag_431\n        /* \"#utility.yul\":16919:16941   */\n      tag_432\n        /* \"#utility.yul\":16937:16940   */\n      dup6\n        /* \"#utility.yul\":16919:16941   */\n      tag_233\n      jump\t// in\n    tag_432:\n        /* \"#utility.yul\":16909:16917   */\n      dup4\n        /* \"#utility.yul\":16905:16942   */\n      add\n        /* \"#utility.yul\":16892:16903   */\n      dup3\n        /* \"#utility.yul\":16863:16943   */\n      tag_242\n      jump\t// in\n    tag_431:\n        /* \"#utility.yul\":16522:16953   */\n      pop\n      pop\n        /* \"#utility.yul\":16507:16953   */\n    tag_427:\n        /* \"#utility.yul\":16417:16960   */\n      pop\n      pop\n      pop\n      jump\t// out\n        /* \"#utility.yul\":16966:17083   */\n    tag_244:\n        /* \"#utility.yul\":17020:17028   */\n      0x00\n        /* \"#utility.yul\":17070:17075   */\n      dup3\n        /* \"#utility.yul\":17064:17068   */\n      dup3\n        /* \"#utility.yul\":17060:17076   */\n      shr\n        /* \"#utility.yul\":17039:17076   */\n      swap1\n      pop\n        /* \"#utility.yul\":16966:17083   */\n      swap3\n      swap2\n      pop\n      pop\n      jump\t// out\n        /* \"#utility.yul\":17089:17258   */\n    tag_245:\n        /* \"#utility.yul\":17133:17139   */\n      0x00\n        /* \"#utility.yul\":17166:17217   */\n      tag_435\n        /* \"#utility.yul\":17214:17215   */\n      0x00\n        /* \"#utility.yul\":17210:17216   */\n      not\n        /* \"#utility.yul\":17202:17207   */\n      dup5\n        /* \"#utility.yul\":17199:17200   */\n      0x08\n        /* \"#utility.yul\":17195:17208   */\n      mul\n        /* \"#utility.yul\":17166:17217   */\n      tag_244\n      jump\t// in\n    tag_435:\n        /* \"#utility.yul\":17162:17218   */\n      not\n        /* \"#utility.yul\":17247:17251   */\n      dup1\n        /* \"#utility.yul\":17241:17245   */\n      dup4\n        /* \"#utility.yul\":17237:17252   */\n      and\n        /* \"#utility.yul\":17227:17252   */\n      swap2\n      pop\n        /* \"#utility.yul\":17140:17258   */\n      pop\n        /* \"#utility.yul\":17089:17258   */\n      swap3\n      swap2\n      pop\n      pop\n      jump\t// out\n        /* \"#utility.yul\":17263:17558   */\n    tag_246:\n        /* \"#utility.yul\":17339:17343   */\n      0x00\n        /* \"#utility.yul\":17485:17514   */\n      tag_437\n        /* \"#utility.yul\":17510:17513   */\n      dup4\n        /* \"#utility.yul\":17504:17508   */\n      dup4\n        /* \"#utility.yul\":17485:17514   */\n      tag_245\n      jump\t// in\n    tag_437:\n        /* \"#utility.yul\":17477:17514   */\n      swap2\n      pop\n        /* \"#utility.yul\":17547:17550   */\n      dup3\n        /* \"#utility.yul\":17544:17545   */\n      0x02\n        /* \"#utility.yul\":17540:17551   */\n      mul\n        /* \"#utility.yul\":17534:17538   */\n      dup3\n        /* \"#utility.yul\":17531:17552   */\n      or\n        /* \"#utility.yul\":17523:17552   */\n      swap1\n      pop\n        /* \"#utility.yul\":17263:17558   */\n      swap3\n      swap2\n      pop\n      pop\n      jump\t// out\n        /* \"#utility.yul\":17563:18958   */\n    tag_164:\n        /* \"#utility.yul\":17680:17717   */\n      tag_439\n        /* \"#utility.yul\":17713:17716   */\n      dup3\n        /* \"#utility.yul\":17680:17717   */\n      tag_204\n      jump\t// in\n    tag_439:\n        /* \"#utility.yul\":17782:17800   */\n      0xffffffffffffffff\n        /* \"#utility.yul\":17774:17780   */\n      dup2\n        /* \"#utility.yul\":17771:17801   */\n      gt\n        /* \"#utility.yul\":17768:17824   */\n      iszero\n      tag_440\n      jumpi\n        /* \"#utility.yul\":17804:17822   */\n      tag_441\n      tag_214\n      jump\t// in\n    tag_441:\n        /* \"#utility.yul\":17768:17824   */\n    tag_440:\n        /* \"#utility.yul\":17848:17886   */\n      tag_442\n        /* \"#utility.yul\":17880:17884   */\n      dup3\n        /* \"#utility.yul\":17874:17885   */\n      sload\n        /* \"#utility.yul\":17848:17886   */\n      tag_121\n      jump\t// in\n    tag_442:\n        /* \"#utility.yul\":17933:18000   */\n      tag_443\n        /* \"#utility.yul\":17993:17999   */\n      dup3\n        /* \"#utility.yul\":17985:17991   */\n      dup3\n        /* \"#utility.yul\":17979:17983   */\n      dup6\n        /* \"#utility.yul\":17933:18000   */\n      tag_243\n      jump\t// in\n    tag_443:\n        /* \"#utility.yul\":18027:18028   */\n      0x00\n        /* \"#utility.yul\":18051:18055   */\n      0x20\n        /* \"#utility.yul\":18038:18055   */\n      swap1\n      pop\n        /* \"#utility.yul\":18083:18085   */\n      0x1f\n        /* \"#utility.yul\":18075:18081   */\n      dup4\n        /* \"#utility.yul\":18072:18086   */\n      gt\n        /* \"#utility.yul\":18100:18101   */\n      0x01\n        /* \"#utility.yul\":18095:18713   */\n      dup2\n      eq\n      tag_445\n      jumpi\n        /* \"#utility.yul\":18757:18758   */\n      0x00\n        /* \"#utility.yul\":18774:18780   */\n      dup5\n        /* \"#utility.yul\":18771:18848   */\n      iszero\n      tag_446\n      jumpi\n        /* \"#utility.yul\":18823:18832   */\n      dup3\n        /* \"#utility.yul\":18818:18821   */\n      dup8\n        /* \"#utility.yul\":18814:18833   */\n      add\n        /* \"#utility.yul\":18808:18834   */\n      mload\n        /* \"#utility.yul\":18799:18834   */\n      swap1\n      pop\n        /* \"#utility.yul\":18771:18848   */\n    tag_446:\n        /* \"#utility.yul\":18874:18941   */\n      tag_447\n        /* \"#utility.yul\":18934:18940   */\n      dup6\n        /* \"#utility.yul\":18927:18932   */\n      dup3\n        /* \"#utility.yul\":18874:18941   */\n      tag_246\n      jump\t// in\n    tag_447:\n        /* \"#utility.yul\":18868:18872   */\n      dup7\n        /* \"#utility.yul\":18861:18942   */\n      sstore\n        /* \"#utility.yul\":18730:18952   */\n      pop\n        /* \"#utility.yul\":18065:18952   */\n      jump(tag_444)\n        /* \"#utility.yul\":18095:18713   */\n    tag_445:\n        /* \"#utility.yul\":18147:18151   */\n      0x1f\n        /* \"#utility.yul\":18143:18152   */\n      not\n        /* \"#utility.yul\":18135:18141   */\n      dup5\n        /* \"#utility.yul\":18131:18153   */\n      and\n        /* \"#utility.yul\":18181:18218   */\n      tag_448\n        /* \"#utility.yul\":18213:18217   */\n      dup7\n        /* \"#utility.yul\":18181:18218   */\n      tag_232\n      jump\t// in\n    tag_448:\n        /* \"#utility.yul\":18240:18241   */\n      0x00\n        /* \"#utility.yul\":18254:18462   */\n    tag_449:\n        /* \"#utility.yul\":18268:18275   */\n      dup3\n        /* \"#utility.yul\":18265:18266   */\n      dup2\n        /* \"#utility.yul\":18262:18276   */\n      lt\n        /* \"#utility.yul\":18254:18462   */\n      iszero\n      tag_451\n      jumpi\n        /* \"#utility.yul\":18347:18356   */\n      dup5\n        /* \"#utility.yul\":18342:18345   */\n      dup10\n        /* \"#utility.yul\":18338:18357   */\n      add\n        /* \"#utility.yul\":18332:18358   */\n      mload\n        /* \"#utility.yul\":18324:18330   */\n      dup3\n        /* \"#utility.yul\":18317:18359   */\n      sstore\n        /* \"#utility.yul\":18398:18399   */\n      0x01\n        /* \"#utility.yul\":18390:18396   */\n      dup3\n        /* \"#utility.yul\":18386:18400   */\n      add\n        /* \"#utility.yul\":18376:18400   */\n      swap2\n      pop\n        /* \"#utility.yul\":18445:18447   */\n      0x20\n        /* \"#utility.yul\":18434:18443   */\n      dup6\n        /* \"#utility.yul\":18430:18448   */\n      add\n        /* \"#utility.yul\":18417:18448   */\n      swap5\n      pop\n        /* \"#utility.yul\":18291:18295   */\n      0x20\n        /* \"#utility.yul\":18288:18289   */\n      dup2\n        /* \"#utility.yul\":18284:18296   */\n      add\n        /* \"#utility.yul\":18279:18296   */\n      swap1\n      pop\n        /* \"#utility.yul\":18254:18462   */\n      jump(tag_449)\n    tag_451:\n        /* \"#utility.yul\":18490:18496   */\n      dup7\n        /* \"#utility.yul\":18481:18488   */\n      dup4\n        /* \"#utility.yul\":18478:18497   */\n      lt\n        /* \"#utility.yul\":18475:18654   */\n      iszero\n      tag_452\n      jumpi\n        /* \"#utility.yul\":18548:18557   */\n      dup5\n        /* \"#utility.yul\":18543:18546   */\n      dup10\n        /* \"#utility.yul\":18539:18558   */\n      add\n        /* \"#utility.yul\":18533:18559   */\n      mload\n        /* \"#utility.yul\":18591:18639   */\n      tag_453\n        /* \"#utility.yul\":18633:18637   */\n      0x1f\n        /* \"#utility.yul\":18625:18631   */\n      dup10\n        /* \"#utility.yul\":18621:18638   */\n      and\n        /* \"#utility.yul\":18610:18619   */\n      dup3\n        /* \"#utility.yul\":18591:18639   */\n      tag_245\n      jump\t// in\n    tag_453:\n        /* \"#utility.yul\":18583:18589   */\n      dup4\n        /* \"#utility.yul\":18576:18640   */\n      sstore\n        /* \"#utility.yul\":18498:18654   */\n      pop\n        /* \"#utility.yul\":18475:18654   */\n    tag_452:\n        /* \"#utility.yul\":18700:18701   */\n      0x01\n        /* \"#utility.yul\":18696:18697   */\n      0x02\n        /* \"#utility.yul\":18688:18694   */\n      dup9\n        /* \"#utility.yul\":18684:18698   */\n      mul\n        /* \"#utility.yul\":18680:18702   */\n      add\n        /* \"#utility.yul\":18674:18678   */\n      dup9\n        /* \"#utility.yul\":18667:18703   */\n      sstore\n        /* \"#utility.yul\":18102:18713   */\n      pop\n      pop\n      pop\n        /* \"#utility.yul\":18065:18952   */\n    tag_444:\n      pop\n        /* \"#utility.yul\":17655:18958   */\n      pop\n      pop\n      pop\n        /* \"#utility.yul\":17563:18958   */\n      pop\n      pop\n      jump\t// out\n        /* \"#utility.yul\":18964:19192   */\n    tag_247:\n        /* \"#utility.yul\":19104:19138   */\n      0x436f6e747269627574696f6e206d757374206d65657420746865206d696e696d\n        /* \"#utility.yul\":19100:19101   */\n      0x00\n        /* \"#utility.yul\":19092:19098   */\n      dup3\n        /* \"#utility.yul\":19088:19102   */\n      add\n        /* \"#utility.yul\":19081:19139   */\n      mstore\n        /* \"#utility.yul\":19173:19184   */\n      0x756d20616d6f756e740000000000000000000000000000000000000000000000\n        /* \"#utility.yul\":19168:19170   */\n      0x20\n        /* \"#utility.yul\":19160:19166   */\n      dup3\n        /* \"#utility.yul\":19156:19171   */\n      add\n        /* \"#utility.yul\":19149:19185   */\n      mstore\n        /* \"#utility.yul\":18964:19192   */\n      pop\n      jump\t// out\n        /* \"#utility.yul\":19198:19564   */\n    tag_248:\n        /* \"#utility.yul\":19340:19343   */\n      0x00\n        /* \"#utility.yul\":19361:19428   */\n      tag_456\n        /* \"#utility.yul\":19425:19427   */\n      0x29\n        /* \"#utility.yul\":19420:19423   */\n      dup4\n        /* \"#utility.yul\":19361:19428   */\n      tag_205\n      jump\t// in\n    tag_456:\n        /* \"#utility.yul\":19354:19428   */\n      swap2\n      pop\n        /* \"#utility.yul\":19437:19530   */\n      tag_457\n        /* \"#utility.yul\":19526:19529   */\n      dup3\n        /* \"#utility.yul\":19437:19530   */\n      tag_247\n      jump\t// in\n    tag_457:\n        /* \"#utility.yul\":19555:19557   */\n      0x40\n        /* \"#utility.yul\":19550:19553   */\n      dup3\n        /* \"#utility.yul\":19546:19558   */\n      add\n        /* \"#utility.yul\":19539:19558   */\n      swap1\n      pop\n        /* \"#utility.yul\":19198:19564   */\n      swap2\n      swap1\n      pop\n      jump\t// out\n        /* \"#utility.yul\":19570:19989   */\n    tag_168:\n        /* \"#utility.yul\":19736:19740   */\n      0x00\n        /* \"#utility.yul\":19774:19776   */\n      0x20\n        /* \"#utility.yul\":19763:19772   */\n      dup3\n        /* \"#utility.yul\":19759:19777   */\n      add\n        /* \"#utility.yul\":19751:19777   */\n      swap1\n      pop\n        /* \"#utility.yul\":19823:19832   */\n      dup2\n        /* \"#utility.yul\":19817:19821   */\n      dup2\n        /* \"#utility.yul\":19813:19833   */\n      sub\n        /* \"#utility.yul\":19809:19810   */\n      0x00\n        /* \"#utility.yul\":19798:19807   */\n      dup4\n        /* \"#utility.yul\":19794:19811   */\n      add\n        /* \"#utility.yul\":19787:19834   */\n      mstore\n        /* \"#utility.yul\":19851:19982   */\n      tag_459\n        /* \"#utility.yul\":19977:19981   */\n      dup2\n        /* \"#utility.yul\":19851:19982   */\n      tag_248\n      jump\t// in\n    tag_459:\n        /* \"#utility.yul\":19843:19982   */\n      swap1\n      pop\n        /* \"#utility.yul\":19570:19989   */\n      swap2\n      swap1\n      pop\n      jump\t// out\n        /* \"#utility.yul\":19995:20228   */\n    tag_171:\n        /* \"#utility.yul\":20034:20037   */\n      0x00\n        /* \"#utility.yul\":20057:20081   */\n      tag_461\n        /* \"#utility.yul\":20075:20080   */\n      dup3\n        /* \"#utility.yul\":20057:20081   */\n      tag_194\n      jump\t// in\n    tag_461:\n        /* \"#utility.yul\":20048:20081   */\n      swap2\n      pop\n        /* \"#utility.yul\":20103:20169   */\n      0xffffffffffffffffffffffffffffffffffffffffffffffffffffffffffffffff\n        /* \"#utility.yul\":20096:20101   */\n      dup3\n        /* \"#utility.yul\":20093:20170   */\n      sub\n        /* \"#utility.yul\":20090:20193   */\n      tag_462\n      jumpi\n        /* \"#utility.yul\":20173:20191   */\n      tag_463\n      tag_226\n      jump\t// in\n    tag_463:\n        /* \"#utility.yul\":20090:20193   */\n    tag_462:\n        /* \"#utility.yul\":20220:20221   */\n      0x01\n        /* \"#utility.yul\":20213:20218   */\n      dup3\n        /* \"#utility.yul\":20209:20222   */\n      add\n        /* \"#utility.yul\":20202:20222   */\n      swap1\n      pop\n        /* \"#utility.yul\":19995:20228   */\n      swap2\n      swap1\n      pop\n      jump\t// out\n        /* \"#utility.yul\":20234:20454   */\n    tag_249:\n        /* \"#utility.yul\":20374:20408   */\n      0x596f75206d75737420636f6e7472696275746520666972737420746f20766f74\n        /* \"#utility.yul\":20370:20371   */\n      0x00\n        /* \"#utility.yul\":20362:20368   */\n      dup3\n        /* \"#utility.yul\":20358:20372   */\n      add\n        /* \"#utility.yul\":20351:20409   */\n      mstore\n        /* \"#utility.yul\":20443:20446   */\n      0x6500000000000000000000000000000000000000000000000000000000000000\n        /* \"#utility.yul\":20438:20440   */\n      0x20\n        /* \"#utility.yul\":20430:20436   */\n      dup3\n        /* \"#utility.yul\":20426:20441   */\n      add\n        /* \"#utility.yul\":20419:20447   */\n      mstore\n        /* \"#utility.yul\":20234:20454   */\n      pop\n      jump\t// out\n        /* \"#utility.yul\":20460:20826   */\n    tag_250:\n        /* \"#utility.yul\":20602:20605   */\n      0x00\n        /* \"#utility.yul\":20623:20690   */\n      tag_466\n        /* \"#utility.yul\":20687:20689   */\n      0x21\n        /* \"#utility.yul\":20682:20685   */\n      dup4\n        /* \"#utility.yul\":20623:20690   */\n      tag_205\n      jump\t// in\n    tag_466:\n        /* \"#utility.yul\":20616:20690   */\n      swap2\n      pop\n        /* \"#utility.yul\":20699:20792   */\n      tag_467\n        /* \"#utility.yul\":20788:20791   */\n      dup3\n        /* \"#utility.yul\":20699:20792   */\n      tag_249\n      jump\t// in\n    tag_467:\n        /* \"#utility.yul\":20817:20819   */\n      0x40\n        /* \"#utility.yul\":20812:20815   */\n      dup3\n        /* \"#utility.yul\":20808:20820   */\n      add\n        /* \"#utility.yul\":20801:20820   */\n      swap1\n      pop\n        /* \"#utility.yul\":20460:20826   */\n      swap2\n      swap1\n      pop\n      jump\t// out\n        /* \"#utility.yul\":20832:21251   */\n    tag_178:\n        /* \"#utility.yul\":20998:21002   */\n      0x00\n        /* \"#utility.yul\":21036:21038   */\n      0x20\n        /* \"#utility.yul\":21025:21034   */\n      dup3\n        /* \"#utility.yul\":21021:21039   */\n      add\n        /* \"#utility.yul\":21013:21039   */\n      swap1\n      pop\n        /* \"#utility.yul\":21085:21094   */\n      dup2\n        /* \"#utility.yul\":21079:21083   */\n      dup2\n        /* \"#utility.yul\":21075:21095   */\n      sub\n        /* \"#utility.yul\":21071:21072   */\n      0x00\n        /* \"#utility.yul\":21060:21069   */\n      dup4\n        /* \"#utility.yul\":21056:21073   */\n      add\n        /* \"#utility.yul\":21049:21096   */\n      mstore\n        /* \"#utility.yul\":21113:21244   */\n      tag_469\n        /* \"#utility.yul\":21239:21243   */\n      dup2\n        /* \"#utility.yul\":21113:21244   */\n      tag_250\n      jump\t// in\n    tag_469:\n        /* \"#utility.yul\":21105:21244   */\n      swap1\n      pop\n        /* \"#utility.yul\":20832:21251   */\n      swap2\n      swap1\n      pop\n      jump\t// out\n        /* \"#utility.yul\":21257:21485   */\n    tag_251:\n        /* \"#utility.yul\":21397:21431   */\n      0x4d616e616765722063616e6e6f7420617070726f7665207468656972206f776e\n        /* \"#utility.yul\":21393:21394   */\n      0x00\n        /* \"#utility.yul\":21385:21391   */\n      dup3\n        /* \"#utility.yul\":21381:21395   */\n      add\n        /* \"#utility.yul\":21374:21432   */\n      mstore\n        /* \"#utility.yul\":21466:21477   */\n      0x2072657175657374730000000000000000000000000000000000000000000000\n        /* \"#utility.yul\":21461:21463   */\n      0x20\n        /* \"#utility.yul\":21453:21459   */\n      dup3\n        /* \"#utility.yul\":21449:21464   */\n      add\n        /* \"#utility.yul\":21442:21478   */\n      mstore\n        /* \"#utility.yul\":21257:21485   */\n      pop\n      jump\t// out\n        /* \"#utility.yul\":21491:21857   */\n    tag_252:\n        /* \"#utility.yul\":21633:21636   */\n      0x00\n        /* \"#utility.yul\":21654:21721   */\n      tag_472\n        /* \"#utility.yul\":21718:21720   */\n      0x29\n        /* \"#utility.yul\":21713:21716   */\n      dup4\n        /* \"#utility.yul\":21654:21721   */\n      tag_205\n      jump\t// in\n    tag_472:\n        /* \"#utility.yul\":21647:21721   */\n      swap2\n      pop\n        /* \"#utility.yul\":21730:21823   */\n      tag_473\n        /* \"#utility.yul\":21819:21822   */\n      dup3\n        /* \"#utility.yul\":21730:21823   */\n      tag_251\n      jump\t// in\n    tag_473:\n        /* \"#utility.yul\":21848:21850   */\n      0x40\n        /* \"#utility.yul\":21843:21846   */\n      dup3\n        /* \"#utility.yul\":21839:21851   */\n      add\n        /* \"#utility.yul\":21832:21851   */\n      swap1\n      pop\n        /* \"#utility.yul\":21491:21857   */\n      swap2\n      swap1\n      pop\n      jump\t// out\n        /* \"#utility.yul\":21863:22282   */\n    tag_181:\n        /* \"#utility.yul\":22029:22033   */\n      0x00\n        /* \"#utility.yul\":22067:22069   */\n      0x20\n        /* \"#utility.yul\":22056:22065   */\n      dup3\n        /* \"#utility.yul\":22052:22070   */\n      add\n        /* \"#utility.yul\":22044:22070   */\n      swap1\n      pop\n        /* \"#utility.yul\":22116:22125   */\n      dup2\n        /* \"#utility.yul\":22110:22114   */\n      dup2\n        /* \"#utility.yul\":22106:22126   */\n      sub\n        /* \"#utility.yul\":22102:22103   */\n      0x00\n        /* \"#utility.yul\":22091:22100   */\n      dup4\n        /* \"#utility.yul\":22087:22104   */\n      add\n        /* \"#utility.yul\":22080:22127   */\n      mstore\n        /* \"#utility.yul\":22144:22275   */\n      tag_475\n        /* \"#utility.yul\":22270:22274   */\n      dup2\n        /* \"#utility.yul\":22144:22275   */\n      tag_252\n      jump\t// in\n    tag_475:\n        /* \"#utility.yul\":22136:22275   */\n      swap1\n      pop\n        /* \"#utility.yul\":21863:22282   */\n      swap2\n      swap1\n      pop\n      jump\t// out\n        /* \"#utility.yul\":22288:22513   */\n    tag_253:\n        /* \"#utility.yul\":22428:22462   */\n      0x596f75206861766520616c726561647920766f746564206f6e20746869732072\n        /* \"#utility.yul\":22424:22425   */\n      0x00\n        /* \"#utility.yul\":22416:22422   */\n      dup3\n        /* \"#utility.yul\":22412:22426   */\n      add\n        /* \"#utility.yul\":22405:22463   */\n      mstore\n        /* \"#utility.yul\":22497:22505   */\n      0x6571756573740000000000000000000000000000000000000000000000000000\n        /* \"#utility.yul\":22492:22494   */\n      0x20\n        /* \"#utility.yul\":22484:22490   */\n      dup3\n        /* \"#utility.yul\":22480:22495   */\n      add\n        /* \"#utility.yul\":22473:22506   */\n      mstore\n        /* \"#utility.yul\":22288:22513   */\n      pop\n      jump\t// out\n        /* \"#utility.yul\":22519:22885   */\n    tag_254:\n        /* \"#utility.yul\":22661:22664   */\n      0x00\n        /* \"#utility.yul\":22682:22749   */\n      tag_478\n        /* \"#utility.yul\":22746:22748   */\n      0x26\n        /* \"#utility.yul\":22741:22744   */\n      dup4\n        /* \"#utility.yul\":22682:22749   */\n      tag_205\n      jump\t// in\n    tag_478:\n        /* \"#utility.yul\":22675:22749   */\n      swap2\n      pop\n        /* \"#utility.yul\":22758:22851   */\n      tag_479\n        /* \"#utility.yul\":22847:22850   */\n      dup3\n        /* \"#utility.yul\":22758:22851   */\n      tag_253\n      jump\t// in\n    tag_479:\n        /* \"#utility.yul\":22876:22878   */\n      0x40\n        /* \"#utility.yul\":22871:22874   */\n      dup3\n        /* \"#utility.yul\":22867:22879   */\n      add\n        /* \"#utility.yul\":22860:22879   */\n      swap1\n      pop\n        /* \"#utility.yul\":22519:22885   */\n      swap2\n      swap1\n      pop\n      jump\t// out\n        /* \"#utility.yul\":22891:23310   */\n    tag_184:\n        /* \"#utility.yul\":23057:23061   */\n      0x00\n        /* \"#utility.yul\":23095:23097   */\n      0x20\n        /* \"#utility.yul\":23084:23093   */\n      dup3\n        /* \"#utility.yul\":23080:23098   */\n      add\n        /* \"#utility.yul\":23072:23098   */\n      swap1\n      pop\n        /* \"#utility.yul\":23144:23153   */\n      dup2\n        /* \"#utility.yul\":23138:23142   */\n      dup2\n        /* \"#utility.yul\":23134:23154   */\n      sub\n        /* \"#utility.yul\":23130:23131   */\n      0x00\n        /* \"#utility.yul\":23119:23128   */\n      dup4\n        /* \"#utility.yul\":23115:23132   */\n      add\n        /* \"#utility.yul\":23108:23155   */\n      mstore\n        /* \"#utility.yul\":23172:23303   */\n      tag_481\n        /* \"#utility.yul\":23298:23302   */\n      dup2\n        /* \"#utility.yul\":23172:23303   */\n      tag_254\n      jump\t// in\n    tag_481:\n        /* \"#utility.yul\":23164:23303   */\n      swap1\n      pop\n        /* \"#utility.yul\":22891:23310   */\n      swap2\n      swap1\n      pop\n      jump\t// out\n\n    auxdata: 0xa264697066735822122007407d8e8f70b6df9fba722ec8be20436d966baee05adfa2701f3901035a0ba564736f6c634300081e0033\n}\n","bytecode":{"linkReferences":{},"object":"60806040525f600a55348015610013575f5ffd5b506040516122c53803806122c5833981810160405281019061003591906102a5565b8460075f6101000a81548173ffffffffffffffffffffffffffffffffffffffff021916908373ffffffffffffffffffffffffffffffffffffffff16021790555085600881905550835f908161008a9190610589565b50826001908161009a9190610589565b5081600290816100aa9190610589565b5080600381905550426004819055505f600581905550505050505050610658565b5f604051905090565b5f5ffd5b5f5ffd5b5f819050919050565b6100ee816100dc565b81146100f8575f5ffd5b50565b5f81519050610109816100e5565b92915050565b5f73ffffffffffffffffffffffffffffffffffffffff82169050919050565b5f6101388261010f565b9050919050565b6101488161012e565b8114610152575f5ffd5b50565b5f815190506101638161013f565b92915050565b5f5ffd5b5f5ffd5b5f601f19601f8301169050919050565b7f4e487b71000000000000000000000000000000000000000000000000000000005f52604160045260245ffd5b6101b782610171565b810181811067ffffffffffffffff821117156101d6576101d5610181565b5b80604052505050565b5f6101e86100cb565b90506101f482826101ae565b919050565b5f67ffffffffffffffff82111561021357610212610181565b5b61021c82610171565b9050602081019050919050565b8281835e5f83830152505050565b5f610249610244846101f9565b6101df565b9050828152602081018484840111156102655761026461016d565b5b610270848285610229565b509392505050565b5f82601f83011261028c5761028b610169565b5b815161029c848260208601610237565b91505092915050565b5f5f5f5f5f5f60c087890312156102bf576102be6100d4565b5b5f6102cc89828a016100fb565b96505060206102dd89828a01610155565b955050604087015167ffffffffffffffff8111156102fe576102fd6100d8565b5b61030a89828a01610278565b945050606087015167ffffffffffffffff81111561032b5761032a6100d8565b5b61033789828a01610278565b935050608087015167ffffffffffffffff811115610358576103576100d8565b5b61036489828a01610278565b92505060a061037589828a016100fb565b9150509295509295509295565b5f81519050919050565b7f4e487b71000000000000000000000000000000000000000000000000000000005f52602260045260245ffd5b5f60028204905060018216806103d057607f821691505b6020821081036103e3576103e261038c565b5b50919050565b5f819050815f5260205f209050919050565b5f6020601f8301049050919050565b5f82821b905092915050565b5f600883026104457fffffffffffffffffffffffffffffffffffffffffffffffffffffffffffffffff8261040a565b61044f868361040a565b95508019841693508086168417925050509392505050565b5f819050919050565b5f61048a610485610480846100dc565b610467565b6100dc565b9050919050565b5f819050919050565b6104a383610470565b6104b76104af82610491565b848454610416565b825550505050565b5f5f905090565b6104ce6104bf565b6104d981848461049a565b505050565b5b818110156104fc576104f15f826104c6565b6001810190506104df565b5050565b601f82111561054157610512816103e9565b61051b846103fb565b8101602085101561052a578190505b61053e610536856103fb565b8301826104de565b50505b505050565b5f82821c905092915050565b5f6105615f1984600802610546565b1980831691505092915050565b5f6105798383610552565b9150826002028217905092915050565b61059282610382565b67ffffffffffffffff8111156105ab576105aa610181565b5b6105b582546103b9565b6105c0828285610500565b5f60209050601f8311600181146105f1575f84156105df578287015190505b6105e9858261056e565b865550610650565b601f1984166105ff866103e9565b5f5b8281101561062657848901518255600182019150602085019450602081019050610601565b86831015610643578489015161063f601f891682610552565b8355505b6001600288020188555050505b505050505050565b611c60806106655f395ff3fe6080604052600436106100fd575f3560e01c806381d12c5811610094578063b4f7358411610063578063b4f7358414610327578063cf09e0d014610351578063d7bb99ba1461037b578063d7d1bbdb14610385578063ef430aa6146103ad576100fd565b806381d12c581461026b57806382fde093146102ab5780638a9cfd55146102d5578063937e09b1146102fd576100fd565b80634051ddac116100d05780634051ddac146101b9578063481c6a75146101ed5780634a79d50c146102175780637284e41614610241576100fd565b806303441006146101015780630a144391146101295780633410452a14610165578063401938831461018f575b5f5ffd5b34801561010c575f5ffd5b5061012760048036038101906101229190610fb6565b6103d7565b005b348015610134575f5ffd5b5061014f600480360381019061014a919061103b565b6105bb565b60405161015c9190611080565b60405180910390f35b348015610170575f5ffd5b506101796105d8565b60405161018691906110a8565b60405180910390f35b34801561019a575f5ffd5b506101a36105e4565b6040516101b091906110a8565b60405180910390f35b3480156101c4575f5ffd5b506101cd6105ea565b6040516101e49b9a99989796959493929190611140565b60405180910390f35b3480156101f8575f5ffd5b506102016107f5565b60405161020e91906111fe565b60405180910390f35b348015610222575f5ffd5b5061022b61081a565b6040516102389190611217565b60405180910390f35b34801561024c575f5ffd5b506102556108a5565b6040516102629190611217565b60405180910390f35b348015610276575f5ffd5b50610291600480360381019061028c9190610fb6565b610931565b6040516102a2959493929190611257565b60405180910390f35b3480156102b6575f5ffd5b506102bf610a24565b6040516102cc91906110a8565b60405180910390f35b3480156102e0575f5ffd5b506102fb60048036038101906102f69190611405565b610a2a565b005b348015610308575f5ffd5b50610311610b90565b60405161031e91906110a8565b60405180910390f35b348015610332575f5ffd5b5061033b610b96565b60405161034891906110a8565b60405180910390f35b34801561035c575f5ffd5b50610365610b9c565b60405161037291906110a8565b60405180910390f35b610383610ba2565b005b348015610390575f5ffd5b506103ab60048036038101906103a69190610fb6565b610cab565b005b3480156103b8575f5ffd5b506103c1610ee6565b6040516103ce9190611217565b60405180910390f35b60075f9054906101000a900473ffffffffffffffffffffffffffffffffffffffff1673ffffffffffffffffffffffffffffffffffffffff163373ffffffffffffffffffffffffffffffffffffffff1614610466576040517f08c379a000000000000000000000000000000000000000000000000000000000815260040161045d906114e1565b60405180910390fd5b5f6006828154811061047b5761047a6114ff565b5b905f5260205f20906005020190506002600a546104989190611586565b8160030154116104dd576040517f08c379a00000000000000000000000000000000000000000000000000000000081526004016104d490611600565b60405180910390fd5b8060020160149054906101000a900460ff161561052f576040517f08c379a00000000000000000000000000000000000000000000000000000000081526004016105269061168e565b60405180910390fd5b806002015f9054906101000a900473ffffffffffffffffffffffffffffffffffffffff1673ffffffffffffffffffffffffffffffffffffffff166108fc826001015490811502906040515f60405180830381858888f19350505050158015610599573d5f5f3e3d5ffd5b5060018160020160146101000a81548160ff0219169083151502179055505050565b6009602052805f5260405f205f915054906101000a900460ff1681565b5f600680549050905090565b60035481565b60608060605f5f5f5f5f5f5f5f5f6001600260035460085447600a5460068054905060075f9054906101000a900473ffffffffffffffffffffffffffffffffffffffff166004546005548a8054610640906116d9565b80601f016020809104026020016040519081016040528092919081815260200182805461066c906116d9565b80156106b75780601f1061068e576101008083540402835291602001916106b7565b820191905f5260205f20905b81548152906001019060200180831161069a57829003601f168201915b50505050509a508980546106ca906116d9565b80601f01602080910402602001604051908101604052809291908181526020018280546106f6906116d9565b80156107415780601f1061071857610100808354040283529160200191610741565b820191905f5260205f20905b81548152906001019060200180831161072457829003601f168201915b50505050509950888054610754906116d9565b80601f0160208091040260200160405190810160405280929190818152602001828054610780906116d9565b80156107cb5780601f106107a2576101008083540402835291602001916107cb565b820191905f5260205f20905b8154815290600101906020018083116107ae57829003601f168201915b505050505098509a509a509a509a509a509a509a509a509a509a509a50909192939495969798999a565b60075f9054906101000a900473ffffffffffffffffffffffffffffffffffffffff1681565b5f8054610826906116d9565b80601f0160208091040260200160405190810160405280929190818152602001828054610852906116d9565b801561089d5780601f106108745761010080835404028352916020019161089d565b820191905f5260205f20905b81548152906001019060200180831161088057829003601f168201915b505050505081565b600180546108b2906116d9565b80601f01602080910402602001604051908101604052809291908181526020018280546108de906116d9565b80156109295780601f1061090057610100808354040283529160200191610929565b820191905f5260205f20905b81548152906001019060200180831161090c57829003601f168201915b505050505081565b60068181548110610940575f80fd5b905f5260205f2090600502015f91509050805f01805461095f906116d9565b80601f016020809104026020016040519081016040528092919081815260200182805461098b906116d9565b80156109d65780601f106109ad576101008083540402835291602001916109d6565b820191905f5260205f20905b8154815290600101906020018083116109b957829003601f168201915b505050505090806001015490806002015f9054906101000a900473ffffffffffffffffffffffffffffffffffffffff16908060020160149054906101000a900460ff16908060030154905085565b600a5481565b60075f9054906101000a900473ffffffffffffffffffffffffffffffffffffffff1673ffffffffffffffffffffffffffffffffffffffff163373ffffffffffffffffffffffffffffffffffffffff1614610ab9576040517f08c379a0000000000000000000000000000000000000000000000000000000008152600401610ab0906114e1565b60405180910390fd5b600660018160018154018082558091505003905f5260205f209050505f60066001600680549050610aea9190611709565b81548110610afb57610afa6114ff565b5b905f5260205f209060050201905083815f019081610b1991906118dc565b5082816001018190555081816002015f6101000a81548173ffffffffffffffffffffffffffffffffffffffff021916908373ffffffffffffffffffffffffffffffffffffffff1602179055505f8160020160146101000a81548160ff0219169083151502179055505f816003018190555050505050565b60085481565b60055481565b60045481565b600854341015610be7576040517f08c379a0000000000000000000000000000000000000000000000000000000008152600401610bde90611a1b565b60405180910390fd5b60095f3373ffffffffffffffffffffffffffffffffffffffff1673ffffffffffffffffffffffffffffffffffffffff1681526020019081526020015f205f9054906101000a900460ff16610ca257600160095f3373ffffffffffffffffffffffffffffffffffffffff1673ffffffffffffffffffffffffffffffffffffffff1681526020019081526020015f205f6101000a81548160ff021916908315150217905550600a5f815480929190610c9c90611a39565b91905055505b42600581905550565b5f60068281548110610cc057610cbf6114ff565b5b905f5260205f209060050201905060095f3373ffffffffffffffffffffffffffffffffffffffff1673ffffffffffffffffffffffffffffffffffffffff1681526020019081526020015f205f9054906101000a900460ff16610d57576040517f08c379a0000000000000000000000000000000000000000000000000000000008152600401610d4e90611af0565b60405180910390fd5b60075f9054906101000a900473ffffffffffffffffffffffffffffffffffffffff1673ffffffffffffffffffffffffffffffffffffffff163373ffffffffffffffffffffffffffffffffffffffff1603610de6576040517f08c379a0000000000000000000000000000000000000000000000000000000008152600401610ddd90611b7e565b60405180910390fd5b806004015f3373ffffffffffffffffffffffffffffffffffffffff1673ffffffffffffffffffffffffffffffffffffffff1681526020019081526020015f205f9054906101000a900460ff1615610e72576040517f08c379a0000000000000000000000000000000000000000000000000000000008152600401610e6990611c0c565b60405180910390fd5b6001816004015f3373ffffffffffffffffffffffffffffffffffffffff1673ffffffffffffffffffffffffffffffffffffffff1681526020019081526020015f205f6101000a81548160ff021916908315150217905550806003015f815480929190610edd90611a39565b91905055505050565b60028054610ef3906116d9565b80601f0160208091040260200160405190810160405280929190818152602001828054610f1f906116d9565b8015610f6a5780601f10610f4157610100808354040283529160200191610f6a565b820191905f5260205f20905b815481529060010190602001808311610f4d57829003601f168201915b505050505081565b5f604051905090565b5f5ffd5b5f5ffd5b5f819050919050565b610f9581610f83565b8114610f9f575f5ffd5b50565b5f81359050610fb081610f8c565b92915050565b5f60208284031215610fcb57610fca610f7b565b5b5f610fd884828501610fa2565b91505092915050565b5f73ffffffffffffffffffffffffffffffffffffffff82169050919050565b5f61100a82610fe1565b9050919050565b61101a81611000565b8114611024575f5ffd5b50565b5f8135905061103581611011565b92915050565b5f602082840312156110505761104f610f7b565b5b5f61105d84828501611027565b91505092915050565b5f8115159050919050565b61107a81611066565b82525050565b5f6020820190506110935f830184611071565b92915050565b6110a281610f83565b82525050565b5f6020820190506110bb5f830184611099565b92915050565b5f81519050919050565b5f82825260208201905092915050565b8281835e5f83830152505050565b5f601f19601f8301169050919050565b5f611103826110c1565b61110d81856110cb565b935061111d8185602086016110db565b611126816110e9565b840191505092915050565b61113a81611000565b82525050565b5f610160820190508181035f830152611159818e6110f9565b9050818103602083015261116d818d6110f9565b90508181036040830152611181818c6110f9565b9050611190606083018b611099565b61119d608083018a611099565b6111aa60a0830189611099565b6111b760c0830188611099565b6111c460e0830187611099565b6111d2610100830186611131565b6111e0610120830185611099565b6111ee610140830184611099565b9c9b505050505050505050505050565b5f6020820190506112115f830184611131565b92915050565b5f6020820190508181035f83015261122f81846110f9565b905092915050565b5f61124182610fe1565b9050919050565b61125181611237565b82525050565b5f60a0820190508181035f83015261126f81886110f9565b905061127e6020830187611099565b61128b6040830186611248565b6112986060830185611071565b6112a56080830184611099565b9695505050505050565b5f5ffd5b5f5ffd5b7f4e487b71000000000000000000000000000000000000000000000000000000005f52604160045260245ffd5b6112ed826110e9565b810181811067ffffffffffffffff8211171561130c5761130b6112b7565b5b80604052505050565b5f61131e610f72565b905061132a82826112e4565b919050565b5f67ffffffffffffffff821115611349576113486112b7565b5b611352826110e9565b9050602081019050919050565b828183375f83830152505050565b5f61137f61137a8461132f565b611315565b90508281526020810184848401111561139b5761139a6112b3565b5b6113a684828561135f565b509392505050565b5f82601f8301126113c2576113c16112af565b5b81356113d284826020860161136d565b91505092915050565b6113e481611237565b81146113ee575f5ffd5b50565b5f813590506113ff816113db565b92915050565b5f5f5f6060848603121561141c5761141b610f7b565b5b5f84013567ffffffffffffffff81111561143957611438610f7f565b5b611445868287016113ae565b935050602061145686828701610fa2565b9250506040611467868287016113f1565b9150509250925092565b7f4f6e6c79206d616e616765722063616e20706572666f726d20746869732061635f8201527f74696f6e00000000000000000000000000000000000000000000000000000000602082015250565b5f6114cb6024836110cb565b91506114d682611471565b604082019050919050565b5f6020820190508181035f8301526114f8816114bf565b9050919050565b7f4e487b71000000000000000000000000000000000000000000000000000000005f52603260045260245ffd5b7f4e487b71000000000000000000000000000000000000000000000000000000005f52601260045260245ffd5b7f4e487b71000000000000000000000000000000000000000000000000000000005f52601160045260245ffd5b5f61159082610f83565b915061159b83610f83565b9250826115ab576115aa61152c565b5b828204905092915050565b7f4e6f7420656e6f75676820617070726f76616c7320746f2066696e616c697a655f82015250565b5f6115ea6020836110cb565b91506115f5826115b6565b602082019050919050565b5f6020820190508181035f830152611617816115de565b9050919050565b7f5468697320726571756573742068617320616c7265616479206265656e20636f5f8201527f6d706c6574656400000000000000000000000000000000000000000000000000602082015250565b5f6116786027836110cb565b91506116838261161e565b604082019050919050565b5f6020820190508181035f8301526116a58161166c565b9050919050565b7f4e487b71000000000000000000000000000000000000000000000000000000005f52602260045260245ffd5b5f60028204905060018216806116f057607f821691505b602082108103611703576117026116ac565b5b50919050565b5f61171382610f83565b915061171e83610f83565b925082820390508181111561173657611735611559565b5b92915050565b5f819050815f5260205f209050919050565b5f6020601f8301049050919050565b5f82821b905092915050565b5f600883026117987fffffffffffffffffffffffffffffffffffffffffffffffffffffffffffffffff8261175d565b6117a2868361175d565b95508019841693508086168417925050509392505050565b5f819050919050565b5f6117dd6117d86117d384610f83565b6117ba565b610f83565b9050919050565b5f819050919050565b6117f6836117c3565b61180a611802826117e4565b848454611769565b825550505050565b5f5f905090565b611821611812565b61182c8184846117ed565b505050565b5b8181101561184f576118445f82611819565b600181019050611832565b5050565b601f821115611894576118658161173c565b61186e8461174e565b8101602085101561187d578190505b6118916118898561174e565b830182611831565b50505b505050565b5f82821c905092915050565b5f6118b45f1984600802611899565b1980831691505092915050565b5f6118cc83836118a5565b9150826002028217905092915050565b6118e5826110c1565b67ffffffffffffffff8111156118fe576118fd6112b7565b5b61190882546116d9565b611913828285611853565b5f60209050601f831160018114611944575f8415611932578287015190505b61193c85826118c1565b8655506119a3565b601f1984166119528661173c565b5f5b8281101561197957848901518255600182019150602085019450602081019050611954565b868310156119965784890151611992601f8916826118a5565b8355505b6001600288020188555050505b505050505050565b7f436f6e747269627574696f6e206d757374206d65657420746865206d696e696d5f8201527f756d20616d6f756e740000000000000000000000000000000000000000000000602082015250565b5f611a056029836110cb565b9150611a10826119ab565b604082019050919050565b5f6020820190508181035f830152611a32816119f9565b9050919050565b5f611a4382610f83565b91507fffffffffffffffffffffffffffffffffffffffffffffffffffffffffffffffff8203611a7557611a74611559565b5b600182019050919050565b7f596f75206d75737420636f6e7472696275746520666972737420746f20766f745f8201527f6500000000000000000000000000000000000000000000000000000000000000602082015250565b5f611ada6021836110cb565b9150611ae582611a80565b604082019050919050565b5f6020820190508181035f830152611b0781611ace565b9050919050565b7f4d616e616765722063616e6e6f7420617070726f7665207468656972206f776e5f8201527f2072657175657374730000000000000000000000000000000000000000000000602082015250565b5f611b686029836110cb565b9150611b7382611b0e565b604082019050919050565b5f6020820190508181035f830152611b9581611b5c565b9050919050565b7f596f75206861766520616c726561647920766f746564206f6e207468697320725f8201527f6571756573740000000000000000000000000000000000000000000000000000602082015250565b5f611bf66026836110cb565b9150611c0182611b9c565b604082019050919050565b5f6020820190508181035f830152611c2381611bea565b905091905056fea264697066735822122007407d8e8f70b6df9fba722ec8be20436d966baee05adfa2701f3901035a0ba564736f6c634300081e0033","opcodes":"PUSH1 0x80 PUSH1 0x40 MSTORE PUSH0 PUSH1 0xA SSTORE CALLVALUE DUP1 ISZERO PUSH2 0x13 JUMPI PUSH0 PUSH0 REVERT JUMPDEST POP PUSH1 0x40 MLOAD PUSH2 0x22C5 CODESIZE SUB DUP1 PUSH2 0x22C5 DUP4 CODECOPY DUP2 DUP2 ADD PUSH1 0x40 MSTORE DUP2 ADD SWAP1 PUSH2 0x35 SWAP2 SWAP1 PUSH2 0x2A5 JUMP JUMPDEST DUP5 PUSH1 0x7 PUSH0 PUSH2 0x100 EXP DUP2 SLOAD DUP2 PUSH20 0xFFFFFFFFFFFFFFFFFFFFFFFFFFFFFFFFFFFFFFFF MUL NOT AND SWAP1 DUP4 PUSH20 0xFFFFFFFFFFFFFFFFFFFFFFFFFFFFFFFFFFFFFFFF AND MUL OR SWAP1 SSTORE POP DUP6 PUSH1 0x8 DUP2 SWAP1 SSTORE POP DUP4 PUSH0 SWAP1 DUP2 PUSH2 0x8A SWAP2 SWAP1 PUSH2 0x589 JUMP JUMPDEST POP DUP3 PUSH1 0x1 SWAP1 DUP2 PUSH2 0x9A SWAP2 SWAP1 PUSH2 0x589 JUMP JUMPDEST POP DUP2 PUSH1 0x2 SWAP1 DUP2 PUSH2 0xAA SWAP2 SWAP1 PUSH2 0x589 JUMP JUMPDEST POP DUP1 PUSH1 0x3 DUP2 SWAP1 SSTORE POP TIMESTAMP PUSH1 0x4 DUP2 SWAP1 SSTORE POP PUSH0 PUSH1 0x5 DUP2 SWAP1 SSTORE POP POP POP POP POP POP POP PUSH2 0x658 JUMP JUMPDEST PUSH0 PUSH1 0x40 MLOAD SWAP1 POP SWAP1 JUMP JUMPDEST PUSH0 PUSH0 REVERT JUMPDEST PUSH0 PUSH0 REVERT JUMPDEST PUSH0 DUP2 SWAP1 POP SWAP2 SWAP1 POP JUMP JUMPDEST PUSH2 0xEE DUP2 PUSH2 0xDC JUMP JUMPDEST DUP2 EQ PUSH2 0xF8 JUMPI PUSH0 PUSH0 REVERT JUMPDEST POP JUMP JUMPDEST PUSH0 DUP2 MLOAD SWAP1 POP PUSH2 0x109 DUP2 PUSH2 0xE5 JUMP JUMPDEST SWAP3 SWAP2 POP POP JUMP JUMPDEST PUSH0 PUSH20 0xFFFFFFFFFFFFFFFFFFFFFFFFFFFFFFFFFFFFFFFF DUP3 AND SWAP1 POP SWAP2 SWAP1 POP JUMP JUMPDEST PUSH0 PUSH2 0x138 DUP3 PUSH2 0x10F JUMP JUMPDEST SWAP1 POP SWAP2 SWAP1 POP JUMP JUMPDEST PUSH2 0x148 DUP2 PUSH2 0x12E JUMP JUMPDEST DUP2 EQ PUSH2 0x152 JUMPI PUSH0 PUSH0 REVERT JUMPDEST POP JUMP JUMPDEST PUSH0 DUP2 MLOAD SWAP1 POP PUSH2 0x163 DUP2 PUSH2 0x13F JUMP JUMPDEST SWAP3 SWAP2 POP POP JUMP JUMPDEST PUSH0 PUSH0 REVERT JUMPDEST PUSH0 PUSH0 REVERT JUMPDEST PUSH0 PUSH1 0x1F NOT PUSH1 0x1F DUP4 ADD AND SWAP1 POP SWAP2 SWAP1 POP JUMP JUMPDEST PUSH32 0x4E487B7100000000000000000000000000000000000000000000000000000000 PUSH0 MSTORE PUSH1 0x41 PUSH1 0x4 MSTORE PUSH1 0x24 PUSH0 REVERT JUMPDEST PUSH2 0x1B7 DUP3 PUSH2 0x171 JUMP JUMPDEST DUP2 ADD DUP2 DUP2 LT PUSH8 0xFFFFFFFFFFFFFFFF DUP3 GT OR ISZERO PUSH2 0x1D6 JUMPI PUSH2 0x1D5 PUSH2 0x181 JUMP JUMPDEST JUMPDEST DUP1 PUSH1 0x40 MSTORE POP POP POP JUMP JUMPDEST PUSH0 PUSH2 0x1E8 PUSH2 0xCB JUMP JUMPDEST SWAP1 POP PUSH2 0x1F4 DUP3 DUP3 PUSH2 0x1AE JUMP JUMPDEST SWAP2 SWAP1 POP JUMP JUMPDEST PUSH0 PUSH8 0xFFFFFFFFFFFFFFFF DUP3 GT ISZERO PUSH2 0x213 JUMPI PUSH2 0x212 PUSH2 0x181 JUMP JUMPDEST JUMPDEST PUSH2 0x21C DUP3 PUSH2 0x171 JUMP JUMPDEST SWAP1 POP PUSH1 0x20 DUP2 ADD SWAP1 POP SWAP2 SWAP1 POP JUMP JUMPDEST DUP3 DUP2 DUP4 MCOPY PUSH0 DUP4 DUP4 ADD MSTORE POP POP POP JUMP JUMPDEST PUSH0 PUSH2 0x249 PUSH2 0x244 DUP5 PUSH2 0x1F9 JUMP JUMPDEST PUSH2 0x1DF JUMP JUMPDEST SWAP1 POP DUP3 DUP2 MSTORE PUSH1 0x20 DUP2 ADD DUP5 DUP5 DUP5 ADD GT ISZERO PUSH2 0x265 JUMPI PUSH2 0x264 PUSH2 0x16D JUMP JUMPDEST JUMPDEST PUSH2 0x270 DUP5 DUP3 DUP6 PUSH2 0x229 JUMP JUMPDEST POP SWAP4 SWAP3 POP POP POP JUMP JUMPDEST PUSH0 DUP3 PUSH1 0x1F DUP4 ADD SLT PUSH2 0x28C JUMPI PUSH2 0x28B PUSH2 0x169 JUMP JUMPDEST JUMPDEST DUP2 MLOAD PUSH2 0x29C DUP5 DUP3 PUSH1 0x20 DUP7 ADD PUSH2 0x237 JUMP JUMPDEST SWAP2 POP POP SWAP3 SWAP2 POP POP JUMP JUMPDEST PUSH0 PUSH0 PUSH0 PUSH0 PUSH0 PUSH0 PUSH1 0xC0 DUP8 DUP10 SUB SLT ISZERO PUSH2 0x2BF JUMPI PUSH2 0x2BE PUSH2 0xD4 JUMP JUMPDEST JUMPDEST PUSH0 PUSH2 0x2CC DUP10 DUP3 DUP11 ADD PUSH2 0xFB JUMP JUMPDEST SWAP7 POP POP PUSH1 0x20 PUSH2 0x2DD DUP10 DUP3 DUP11 ADD PUSH2 0x155 JUMP JUMPDEST SWAP6 POP POP PUSH1 0x40 DUP8 ADD MLOAD PUSH8 0xFFFFFFFFFFFFFFFF DUP2 GT ISZERO PUSH2 0x2FE JUMPI PUSH2 0x2FD PUSH2 0xD8 JUMP JUMPDEST JUMPDEST PUSH2 0x30A DUP10 DUP3 DUP11 ADD PUSH2 0x278 JUMP JUMPDEST SWAP5 POP POP PUSH1 0x60 DUP8 ADD MLOAD PUSH8 0xFFFFFFFFFFFFFFFF DUP2 GT ISZERO PUSH2 0x32B JUMPI PUSH2 0x32A PUSH2 0xD8 JUMP JUMPDEST JUMPDEST PUSH2 0x337 DUP10 DUP3 DUP11 ADD PUSH2 0x278 JUMP JUMPDEST SWAP4 POP POP PUSH1 0x80 DUP8 ADD MLOAD PUSH8 0xFFFFFFFFFFFFFFFF DUP2 GT ISZERO PUSH2 0x358 JUMPI PUSH2 0x357 PUSH2 0xD8 JUMP JUMPDEST JUMPDEST PUSH2 0x364 DUP10 DUP3 DUP11 ADD PUSH2 0x278 JUMP JUMPDEST SWAP3 POP POP PUSH1 0xA0 PUSH2 0x375 DUP10 DUP3 DUP11 ADD PUSH2 0xFB JUMP JUMPDEST SWAP2 POP POP SWAP3 SWAP6 POP SWAP3 SWAP6 POP SWAP3 SWAP6 JUMP JUMPDEST PUSH0 DUP2 MLOAD SWAP1 POP SWAP2 SWAP1 POP JUMP JUMPDEST PUSH32 0x4E487B7100000000000000000000000000000000000000000000000000000000 PUSH0 MSTORE PUSH1 0x22 PUSH1 0x4 MSTORE PUSH1 0x24 PUSH0 REVERT JUMPDEST PUSH0 PUSH1 0x2 DUP3 DIV SWAP1 POP PUSH1 0x1 DUP3 AND DUP1 PUSH2 0x3D0 JUMPI PUSH1 0x7F DUP3 AND SWAP2 POP JUMPDEST PUSH1 0x20 DUP3 LT DUP2 SUB PUSH2 0x3E3 JUMPI PUSH2 0x3E2 PUSH2 0x38C JUMP JUMPDEST JUMPDEST POP SWAP2 SWAP1 POP JUMP JUMPDEST PUSH0 DUP2 SWAP1 POP DUP2 PUSH0 MSTORE PUSH1 0x20 PUSH0 KECCAK256 SWAP1 POP SWAP2 SWAP1 POP JUMP JUMPDEST PUSH0 PUSH1 0x20 PUSH1 0x1F DUP4 ADD DIV SWAP1 POP SWAP2 SWAP1 POP JUMP JUMPDEST PUSH0 DUP3 DUP3 SHL SWAP1 POP SWAP3 SWAP2 POP POP JUMP JUMPDEST PUSH0 PUSH1 0x8 DUP4 MUL PUSH2 0x445 PUSH32 0xFFFFFFFFFFFFFFFFFFFFFFFFFFFFFFFFFFFFFFFFFFFFFFFFFFFFFFFFFFFFFFFF DUP3 PUSH2 0x40A JUMP JUMPDEST PUSH2 0x44F DUP7 DUP4 PUSH2 0x40A JUMP JUMPDEST SWAP6 POP DUP1 NOT DUP5 AND SWAP4 POP DUP1 DUP7 AND DUP5 OR SWAP3 POP POP POP SWAP4 SWAP3 POP POP POP JUMP JUMPDEST PUSH0 DUP2 SWAP1 POP SWAP2 SWAP1 POP JUMP JUMPDEST PUSH0 PUSH2 0x48A PUSH2 0x485 PUSH2 0x480 DUP5 PUSH2 0xDC JUMP JUMPDEST PUSH2 0x467 JUMP JUMPDEST PUSH2 0xDC JUMP JUMPDEST SWAP1 POP SWAP2 SWAP1 POP JUMP JUMPDEST PUSH0 DUP2 SWAP1 POP SWAP2 SWAP1 POP JUMP JUMPDEST PUSH2 0x4A3 DUP4 PUSH2 0x470 JUMP JUMPDEST PUSH2 0x4B7 PUSH2 0x4AF DUP3 PUSH2 0x491 JUMP JUMPDEST DUP5 DUP5 SLOAD PUSH2 0x416 JUMP JUMPDEST DUP3 SSTORE POP POP POP POP JUMP JUMPDEST PUSH0 PUSH0 SWAP1 POP SWAP1 JUMP JUMPDEST PUSH2 0x4CE PUSH2 0x4BF JUMP JUMPDEST PUSH2 0x4D9 DUP2 DUP5 DUP5 PUSH2 0x49A JUMP JUMPDEST POP POP POP JUMP JUMPDEST JUMPDEST DUP2 DUP2 LT ISZERO PUSH2 0x4FC JUMPI PUSH2 0x4F1 PUSH0 DUP3 PUSH2 0x4C6 JUMP JUMPDEST PUSH1 0x1 DUP2 ADD SWAP1 POP PUSH2 0x4DF JUMP JUMPDEST POP POP JUMP JUMPDEST PUSH1 0x1F DUP3 GT ISZERO PUSH2 0x541 JUMPI PUSH2 0x512 DUP2 PUSH2 0x3E9 JUMP JUMPDEST PUSH2 0x51B DUP5 PUSH2 0x3FB JUMP JUMPDEST DUP2 ADD PUSH1 0x20 DUP6 LT ISZERO PUSH2 0x52A JUMPI DUP2 SWAP1 POP JUMPDEST PUSH2 0x53E PUSH2 0x536 DUP6 PUSH2 0x3FB JUMP JUMPDEST DUP4 ADD DUP3 PUSH2 0x4DE JUMP JUMPDEST POP POP JUMPDEST POP POP POP JUMP JUMPDEST PUSH0 DUP3 DUP3 SHR SWAP1 POP SWAP3 SWAP2 POP POP JUMP JUMPDEST PUSH0 PUSH2 0x561 PUSH0 NOT DUP5 PUSH1 0x8 MUL PUSH2 0x546 JUMP JUMPDEST NOT DUP1 DUP4 AND SWAP2 POP POP SWAP3 SWAP2 POP POP JUMP JUMPDEST PUSH0 PUSH2 0x579 DUP4 DUP4 PUSH2 0x552 JUMP JUMPDEST SWAP2 POP DUP3 PUSH1 0x2 MUL DUP3 OR SWAP1 POP SWAP3 SWAP2 POP POP JUMP JUMPDEST PUSH2 0x592 DUP3 PUSH2 0x382 JUMP JUMPDEST PUSH8 0xFFFFFFFFFFFFFFFF DUP2 GT ISZERO PUSH2 0x5AB JUMPI PUSH2 0x5AA PUSH2 0x181 JUMP JUMPDEST JUMPDEST PUSH2 0x5B5 DUP3 SLOAD PUSH2 0x3B9 JUMP JUMPDEST PUSH2 0x5C0 DUP3 DUP3 DUP6 PUSH2 0x500 JUMP JUMPDEST PUSH0 PUSH1 0x20 SWAP1 POP PUSH1 0x1F DUP4 GT PUSH1 0x1 DUP2 EQ PUSH2 0x5F1 JUMPI PUSH0 DUP5 ISZERO PUSH2 0x5DF JUMPI DUP3 DUP8 ADD MLOAD SWAP1 POP JUMPDEST PUSH2 0x5E9 DUP6 DUP3 PUSH2 0x56E JUMP JUMPDEST DUP7 SSTORE POP PUSH2 0x650 JUMP JUMPDEST PUSH1 0x1F NOT DUP5 AND PUSH2 0x5FF DUP7 PUSH2 0x3E9 JUMP JUMPDEST PUSH0 JUMPDEST DUP3 DUP2 LT ISZERO PUSH2 0x626 JUMPI DUP5 DUP10 ADD MLOAD DUP3 SSTORE PUSH1 0x1 DUP3 ADD SWAP2 POP PUSH1 0x20 DUP6 ADD SWAP5 POP PUSH1 0x20 DUP2 ADD SWAP1 POP PUSH2 0x601 JUMP JUMPDEST DUP7 DUP4 LT ISZERO PUSH2 0x643 JUMPI DUP5 DUP10 ADD MLOAD PUSH2 0x63F PUSH1 0x1F DUP10 AND DUP3 PUSH2 0x552 JUMP JUMPDEST DUP4 SSTORE POP JUMPDEST PUSH1 0x1 PUSH1 0x2 DUP9 MUL ADD DUP9 SSTORE POP POP POP JUMPDEST POP POP POP POP POP POP JUMP JUMPDEST PUSH2 0x1C60 DUP1 PUSH2 0x665 PUSH0 CODECOPY PUSH0 RETURN INVALID PUSH1 0x80 PUSH1 0x40 MSTORE PUSH1 0x4 CALLDATASIZE LT PUSH2 0xFD JUMPI PUSH0 CALLDATALOAD PUSH1 0xE0 SHR DUP1 PUSH4 0x81D12C58 GT PUSH2 0x94 JUMPI DUP1 PUSH4 0xB4F73584 GT PUSH2 0x63 JUMPI DUP1 PUSH4 0xB4F73584 EQ PUSH2 0x327 JUMPI DUP1 PUSH4 0xCF09E0D0 EQ PUSH2 0x351 JUMPI DUP1 PUSH4 0xD7BB99BA EQ PUSH2 0x37B JUMPI DUP1 PUSH4 0xD7D1BBDB EQ PUSH2 0x385 JUMPI DUP1 PUSH4 0xEF430AA6 EQ PUSH2 0x3AD JUMPI PUSH2 0xFD JUMP JUMPDEST DUP1 PUSH4 0x81D12C58 EQ PUSH2 0x26B JUMPI DUP1 PUSH4 0x82FDE093 EQ PUSH2 0x2AB JUMPI DUP1 PUSH4 0x8A9CFD55 EQ PUSH2 0x2D5 JUMPI DUP1 PUSH4 0x937E09B1 EQ PUSH2 0x2FD JUMPI PUSH2 0xFD JUMP JUMPDEST DUP1 PUSH4 0x4051DDAC GT PUSH2 0xD0 JUMPI DUP1 PUSH4 0x4051DDAC EQ PUSH2 0x1B9 JUMPI DUP1 PUSH4 0x481C6A75 EQ PUSH2 0x1ED JUMPI DUP1 PUSH4 0x4A79D50C EQ PUSH2 0x217 JUMPI DUP1 PUSH4 0x7284E416 EQ PUSH2 0x241 JUMPI PUSH2 0xFD JUMP JUMPDEST DUP1 PUSH4 0x3441006 EQ PUSH2 0x101 JUMPI DUP1 PUSH4 0xA144391 EQ PUSH2 0x129 JUMPI DUP1 PUSH4 0x3410452A EQ PUSH2 0x165 JUMPI DUP1 PUSH4 0x40193883 EQ PUSH2 0x18F JUMPI JUMPDEST PUSH0 PUSH0 REVERT JUMPDEST CALLVALUE DUP1 ISZERO PUSH2 0x10C JUMPI PUSH0 PUSH0 REVERT JUMPDEST POP PUSH2 0x127 PUSH1 0x4 DUP1 CALLDATASIZE SUB DUP2 ADD SWAP1 PUSH2 0x122 SWAP2 SWAP1 PUSH2 0xFB6 JUMP JUMPDEST PUSH2 0x3D7 JUMP JUMPDEST STOP JUMPDEST CALLVALUE DUP1 ISZERO PUSH2 0x134 JUMPI PUSH0 PUSH0 REVERT JUMPDEST POP PUSH2 0x14F PUSH1 0x4 DUP1 CALLDATASIZE SUB DUP2 ADD SWAP1 PUSH2 0x14A SWAP2 SWAP1 PUSH2 0x103B JUMP JUMPDEST PUSH2 0x5BB JUMP JUMPDEST PUSH1 0x40 MLOAD PUSH2 0x15C SWAP2 SWAP1 PUSH2 0x1080 JUMP JUMPDEST PUSH1 0x40 MLOAD DUP1 SWAP2 SUB SWAP1 RETURN JUMPDEST CALLVALUE DUP1 ISZERO PUSH2 0x170 JUMPI PUSH0 PUSH0 REVERT JUMPDEST POP PUSH2 0x179 PUSH2 0x5D8 JUMP JUMPDEST PUSH1 0x40 MLOAD PUSH2 0x186 SWAP2 SWAP1 PUSH2 0x10A8 JUMP JUMPDEST PUSH1 0x40 MLOAD DUP1 SWAP2 SUB SWAP1 RETURN JUMPDEST CALLVALUE DUP1 ISZERO PUSH2 0x19A JUMPI PUSH0 PUSH0 REVERT JUMPDEST POP PUSH2 0x1A3 PUSH2 0x5E4 JUMP JUMPDEST PUSH1 0x40 MLOAD PUSH2 0x1B0 SWAP2 SWAP1 PUSH2 0x10A8 JUMP JUMPDEST PUSH1 0x40 MLOAD DUP1 SWAP2 SUB SWAP1 RETURN JUMPDEST CALLVALUE DUP1 ISZERO PUSH2 0x1C4 JUMPI PUSH0 PUSH0 REVERT JUMPDEST POP PUSH2 0x1CD PUSH2 0x5EA JUMP JUMPDEST PUSH1 0x40 MLOAD PUSH2 0x1E4 SWAP12 SWAP11 SWAP10 SWAP9 SWAP8 SWAP7 SWAP6 SWAP5 SWAP4 SWAP3 SWAP2 SWAP1 PUSH2 0x1140 JUMP JUMPDEST PUSH1 0x40 MLOAD DUP1 SWAP2 SUB SWAP1 RETURN JUMPDEST CALLVALUE DUP1 ISZERO PUSH2 0x1F8 JUMPI PUSH0 PUSH0 REVERT JUMPDEST POP PUSH2 0x201 PUSH2 0x7F5 JUMP JUMPDEST PUSH1 0x40 MLOAD PUSH2 0x20E SWAP2 SWAP1 PUSH2 0x11FE JUMP JUMPDEST PUSH1 0x40 MLOAD DUP1 SWAP2 SUB SWAP1 RETURN JUMPDEST CALLVALUE DUP1 ISZERO PUSH2 0x222 JUMPI PUSH0 PUSH0 REVERT JUMPDEST POP PUSH2 0x22B PUSH2 0x81A JUMP JUMPDEST PUSH1 0x40 MLOAD PUSH2 0x238 SWAP2 SWAP1 PUSH2 0x1217 JUMP JUMPDEST PUSH1 0x40 MLOAD DUP1 SWAP2 SUB SWAP1 RETURN JUMPDEST CALLVALUE DUP1 ISZERO PUSH2 0x24C JUMPI PUSH0 PUSH0 REVERT JUMPDEST POP PUSH2 0x255 PUSH2 0x8A5 JUMP JUMPDEST PUSH1 0x40 MLOAD PUSH2 0x262 SWAP2 SWAP1 PUSH2 0x1217 JUMP JUMPDEST PUSH1 0x40 MLOAD DUP1 SWAP2 SUB SWAP1 RETURN JUMPDEST CALLVALUE DUP1 ISZERO PUSH2 0x276 JUMPI PUSH0 PUSH0 REVERT JUMPDEST POP PUSH2 0x291 PUSH1 0x4 DUP1 CALLDATASIZE SUB DUP2 ADD SWAP1 PUSH2 0x28C SWAP2 SWAP1 PUSH2 0xFB6 JUMP JUMPDEST PUSH2 0x931 JUMP JUMPDEST PUSH1 0x40 MLOAD PUSH2 0x2A2 SWAP6 SWAP5 SWAP4 SWAP3 SWAP2 SWAP1 PUSH2 0x1257 JUMP JUMPDEST PUSH1 0x40 MLOAD DUP1 SWAP2 SUB SWAP1 RETURN JUMPDEST CALLVALUE DUP1 ISZERO PUSH2 0x2B6 JUMPI PUSH0 PUSH0 REVERT JUMPDEST POP PUSH2 0x2BF PUSH2 0xA24 JUMP JUMPDEST PUSH1 0x40 MLOAD PUSH2 0x2CC SWAP2 SWAP1 PUSH2 0x10A8 JUMP JUMPDEST PUSH1 0x40 MLOAD DUP1 SWAP2 SUB SWAP1 RETURN JUMPDEST CALLVALUE DUP1 ISZERO PUSH2 0x2E0 JUMPI PUSH0 PUSH0 REVERT JUMPDEST POP PUSH2 0x2FB PUSH1 0x4 DUP1 CALLDATASIZE SUB DUP2 ADD SWAP1 PUSH2 0x2F6 SWAP2 SWAP1 PUSH2 0x1405 JUMP JUMPDEST PUSH2 0xA2A JUMP JUMPDEST STOP JUMPDEST CALLVALUE DUP1 ISZERO PUSH2 0x308 JUMPI PUSH0 PUSH0 REVERT JUMPDEST POP PUSH2 0x311 PUSH2 0xB90 JUMP JUMPDEST PUSH1 0x40 MLOAD PUSH2 0x31E SWAP2 SWAP1 PUSH2 0x10A8 JUMP JUMPDEST PUSH1 0x40 MLOAD DUP1 SWAP2 SUB SWAP1 RETURN JUMPDEST CALLVALUE DUP1 ISZERO PUSH2 0x332 JUMPI PUSH0 PUSH0 REVERT JUMPDEST POP PUSH2 0x33B PUSH2 0xB96 JUMP JUMPDEST PUSH1 0x40 MLOAD PUSH2 0x348 SWAP2 SWAP1 PUSH2 0x10A8 JUMP JUMPDEST PUSH1 0x40 MLOAD DUP1 SWAP2 SUB SWAP1 RETURN JUMPDEST CALLVALUE DUP1 ISZERO PUSH2 0x35C JUMPI PUSH0 PUSH0 REVERT JUMPDEST POP PUSH2 0x365 PUSH2 0xB9C JUMP JUMPDEST PUSH1 0x40 MLOAD PUSH2 0x372 SWAP2 SWAP1 PUSH2 0x10A8 JUMP JUMPDEST PUSH1 0x40 MLOAD DUP1 SWAP2 SUB SWAP1 RETURN JUMPDEST PUSH2 0x383 PUSH2 0xBA2 JUMP JUMPDEST STOP JUMPDEST CALLVALUE DUP1 ISZERO PUSH2 0x390 JUMPI PUSH0 PUSH0 REVERT JUMPDEST POP PUSH2 0x3AB PUSH1 0x4 DUP1 CALLDATASIZE SUB DUP2 ADD SWAP1 PUSH2 0x3A6 SWAP2 SWAP1 PUSH2 0xFB6 JUMP JUMPDEST PUSH2 0xCAB JUMP JUMPDEST STOP JUMPDEST CALLVALUE DUP1 ISZERO PUSH2 0x3B8 JUMPI PUSH0 PUSH0 REVERT JUMPDEST POP PUSH2 0x3C1 PUSH2 0xEE6 JUMP JUMPDEST PUSH1 0x40 MLOAD PUSH2 0x3CE SWAP2 SWAP1 PUSH2 0x1217 JUMP JUMPDEST PUSH1 0x40 MLOAD DUP1 SWAP2 SUB SWAP1 RETURN JUMPDEST PUSH1 0x7 PUSH0 SWAP1 SLOAD SWAP1 PUSH2 0x100 EXP SWAP1 DIV PUSH20 0xFFFFFFFFFFFFFFFFFFFFFFFFFFFFFFFFFFFFFFFF AND PUSH20 0xFFFFFFFFFFFFFFFFFFFFFFFFFFFFFFFFFFFFFFFF AND CALLER PUSH20 0xFFFFFFFFFFFFFFFFFFFFFFFFFFFFFFFFFFFFFFFF AND EQ PUSH2 0x466 JUMPI PUSH1 0x40 MLOAD PUSH32 0x8C379A000000000000000000000000000000000000000000000000000000000 DUP2 MSTORE PUSH1 0x4 ADD PUSH2 0x45D SWAP1 PUSH2 0x14E1 JUMP JUMPDEST PUSH1 0x40 MLOAD DUP1 SWAP2 SUB SWAP1 REVERT JUMPDEST PUSH0 PUSH1 0x6 DUP3 DUP2 SLOAD DUP2 LT PUSH2 0x47B JUMPI PUSH2 0x47A PUSH2 0x14FF JUMP JUMPDEST JUMPDEST SWAP1 PUSH0 MSTORE PUSH1 0x20 PUSH0 KECCAK256 SWAP1 PUSH1 0x5 MUL ADD SWAP1 POP PUSH1 0x2 PUSH1 0xA SLOAD PUSH2 0x498 SWAP2 SWAP1 PUSH2 0x1586 JUMP JUMPDEST DUP2 PUSH1 0x3 ADD SLOAD GT PUSH2 0x4DD JUMPI PUSH1 0x40 MLOAD PUSH32 0x8C379A000000000000000000000000000000000000000000000000000000000 DUP2 MSTORE PUSH1 0x4 ADD PUSH2 0x4D4 SWAP1 PUSH2 0x1600 JUMP JUMPDEST PUSH1 0x40 MLOAD DUP1 SWAP2 SUB SWAP1 REVERT JUMPDEST DUP1 PUSH1 0x2 ADD PUSH1 0x14 SWAP1 SLOAD SWAP1 PUSH2 0x100 EXP SWAP1 DIV PUSH1 0xFF AND ISZERO PUSH2 0x52F JUMPI PUSH1 0x40 MLOAD PUSH32 0x8C379A000000000000000000000000000000000000000000000000000000000 DUP2 MSTORE PUSH1 0x4 ADD PUSH2 0x526 SWAP1 PUSH2 0x168E JUMP JUMPDEST PUSH1 0x40 MLOAD DUP1 SWAP2 SUB SWAP1 REVERT JUMPDEST DUP1 PUSH1 0x2 ADD PUSH0 SWAP1 SLOAD SWAP1 PUSH2 0x100 EXP SWAP1 DIV PUSH20 0xFFFFFFFFFFFFFFFFFFFFFFFFFFFFFFFFFFFFFFFF AND PUSH20 0xFFFFFFFFFFFFFFFFFFFFFFFFFFFFFFFFFFFFFFFF AND PUSH2 0x8FC DUP3 PUSH1 0x1 ADD SLOAD SWAP1 DUP2 ISZERO MUL SWAP1 PUSH1 0x40 MLOAD PUSH0 PUSH1 0x40 MLOAD DUP1 DUP4 SUB DUP2 DUP6 DUP9 DUP9 CALL SWAP4 POP POP POP POP ISZERO DUP1 ISZERO PUSH2 0x599 JUMPI RETURNDATASIZE PUSH0 PUSH0 RETURNDATACOPY RETURNDATASIZE PUSH0 REVERT JUMPDEST POP PUSH1 0x1 DUP2 PUSH1 0x2 ADD PUSH1 0x14 PUSH2 0x100 EXP DUP2 SLOAD DUP2 PUSH1 0xFF MUL NOT AND SWAP1 DUP4 ISZERO ISZERO MUL OR SWAP1 SSTORE POP POP POP JUMP JUMPDEST PUSH1 0x9 PUSH1 0x20 MSTORE DUP1 PUSH0 MSTORE PUSH1 0x40 PUSH0 KECCAK256 PUSH0 SWAP2 POP SLOAD SWAP1 PUSH2 0x100 EXP SWAP1 DIV PUSH1 0xFF AND DUP2 JUMP JUMPDEST PUSH0 PUSH1 0x6 DUP1 SLOAD SWAP1 POP SWAP1 POP SWAP1 JUMP JUMPDEST PUSH1 0x3 SLOAD DUP2 JUMP JUMPDEST PUSH1 0x60 DUP1 PUSH1 0x60 PUSH0 PUSH0 PUSH0 PUSH0 PUSH0 PUSH0 PUSH0 PUSH0 PUSH0 PUSH1 0x1 PUSH1 0x2 PUSH1 0x3 SLOAD PUSH1 0x8 SLOAD SELFBALANCE PUSH1 0xA SLOAD PUSH1 0x6 DUP1 SLOAD SWAP1 POP PUSH1 0x7 PUSH0 SWAP1 SLOAD SWAP1 PUSH2 0x100 EXP SWAP1 DIV PUSH20 0xFFFFFFFFFFFFFFFFFFFFFFFFFFFFFFFFFFFFFFFF AND PUSH1 0x4 SLOAD PUSH1 0x5 SLOAD DUP11 DUP1 SLOAD PUSH2 0x640 SWAP1 PUSH2 0x16D9 JUMP JUMPDEST DUP1 PUSH1 0x1F ADD PUSH1 0x20 DUP1 SWAP2 DIV MUL PUSH1 0x20 ADD PUSH1 0x40 MLOAD SWAP1 DUP2 ADD PUSH1 0x40 MSTORE DUP1 SWAP3 SWAP2 SWAP1 DUP2 DUP2 MSTORE PUSH1 0x20 ADD DUP3 DUP1 SLOAD PUSH2 0x66C SWAP1 PUSH2 0x16D9 JUMP JUMPDEST DUP1 ISZERO PUSH2 0x6B7 JUMPI DUP1 PUSH1 0x1F LT PUSH2 0x68E JUMPI PUSH2 0x100 DUP1 DUP4 SLOAD DIV MUL DUP4 MSTORE SWAP2 PUSH1 0x20 ADD SWAP2 PUSH2 0x6B7 JUMP JUMPDEST DUP3 ADD SWAP2 SWAP1 PUSH0 MSTORE PUSH1 0x20 PUSH0 KECCAK256 SWAP1 JUMPDEST DUP2 SLOAD DUP2 MSTORE SWAP1 PUSH1 0x1 ADD SWAP1 PUSH1 0x20 ADD DUP1 DUP4 GT PUSH2 0x69A JUMPI DUP3 SWAP1 SUB PUSH1 0x1F AND DUP3 ADD SWAP2 JUMPDEST POP POP POP POP POP SWAP11 POP DUP10 DUP1 SLOAD PUSH2 0x6CA SWAP1 PUSH2 0x16D9 JUMP JUMPDEST DUP1 PUSH1 0x1F ADD PUSH1 0x20 DUP1 SWAP2 DIV MUL PUSH1 0x20 ADD PUSH1 0x40 MLOAD SWAP1 DUP2 ADD PUSH1 0x40 MSTORE DUP1 SWAP3 SWAP2 SWAP1 DUP2 DUP2 MSTORE PUSH1 0x20 ADD DUP3 DUP1 SLOAD PUSH2 0x6F6 SWAP1 PUSH2 0x16D9 JUMP JUMPDEST DUP1 ISZERO PUSH2 0x741 JUMPI DUP1 PUSH1 0x1F LT PUSH2 0x718 JUMPI PUSH2 0x100 DUP1 DUP4 SLOAD DIV MUL DUP4 MSTORE SWAP2 PUSH1 0x20 ADD SWAP2 PUSH2 0x741 JUMP JUMPDEST DUP3 ADD SWAP2 SWAP1 PUSH0 MSTORE PUSH1 0x20 PUSH0 KECCAK256 SWAP1 JUMPDEST DUP2 SLOAD DUP2 MSTORE SWAP1 PUSH1 0x1 ADD SWAP1 PUSH1 0x20 ADD DUP1 DUP4 GT PUSH2 0x724 JUMPI DUP3 SWAP1 SUB PUSH1 0x1F AND DUP3 ADD SWAP2 JUMPDEST POP POP POP POP POP SWAP10 POP DUP9 DUP1 SLOAD PUSH2 0x754 SWAP1 PUSH2 0x16D9 JUMP JUMPDEST DUP1 PUSH1 0x1F ADD PUSH1 0x20 DUP1 SWAP2 DIV MUL PUSH1 0x20 ADD PUSH1 0x40 MLOAD SWAP1 DUP2 ADD PUSH1 0x40 MSTORE DUP1 SWAP3 SWAP2 SWAP1 DUP2 DUP2 MSTORE PUSH1 0x20 ADD DUP3 DUP1 SLOAD PUSH2 0x780 SWAP1 PUSH2 0x16D9 JUMP JUMPDEST DUP1 ISZERO PUSH2 0x7CB JUMPI DUP1 PUSH1 0x1F LT PUSH2 0x7A2 JUMPI PUSH2 0x100 DUP1 DUP4 SLOAD DIV MUL DUP4 MSTORE SWAP2 PUSH1 0x20 ADD SWAP2 PUSH2 0x7CB JUMP JUMPDEST DUP3 ADD SWAP2 SWAP1 PUSH0 MSTORE PUSH1 0x20 PUSH0 KECCAK256 SWAP1 JUMPDEST DUP2 SLOAD DUP2 MSTORE SWAP1 PUSH1 0x1 ADD SWAP1 PUSH1 0x20 ADD DUP1 DUP4 GT PUSH2 0x7AE JUMPI DUP3 SWAP1 SUB PUSH1 0x1F AND DUP3 ADD SWAP2 JUMPDEST POP POP POP POP POP SWAP9 POP SWAP11 POP SWAP11 POP SWAP11 POP SWAP11 POP SWAP11 POP SWAP11 POP SWAP11 POP SWAP11 POP SWAP11 POP SWAP11 POP SWAP11 POP SWAP1 SWAP2 SWAP3 SWAP4 SWAP5 SWAP6 SWAP7 SWAP8 SWAP9 SWAP10 SWAP11 JUMP JUMPDEST PUSH1 0x7 PUSH0 SWAP1 SLOAD SWAP1 PUSH2 0x100 EXP SWAP1 DIV PUSH20 0xFFFFFFFFFFFFFFFFFFFFFFFFFFFFFFFFFFFFFFFF AND DUP2 JUMP JUMPDEST PUSH0 DUP1 SLOAD PUSH2 0x826 SWAP1 PUSH2 0x16D9 JUMP JUMPDEST DUP1 PUSH1 0x1F ADD PUSH1 0x20 DUP1 SWAP2 DIV MUL PUSH1 0x20 ADD PUSH1 0x40 MLOAD SWAP1 DUP2 ADD PUSH1 0x40 MSTORE DUP1 SWAP3 SWAP2 SWAP1 DUP2 DUP2 MSTORE PUSH1 0x20 ADD DUP3 DUP1 SLOAD PUSH2 0x852 SWAP1 PUSH2 0x16D9 JUMP JUMPDEST DUP1 ISZERO PUSH2 0x89D JUMPI DUP1 PUSH1 0x1F LT PUSH2 0x874 JUMPI PUSH2 0x100 DUP1 DUP4 SLOAD DIV MUL DUP4 MSTORE SWAP2 PUSH1 0x20 ADD SWAP2 PUSH2 0x89D JUMP JUMPDEST DUP3 ADD SWAP2 SWAP1 PUSH0 MSTORE PUSH1 0x20 PUSH0 KECCAK256 SWAP1 JUMPDEST DUP2 SLOAD DUP2 MSTORE SWAP1 PUSH1 0x1 ADD SWAP1 PUSH1 0x20 ADD DUP1 DUP4 GT PUSH2 0x880 JUMPI DUP3 SWAP1 SUB PUSH1 0x1F AND DUP3 ADD SWAP2 JUMPDEST POP POP POP POP POP DUP2 JUMP JUMPDEST PUSH1 0x1 DUP1 SLOAD PUSH2 0x8B2 SWAP1 PUSH2 0x16D9 JUMP JUMPDEST DUP1 PUSH1 0x1F ADD PUSH1 0x20 DUP1 SWAP2 DIV MUL PUSH1 0x20 ADD PUSH1 0x40 MLOAD SWAP1 DUP2 ADD PUSH1 0x40 MSTORE DUP1 SWAP3 SWAP2 SWAP1 DUP2 DUP2 MSTORE PUSH1 0x20 ADD DUP3 DUP1 SLOAD PUSH2 0x8DE SWAP1 PUSH2 0x16D9 JUMP JUMPDEST DUP1 ISZERO PUSH2 0x929 JUMPI DUP1 PUSH1 0x1F LT PUSH2 0x900 JUMPI PUSH2 0x100 DUP1 DUP4 SLOAD DIV MUL DUP4 MSTORE SWAP2 PUSH1 0x20 ADD SWAP2 PUSH2 0x929 JUMP JUMPDEST DUP3 ADD SWAP2 SWAP1 PUSH0 MSTORE PUSH1 0x20 PUSH0 KECCAK256 SWAP1 JUMPDEST DUP2 SLOAD DUP2 MSTORE SWAP1 PUSH1 0x1 ADD SWAP1 PUSH1 0x20 ADD DUP1 DUP4 GT PUSH2 0x90C JUMPI DUP3 SWAP1 SUB PUSH1 0x1F AND DUP3 ADD SWAP2 JUMPDEST POP POP POP POP POP DUP2 JUMP JUMPDEST PUSH1 0x6 DUP2 DUP2 SLOAD DUP2 LT PUSH2 0x940 JUMPI PUSH0 DUP1 REVERT JUMPDEST SWAP1 PUSH0 MSTORE PUSH1 0x20 PUSH0 KECCAK256 SWAP1 PUSH1 0x5 MUL ADD PUSH0 SWAP2 POP SWAP1 POP DUP1 PUSH0 ADD DUP1 SLOAD PUSH2 0x95F SWAP1 PUSH2 0x16D9 JUMP JUMPDEST DUP1 PUSH1 0x1F ADD PUSH1 0x20 DUP1 SWAP2 DIV MUL PUSH1 0x20 ADD PUSH1 0x40 MLOAD SWAP1 DUP2 ADD PUSH1 0x40 MSTORE DUP1 SWAP3 SWAP2 SWAP1 DUP2 DUP2 MSTORE PUSH1 0x20 ADD DUP3 DUP1 SLOAD PUSH2 0x98B SWAP1 PUSH2 0x16D9 JUMP JUMPDEST DUP1 ISZERO PUSH2 0x9D6 JUMPI DUP1 PUSH1 0x1F LT PUSH2 0x9AD JUMPI PUSH2 0x100 DUP1 DUP4 SLOAD DIV MUL DUP4 MSTORE SWAP2 PUSH1 0x20 ADD SWAP2 PUSH2 0x9D6 JUMP JUMPDEST DUP3 ADD SWAP2 SWAP1 PUSH0 MSTORE PUSH1 0x20 PUSH0 KECCAK256 SWAP1 JUMPDEST DUP2 SLOAD DUP2 MSTORE SWAP1 PUSH1 0x1 ADD SWAP1 PUSH1 0x20 ADD DUP1 DUP4 GT PUSH2 0x9B9 JUMPI DUP3 SWAP1 SUB PUSH1 0x1F AND DUP3 ADD SWAP2 JUMPDEST POP POP POP POP POP SWAP1 DUP1 PUSH1 0x1 ADD SLOAD SWAP1 DUP1 PUSH1 0x2 ADD PUSH0 SWAP1 SLOAD SWAP1 PUSH2 0x100 EXP SWAP1 DIV PUSH20 0xFFFFFFFFFFFFFFFFFFFFFFFFFFFFFFFFFFFFFFFF AND SWAP1 DUP1 PUSH1 0x2 ADD PUSH1 0x14 SWAP1 SLOAD SWAP1 PUSH2 0x100 EXP SWAP1 DIV PUSH1 0xFF AND SWAP1 DUP1 PUSH1 0x3 ADD SLOAD SWAP1 POP DUP6 JUMP JUMPDEST PUSH1 0xA SLOAD DUP2 JUMP JUMPDEST PUSH1 0x7 PUSH0 SWAP1 SLOAD SWAP1 PUSH2 0x100 EXP SWAP1 DIV PUSH20 0xFFFFFFFFFFFFFFFFFFFFFFFFFFFFFFFFFFFFFFFF AND PUSH20 0xFFFFFFFFFFFFFFFFFFFFFFFFFFFFFFFFFFFFFFFF AND CALLER PUSH20 0xFFFFFFFFFFFFFFFFFFFFFFFFFFFFFFFFFFFFFFFF AND EQ PUSH2 0xAB9 JUMPI PUSH1 0x40 MLOAD PUSH32 0x8C379A000000000000000000000000000000000000000000000000000000000 DUP2 MSTORE PUSH1 0x4 ADD PUSH2 0xAB0 SWAP1 PUSH2 0x14E1 JUMP JUMPDEST PUSH1 0x40 MLOAD DUP1 SWAP2 SUB SWAP1 REVERT JUMPDEST PUSH1 0x6 PUSH1 0x1 DUP2 PUSH1 0x1 DUP2 SLOAD ADD DUP1 DUP3 SSTORE DUP1 SWAP2 POP POP SUB SWAP1 PUSH0 MSTORE PUSH1 0x20 PUSH0 KECCAK256 SWAP1 POP POP PUSH0 PUSH1 0x6 PUSH1 0x1 PUSH1 0x6 DUP1 SLOAD SWAP1 POP PUSH2 0xAEA SWAP2 SWAP1 PUSH2 0x1709 JUMP JUMPDEST DUP2 SLOAD DUP2 LT PUSH2 0xAFB JUMPI PUSH2 0xAFA PUSH2 0x14FF JUMP JUMPDEST JUMPDEST SWAP1 PUSH0 MSTORE PUSH1 0x20 PUSH0 KECCAK256 SWAP1 PUSH1 0x5 MUL ADD SWAP1 POP DUP4 DUP2 PUSH0 ADD SWAP1 DUP2 PUSH2 0xB19 SWAP2 SWAP1 PUSH2 0x18DC JUMP JUMPDEST POP DUP3 DUP2 PUSH1 0x1 ADD DUP2 SWAP1 SSTORE POP DUP2 DUP2 PUSH1 0x2 ADD PUSH0 PUSH2 0x100 EXP DUP2 SLOAD DUP2 PUSH20 0xFFFFFFFFFFFFFFFFFFFFFFFFFFFFFFFFFFFFFFFF MUL NOT AND SWAP1 DUP4 PUSH20 0xFFFFFFFFFFFFFFFFFFFFFFFFFFFFFFFFFFFFFFFF AND MUL OR SWAP1 SSTORE POP PUSH0 DUP2 PUSH1 0x2 ADD PUSH1 0x14 PUSH2 0x100 EXP DUP2 SLOAD DUP2 PUSH1 0xFF MUL NOT AND SWAP1 DUP4 ISZERO ISZERO MUL OR SWAP1 SSTORE POP PUSH0 DUP2 PUSH1 0x3 ADD DUP2 SWAP1 SSTORE POP POP POP POP POP JUMP JUMPDEST PUSH1 0x8 SLOAD DUP2 JUMP JUMPDEST PUSH1 0x5 SLOAD DUP2 JUMP JUMPDEST PUSH1 0x4 SLOAD DUP2 JUMP JUMPDEST PUSH1 0x8 SLOAD CALLVALUE LT ISZERO PUSH2 0xBE7 JUMPI PUSH1 0x40 MLOAD PUSH32 0x8C379A000000000000000000000000000000000000000000000000000000000 DUP2 MSTORE PUSH1 0x4 ADD PUSH2 0xBDE SWAP1 PUSH2 0x1A1B JUMP JUMPDEST PUSH1 0x40 MLOAD DUP1 SWAP2 SUB SWAP1 REVERT JUMPDEST PUSH1 0x9 PUSH0 CALLER PUSH20 0xFFFFFFFFFFFFFFFFFFFFFFFFFFFFFFFFFFFFFFFF AND PUSH20 0xFFFFFFFFFFFFFFFFFFFFFFFFFFFFFFFFFFFFFFFF AND DUP2 MSTORE PUSH1 0x20 ADD SWAP1 DUP2 MSTORE PUSH1 0x20 ADD PUSH0 KECCAK256 PUSH0 SWAP1 SLOAD SWAP1 PUSH2 0x100 EXP SWAP1 DIV PUSH1 0xFF AND PUSH2 0xCA2 JUMPI PUSH1 0x1 PUSH1 0x9 PUSH0 CALLER PUSH20 0xFFFFFFFFFFFFFFFFFFFFFFFFFFFFFFFFFFFFFFFF AND PUSH20 0xFFFFFFFFFFFFFFFFFFFFFFFFFFFFFFFFFFFFFFFF AND DUP2 MSTORE PUSH1 0x20 ADD SWAP1 DUP2 MSTORE PUSH1 0x20 ADD PUSH0 KECCAK256 PUSH0 PUSH2 0x100 EXP DUP2 SLOAD DUP2 PUSH1 0xFF MUL NOT AND SWAP1 DUP4 ISZERO ISZERO MUL OR SWAP1 SSTORE POP PUSH1 0xA PUSH0 DUP2 SLOAD DUP1 SWAP3 SWAP2 SWAP1 PUSH2 0xC9C SWAP1 PUSH2 0x1A39 JUMP JUMPDEST SWAP2 SWAP1 POP SSTORE POP JUMPDEST TIMESTAMP PUSH1 0x5 DUP2 SWAP1 SSTORE POP JUMP JUMPDEST PUSH0 PUSH1 0x6 DUP3 DUP2 SLOAD DUP2 LT PUSH2 0xCC0 JUMPI PUSH2 0xCBF PUSH2 0x14FF JUMP JUMPDEST JUMPDEST SWAP1 PUSH0 MSTORE PUSH1 0x20 PUSH0 KECCAK256 SWAP1 PUSH1 0x5 MUL ADD SWAP1 POP PUSH1 0x9 PUSH0 CALLER PUSH20 0xFFFFFFFFFFFFFFFFFFFFFFFFFFFFFFFFFFFFFFFF AND PUSH20 0xFFFFFFFFFFFFFFFFFFFFFFFFFFFFFFFFFFFFFFFF AND DUP2 MSTORE PUSH1 0x20 ADD SWAP1 DUP2 MSTORE PUSH1 0x20 ADD PUSH0 KECCAK256 PUSH0 SWAP1 SLOAD SWAP1 PUSH2 0x100 EXP SWAP1 DIV PUSH1 0xFF AND PUSH2 0xD57 JUMPI PUSH1 0x40 MLOAD PUSH32 0x8C379A000000000000000000000000000000000000000000000000000000000 DUP2 MSTORE PUSH1 0x4 ADD PUSH2 0xD4E SWAP1 PUSH2 0x1AF0 JUMP JUMPDEST PUSH1 0x40 MLOAD DUP1 SWAP2 SUB SWAP1 REVERT JUMPDEST PUSH1 0x7 PUSH0 SWAP1 SLOAD SWAP1 PUSH2 0x100 EXP SWAP1 DIV PUSH20 0xFFFFFFFFFFFFFFFFFFFFFFFFFFFFFFFFFFFFFFFF AND PUSH20 0xFFFFFFFFFFFFFFFFFFFFFFFFFFFFFFFFFFFFFFFF AND CALLER PUSH20 0xFFFFFFFFFFFFFFFFFFFFFFFFFFFFFFFFFFFFFFFF AND SUB PUSH2 0xDE6 JUMPI PUSH1 0x40 MLOAD PUSH32 0x8C379A000000000000000000000000000000000000000000000000000000000 DUP2 MSTORE PUSH1 0x4 ADD PUSH2 0xDDD SWAP1 PUSH2 0x1B7E JUMP JUMPDEST PUSH1 0x40 MLOAD DUP1 SWAP2 SUB SWAP1 REVERT JUMPDEST DUP1 PUSH1 0x4 ADD PUSH0 CALLER PUSH20 0xFFFFFFFFFFFFFFFFFFFFFFFFFFFFFFFFFFFFFFFF AND PUSH20 0xFFFFFFFFFFFFFFFFFFFFFFFFFFFFFFFFFFFFFFFF AND DUP2 MSTORE PUSH1 0x20 ADD SWAP1 DUP2 MSTORE PUSH1 0x20 ADD PUSH0 KECCAK256 PUSH0 SWAP1 SLOAD SWAP1 PUSH2 0x100 EXP SWAP1 DIV PUSH1 0xFF AND ISZERO PUSH2 0xE72 JUMPI PUSH1 0x40 MLOAD PUSH32 0x8C379A000000000000000000000000000000000000000000000000000000000 DUP2 MSTORE PUSH1 0x4 ADD PUSH2 0xE69 SWAP1 PUSH2 0x1C0C JUMP JUMPDEST PUSH1 0x40 MLOAD DUP1 SWAP2 SUB SWAP1 REVERT JUMPDEST PUSH1 0x1 DUP2 PUSH1 0x4 ADD PUSH0 CALLER PUSH20 0xFFFFFFFFFFFFFFFFFFFFFFFFFFFFFFFFFFFFFFFF AND PUSH20 0xFFFFFFFFFFFFFFFFFFFFFFFFFFFFFFFFFFFFFFFF AND DUP2 MSTORE PUSH1 0x20 ADD SWAP1 DUP2 MSTORE PUSH1 0x20 ADD PUSH0 KECCAK256 PUSH0 PUSH2 0x100 EXP DUP2 SLOAD DUP2 PUSH1 0xFF MUL NOT AND SWAP1 DUP4 ISZERO ISZERO MUL OR SWAP1 SSTORE POP DUP1 PUSH1 0x3 ADD PUSH0 DUP2 SLOAD DUP1 SWAP3 SWAP2 SWAP1 PUSH2 0xEDD SWAP1 PUSH2 0x1A39 JUMP JUMPDEST SWAP2 SWAP1 POP SSTORE POP POP POP JUMP JUMPDEST PUSH1 0x2 DUP1 SLOAD PUSH2 0xEF3 SWAP1 PUSH2 0x16D9 JUMP JUMPDEST DUP1 PUSH1 0x1F ADD PUSH1 0x20 DUP1 SWAP2 DIV MUL PUSH1 0x20 ADD PUSH1 0x40 MLOAD SWAP1 DUP2 ADD PUSH1 0x40 MSTORE DUP1 SWAP3 SWAP2 SWAP1 DUP2 DUP2 MSTORE PUSH1 0x20 ADD DUP3 DUP1 SLOAD PUSH2 0xF1F SWAP1 PUSH2 0x16D9 JUMP JUMPDEST DUP1 ISZERO PUSH2 0xF6A JUMPI DUP1 PUSH1 0x1F LT PUSH2 0xF41 JUMPI PUSH2 0x100 DUP1 DUP4 SLOAD DIV MUL DUP4 MSTORE SWAP2 PUSH1 0x20 ADD SWAP2 PUSH2 0xF6A JUMP JUMPDEST DUP3 ADD SWAP2 SWAP1 PUSH0 MSTORE PUSH1 0x20 PUSH0 KECCAK256 SWAP1 JUMPDEST DUP2 SLOAD DUP2 MSTORE SWAP1 PUSH1 0x1 ADD SWAP1 PUSH1 0x20 ADD DUP1 DUP4 GT PUSH2 0xF4D JUMPI DUP3 SWAP1 SUB PUSH1 0x1F AND DUP3 ADD SWAP2 JUMPDEST POP POP POP POP POP DUP2 JUMP JUMPDEST PUSH0 PUSH1 0x40 MLOAD SWAP1 POP SWAP1 JUMP JUMPDEST PUSH0 PUSH0 REVERT JUMPDEST PUSH0 PUSH0 REVERT JUMPDEST PUSH0 DUP2 SWAP1 POP SWAP2 SWAP1 POP JUMP JUMPDEST PUSH2 0xF95 DUP2 PUSH2 0xF83 JUMP JUMPDEST DUP2 EQ PUSH2 0xF9F JUMPI PUSH0 PUSH0 REVERT JUMPDEST POP JUMP JUMPDEST PUSH0 DUP2 CALLDATALOAD SWAP1 POP PUSH2 0xFB0 DUP2 PUSH2 0xF8C JUMP JUMPDEST SWAP3 SWAP2 POP POP JUMP JUMPDEST PUSH0 PUSH1 0x20 DUP3 DUP5 SUB SLT ISZERO PUSH2 0xFCB JUMPI PUSH2 0xFCA PUSH2 0xF7B JUMP JUMPDEST JUMPDEST PUSH0 PUSH2 0xFD8 DUP5 DUP3 DUP6 ADD PUSH2 0xFA2 JUMP JUMPDEST SWAP2 POP POP SWAP3 SWAP2 POP POP JUMP JUMPDEST PUSH0 PUSH20 0xFFFFFFFFFFFFFFFFFFFFFFFFFFFFFFFFFFFFFFFF DUP3 AND SWAP1 POP SWAP2 SWAP1 POP JUMP JUMPDEST PUSH0 PUSH2 0x100A DUP3 PUSH2 0xFE1 JUMP JUMPDEST SWAP1 POP SWAP2 SWAP1 POP JUMP JUMPDEST PUSH2 0x101A DUP2 PUSH2 0x1000 JUMP JUMPDEST DUP2 EQ PUSH2 0x1024 JUMPI PUSH0 PUSH0 REVERT JUMPDEST POP JUMP JUMPDEST PUSH0 DUP2 CALLDATALOAD SWAP1 POP PUSH2 0x1035 DUP2 PUSH2 0x1011 JUMP JUMPDEST SWAP3 SWAP2 POP POP JUMP JUMPDEST PUSH0 PUSH1 0x20 DUP3 DUP5 SUB SLT ISZERO PUSH2 0x1050 JUMPI PUSH2 0x104F PUSH2 0xF7B JUMP JUMPDEST JUMPDEST PUSH0 PUSH2 0x105D DUP5 DUP3 DUP6 ADD PUSH2 0x1027 JUMP JUMPDEST SWAP2 POP POP SWAP3 SWAP2 POP POP JUMP JUMPDEST PUSH0 DUP2 ISZERO ISZERO SWAP1 POP SWAP2 SWAP1 POP JUMP JUMPDEST PUSH2 0x107A DUP2 PUSH2 0x1066 JUMP JUMPDEST DUP3 MSTORE POP POP JUMP JUMPDEST PUSH0 PUSH1 0x20 DUP3 ADD SWAP1 POP PUSH2 0x1093 PUSH0 DUP4 ADD DUP5 PUSH2 0x1071 JUMP JUMPDEST SWAP3 SWAP2 POP POP JUMP JUMPDEST PUSH2 0x10A2 DUP2 PUSH2 0xF83 JUMP JUMPDEST DUP3 MSTORE POP POP JUMP JUMPDEST PUSH0 PUSH1 0x20 DUP3 ADD SWAP1 POP PUSH2 0x10BB PUSH0 DUP4 ADD DUP5 PUSH2 0x1099 JUMP JUMPDEST SWAP3 SWAP2 POP POP JUMP JUMPDEST PUSH0 DUP2 MLOAD SWAP1 POP SWAP2 SWAP1 POP JUMP JUMPDEST PUSH0 DUP3 DUP3 MSTORE PUSH1 0x20 DUP3 ADD SWAP1 POP SWAP3 SWAP2 POP POP JUMP JUMPDEST DUP3 DUP2 DUP4 MCOPY PUSH0 DUP4 DUP4 ADD MSTORE POP POP POP JUMP JUMPDEST PUSH0 PUSH1 0x1F NOT PUSH1 0x1F DUP4 ADD AND SWAP1 POP SWAP2 SWAP1 POP JUMP JUMPDEST PUSH0 PUSH2 0x1103 DUP3 PUSH2 0x10C1 JUMP JUMPDEST PUSH2 0x110D DUP2 DUP6 PUSH2 0x10CB JUMP JUMPDEST SWAP4 POP PUSH2 0x111D DUP2 DUP6 PUSH1 0x20 DUP7 ADD PUSH2 0x10DB JUMP JUMPDEST PUSH2 0x1126 DUP2 PUSH2 0x10E9 JUMP JUMPDEST DUP5 ADD SWAP2 POP POP SWAP3 SWAP2 POP POP JUMP JUMPDEST PUSH2 0x113A DUP2 PUSH2 0x1000 JUMP JUMPDEST DUP3 MSTORE POP POP JUMP JUMPDEST PUSH0 PUSH2 0x160 DUP3 ADD SWAP1 POP DUP2 DUP2 SUB PUSH0 DUP4 ADD MSTORE PUSH2 0x1159 DUP2 DUP15 PUSH2 0x10F9 JUMP JUMPDEST SWAP1 POP DUP2 DUP2 SUB PUSH1 0x20 DUP4 ADD MSTORE PUSH2 0x116D DUP2 DUP14 PUSH2 0x10F9 JUMP JUMPDEST SWAP1 POP DUP2 DUP2 SUB PUSH1 0x40 DUP4 ADD MSTORE PUSH2 0x1181 DUP2 DUP13 PUSH2 0x10F9 JUMP JUMPDEST SWAP1 POP PUSH2 0x1190 PUSH1 0x60 DUP4 ADD DUP12 PUSH2 0x1099 JUMP JUMPDEST PUSH2 0x119D PUSH1 0x80 DUP4 ADD DUP11 PUSH2 0x1099 JUMP JUMPDEST PUSH2 0x11AA PUSH1 0xA0 DUP4 ADD DUP10 PUSH2 0x1099 JUMP JUMPDEST PUSH2 0x11B7 PUSH1 0xC0 DUP4 ADD DUP9 PUSH2 0x1099 JUMP JUMPDEST PUSH2 0x11C4 PUSH1 0xE0 DUP4 ADD DUP8 PUSH2 0x1099 JUMP JUMPDEST PUSH2 0x11D2 PUSH2 0x100 DUP4 ADD DUP7 PUSH2 0x1131 JUMP JUMPDEST PUSH2 0x11E0 PUSH2 0x120 DUP4 ADD DUP6 PUSH2 0x1099 JUMP JUMPDEST PUSH2 0x11EE PUSH2 0x140 DUP4 ADD DUP5 PUSH2 0x1099 JUMP JUMPDEST SWAP13 SWAP12 POP POP POP POP POP POP POP POP POP POP POP POP JUMP JUMPDEST PUSH0 PUSH1 0x20 DUP3 ADD SWAP1 POP PUSH2 0x1211 PUSH0 DUP4 ADD DUP5 PUSH2 0x1131 JUMP JUMPDEST SWAP3 SWAP2 POP POP JUMP JUMPDEST PUSH0 PUSH1 0x20 DUP3 ADD SWAP1 POP DUP2 DUP2 SUB PUSH0 DUP4 ADD MSTORE PUSH2 0x122F DUP2 DUP5 PUSH2 0x10F9 JUMP JUMPDEST SWAP1 POP SWAP3 SWAP2 POP POP JUMP JUMPDEST PUSH0 PUSH2 0x1241 DUP3 PUSH2 0xFE1 JUMP JUMPDEST SWAP1 POP SWAP2 SWAP1 POP JUMP JUMPDEST PUSH2 0x1251 DUP2 PUSH2 0x1237 JUMP JUMPDEST DUP3 MSTORE POP POP JUMP JUMPDEST PUSH0 PUSH1 0xA0 DUP3 ADD SWAP1 POP DUP2 DUP2 SUB PUSH0 DUP4 ADD MSTORE PUSH2 0x126F DUP2 DUP9 PUSH2 0x10F9 JUMP JUMPDEST SWAP1 POP PUSH2 0x127E PUSH1 0x20 DUP4 ADD DUP8 PUSH2 0x1099 JUMP JUMPDEST PUSH2 0x128B PUSH1 0x40 DUP4 ADD DUP7 PUSH2 0x1248 JUMP JUMPDEST PUSH2 0x1298 PUSH1 0x60 DUP4 ADD DUP6 PUSH2 0x1071 JUMP JUMPDEST PUSH2 0x12A5 PUSH1 0x80 DUP4 ADD DUP5 PUSH2 0x1099 JUMP JUMPDEST SWAP7 SWAP6 POP POP POP POP POP POP JUMP JUMPDEST PUSH0 PUSH0 REVERT JUMPDEST PUSH0 PUSH0 REVERT JUMPDEST PUSH32 0x4E487B7100000000000000000000000000000000000000000000000000000000 PUSH0 MSTORE PUSH1 0x41 PUSH1 0x4 MSTORE PUSH1 0x24 PUSH0 REVERT JUMPDEST PUSH2 0x12ED DUP3 PUSH2 0x10E9 JUMP JUMPDEST DUP2 ADD DUP2 DUP2 LT PUSH8 0xFFFFFFFFFFFFFFFF DUP3 GT OR ISZERO PUSH2 0x130C JUMPI PUSH2 0x130B PUSH2 0x12B7 JUMP JUMPDEST JUMPDEST DUP1 PUSH1 0x40 MSTORE POP POP POP JUMP JUMPDEST PUSH0 PUSH2 0x131E PUSH2 0xF72 JUMP JUMPDEST SWAP1 POP PUSH2 0x132A DUP3 DUP3 PUSH2 0x12E4 JUMP JUMPDEST SWAP2 SWAP1 POP JUMP JUMPDEST PUSH0 PUSH8 0xFFFFFFFFFFFFFFFF DUP3 GT ISZERO PUSH2 0x1349 JUMPI PUSH2 0x1348 PUSH2 0x12B7 JUMP JUMPDEST JUMPDEST PUSH2 0x1352 DUP3 PUSH2 0x10E9 JUMP JUMPDEST SWAP1 POP PUSH1 0x20 DUP2 ADD SWAP1 POP SWAP2 SWAP1 POP JUMP JUMPDEST DUP3 DUP2 DUP4 CALLDATACOPY PUSH0 DUP4 DUP4 ADD MSTORE POP POP POP JUMP JUMPDEST PUSH0 PUSH2 0x137F PUSH2 0x137A DUP5 PUSH2 0x132F JUMP JUMPDEST PUSH2 0x1315 JUMP JUMPDEST SWAP1 POP DUP3 DUP2 MSTORE PUSH1 0x20 DUP2 ADD DUP5 DUP5 DUP5 ADD GT ISZERO PUSH2 0x139B JUMPI PUSH2 0x139A PUSH2 0x12B3 JUMP JUMPDEST JUMPDEST PUSH2 0x13A6 DUP5 DUP3 DUP6 PUSH2 0x135F JUMP JUMPDEST POP SWAP4 SWAP3 POP POP POP JUMP JUMPDEST PUSH0 DUP3 PUSH1 0x1F DUP4 ADD SLT PUSH2 0x13C2 JUMPI PUSH2 0x13C1 PUSH2 0x12AF JUMP JUMPDEST JUMPDEST DUP2 CALLDATALOAD PUSH2 0x13D2 DUP5 DUP3 PUSH1 0x20 DUP7 ADD PUSH2 0x136D JUMP JUMPDEST SWAP2 POP POP SWAP3 SWAP2 POP POP JUMP JUMPDEST PUSH2 0x13E4 DUP2 PUSH2 0x1237 JUMP JUMPDEST DUP2 EQ PUSH2 0x13EE JUMPI PUSH0 PUSH0 REVERT JUMPDEST POP JUMP JUMPDEST PUSH0 DUP2 CALLDATALOAD SWAP1 POP PUSH2 0x13FF DUP2 PUSH2 0x13DB JUMP JUMPDEST SWAP3 SWAP2 POP POP JUMP JUMPDEST PUSH0 PUSH0 PUSH0 PUSH1 0x60 DUP5 DUP7 SUB SLT ISZERO PUSH2 0x141C JUMPI PUSH2 0x141B PUSH2 0xF7B JUMP JUMPDEST JUMPDEST PUSH0 DUP5 ADD CALLDATALOAD PUSH8 0xFFFFFFFFFFFFFFFF DUP2 GT ISZERO PUSH2 0x1439 JUMPI PUSH2 0x1438 PUSH2 0xF7F JUMP JUMPDEST JUMPDEST PUSH2 0x1445 DUP7 DUP3 DUP8 ADD PUSH2 0x13AE JUMP JUMPDEST SWAP4 POP POP PUSH1 0x20 PUSH2 0x1456 DUP7 DUP3 DUP8 ADD PUSH2 0xFA2 JUMP JUMPDEST SWAP3 POP POP PUSH1 0x40 PUSH2 0x1467 DUP7 DUP3 DUP8 ADD PUSH2 0x13F1 JUMP JUMPDEST SWAP2 POP POP SWAP3 POP SWAP3 POP SWAP3 JUMP JUMPDEST PUSH32 0x4F6E6C79206D616E616765722063616E20706572666F726D2074686973206163 PUSH0 DUP3 ADD MSTORE PUSH32 0x74696F6E00000000000000000000000000000000000000000000000000000000 PUSH1 0x20 DUP3 ADD MSTORE POP JUMP JUMPDEST PUSH0 PUSH2 0x14CB PUSH1 0x24 DUP4 PUSH2 0x10CB JUMP JUMPDEST SWAP2 POP PUSH2 0x14D6 DUP3 PUSH2 0x1471 JUMP JUMPDEST PUSH1 0x40 DUP3 ADD SWAP1 POP SWAP2 SWAP1 POP JUMP JUMPDEST PUSH0 PUSH1 0x20 DUP3 ADD SWAP1 POP DUP2 DUP2 SUB PUSH0 DUP4 ADD MSTORE PUSH2 0x14F8 DUP2 PUSH2 0x14BF JUMP JUMPDEST SWAP1 POP SWAP2 SWAP1 POP JUMP JUMPDEST PUSH32 0x4E487B7100000000000000000000000000000000000000000000000000000000 PUSH0 MSTORE PUSH1 0x32 PUSH1 0x4 MSTORE PUSH1 0x24 PUSH0 REVERT JUMPDEST PUSH32 0x4E487B7100000000000000000000000000000000000000000000000000000000 PUSH0 MSTORE PUSH1 0x12 PUSH1 0x4 MSTORE PUSH1 0x24 PUSH0 REVERT JUMPDEST PUSH32 0x4E487B7100000000000000000000000000000000000000000000000000000000 PUSH0 MSTORE PUSH1 0x11 PUSH1 0x4 MSTORE PUSH1 0x24 PUSH0 REVERT JUMPDEST PUSH0 PUSH2 0x1590 DUP3 PUSH2 0xF83 JUMP JUMPDEST SWAP2 POP PUSH2 0x159B DUP4 PUSH2 0xF83 JUMP JUMPDEST SWAP3 POP DUP3 PUSH2 0x15AB JUMPI PUSH2 0x15AA PUSH2 0x152C JUMP JUMPDEST JUMPDEST DUP3 DUP3 DIV SWAP1 POP SWAP3 SWAP2 POP POP JUMP JUMPDEST PUSH32 0x4E6F7420656E6F75676820617070726F76616C7320746F2066696E616C697A65 PUSH0 DUP3 ADD MSTORE POP JUMP JUMPDEST PUSH0 PUSH2 0x15EA PUSH1 0x20 DUP4 PUSH2 0x10CB JUMP JUMPDEST SWAP2 POP PUSH2 0x15F5 DUP3 PUSH2 0x15B6 JUMP JUMPDEST PUSH1 0x20 DUP3 ADD SWAP1 POP SWAP2 SWAP1 POP JUMP JUMPDEST PUSH0 PUSH1 0x20 DUP3 ADD SWAP1 POP DUP2 DUP2 SUB PUSH0 DUP4 ADD MSTORE PUSH2 0x1617 DUP2 PUSH2 0x15DE JUMP JUMPDEST SWAP1 POP SWAP2 SWAP1 POP JUMP JUMPDEST PUSH32 0x5468697320726571756573742068617320616C7265616479206265656E20636F PUSH0 DUP3 ADD MSTORE PUSH32 0x6D706C6574656400000000000000000000000000000000000000000000000000 PUSH1 0x20 DUP3 ADD MSTORE POP JUMP JUMPDEST PUSH0 PUSH2 0x1678 PUSH1 0x27 DUP4 PUSH2 0x10CB JUMP JUMPDEST SWAP2 POP PUSH2 0x1683 DUP3 PUSH2 0x161E JUMP JUMPDEST PUSH1 0x40 DUP3 ADD SWAP1 POP SWAP2 SWAP1 POP JUMP JUMPDEST PUSH0 PUSH1 0x20 DUP3 ADD SWAP1 POP DUP2 DUP2 SUB PUSH0 DUP4 ADD MSTORE PUSH2 0x16A5 DUP2 PUSH2 0x166C JUMP JUMPDEST SWAP1 POP SWAP2 SWAP1 POP JUMP JUMPDEST PUSH32 0x4E487B7100000000000000000000000000000000000000000000000000000000 PUSH0 MSTORE PUSH1 0x22 PUSH1 0x4 MSTORE PUSH1 0x24 PUSH0 REVERT JUMPDEST PUSH0 PUSH1 0x2 DUP3 DIV SWAP1 POP PUSH1 0x1 DUP3 AND DUP1 PUSH2 0x16F0 JUMPI PUSH1 0x7F DUP3 AND SWAP2 POP JUMPDEST PUSH1 0x20 DUP3 LT DUP2 SUB PUSH2 0x1703 JUMPI PUSH2 0x1702 PUSH2 0x16AC JUMP JUMPDEST JUMPDEST POP SWAP2 SWAP1 POP JUMP JUMPDEST PUSH0 PUSH2 0x1713 DUP3 PUSH2 0xF83 JUMP JUMPDEST SWAP2 POP PUSH2 0x171E DUP4 PUSH2 0xF83 JUMP JUMPDEST SWAP3 POP DUP3 DUP3 SUB SWAP1 POP DUP2 DUP2 GT ISZERO PUSH2 0x1736 JUMPI PUSH2 0x1735 PUSH2 0x1559 JUMP JUMPDEST JUMPDEST SWAP3 SWAP2 POP POP JUMP JUMPDEST PUSH0 DUP2 SWAP1 POP DUP2 PUSH0 MSTORE PUSH1 0x20 PUSH0 KECCAK256 SWAP1 POP SWAP2 SWAP1 POP JUMP JUMPDEST PUSH0 PUSH1 0x20 PUSH1 0x1F DUP4 ADD DIV SWAP1 POP SWAP2 SWAP1 POP JUMP JUMPDEST PUSH0 DUP3 DUP3 SHL SWAP1 POP SWAP3 SWAP2 POP POP JUMP JUMPDEST PUSH0 PUSH1 0x8 DUP4 MUL PUSH2 0x1798 PUSH32 0xFFFFFFFFFFFFFFFFFFFFFFFFFFFFFFFFFFFFFFFFFFFFFFFFFFFFFFFFFFFFFFFF DUP3 PUSH2 0x175D JUMP JUMPDEST PUSH2 0x17A2 DUP7 DUP4 PUSH2 0x175D JUMP JUMPDEST SWAP6 POP DUP1 NOT DUP5 AND SWAP4 POP DUP1 DUP7 AND DUP5 OR SWAP3 POP POP POP SWAP4 SWAP3 POP POP POP JUMP JUMPDEST PUSH0 DUP2 SWAP1 POP SWAP2 SWAP1 POP JUMP JUMPDEST PUSH0 PUSH2 0x17DD PUSH2 0x17D8 PUSH2 0x17D3 DUP5 PUSH2 0xF83 JUMP JUMPDEST PUSH2 0x17BA JUMP JUMPDEST PUSH2 0xF83 JUMP JUMPDEST SWAP1 POP SWAP2 SWAP1 POP JUMP JUMPDEST PUSH0 DUP2 SWAP1 POP SWAP2 SWAP1 POP JUMP JUMPDEST PUSH2 0x17F6 DUP4 PUSH2 0x17C3 JUMP JUMPDEST PUSH2 0x180A PUSH2 0x1802 DUP3 PUSH2 0x17E4 JUMP JUMPDEST DUP5 DUP5 SLOAD PUSH2 0x1769 JUMP JUMPDEST DUP3 SSTORE POP POP POP POP JUMP JUMPDEST PUSH0 PUSH0 SWAP1 POP SWAP1 JUMP JUMPDEST PUSH2 0x1821 PUSH2 0x1812 JUMP JUMPDEST PUSH2 0x182C DUP2 DUP5 DUP5 PUSH2 0x17ED JUMP JUMPDEST POP POP POP JUMP JUMPDEST JUMPDEST DUP2 DUP2 LT ISZERO PUSH2 0x184F JUMPI PUSH2 0x1844 PUSH0 DUP3 PUSH2 0x1819 JUMP JUMPDEST PUSH1 0x1 DUP2 ADD SWAP1 POP PUSH2 0x1832 JUMP JUMPDEST POP POP JUMP JUMPDEST PUSH1 0x1F DUP3 GT ISZERO PUSH2 0x1894 JUMPI PUSH2 0x1865 DUP2 PUSH2 0x173C JUMP JUMPDEST PUSH2 0x186E DUP5 PUSH2 0x174E JUMP JUMPDEST DUP2 ADD PUSH1 0x20 DUP6 LT ISZERO PUSH2 0x187D JUMPI DUP2 SWAP1 POP JUMPDEST PUSH2 0x1891 PUSH2 0x1889 DUP6 PUSH2 0x174E JUMP JUMPDEST DUP4 ADD DUP3 PUSH2 0x1831 JUMP JUMPDEST POP POP JUMPDEST POP POP POP JUMP JUMPDEST PUSH0 DUP3 DUP3 SHR SWAP1 POP SWAP3 SWAP2 POP POP JUMP JUMPDEST PUSH0 PUSH2 0x18B4 PUSH0 NOT DUP5 PUSH1 0x8 MUL PUSH2 0x1899 JUMP JUMPDEST NOT DUP1 DUP4 AND SWAP2 POP POP SWAP3 SWAP2 POP POP JUMP JUMPDEST PUSH0 PUSH2 0x18CC DUP4 DUP4 PUSH2 0x18A5 JUMP JUMPDEST SWAP2 POP DUP3 PUSH1 0x2 MUL DUP3 OR SWAP1 POP SWAP3 SWAP2 POP POP JUMP JUMPDEST PUSH2 0x18E5 DUP3 PUSH2 0x10C1 JUMP JUMPDEST PUSH8 0xFFFFFFFFFFFFFFFF DUP2 GT ISZERO PUSH2 0x18FE JUMPI PUSH2 0x18FD PUSH2 0x12B7 JUMP JUMPDEST JUMPDEST PUSH2 0x1908 DUP3 SLOAD PUSH2 0x16D9 JUMP JUMPDEST PUSH2 0x1913 DUP3 DUP3 DUP6 PUSH2 0x1853 JUMP JUMPDEST PUSH0 PUSH1 0x20 SWAP1 POP PUSH1 0x1F DUP4 GT PUSH1 0x1 DUP2 EQ PUSH2 0x1944 JUMPI PUSH0 DUP5 ISZERO PUSH2 0x1932 JUMPI DUP3 DUP8 ADD MLOAD SWAP1 POP JUMPDEST PUSH2 0x193C DUP6 DUP3 PUSH2 0x18C1 JUMP JUMPDEST DUP7 SSTORE POP PUSH2 0x19A3 JUMP JUMPDEST PUSH1 0x1F NOT DUP5 AND PUSH2 0x1952 DUP7 PUSH2 0x173C JUMP JUMPDEST PUSH0 JUMPDEST DUP3 DUP2 LT ISZERO PUSH2 0x1979 JUMPI DUP5 DUP10 ADD MLOAD DUP3 SSTORE PUSH1 0x1 DUP3 ADD SWAP2 POP PUSH1 0x20 DUP6 ADD SWAP5 POP PUSH1 0x20 DUP2 ADD SWAP1 POP PUSH2 0x1954 JUMP JUMPDEST DUP7 DUP4 LT ISZERO PUSH2 0x1996 JUMPI DUP5 DUP10 ADD MLOAD PUSH2 0x1992 PUSH1 0x1F DUP10 AND DUP3 PUSH2 0x18A5 JUMP JUMPDEST DUP4 SSTORE POP JUMPDEST PUSH1 0x1 PUSH1 0x2 DUP9 MUL ADD DUP9 SSTORE POP POP POP JUMPDEST POP POP POP POP POP POP JUMP JUMPDEST PUSH32 0x436F6E747269627574696F6E206D757374206D65657420746865206D696E696D PUSH0 DUP3 ADD MSTORE PUSH32 0x756D20616D6F756E740000000000000000000000000000000000000000000000 PUSH1 0x20 DUP3 ADD MSTORE POP JUMP JUMPDEST PUSH0 PUSH2 0x1A05 PUSH1 0x29 DUP4 PUSH2 0x10CB JUMP JUMPDEST SWAP2 POP PUSH2 0x1A10 DUP3 PUSH2 0x19AB JUMP JUMPDEST PUSH1 0x40 DUP3 ADD SWAP1 POP SWAP2 SWAP1 POP JUMP JUMPDEST PUSH0 PUSH1 0x20 DUP3 ADD SWAP1 POP DUP2 DUP2 SUB PUSH0 DUP4 ADD MSTORE PUSH2 0x1A32 DUP2 PUSH2 0x19F9 JUMP JUMPDEST SWAP1 POP SWAP2 SWAP1 POP JUMP JUMPDEST PUSH0 PUSH2 0x1A43 DUP3 PUSH2 0xF83 JUMP JUMPDEST SWAP2 POP PUSH32 0xFFFFFFFFFFFFFFFFFFFFFFFFFFFFFFFFFFFFFFFFFFFFFFFFFFFFFFFFFFFFFFFF DUP3 SUB PUSH2 0x1A75 JUMPI PUSH2 0x1A74 PUSH2 0x1559 JUMP JUMPDEST JUMPDEST PUSH1 0x1 DUP3 ADD SWAP1 POP SWAP2 SWAP1 POP JUMP JUMPDEST PUSH32 0x596F75206D75737420636F6E7472696275746520666972737420746F20766F74 PUSH0 DUP3 ADD MSTORE PUSH32 0x6500000000000000000000000000000000000000000000000000000000000000 PUSH1 0x20 DUP3 ADD MSTORE POP JUMP JUMPDEST PUSH0 PUSH2 0x1ADA PUSH1 0x21 DUP4 PUSH2 0x10CB JUMP JUMPDEST SWAP2 POP PUSH2 0x1AE5 DUP3 PUSH2 0x1A80 JUMP JUMPDEST PUSH1 0x40 DUP3 ADD SWAP1 POP SWAP2 SWAP1 POP JUMP JUMPDEST PUSH0 PUSH1 0x20 DUP3 ADD SWAP1 POP DUP2 DUP2 SUB PUSH0 DUP4 ADD MSTORE PUSH2 0x1B07 DUP2 PUSH2 0x1ACE JUMP JUMPDEST SWAP1 POP SWAP2 SWAP1 POP JUMP JUMPDEST PUSH32 0x4D616E616765722063616E6E6F7420617070726F7665207468656972206F776E PUSH0 DUP3 ADD MSTORE PUSH32 0x2072657175657374730000000000000000000000000000000000000000000000 PUSH1 0x20 DUP3 ADD MSTORE POP JUMP JUMPDEST PUSH0 PUSH2 0x1B68 PUSH1 0x29 DUP4 PUSH2 0x10CB JUMP JUMPDEST SWAP2 POP PUSH2 0x1B73 DUP3 PUSH2 0x1B0E JUMP JUMPDEST PUSH1 0x40 DUP3 ADD SWAP1 POP SWAP2 SWAP1 POP JUMP JUMPDEST PUSH0 PUSH1 0x20 DUP3 ADD SWAP1 POP DUP2 DUP2 SUB PUSH0 DUP4 ADD MSTORE PUSH2 0x1B95 DUP2 PUSH2 0x1B5C JUMP JUMPDEST SWAP1 POP SWAP2 SWAP1 POP JUMP JUMPDEST PUSH32 0x596F75206861766520616C726561647920766F746564206F6E20746869732072 PUSH0 DUP3 ADD MSTORE PUSH32 0x6571756573740000000000000000000000000000000000000000000000000000 PUSH1 0x20 DUP3 ADD MSTORE POP JUMP JUMPDEST PUSH0 PUSH2 0x1BF6 PUSH1 0x26 DUP4 PUSH2 0x10CB JUMP JUMPDEST SWAP2 POP PUSH2 0x1C01 DUP3 PUSH2 0x1B9C JUMP JUMPDEST PUSH1 0x40 DUP3 ADD SWAP1 POP SWAP2 SWAP1 POP JUMP JUMPDEST PUSH0 PUSH1 0x20 DUP3 ADD SWAP1 POP DUP2 DUP2 SUB PUSH0 DUP4 ADD MSTORE PUSH2 0x1C23 DUP2 PUSH2 0x1BEA JUMP JUMPDEST SWAP1 POP SWAP2 SWAP1 POP JUMP INVALID LOG2 PUSH5 0x6970667358 0x22 SLT KECCAK256 SMOD BLOCKHASH PUSH30 0x8E8F70B6DF9FBA722EC8BE20436D966BAEE05ADFA2701F3901035A0BA564 PUSH20 0x6F6C634300081E00330000000000000000000000 "},"gasEstimates":{"creation":{"codeDepositCost":"1452800","executionCost":"infinite","totalCost":"infinite"},"external":{"approveRequest(uint256)":"infinite","approvers(address)":"2879","approversCount()":"2470","category()":"infinite","contribute()":"75369","createRequest(string,uint256,address)":"infinite","createdAt()":"2469","description()":"infinite","finalizeRequest(uint256)":"infinite","getRequestsCount()":"2508","getSummary()":"infinite","goal()":"2515","lastContributedAt()":"2447","manager()":"2553","minimumContribution()":"2514","requests(uint256)":"infinite","title()":"infinite"}},"methodIdentifiers":{"approveRequest(uint256)":"d7d1bbdb","approvers(address)":"0a144391","approversCount()":"82fde093","category()":"ef430aa6","contribute()":"d7bb99ba","createRequest(string,uint256,address)":"8a9cfd55","createdAt()":"cf09e0d0","description()":"7284e416","finalizeRequest(uint256)":"03441006","getRequestsCount()":"3410452a","getSummary()":"4051ddac","goal()":"40193883","lastContributedAt()":"b4f73584","manager()":"481c6a75","minimumContribution()":"937e09b1","requests(uint256)":"81d12c58","title()":"4a79d50c"}},"storageLayout":{"storage":[{"astId":68,"contract":"Campaign.sol:Campaign","label":"title","offset":0,"slot":"0","type":"t_string_storage"},{"astId":70,"contract":"Campaign.sol:Campaign","label":"description","offset":0,"slot":"1","type":"t_string_storage"},{"astId":72,"contract":"Campaign.sol:Campaign","label":"category","offset":0,"slot":"2","type":"t_string_storage"},{"astId":74,"contract":"Campaign.sol:Campaign","label":"goal","offset":0,"slot":"3","type":"t_uint256"},{"astId":76,"contract":"Campaign.sol:Campaign","label":"createdAt","offset":0,"slot":"4","type":"t_uint256"},{"astId":78,"contract":"Campaign.sol:Campaign","label":"lastContributedAt","offset":0,"slot":"5","type":"t_uint256"},{"astId":82,"contract":"Campaign.sol:Campaign","label":"requests","offset":0,"slot":"6","type":"t_array(t_struct(Request)66_storage)dyn_storage"},{"astId":84,"contract":"Campaign.sol:Campaign","label":"manager","offset":0,"slot":"7","type":"t_address"},{"astId":86,"contract":"Campaign.sol:Campaign","label":"minimumContribution","offset":0,"slot":"8","type":"t_uint256"},{"astId":90,"contract":"Campaign.sol:Campaign","label":"approvers","offset":0,"slot":"9","type":"t_mapping(t_address,t_bool)"},{"astId":93,"contract":"Campaign.sol:Campaign","label":"approversCount","offset":0,"slot":"10","type":"t_uint256"}],"types":{"t_address":{"encoding":"inplace","label":"address","numberOfBytes":"20"},"t_address_payable":{"encoding":"inplace","label":"address payable","numberOfBytes":"20"},"t_array(t_struct(Request)66_storage)dyn_storage":{"base":"t_struct(Request)66_storage","encoding":"dynamic_array","label":"struct Campaign.Request[]","numberOfBytes":"32"},"t_bool":{"encoding":"inplace","label":"bool","numberOfBytes":"1"},"t_mapping(t_address,t_bool)":{"encoding":"mapping","key":"t_address","label":"mapping(address => bool)","numberOfBytes":"32","value":"t_bool"},"t_string_storage":{"encoding":"bytes","label":"string","numberOfBytes":"32"},"t_struct(Request)66_storage":{"encoding":"inplace","label":"struct Campaign.Request","members":[{"astId":53,"contract":"Campaign.sol:Campaign","label":"description","offset":0,"slot":"0","type":"t_string_storage"},{"astId":55,"contract":"Campaign.sol:Campaign","label":"value","offset":0,"slot":"1","type":"t_uint256"},{"astId":57,"contract":"Campaign.sol:Campaign","label":"recipient","offset":0,"slot":"2","type":"t_address_payable"},{"astId":59,"contract":"Campaign.sol:Campaign","label":"complete","offset":20,"slot":"2","type":"t_bool"},{"astId":61,"contract":"Campaign.sol:Campaign","label":"approvalCount","offset":0,"slot":"3","type":"t_uint256"},{"astId":65,"contract":"Campaign.sol:Campaign","label":"approvals","offset":0,"slot":"4","type":"t_mapping(t_address,t_bool)"}],"numberOfBytes":"160"},"t_uint256":{"encoding":"inplace","label":"uint256","numberOfBytes":"32"}}},"transientStorageLayout":{"storage":[],"types":null},"userdoc":{"kind":"user","methods":{},"version":1}}