{"abi":[{"inputs":[{"internalType":"uint256","name":"minimum","type":"uint256"},{"internalType":"string","name":"title","type":"string"},{"internalType":"string","name":"description","type":"string"},{"internalType":"string","name":"category","type":"string"},{"internalType":"uint256","name":"goal","type":"uint256"},{"internalType":"string","name":"tagline","type":"string"},{"internalType":"string","name":"creatorName","type":"string"},{"internalType":"string","name":"creatorBio","type":"string"},{"internalType":"string","name":"coverImage","type":"string"},{"internalType":"uint256","name":"deadline","type":"uint256"}],"name":"createCampaign","outputs":[],"stateMutability":"nonpayable","type":"function"},{"inputs":[{"internalType":"uint256","name":"","type":"uint256"}],"name":"deployedCampaigns","outputs":[{"internalType":"address","name":"","type":"address"}],"stateMutability":"view","type":"function"},{"inputs":[],"name":"getDeployedCampaigns","outputs":[{"internalType":"address[]","name":"","type":"address[]"}],"stateMutability":"view","type":"function"}],"devdoc":{"kind":"dev","methods":{},"version":1},"evm":{"assembly":"    /* \"Campaign.sol\":63:925  contract CampaignFactory {... */\n  0x80\n  dup1\n  0x40\n  mstore\n  jumpi(tag_1, callvalue)\n  dataSize(sub_0)\n  swap1\n  dup2\n  dataOffset(sub_0)\n  dup3\n  codecopy\n  return\ntag_1:\n  0x00\n  dup1\n  revert\nstop\n\nsub_0: assembly {\n        /* \"Campaign.sol\":63:925  contract CampaignFactory {... */\n      mstore(0x40, 0x80)\n      jumpi(tag_5, iszero(lt(calldatasize, 0x04)))\n      0x00\n      dup1\n      revert\n    tag_5:\n      shr(0xe0, calldataload(0x00))\n      dup1\n      0x1cdf942c\n      eq\n      tag_7\n      jumpi\n      dup1\n      0x339d50a5\n      eq\n      tag_9\n      jumpi\n      0x4acb9d4f\n      eq\n      tag_11\n      jumpi\n      0x00\n      dup1\n      revert\n    tag_11:\n      jumpi(tag_15, callvalue)\n      jumpi(tag_15, slt(add(not(0x03), calldatasize), 0x00))\n      mload(0x40)\n      dup1\n      0x20\n      sload(0x00)\n      swap3\n      dup4\n      dup2\n      mstore\n      add\n      dup1\n      swap3\n      0x00\n      dup1\n      mstore\n      0x290decd9548b62a8d60345a988386fc84ba6bc95484008f6362f93160ef3e563\n      swap1\n      0x00\n    tag_17:\n      dup2\n      dup2\n      lt\n      tag_18\n      jumpi\n      pop\n      pop\n      pop\n      dup2\n      tag_20\n      swap2\n      sub\n      dup3\n      tag_1\n      jump\t// in\n    tag_20:\n      mload(0x40)\n      swap2\n      dup3\n      swap2\n      0x20\n      dup4\n      add\n      swap1\n      0x20\n      dup5\n      mstore\n      mload\n      dup1\n      swap2\n      mstore\n      0x40\n      dup4\n      add\n      swap2\n      swap1\n      0x00\n    tag_21:\n      dup2\n      dup2\n      lt\n      tag_22\n      jumpi\n      pop\n      pop\n      pop\n      sub\n      swap1\n      return\n    tag_22:\n      dup3\n      mload\n      sub(shl(0xa0, 0x01), 0x01)\n      and\n      dup5\n      mstore\n      dup6\n      swap5\n      pop\n      0x20\n      swap4\n      dup5\n      add\n      swap4\n      swap1\n      swap3\n      add\n      swap2\n      0x01\n      add\n      jump(tag_21)\n    tag_18:\n      dup3\n      sload\n      sub(shl(0xa0, 0x01), 0x01)\n      and\n      dup5\n      mstore\n      0x20\n      swap1\n      swap4\n      add\n      swap3\n      0x01\n      swap3\n      dup4\n      add\n      swap3\n      add\n      jump(tag_17)\n    tag_15:\n      0x00\n      dup1\n      revert\n    tag_9:\n      jumpi(tag_15, callvalue)\n      jumpi(tag_15, slt(add(not(0x03), calldatasize), 0x20))\n      calldataload(0x04)\n      sload(0x00)\n        /* \"Campaign.sol\":95:129  address[] public deployedCampaigns */\n      dup2\n      lt\n      iszero\n      tag_15\n      jumpi\n      tag_30\n        /* \"Campaign.sol\":63:925  contract CampaignFactory {... */\n      0x20\n        /* \"Campaign.sol\":95:129  address[] public deployedCampaigns */\n      swap2\n      tag_3\n      jump\t// in\n    tag_30:\n        /* \"Campaign.sol\":63:925  contract CampaignFactory {... */\n      swap1\n      sload\n      mload(0x40)\n      0x03\n      swap3\n      swap1\n      swap3\n      shl\n      shr\n      sub(shl(0xa0, 0x01), 0x01)\n      and\n      dup2\n      mstore\n      return\n    tag_7:\n      jumpi(tag_15, callvalue)\n      jumpi(tag_15, slt(add(not(0x03), calldatasize), 0x0140))\n      calldataload(0x24)\n      0xffffffffffffffff\n      dup2\n      gt\n      tag_15\n      jumpi\n      tag_37\n      swap1\n      calldatasize\n      swap1\n      0x04\n      add\n      tag_2\n      jump\t// in\n    tag_37:\n      calldataload(0x44)\n      0xffffffffffffffff\n      dup2\n      gt\n      tag_15\n      jumpi\n      tag_40\n      swap1\n      calldatasize\n      swap1\n      0x04\n      add\n      tag_2\n      jump\t// in\n    tag_40:\n      calldataload(0x64)\n      0xffffffffffffffff\n      dup2\n      gt\n      tag_15\n      jumpi\n      tag_43\n      swap1\n      calldatasize\n      swap1\n      0x04\n      add\n      tag_2\n      jump\t// in\n    tag_43:\n      swap1\n      calldataload(0xa4)\n      0xffffffffffffffff\n      dup2\n      gt\n      tag_15\n      jumpi\n      tag_46\n      swap1\n      calldatasize\n      swap1\n      0x04\n      add\n      tag_2\n      jump\t// in\n    tag_46:\n      swap2\n      calldataload(0xc4)\n      0xffffffffffffffff\n      dup2\n      gt\n      tag_15\n      jumpi\n      tag_49\n      swap1\n      calldatasize\n      swap1\n      0x04\n      add\n      tag_2\n      jump\t// in\n    tag_49:\n      swap1\n      calldataload(0xe4)\n      0xffffffffffffffff\n      dup2\n      gt\n      tag_15\n      jumpi\n      tag_52\n      swap1\n      calldatasize\n      swap1\n      0x04\n      add\n      tag_2\n      jump\t// in\n    tag_52:\n      swap1\n      calldataload(0x0104)\n      0xffffffffffffffff\n      dup2\n      gt\n      tag_15\n      jumpi\n      tag_55\n      swap1\n      calldatasize\n      swap1\n      0x04\n      add\n      tag_2\n      jump\t// in\n    tag_55:\n      swap2\n      mload(0x40)\n        /* \"Campaign.sol\":544:735  new Campaign(... */\n      swap7\n      dataSize(sub_0)\n      swap5\n      dup6\n      dup10\n      add\n      swap7\n      dup10\n      dup9\n      lt\n        /* \"Campaign.sol\":63:925  contract CampaignFactory {... */\n      0xffffffffffffffff\n        /* \"Campaign.sol\":544:735  new Campaign(... */\n      dup10\n      gt\n      or\n      tag_67\n      jumpi\n      dup10\n      swap9\n        /* \"Campaign.sol\":63:925  contract CampaignFactory {... */\n      tag_58\n      tag_59\n        /* \"Campaign.sol\":544:735  new Campaign(... */\n      swap7\n        /* \"Campaign.sol\":63:925  contract CampaignFactory {... */\n      tag_60\n      tag_61\n        /* \"Campaign.sol\":544:735  new Campaign(... */\n      swap5\n        /* \"Campaign.sol\":63:925  contract CampaignFactory {... */\n      tag_62\n      tag_63\n        /* \"Campaign.sol\":544:735  new Campaign(... */\n      swap9\n      dup16\n      dup16\n        /* \"Campaign.sol\":63:925  contract CampaignFactory {... */\n      tag_64\n        /* \"Campaign.sol\":544:735  new Campaign(... */\n      swap16\n        /* \"Campaign.sol\":63:925  contract CampaignFactory {... */\n      0x0160\n        /* \"Campaign.sol\":544:735  new Campaign(... */\n      swap3\n      dataOffset(sub_0)\n      swap1\n      codecopy\n        /* \"Campaign.sol\":63:925  contract CampaignFactory {... */\n      calldataload(0x04)\n      dup2\n      mstore\n        /* \"Campaign.sol\":584:594  msg.sender */\n      caller\n        /* \"Campaign.sol\":63:925  contract CampaignFactory {... */\n      0x20\n      dup3\n      add\n      mstore\n      dup2\n      0x40\n      dup3\n      add\n      mstore\n      add\n      swap1\n      tag_4\n      jump\t// in\n    tag_62:\n      dup14\n      dup2\n      sub\n      0x60\n      dup16\n      add\n      mstore\n      swap1\n      tag_4\n      jump\t// in\n    tag_60:\n      swap1\n      dup12\n      dup3\n      sub\n      0x80\n      dup14\n      add\n      mstore\n      tag_4\n      jump\t// in\n    tag_58:\n      swap1\n      calldataload(0x84)\n      0xa0\n      dup12\n      add\n      mstore\n      dup10\n      dup3\n      sub\n      0xc0\n      dup12\n      add\n      mstore\n      tag_4\n      jump\t// in\n    tag_61:\n      swap1\n      dup8\n      dup3\n      sub\n      0xe0\n      dup10\n      add\n      mstore\n      tag_4\n      jump\t// in\n    tag_63:\n      swap1\n      dup6\n      dup3\n      sub\n      0x0100\n      dup8\n      add\n      mstore\n      tag_4\n      jump\t// in\n    tag_59:\n      swap1\n      dup4\n      dup3\n      sub\n      0x0120\n      dup6\n      add\n      mstore\n      tag_4\n      jump\t// in\n    tag_64:\n      swap1\n      0x0140\n      calldataload(0x0124)\n      swap2\n      add\n      mstore\n        /* \"Campaign.sol\":544:735  new Campaign(... */\n      sub\n      swap1\n        /* \"Campaign.sol\":63:925  contract CampaignFactory {... */\n      0x00\n        /* \"Campaign.sol\":544:735  new Campaign(... */\n      create\n      dup1\n      iszero\n      tag_65\n      jumpi\n        /* \"Campaign.sol\":63:925  contract CampaignFactory {... */\n      sload(0x00)\n      0x010000000000000000\n      dup2\n      lt\n      iszero\n      tag_67\n      jumpi\n      dup1\n      0x01\n      tag_69\n      swap3\n      add\n      0x00\n      sstore\n      tag_3\n      jump\t// in\n    tag_69:\n      dup2\n      sload\n      sub(shl(0xa0, 0x01), 0x01)\n      swap4\n      dup5\n      and\n      0x03\n      swap3\n      swap1\n      swap3\n      shl\n      swap2\n      dup3\n      shl\n      swap4\n      swap1\n      swap2\n      shl\n      not\n      and\n      swap2\n      swap1\n      swap2\n      or\n      swap1\n      sstore\n      stop\n    tag_67:\n      mstore(0x00, shl(0xe0, 0x4e487b71))\n      mstore(0x04, 0x41)\n      revert(0x00, 0x24)\n        /* \"Campaign.sol\":544:735  new Campaign(... */\n    tag_65:\n        /* \"Campaign.sol\":63:925  contract CampaignFactory {... */\n      mload(0x40)\n      returndatasize\n      0x00\n      dup3\n      returndatacopy\n      returndatasize\n      swap1\n      revert\n    tag_1:\n      swap1\n      0x1f\n      dup1\n      not\n      swap2\n      add\n      and\n      dup2\n      add\n      swap1\n      dup2\n      lt\n      0xffffffffffffffff\n      dup3\n      gt\n      or\n      tag_67\n      jumpi\n      0x40\n      mstore\n      jump\t// out\n    tag_2:\n      dup2\n      0x1f\n      dup3\n      add\n      slt\n      iszero\n      tag_15\n      jumpi\n      dup1\n      calldataload\n      swap1\n      0xffffffffffffffff\n      dup3\n      gt\n      tag_67\n      jumpi\n      mload(0x40)\n      swap3\n      tag_76\n      0x1f\n      dup5\n      add\n      not(0x1f)\n      and\n      0x20\n      add\n      dup6\n      tag_1\n      jump\t// in\n    tag_76:\n      dup3\n      dup5\n      mstore\n      0x20\n      dup4\n      dup4\n      add\n      add\n      gt\n      tag_15\n      jumpi\n      dup2\n      0x00\n      swap3\n      0x20\n      dup1\n      swap4\n      add\n      dup4\n      dup7\n      add\n      calldatacopy\n      dup4\n      add\n      add\n      mstore\n      swap1\n      jump\t// out\n    tag_3:\n      sload(0x00)\n      dup2\n      lt\n      iszero\n      tag_79\n      jumpi\n      0x00\n      dup1\n      mstore\n      keccak256(0x00, 0x20)\n      add\n      swap1\n      0x00\n      swap1\n      jump\t// out\n    tag_79:\n      mstore(0x00, shl(0xe0, 0x4e487b71))\n      mstore(0x04, 0x32)\n      revert(0x00, 0x24)\n    tag_4:\n      dup1\n      mload\n      dup1\n      dup4\n      mstore\n      0x20\n      swap3\n      swap2\n      dup2\n      swap1\n      dup5\n      add\n      dup5\n      dup5\n      add\n      mcopy\n      0x00\n      dup3\n      dup3\n      add\n      dup5\n      add\n      mstore\n      0x1f\n      add\n      not(0x1f)\n      and\n      add\n      add\n      swap1\n      jump\t// out\n    stop\n\n    sub_0: assembly {\n            /* \"Campaign.sol\":929:8979  contract Campaign {... */\n          mstore(0x40, 0x80)\n          jumpi(tag_28, callvalue)\n          bytecodeSize\n          dup1\n          codesize\n          sub\n          dup1\n          tag_5\n          dup2\n          tag_1\n          jump\t// in\n        tag_5:\n          swap3\n          dup4\n          codecopy\n          dup2\n          add\n          0x0160\n          dup3\n          dup3\n          sub\n          slt\n          tag_28\n          jumpi\n          dup2\n          mload\n          0x20\n          dup4\n          add\n          mload\n          swap1\n          swap3\n          swap1\n          sub(shl(0xa0, 0x01), 0x01)\n          dup2\n          and\n          swap1\n          dup2\n          swap1\n          sub\n          tag_28\n          jumpi\n          0x40\n          dup3\n          add\n          mload\n          sub(shl(0x40, 0x01), 0x01)\n          dup2\n          gt\n          tag_28\n          jumpi\n          dup4\n          tag_12\n          swap2\n          dup5\n          add\n          tag_2\n          jump\t// in\n        tag_12:\n          0x60\n          dup4\n          add\n          mload\n          sub(shl(0x40, 0x01), 0x01)\n          dup2\n          gt\n          tag_28\n          jumpi\n          dup5\n          tag_15\n          swap2\n          dup6\n          add\n          tag_2\n          jump\t// in\n        tag_15:\n          0x80\n          dup5\n          add\n          mload\n          sub(shl(0x40, 0x01), 0x01)\n          dup2\n          gt\n          tag_28\n          jumpi\n          dup6\n          tag_18\n          swap2\n          dup7\n          add\n          tag_2\n          jump\t// in\n        tag_18:\n          0xa0\n          dup6\n          add\n          mload\n          0xc0\n          dup7\n          add\n          mload\n          swap1\n          swap3\n          swap1\n          sub(shl(0x40, 0x01), 0x01)\n          dup2\n          gt\n          tag_28\n          jumpi\n          dup8\n          tag_21\n          swap2\n          dup9\n          add\n          tag_2\n          jump\t// in\n        tag_21:\n          0xe0\n          dup8\n          add\n          mload\n          swap1\n          swap5\n          swap1\n          sub(shl(0x40, 0x01), 0x01)\n          dup2\n          gt\n          tag_28\n          jumpi\n          dup9\n          tag_24\n          swap2\n          dup10\n          add\n          tag_2\n          jump\t// in\n        tag_24:\n          0x0100\n          dup9\n          add\n          mload\n          swap1\n          swap10\n          swap1\n          sub(shl(0x40, 0x01), 0x01)\n          dup2\n          gt\n          tag_28\n          jumpi\n          dup10\n          tag_27\n          swap2\n          dup11\n          add\n          tag_2\n          jump\t// in\n        tag_27:\n          0x0120\n          dup10\n          add\n          mload\n          swap1\n          swap10\n          swap1\n          sub(shl(0x40, 0x01), 0x01)\n          dup2\n          gt\n          tag_28\n          jumpi\n          0x0140\n          swap2\n          tag_30\n          swap2\n          dup12\n          add\n          tag_2\n          jump\t// in\n        tag_30:\n          swap9\n          add\n          mload\n            /* \"Campaign.sol\":3656:3686  manager              = creator */\n          0x0a\n            /* \"Campaign.sol\":929:8979  contract Campaign {... */\n          dup1\n          sload\n          not(sub(shl(0xa0, 0x01), 0x01))\n          and\n          swap1\n          swap9\n          or\n          swap1\n          swap8\n          sstore\n            /* \"Campaign.sol\":3697:3727  minimumContribution  = minimum */\n          0x0b\n            /* \"Campaign.sol\":929:8979  contract Campaign {... */\n          sstore\n          dup1\n          mload\n          swap1\n          sub(shl(0x40, 0x01), 0x01)\n          dup3\n          gt\n          tag_109\n          jumpi\n          sload(0x00)\n          swap1\n          0x01\n          dup3\n          dup2\n          shr\n          swap3\n          and\n          dup1\n          iszero\n          tag_33\n          jumpi\n        tag_34:\n          0x20\n          dup4\n          lt\n          eq\n          tag_113\n          jumpi\n          dup2\n          0x1f\n          dup5\n          swap4\n          gt\n          tag_37\n          jumpi\n        tag_38:\n          pop\n          0x20\n          swap1\n          0x1f\n          dup4\n          gt\n          0x01\n          eq\n          tag_39\n          jumpi\n          0x00\n          swap3\n          tag_41\n          jumpi\n        tag_42:\n          pop\n          pop\n          dup2\n          0x01\n          shl\n          swap2\n          not(0x00)\n          swap1\n          0x03\n          shl\n          shr\n          not\n          and\n          or\n          0x00\n          sstore\n        tag_43:\n          dup1\n          mload\n          swap1\n          sub(shl(0x40, 0x01), 0x01)\n          dup3\n          gt\n          tag_109\n          jumpi\n          sload(0x01)\n          swap1\n          0x01\n          dup3\n          dup2\n          shr\n          swap3\n          and\n          dup1\n          iszero\n          tag_46\n          jumpi\n        tag_47:\n          0x20\n          dup4\n          lt\n          eq\n          tag_113\n          jumpi\n          dup2\n          0x1f\n          dup5\n          swap4\n          gt\n          tag_50\n          jumpi\n        tag_51:\n          pop\n          0x20\n          swap1\n          0x1f\n          dup4\n          gt\n          0x01\n          eq\n          tag_52\n          jumpi\n          0x00\n          swap3\n          tag_54\n          jumpi\n        tag_55:\n          pop\n          pop\n          dup2\n          0x01\n          shl\n          swap2\n          not(0x00)\n          swap1\n          0x03\n          shl\n          shr\n          not\n          and\n          or\n          0x01\n          sstore\n        tag_56:\n          dup1\n          mload\n          swap1\n          sub(shl(0x40, 0x01), 0x01)\n          dup3\n          gt\n          tag_109\n          jumpi\n            /* \"Campaign.sol\":3824:3856  category             = _category */\n          0x02\n            /* \"Campaign.sol\":929:8979  contract Campaign {... */\n          sload\n          swap1\n          0x01\n          dup3\n          dup2\n          shr\n          swap3\n          and\n          dup1\n          iszero\n          tag_59\n          jumpi\n        tag_60:\n          0x20\n          dup4\n          lt\n          eq\n          tag_113\n          jumpi\n          dup2\n          0x1f\n          dup5\n          swap4\n          gt\n          tag_63\n          jumpi\n        tag_64:\n          pop\n          0x20\n          swap1\n          0x1f\n          dup4\n          gt\n          0x01\n          eq\n          tag_65\n          jumpi\n          0x00\n          swap3\n          tag_67\n          jumpi\n        tag_68:\n          pop\n          pop\n          dup2\n          0x01\n          shl\n          swap2\n          not(0x00)\n          swap1\n          0x03\n          shl\n          shr\n          not\n          and\n          or\n            /* \"Campaign.sol\":3824:3856  category             = _category */\n          0x02\n            /* \"Campaign.sol\":929:8979  contract Campaign {... */\n          sstore\n        tag_69:\n            /* \"Campaign.sol\":3867:3895  goal                 = _goal */\n          0x07\n            /* \"Campaign.sol\":929:8979  contract Campaign {... */\n          sstore\n          dup1\n          mload\n          swap1\n          sub(shl(0x40, 0x01), 0x01)\n          dup3\n          gt\n          tag_109\n          jumpi\n            /* \"Campaign.sol\":3906:3937  tagline              = _tagline */\n          0x03\n            /* \"Campaign.sol\":929:8979  contract Campaign {... */\n          sload\n          swap1\n          0x01\n          dup3\n          dup2\n          shr\n          swap3\n          and\n          dup1\n          iszero\n          tag_72\n          jumpi\n        tag_73:\n          0x20\n          dup4\n          lt\n          eq\n          tag_113\n          jumpi\n          dup2\n          0x1f\n          dup5\n          swap4\n          gt\n          tag_76\n          jumpi\n        tag_77:\n          pop\n          0x20\n          swap1\n          0x1f\n          dup4\n          gt\n          0x01\n          eq\n          tag_78\n          jumpi\n          0x00\n          swap3\n          tag_80\n          jumpi\n        tag_81:\n          pop\n          pop\n          dup2\n          0x01\n          shl\n          swap2\n          not(0x00)\n          swap1\n            /* \"Campaign.sol\":3906:3937  tagline              = _tagline */\n          0x03\n            /* \"Campaign.sol\":929:8979  contract Campaign {... */\n          shl\n          shr\n          not\n          and\n          or\n            /* \"Campaign.sol\":3906:3937  tagline              = _tagline */\n          0x03\n            /* \"Campaign.sol\":929:8979  contract Campaign {... */\n          sstore\n        tag_82:\n          dup4\n          mload\n          sub(shl(0x40, 0x01), 0x01)\n          dup2\n          gt\n          tag_109\n          jumpi\n            /* \"Campaign.sol\":3948:3983  creatorName          = _creatorName */\n          0x04\n            /* \"Campaign.sol\":929:8979  contract Campaign {... */\n          sload\n          0x01\n          dup2\n          dup2\n          shr\n          swap2\n          and\n          dup1\n          iszero\n          tag_85\n          jumpi\n        tag_86:\n          0x20\n          dup3\n          lt\n          eq\n          tag_113\n          jumpi\n          0x1f\n          dup2\n          gt\n          tag_89\n          jumpi\n        tag_90:\n          pop\n          0x20\n          swap5\n          0x1f\n          dup3\n          gt\n          0x01\n          eq\n          tag_91\n          jumpi\n          swap5\n          dup2\n          swap3\n          swap4\n          swap5\n          swap6\n          0x00\n          swap3\n          tag_93\n          jumpi\n        tag_94:\n          pop\n          pop\n          dup2\n          0x01\n          shl\n          swap2\n          not(0x00)\n          swap1\n            /* \"Campaign.sol\":3906:3937  tagline              = _tagline */\n          0x03\n            /* \"Campaign.sol\":929:8979  contract Campaign {... */\n          shl\n          shr\n          not\n          and\n          or\n            /* \"Campaign.sol\":3948:3983  creatorName          = _creatorName */\n          0x04\n            /* \"Campaign.sol\":929:8979  contract Campaign {... */\n          sstore\n        tag_95:\n          dup3\n          mload\n          sub(shl(0x40, 0x01), 0x01)\n          dup2\n          gt\n          tag_109\n          jumpi\n            /* \"Campaign.sol\":3994:4028  creatorBio           = _creatorBio */\n          0x05\n            /* \"Campaign.sol\":929:8979  contract Campaign {... */\n          sload\n          0x01\n          dup2\n          dup2\n          shr\n          swap2\n          and\n          dup1\n          iszero\n          tag_98\n          jumpi\n        tag_99:\n          0x20\n          dup3\n          lt\n          eq\n          tag_113\n          jumpi\n          0x1f\n          dup2\n          gt\n          tag_102\n          jumpi\n        tag_103:\n          pop\n          0x20\n          0x1f\n          dup3\n          gt\n          0x01\n          eq\n          tag_104\n          jumpi\n          dup2\n          swap3\n          swap4\n          swap5\n          0x00\n          swap3\n          tag_106\n          jumpi\n        tag_107:\n          pop\n          pop\n          dup2\n          0x01\n          shl\n          swap2\n          not(0x00)\n          swap1\n            /* \"Campaign.sol\":3906:3937  tagline              = _tagline */\n          0x03\n            /* \"Campaign.sol\":929:8979  contract Campaign {... */\n          shl\n          shr\n          not\n          and\n          or\n            /* \"Campaign.sol\":3994:4028  creatorBio           = _creatorBio */\n          0x05\n            /* \"Campaign.sol\":929:8979  contract Campaign {... */\n          sstore\n        tag_108:\n          dup2\n          mload\n          sub(shl(0x40, 0x01), 0x01)\n          dup2\n          gt\n          tag_109\n          jumpi\n            /* \"Campaign.sol\":4039:4073  coverImage           = _coverImage */\n          0x06\n            /* \"Campaign.sol\":929:8979  contract Campaign {... */\n          sload\n          0x01\n          dup2\n          dup2\n          shr\n          swap2\n          and\n          dup1\n          iszero\n          tag_111\n          jumpi\n        tag_112:\n          0x20\n          dup3\n          lt\n          eq\n          tag_113\n          jumpi\n          0x1f\n          dup2\n          gt\n          tag_115\n          jumpi\n        tag_116:\n          pop\n          0x20\n          swap3\n          0x1f\n          dup3\n          gt\n          0x01\n          eq\n          tag_117\n          jumpi\n          swap3\n          dup2\n          swap3\n          swap4\n          0x00\n          swap3\n          tag_119\n          jumpi\n        tag_120:\n          pop\n          pop\n          dup2\n          0x01\n          shl\n          swap2\n          not(0x00)\n          swap1\n            /* \"Campaign.sol\":3906:3937  tagline              = _tagline */\n          0x03\n            /* \"Campaign.sol\":929:8979  contract Campaign {... */\n          shl\n          shr\n          not\n          and\n          or\n            /* \"Campaign.sol\":4039:4073  coverImage           = _coverImage */\n          0x06\n            /* \"Campaign.sol\":929:8979  contract Campaign {... */\n          sstore\n        tag_121:\n            /* \"Campaign.sol\":4084:4116  deadline             = _deadline */\n          0x08\n            /* \"Campaign.sol\":929:8979  contract Campaign {... */\n          sstore\n            /* \"Campaign.sol\":4150:4165  block.timestamp */\n          timestamp\n            /* \"Campaign.sol\":4127:4165  createdAt            = block.timestamp */\n          0x0e\n            /* \"Campaign.sol\":929:8979  contract Campaign {... */\n          sstore\n          0x00\n            /* \"Campaign.sol\":4176:4200  lastContributedAt    = 0 */\n          0x0f\n            /* \"Campaign.sol\":929:8979  contract Campaign {... */\n          sstore\n          mload(0x40)\n          dataSize(sub_0)\n          swap1\n          dup2\n          dataOffset(sub_0)\n          dup3\n          codecopy\n          return\n        tag_119:\n          add\n          mload\n          swap1\n          pop\n          0x00\n          dup1\n          jump(tag_120)\n        tag_117:\n          not(0x1f)\n          dup3\n          and\n          swap4\n            /* \"Campaign.sol\":4039:4073  coverImage           = _coverImage */\n          0x06\n          0x00\n            /* \"Campaign.sol\":929:8979  contract Campaign {... */\n          mstore\n          dup1\n          0x00\n          keccak256\n          swap2\n          0x00\n        tag_122:\n          dup7\n          dup2\n          lt\n          tag_123\n          jumpi\n          pop\n          dup4\n          0x01\n          swap6\n          swap7\n          lt\n          tag_125\n          jumpi\n        tag_126:\n          pop\n          pop\n          pop\n          dup2\n          shl\n          add\n            /* \"Campaign.sol\":4039:4073  coverImage           = _coverImage */\n          0x06\n            /* \"Campaign.sol\":929:8979  contract Campaign {... */\n          sstore\n          jump(tag_121)\n        tag_125:\n          add\n          mload\n          not(0x00)\n          0xf8\n          dup5\n            /* \"Campaign.sol\":3906:3937  tagline              = _tagline */\n          0x03\n            /* \"Campaign.sol\":929:8979  contract Campaign {... */\n          shl\n          and\n          shr\n          not\n          and\n          swap1\n          sstore\n          0x00\n          dup1\n          dup1\n          jump(tag_126)\n        tag_123:\n          swap2\n          swap3\n          0x20\n          0x01\n          dup2\n          swap3\n          dup7\n          dup6\n          add\n          mload\n          dup2\n          sstore\n          add\n          swap5\n          add\n          swap3\n          add\n          jump(tag_122)\n        tag_115:\n          dup2\n          dup2\n          gt\n          iszero\n          tag_116\n          jumpi\n            /* \"Campaign.sol\":4039:4073  coverImage           = _coverImage */\n          0x06\n          0x00\n            /* \"Campaign.sol\":929:8979  contract Campaign {... */\n          mstore\n          0x1f\n          dup3\n          add\n            /* \"Campaign.sol\":3994:4028  creatorBio           = _creatorBio */\n          0x05\n            /* \"Campaign.sol\":929:8979  contract Campaign {... */\n          shr\n          0xf652222313e28459528d920b65115c16c04f3efc82aaedc97be59f3f377c0d3f\n          0x20\n          dup5\n          lt\n          tag_129\n          jumpi\n        tag_130:\n          dup2\n          0x1f\n          swap2\n          add\n          swap3\n          add\n            /* \"Campaign.sol\":3994:4028  creatorBio           = _creatorBio */\n          0x05\n            /* \"Campaign.sol\":929:8979  contract Campaign {... */\n          shr\n          sub\n          swap1\n          0x00\n        tag_131:\n          dup3\n          dup2\n          lt\n          tag_132\n          jumpi\n          pop\n          pop\n          jump(tag_116)\n        tag_132:\n          0x00\n          dup3\n          dup3\n          add\n          sstore\n          0x01\n          add\n          jump(tag_131)\n        tag_129:\n          0x00\n          swap2\n          pop\n          jump(tag_130)\n        tag_113:\n          mstore(0x00, shl(0xe0, 0x4e487b71))\n          0x22\n            /* \"Campaign.sol\":3948:3983  creatorName          = _creatorName */\n          0x04\n            /* \"Campaign.sol\":929:8979  contract Campaign {... */\n          mstore\n          revert(0x00, 0x24)\n        tag_111:\n          swap1\n          0x7f\n          and\n          swap1\n          jump(tag_112)\n        tag_109:\n          mstore(0x00, shl(0xe0, 0x4e487b71))\n          0x41\n            /* \"Campaign.sol\":3948:3983  creatorName          = _creatorName */\n          0x04\n            /* \"Campaign.sol\":929:8979  contract Campaign {... */\n          mstore\n          revert(0x00, 0x24)\n        tag_106:\n          add\n          mload\n          swap1\n          pop\n          0x00\n          dup1\n          jump(tag_107)\n        tag_104:\n          not(0x1f)\n          dup3\n          and\n          swap1\n            /* \"Campaign.sol\":3994:4028  creatorBio           = _creatorBio */\n          0x05\n          0x00\n            /* \"Campaign.sol\":929:8979  contract Campaign {... */\n          mstore\n          dup1\n          0x00\n          keccak256\n          swap2\n          0x00\n        tag_134:\n          dup2\n          dup2\n          lt\n          tag_135\n          jumpi\n          pop\n          swap6\n          dup4\n          0x01\n          swap6\n          swap7\n          swap8\n          lt\n          tag_137\n          jumpi\n        tag_138:\n          pop\n          pop\n          pop\n          dup2\n          shl\n          add\n            /* \"Campaign.sol\":3994:4028  creatorBio           = _creatorBio */\n          0x05\n            /* \"Campaign.sol\":929:8979  contract Campaign {... */\n          sstore\n          jump(tag_108)\n        tag_137:\n          add\n          mload\n          not(0x00)\n          0xf8\n          dup5\n            /* \"Campaign.sol\":3906:3937  tagline              = _tagline */\n          0x03\n            /* \"Campaign.sol\":929:8979  contract Campaign {... */\n          shl\n          and\n          shr\n          not\n          and\n          swap1\n          sstore\n          0x00\n          dup1\n          dup1\n          jump(tag_138)\n        tag_135:\n          swap2\n          swap3\n          0x20\n          0x01\n          dup2\n          swap3\n          dup7\n          dup12\n          add\n          mload\n          dup2\n          sstore\n          add\n          swap5\n          add\n          swap3\n          add\n          jump(tag_134)\n        tag_102:\n          dup2\n          dup2\n          gt\n          iszero\n          tag_103\n          jumpi\n            /* \"Campaign.sol\":3994:4028  creatorBio           = _creatorBio */\n          0x05\n          0x00\n            /* \"Campaign.sol\":929:8979  contract Campaign {... */\n          dup2\n          swap1\n          mstore\n          0x1f\n          dup4\n          add\n          swap1\n          shr\n          0x036b6384b5eca791c62761152d0c79bb0604c104a5fb6f4eb0703f3154bb3db0\n          0x20\n          dup5\n          lt\n          tag_141\n          jumpi\n        tag_142:\n          dup2\n          0x1f\n          swap2\n          add\n          swap3\n          add\n            /* \"Campaign.sol\":3994:4028  creatorBio           = _creatorBio */\n          0x05\n            /* \"Campaign.sol\":929:8979  contract Campaign {... */\n          shr\n          sub\n          swap1\n          0x00\n        tag_143:\n          dup3\n          dup2\n          lt\n          tag_144\n          jumpi\n          pop\n          pop\n          jump(tag_103)\n        tag_144:\n          0x00\n          dup3\n          dup3\n          add\n          sstore\n          0x01\n          add\n          jump(tag_143)\n        tag_141:\n          0x00\n          swap2\n          pop\n          jump(tag_142)\n        tag_98:\n          swap1\n          0x7f\n          and\n          swap1\n          jump(tag_99)\n        tag_93:\n          add\n          mload\n          swap1\n          pop\n          0x00\n          dup1\n          jump(tag_94)\n        tag_91:\n          not(0x1f)\n          dup3\n          and\n          swap6\n            /* \"Campaign.sol\":3948:3983  creatorName          = _creatorName */\n          0x04\n          0x00\n            /* \"Campaign.sol\":929:8979  contract Campaign {... */\n          mstore\n          dup1\n          0x00\n          keccak256\n          swap2\n          0x00\n        tag_146:\n          dup9\n          dup2\n          lt\n          tag_147\n          jumpi\n          pop\n          dup4\n          0x01\n          swap6\n          swap7\n          swap8\n          swap9\n          lt\n          tag_149\n          jumpi\n        tag_150:\n          pop\n          pop\n          pop\n          dup2\n          shl\n          add\n            /* \"Campaign.sol\":3948:3983  creatorName          = _creatorName */\n          0x04\n            /* \"Campaign.sol\":929:8979  contract Campaign {... */\n          sstore\n          jump(tag_95)\n        tag_149:\n          add\n          mload\n          not(0x00)\n          0xf8\n          dup5\n            /* \"Campaign.sol\":3906:3937  tagline              = _tagline */\n          0x03\n            /* \"Campaign.sol\":929:8979  contract Campaign {... */\n          shl\n          and\n          shr\n          not\n          and\n          swap1\n          sstore\n          0x00\n          dup1\n          dup1\n          jump(tag_150)\n        tag_147:\n          swap2\n          swap3\n          0x20\n          0x01\n          dup2\n          swap3\n          dup7\n          dup6\n          add\n          mload\n          dup2\n          sstore\n          add\n          swap5\n          add\n          swap3\n          add\n          jump(tag_146)\n        tag_89:\n          dup2\n          dup2\n          gt\n          iszero\n          tag_90\n          jumpi\n            /* \"Campaign.sol\":3948:3983  creatorName          = _creatorName */\n          0x04\n          0x00\n            /* \"Campaign.sol\":929:8979  contract Campaign {... */\n          mstore\n          0x1f\n          dup3\n          add\n          0x05\n          shr\n          0x8a35acfbc15ff81a39ae7d344fd709f28e8600b4aa8c65c6b64bfe7fe36bd19b\n          0x20\n          dup5\n          lt\n          tag_153\n          jumpi\n        tag_154:\n          dup2\n          0x1f\n          swap2\n          add\n          swap3\n          add\n          0x05\n          shr\n          sub\n          swap1\n          0x00\n        tag_155:\n          dup3\n          dup2\n          lt\n          tag_156\n          jumpi\n          pop\n          pop\n          jump(tag_90)\n        tag_156:\n          0x00\n          dup3\n          dup3\n          add\n          sstore\n          0x01\n          add\n          jump(tag_155)\n        tag_153:\n          0x00\n          swap2\n          pop\n          jump(tag_154)\n        tag_85:\n          swap1\n          0x7f\n          and\n          swap1\n          jump(tag_86)\n        tag_80:\n          add\n          mload\n          swap1\n          pop\n          0x00\n          dup1\n          jump(tag_81)\n        tag_78:\n            /* \"Campaign.sol\":3906:3937  tagline              = _tagline */\n          0x03\n          0x00\n            /* \"Campaign.sol\":929:8979  contract Campaign {... */\n          swap1\n          dup2\n          mstore\n          dup3\n          dup2\n          keccak256\n          swap4\n          pop\n          not(0x1f)\n          dup6\n          and\n          swap1\n        tag_158:\n          dup2\n          dup2\n          lt\n          tag_159\n          jumpi\n          pop\n          swap1\n          dup5\n          0x01\n          swap6\n          swap5\n          swap4\n          swap3\n          lt\n          tag_161\n          jumpi\n        tag_162:\n          pop\n          pop\n          pop\n          dup2\n          shl\n          add\n            /* \"Campaign.sol\":3906:3937  tagline              = _tagline */\n          0x03\n            /* \"Campaign.sol\":929:8979  contract Campaign {... */\n          sstore\n          jump(tag_82)\n        tag_161:\n          add\n          mload\n          not(0x00)\n          0xf8\n          dup5\n            /* \"Campaign.sol\":3906:3937  tagline              = _tagline */\n          0x03\n            /* \"Campaign.sol\":929:8979  contract Campaign {... */\n          shl\n          and\n          shr\n          not\n          and\n          swap1\n          sstore\n          0x00\n          dup1\n          dup1\n          jump(tag_162)\n        tag_159:\n          swap3\n          swap4\n          0x20\n          0x01\n          dup2\n          swap3\n          dup8\n          dup7\n          add\n          mload\n          dup2\n          sstore\n          add\n          swap6\n          add\n          swap4\n          add\n          jump(tag_158)\n        tag_76:\n          dup3\n          dup2\n          gt\n          iszero\n          tag_77\n          jumpi\n            /* \"Campaign.sol\":3906:3937  tagline              = _tagline */\n          0x03\n          0x00\n            /* \"Campaign.sol\":929:8979  contract Campaign {... */\n          mstore\n          swap1\n          swap2\n          pop\n          0x1f\n          dup4\n          add\n          0x05\n          shr\n          0xc2575a0e9e593c00f959f8c92f12db2869c3395a3b0502d05e2516446f71f85b\n          0x20\n          dup6\n          lt\n          tag_165\n          jumpi\n        tag_166:\n          dup5\n          swap4\n          swap3\n          0x1f\n          add\n          0x05\n          shr\n          dup3\n          swap1\n          sub\n          swap2\n          add\n          0x00\n        tag_167:\n          dup3\n          dup2\n          lt\n          tag_168\n          jumpi\n          pop\n          pop\n          jump(tag_77)\n        tag_168:\n          0x00\n          dup2\n          dup4\n          add\n          sstore\n          dup6\n          swap5\n          pop\n          0x01\n          add\n          jump(tag_167)\n        tag_165:\n          0x00\n          swap2\n          pop\n          jump(tag_166)\n        tag_72:\n          swap2\n          0x7f\n          and\n          swap2\n          jump(tag_73)\n        tag_67:\n          add\n          mload\n          swap1\n          pop\n          0x00\n          dup1\n          jump(tag_68)\n        tag_65:\n            /* \"Campaign.sol\":3824:3856  category             = _category */\n          0x02\n          0x00\n            /* \"Campaign.sol\":929:8979  contract Campaign {... */\n          swap1\n          dup2\n          mstore\n          dup3\n          dup2\n          keccak256\n          swap4\n          pop\n          not(0x1f)\n          dup6\n          and\n          swap1\n        tag_170:\n          dup2\n          dup2\n          lt\n          tag_171\n          jumpi\n          pop\n          swap1\n          dup5\n          0x01\n          swap6\n          swap5\n          swap4\n          swap3\n          lt\n          tag_173\n          jumpi\n        tag_174:\n          pop\n          pop\n          pop\n          dup2\n          shl\n          add\n            /* \"Campaign.sol\":3824:3856  category             = _category */\n          0x02\n            /* \"Campaign.sol\":929:8979  contract Campaign {... */\n          sstore\n          jump(tag_69)\n        tag_173:\n          add\n          mload\n          not(0x00)\n          0xf8\n          dup5\n          0x03\n          shl\n          and\n          shr\n          not\n          and\n          swap1\n          sstore\n          0x00\n          dup1\n          dup1\n          jump(tag_174)\n        tag_171:\n          swap3\n          swap4\n          0x20\n          0x01\n          dup2\n          swap3\n          dup8\n          dup7\n          add\n          mload\n          dup2\n          sstore\n          add\n          swap6\n          add\n          swap4\n          add\n          jump(tag_170)\n        tag_63:\n          dup3\n          dup2\n          gt\n          iszero\n          tag_64\n          jumpi\n            /* \"Campaign.sol\":3824:3856  category             = _category */\n          0x02\n          0x00\n            /* \"Campaign.sol\":929:8979  contract Campaign {... */\n          mstore\n          swap1\n          swap2\n          pop\n          0x1f\n          dup4\n          add\n          0x05\n          shr\n          0x405787fa12a823e0f2b7631cc41b3ba8828b3321ca811111fa75cd3aa3bb5ace\n          0x20\n          dup6\n          lt\n          tag_177\n          jumpi\n        tag_178:\n          dup5\n          swap4\n          swap3\n          0x1f\n          add\n          0x05\n          shr\n          dup3\n          swap1\n          sub\n          swap2\n          add\n          0x00\n        tag_179:\n          dup3\n          dup2\n          lt\n          tag_180\n          jumpi\n          pop\n          pop\n          jump(tag_64)\n        tag_180:\n          0x00\n          dup2\n          dup4\n          add\n          sstore\n          dup6\n          swap5\n          pop\n          0x01\n          add\n          jump(tag_179)\n        tag_177:\n          0x00\n          swap2\n          pop\n          jump(tag_178)\n        tag_59:\n          swap2\n          0x7f\n          and\n          swap2\n          jump(tag_60)\n        tag_54:\n          add\n          mload\n          swap1\n          pop\n          0x00\n          dup1\n          jump(tag_55)\n        tag_52:\n          0x01\n          0x00\n          swap1\n          dup2\n          mstore\n          dup3\n          dup2\n          keccak256\n          swap4\n          pop\n          not(0x1f)\n          dup6\n          and\n          swap1\n        tag_182:\n          dup2\n          dup2\n          lt\n          tag_183\n          jumpi\n          pop\n          swap1\n          dup5\n          0x01\n          swap6\n          swap5\n          swap4\n          swap3\n          lt\n          tag_185\n          jumpi\n        tag_186:\n          pop\n          pop\n          pop\n          dup2\n          shl\n          add\n          0x01\n          sstore\n          jump(tag_56)\n        tag_185:\n          add\n          mload\n          not(0x00)\n          0xf8\n          dup5\n          0x03\n          shl\n          and\n          shr\n          not\n          and\n          swap1\n          sstore\n          0x00\n          dup1\n          dup1\n          jump(tag_186)\n        tag_183:\n          swap3\n          swap4\n          0x20\n          0x01\n          dup2\n          swap3\n          dup8\n          dup7\n          add\n          mload\n          dup2\n          sstore\n          add\n          swap6\n          add\n          swap4\n          add\n          jump(tag_182)\n        tag_50:\n          dup3\n          dup2\n          gt\n          iszero\n          tag_51\n          jumpi\n          mstore(0x00, 0x01)\n          swap1\n          swap2\n          pop\n          0x1f\n          dup4\n          add\n          0x05\n          shr\n          0xb10e2d527612073b26eecdfd717e6a320cf44b4afac2b0732d9fcbe2b7fa0cf6\n          0x20\n          dup6\n          lt\n          tag_189\n          jumpi\n        tag_190:\n          dup5\n          swap4\n          swap3\n          0x1f\n          add\n          0x05\n          shr\n          dup3\n          swap1\n          sub\n          swap2\n          add\n          0x00\n        tag_191:\n          dup3\n          dup2\n          lt\n          tag_192\n          jumpi\n          pop\n          pop\n          jump(tag_51)\n        tag_192:\n          0x00\n          dup2\n          dup4\n          add\n          sstore\n          dup6\n          swap5\n          pop\n          0x01\n          add\n          jump(tag_191)\n        tag_189:\n          0x00\n          swap2\n          pop\n          jump(tag_190)\n        tag_46:\n          swap2\n          0x7f\n          and\n          swap2\n          jump(tag_47)\n        tag_41:\n          add\n          mload\n          swap1\n          pop\n          0x00\n          dup1\n          jump(tag_42)\n        tag_39:\n          0x00\n          dup1\n          dup1\n          mstore\n          dup3\n          dup2\n          keccak256\n          swap4\n          pop\n          not(0x1f)\n          dup6\n          and\n          swap1\n        tag_194:\n          dup2\n          dup2\n          lt\n          tag_195\n          jumpi\n          pop\n          swap1\n          dup5\n          0x01\n          swap6\n          swap5\n          swap4\n          swap3\n          lt\n          tag_197\n          jumpi\n        tag_198:\n          pop\n          pop\n          pop\n          dup2\n          shl\n          add\n          0x00\n          sstore\n          jump(tag_43)\n        tag_197:\n          add\n          mload\n          not(0x00)\n          0xf8\n          dup5\n          0x03\n          shl\n          and\n          shr\n          not\n          and\n          swap1\n          sstore\n          0x00\n          dup1\n          dup1\n          jump(tag_198)\n        tag_195:\n          swap3\n          swap4\n          0x20\n          0x01\n          dup2\n          swap3\n          dup8\n          dup7\n          add\n          mload\n          dup2\n          sstore\n          add\n          swap6\n          add\n          swap4\n          add\n          jump(tag_194)\n        tag_37:\n          dup3\n          dup2\n          gt\n          iszero\n          tag_38\n          jumpi\n          0x00\n          dup1\n          mstore\n          swap1\n          swap2\n          pop\n          0x1f\n          dup4\n          add\n          0x05\n          shr\n          0x290decd9548b62a8d60345a988386fc84ba6bc95484008f6362f93160ef3e563\n          0x20\n          dup6\n          lt\n          tag_201\n          jumpi\n        tag_202:\n          dup5\n          swap4\n          swap3\n          0x1f\n          add\n          0x05\n          shr\n          dup3\n          swap1\n          sub\n          swap2\n          add\n          0x00\n        tag_203:\n          dup3\n          dup2\n          lt\n          tag_204\n          jumpi\n          pop\n          pop\n          jump(tag_38)\n        tag_204:\n          0x00\n          dup2\n          dup4\n          add\n          sstore\n          dup6\n          swap5\n          pop\n          0x01\n          add\n          jump(tag_203)\n        tag_201:\n          0x00\n          swap2\n          pop\n          jump(tag_202)\n        tag_33:\n          swap2\n          0x7f\n          and\n          swap2\n          jump(tag_34)\n        tag_28:\n          0x00\n          dup1\n          revert\n        tag_1:\n          mload(0x40)\n          swap2\n          swap1\n          0x1f\n          add\n          not(0x1f)\n          and\n          dup3\n          add\n          sub(shl(0x40, 0x01), 0x01)\n          dup2\n          gt\n          dup4\n          dup3\n          lt\n          or\n          tag_109\n          jumpi\n          0x40\n          mstore\n          jump\t// out\n        tag_2:\n          dup2\n          0x1f\n          dup3\n          add\n          slt\n          iszero\n          tag_28\n          jumpi\n          dup1\n          mload\n          swap1\n          sub(shl(0x40, 0x01), 0x01)\n          dup3\n          gt\n          tag_109\n          jumpi\n          tag_212\n          0x1f\n          dup4\n          add\n          not(0x1f)\n          and\n          0x20\n          add\n          tag_1\n          jump\t// in\n        tag_212:\n          swap3\n          dup3\n          dup5\n          mstore\n          0x20\n          dup4\n          dup4\n          add\n          add\n          gt\n          tag_28\n          jumpi\n          dup2\n          0x00\n          swap3\n          0x20\n          dup1\n          swap4\n          add\n          dup4\n          dup7\n          add\n          mcopy\n          dup4\n          add\n          add\n          mstore\n          swap1\n          jump\t// out\n        stop\n\n        sub_0: assembly {\n                /* \"Campaign.sol\":929:8979  contract Campaign {... */\n              mstore(0x40, 0xa0)\n              jumpi(tag_15, iszero(lt(calldatasize, 0x04)))\n              0x00\n              dup1\n              revert\n            tag_15:\n              shr(0xe0, calldataload(0x00))\n              dup1\n              0x03441006\n              eq\n              tag_17\n              jumpi\n              dup1\n              0x0a144391\n              eq\n              tag_19\n              jumpi\n              dup1\n              0x1f6f90bd\n              eq\n              tag_21\n              jumpi\n              dup1\n              0x29dcb0cf\n              eq\n              tag_23\n              jumpi\n              dup1\n              0x3410452a\n              eq\n              tag_25\n              jumpi\n              dup1\n              0x3433c7a2\n              eq\n              tag_27\n              jumpi\n              dup1\n              0x40193883\n              eq\n              tag_29\n              jumpi\n              dup1\n              0x4051ddac\n              eq\n              tag_31\n              jumpi\n              dup1\n              0x481c6a75\n              eq\n              tag_33\n              jumpi\n              dup1\n              0x4a79d50c\n              eq\n              tag_35\n              jumpi\n              dup1\n              0x63367f4d\n              eq\n              tag_37\n              jumpi\n              dup1\n              0x7284e416\n              eq\n              tag_39\n              jumpi\n              dup1\n              0x81d12c58\n              eq\n              tag_41\n              jumpi\n              dup1\n              0x82fde093\n              eq\n              tag_43\n              jumpi\n              dup1\n              0x937e09b1\n              eq\n              tag_45\n              jumpi\n              dup1\n              0xb4f73584\n              eq\n              tag_47\n              jumpi\n              dup1\n              0xc58343ef\n              eq\n              tag_49\n              jumpi\n              dup1\n              0xcf09e0d0\n              eq\n              tag_51\n              jumpi\n              dup1\n              0xd7bb99ba\n              eq\n              tag_53\n              jumpi\n              dup1\n              0xd7d1bbdb\n              eq\n              tag_55\n              jumpi\n              dup1\n              0xdd5f4dc4\n              eq\n              tag_57\n              jumpi\n              dup1\n              0xe38240bd\n              eq\n              tag_59\n              jumpi\n              0xef430aa6\n              eq\n              tag_61\n              jumpi\n              0x00\n              dup1\n              revert\n            tag_61:\n              jumpi(tag_65, callvalue)\n              jumpi(tag_65, slt(add(not(0x03), calldatasize), 0x00))\n              tag_67\n              tag_68\n              tag_5\n              jump\t// in\n            tag_68:\n              mload(0x40)\n              swap2\n              dup3\n              swap2\n              0x20\n              dup4\n              mstore\n              0x20\n              dup4\n              add\n              swap1\n              tag_10\n              jump\t// in\n            tag_67:\n              sub\n              swap1\n              return\n            tag_65:\n              0x00\n              dup1\n              revert\n            tag_59:\n              jumpi(tag_65, callvalue)\n              jumpi(tag_65, slt(add(not(0x03), calldatasize), 0x00))\n              tag_67\n              tag_68\n              tag_8\n              jump\t// in\n            tag_57:\n              jumpi(tag_65, callvalue)\n              jumpi(tag_65, slt(add(not(0x03), calldatasize), 0x00))\n              tag_67\n              tag_68\n              tag_7\n              jump\t// in\n            tag_55:\n              jumpi(tag_65, callvalue)\n              jumpi(tag_65, slt(add(not(0x03), calldatasize), 0x20))\n                /* \"Campaign.sol\":5857:5872  requests[index] */\n              tag_85\n                /* \"Campaign.sol\":929:8979  contract Campaign {... */\n              calldataload(0x04)\n                /* \"Campaign.sol\":5857:5872  requests[index] */\n              tag_12\n              jump\t// in\n            tag_85:\n                /* \"Campaign.sol\":5901:5911  msg.sender */\n              pop\n              caller\n                /* \"Campaign.sol\":929:8979  contract Campaign {... */\n              0x00\n              mstore\n                /* \"Campaign.sol\":5891:5900  approvers */\n              0x0c\n                /* \"Campaign.sol\":929:8979  contract Campaign {... */\n              0x20\n              mstore\n              jumpi(tag_86, iszero(and(sload(keccak256(0x00, 0x40)), 0xff)))\n                /* \"Campaign.sol\":5986:5993  manager */\n              0x0a\n                /* \"Campaign.sol\":929:8979  contract Campaign {... */\n              sload\n              sub(shl(0xa0, 0x01), 0x01)\n              and\n                /* \"Campaign.sol\":5901:5911  msg.sender */\n              caller\n                /* \"Campaign.sol\":5972:5993  msg.sender != manager */\n              eq\n                /* \"Campaign.sol\":929:8979  contract Campaign {... */\n              tag_88\n              jumpi\n              0x04\n                /* \"Campaign.sol\":6060:6071  r.approvals */\n              dup2\n              add\n                /* \"Campaign.sol\":6060:6083  r.approvals[msg.sender] */\n              swap1\n                /* \"Campaign.sol\":929:8979  contract Campaign {... */\n              0x01\n              dup1\n              0xa0\n              shl\n              sub\n                /* \"Campaign.sol\":5901:5911  msg.sender */\n              caller\n                /* \"Campaign.sol\":929:8979  contract Campaign {... */\n              and\n              0x00\n              mstore\n              dup2\n              0x20\n              mstore\n              jumpi(tag_90, and(sload(keccak256(0x00, 0x40)), 0xff))\n                /* \"Campaign.sol\":5901:5911  msg.sender */\n              caller\n              0x00\n                /* \"Campaign.sol\":929:8979  contract Campaign {... */\n              swap1\n              dup2\n              mstore\n              0x20\n              swap3\n              swap1\n              swap3\n              mstore\n              0x40\n              swap1\n              swap2\n              keccak256\n              dup1\n              sload\n              not(0xff)\n              and\n              0x01\n              or\n              swap1\n              sstore\n                /* \"Campaign.sol\":6175:6190  r.approvalCount */\n              0x03\n              add\n                /* \"Campaign.sol\":929:8979  contract Campaign {... */\n              dup1\n              sload\n                /* \"Campaign.sol\":6175:6192  r.approvalCount++ */\n              tag_92\n              swap1\n              tag_14\n              jump\t// in\n            tag_92:\n                /* \"Campaign.sol\":929:8979  contract Campaign {... */\n              swap1\n              sstore\n              stop\n            tag_90:\n              mload(0x40)\n              shl(0xe5, 0x461bcd)\n              dup2\n              mstore\n              0x20\n              0x04\n              dup3\n              add\n              mstore\n              0x1d\n              0x24\n              dup3\n              add\n              mstore\n              0x416c726561647920766f746564206f6e20746869732072657175657374000000\n              0x44\n              dup3\n              add\n              mstore\n              0x64\n              swap1\n              revert\n            tag_88:\n              mload(0x40)\n              shl(0xe5, 0x461bcd)\n              dup2\n              mstore\n              0x20\n              0x04\n              dup3\n              add\n              mstore\n              0x23\n              0x24\n              dup3\n              add\n              mstore\n              0x4d616e616765722063616e6e6f7420766f7465206f6e206f776e207265717565\n              0x44\n              dup3\n              add\n              mstore\n              shl(0xe8, 0x737473)\n              0x64\n              dup3\n              add\n              mstore\n              0x84\n              swap1\n              revert\n            tag_86:\n              mload(0x40)\n              shl(0xe5, 0x461bcd)\n              dup2\n              mstore\n              0x20\n              0x04\n              dup3\n              add\n              mstore\n              0x1d\n              0x24\n              dup3\n              add\n              mstore\n              0x4d75737420636f6e7472696275746520666972737420746f20766f7465000000\n              0x44\n              dup3\n              add\n              mstore\n              0x64\n              swap1\n              revert\n            tag_53:\n              jumpi(tag_65, slt(add(not(0x03), calldatasize), 0x00))\n                /* \"Campaign.sol\":4492:4511  minimumContribution */\n              0x0b\n                /* \"Campaign.sol\":929:8979  contract Campaign {... */\n              sload\n                /* \"Campaign.sol\":4479:4488  msg.value */\n              callvalue\n                /* \"Campaign.sol\":4479:4511  msg.value >= minimumContribution */\n              lt\n                /* \"Campaign.sol\":929:8979  contract Campaign {... */\n              tag_95\n              jumpi\n                /* \"Campaign.sol\":4570:4580  msg.sender */\n              caller\n                /* \"Campaign.sol\":929:8979  contract Campaign {... */\n              0x00\n              mstore\n                /* \"Campaign.sol\":4560:4569  approvers */\n              0x0c\n                /* \"Campaign.sol\":929:8979  contract Campaign {... */\n              0x20\n              mstore\n              and(sload(keccak256(0x00, 0x40)), 0xff)\n                /* \"Campaign.sol\":4559:4581  !approvers[msg.sender] */\n              iszero\n                /* \"Campaign.sol\":4555:4669  if (!approvers[msg.sender]) {... */\n              tag_97\n              jumpi\n                /* \"Campaign.sol\":929:8979  contract Campaign {... */\n            tag_98:\n                /* \"Campaign.sol\":4699:4714  block.timestamp */\n              timestamp\n                /* \"Campaign.sol\":4679:4714  lastContributedAt = block.timestamp */\n              0x0f\n                /* \"Campaign.sol\":929:8979  contract Campaign {... */\n              sstore\n              stop\n                /* \"Campaign.sol\":4555:4669  if (!approvers[msg.sender]) {... */\n            tag_97:\n                /* \"Campaign.sol\":4570:4580  msg.sender */\n              caller\n                /* \"Campaign.sol\":929:8979  contract Campaign {... */\n              0x00\n              mstore\n                /* \"Campaign.sol\":4560:4569  approvers */\n              0x0c\n                /* \"Campaign.sol\":929:8979  contract Campaign {... */\n              0x20\n              mstore\n              keccak256(0x00, 0x40)\n                /* \"Campaign.sol\":4622:4626  true */\n              0x01\n                /* \"Campaign.sol\":929:8979  contract Campaign {... */\n              not(0xff)\n              dup3\n              sload\n              and\n              or\n              swap1\n              sstore\n                /* \"Campaign.sol\":4641:4657  approversCount++ */\n              tag_99\n              0x0d\n                /* \"Campaign.sol\":929:8979  contract Campaign {... */\n              sload\n                /* \"Campaign.sol\":4641:4657  approversCount++ */\n              tag_14\n              jump\t// in\n            tag_99:\n              0x0d\n                /* \"Campaign.sol\":929:8979  contract Campaign {... */\n              sstore\n                /* \"Campaign.sol\":4555:4669  if (!approvers[msg.sender]) {... */\n              jump(tag_98)\n                /* \"Campaign.sol\":929:8979  contract Campaign {... */\n            tag_95:\n              mload(0x40)\n              shl(0xe5, 0x461bcd)\n              dup2\n              mstore\n              0x20\n              0x04\n              dup3\n              add\n              mstore\n              0x1a\n              0x24\n              dup3\n              add\n              mstore\n              0x42656c6f77206d696e696d756d20636f6e747269627574696f6e000000000000\n              0x44\n              dup3\n              add\n              mstore\n              0x64\n              swap1\n              revert\n            tag_51:\n              jumpi(tag_65, callvalue)\n              jumpi(tag_65, slt(add(not(0x03), calldatasize), 0x00))\n              0x20\n                /* \"Campaign.sol\":2664:2688  uint256 public createdAt */\n              0x0e\n                /* \"Campaign.sol\":929:8979  contract Campaign {... */\n              sload\n              mload(0x40)\n              swap1\n              dup2\n              mstore\n              return\n            tag_49:\n              jumpi(tag_65, callvalue)\n              jumpi(tag_65, slt(add(not(0x03), calldatasize), 0x20))\n              tag_108\n                /* \"Campaign.sol\":8713:8728  requests[index] */\n              tag_109\n                /* \"Campaign.sol\":929:8979  contract Campaign {... */\n              calldataload(0x04)\n                /* \"Campaign.sol\":8713:8728  requests[index] */\n              tag_12\n              jump\t// in\n            tag_109:\n                /* \"Campaign.sol\":8789:8796  r.value */\n              pop\n                /* \"Campaign.sol\":929:8979  contract Campaign {... */\n              0x01\n                /* \"Campaign.sol\":8789:8796  r.value */\n              dup2\n              add\n                /* \"Campaign.sol\":929:8979  contract Campaign {... */\n              sload\n                /* \"Campaign.sol\":8811:8822  r.recipient */\n              swap1\n                /* \"Campaign.sol\":929:8979  contract Campaign {... */\n              tag_110\n                /* \"Campaign.sol\":8811:8822  r.recipient */\n              0x02\n              dup3\n              add\n                /* \"Campaign.sol\":929:8979  contract Campaign {... */\n              sload\n              tag_111\n                /* \"Campaign.sol\":8862:8877  r.approvalCount */\n              0x03\n              dup5\n              add\n                /* \"Campaign.sol\":929:8979  contract Campaign {... */\n              sload\n                /* \"Campaign.sol\":8946:8957  r.createdAt */\n              swap5\n              0x07\n              dup6\n              add\n                /* \"Campaign.sol\":929:8979  contract Campaign {... */\n              sload\n              swap5\n              tag_112\n              dup2\n              tag_9\n              jump\t// in\n            tag_112:\n                /* \"Campaign.sol\":8892:8903  r.proofLink */\n              swap7\n                /* \"Campaign.sol\":929:8979  contract Campaign {... */\n              0xff\n              tag_113\n                /* \"Campaign.sol\":8918:8931  r.requestType */\n              0x06\n                /* \"Campaign.sol\":929:8979  contract Campaign {... */\n              tag_114\n                /* \"Campaign.sol\":8892:8903  r.proofLink */\n              0x05\n              dup7\n              add\n                /* \"Campaign.sol\":929:8979  contract Campaign {... */\n              tag_9\n              jump\t// in\n            tag_114:\n                /* \"Campaign.sol\":8918:8931  r.requestType */\n              swap5\n              add\n                /* \"Campaign.sol\":929:8979  contract Campaign {... */\n              tag_9\n              jump\t// in\n            tag_113:\n              swap6\n              mload(0x40)\n              swap11\n              dup12\n              swap11\n              0x0100\n              dup13\n              mstore\n              0x0100\n              dup13\n              add\n              swap1\n              tag_10\n              jump\t// in\n            tag_108:\n              swap5\n              0x20\n              dup12\n              add\n              mstore\n              0x01\n              dup1\n              0xa0\n              shl\n              sub\n              dup2\n              and\n              0x40\n              dup12\n              add\n              mstore\n              0xa0\n              shr\n              and\n              iszero\n              iszero\n              0x60\n              dup10\n              add\n              mstore\n              0x80\n              dup9\n              add\n              mstore\n              dup7\n              dup3\n              sub\n              0xa0\n              dup9\n              add\n              mstore\n              tag_10\n              jump\t// in\n            tag_111:\n              swap1\n              dup5\n              dup3\n              sub\n              0xc0\n              dup7\n              add\n              mstore\n              tag_10\n              jump\t// in\n            tag_110:\n              swap1\n              0xe0\n              dup4\n              add\n              mstore\n              sub\n              swap1\n              return\n            tag_47:\n              jumpi(tag_65, callvalue)\n              jumpi(tag_65, slt(add(not(0x03), calldatasize), 0x00))\n              0x20\n                /* \"Campaign.sol\":2695:2727  uint256 public lastContributedAt */\n              0x0f\n                /* \"Campaign.sol\":929:8979  contract Campaign {... */\n              sload\n              mload(0x40)\n              swap1\n              dup2\n              mstore\n              return\n            tag_45:\n              jumpi(tag_65, callvalue)\n              jumpi(tag_65, slt(add(not(0x03), calldatasize), 0x00))\n              0x20\n                /* \"Campaign.sol\":2539:2573  uint256 public minimumContribution */\n              0x0b\n                /* \"Campaign.sol\":929:8979  contract Campaign {... */\n              sload\n              mload(0x40)\n              swap1\n              dup2\n              mstore\n              return\n            tag_43:\n              jumpi(tag_65, callvalue)\n              jumpi(tag_65, slt(add(not(0x03), calldatasize), 0x00))\n              0x20\n                /* \"Campaign.sol\":2628:2657  uint256 public approversCount */\n              0x0d\n                /* \"Campaign.sol\":929:8979  contract Campaign {... */\n              sload\n              mload(0x40)\n              swap1\n              dup2\n              mstore\n              return\n            tag_41:\n              jumpi(tag_65, callvalue)\n              jumpi(tag_65, slt(add(not(0x03), calldatasize), 0x20))\n              calldataload(0x04)\n                /* \"Campaign.sol\":2478:2503  Request[] public requests */\n              0x09\n                /* \"Campaign.sol\":929:8979  contract Campaign {... */\n              sload\n                /* \"Campaign.sol\":2478:2503  Request[] public requests */\n              dup2\n              lt\n              iszero\n              tag_65\n              jumpi\n              tag_133\n                /* \"Campaign.sol\":929:8979  contract Campaign {... */\n              tag_108\n                /* \"Campaign.sol\":2478:2503  Request[] public requests */\n              swap2\n              tag_12\n              jump\t// in\n            tag_133:\n              pop\n              tag_135\n              dup2\n              tag_9\n              jump\t// in\n            tag_135:\n              swap1\n                /* \"Campaign.sol\":929:8979  contract Campaign {... */\n              tag_110\n              0x01\n                /* \"Campaign.sol\":2478:2503  Request[] public requests */\n              dup3\n              add\n                /* \"Campaign.sol\":929:8979  contract Campaign {... */\n              sload\n                /* \"Campaign.sol\":2478:2503  Request[] public requests */\n              swap2\n                /* \"Campaign.sol\":929:8979  contract Campaign {... */\n              tag_111\n                /* \"Campaign.sol\":2478:2503  Request[] public requests */\n              0x02\n              dup3\n              add\n                /* \"Campaign.sol\":929:8979  contract Campaign {... */\n              sload\n                /* \"Campaign.sol\":2478:2503  Request[] public requests */\n              swap4\n              0x03\n              dup4\n              add\n                /* \"Campaign.sol\":929:8979  contract Campaign {... */\n              sload\n                /* \"Campaign.sol\":2478:2503  Request[] public requests */\n              tag_138\n              0x05\n              dup6\n              add\n              tag_9\n              jump\t// in\n            tag_138:\n              swap1\n                /* \"Campaign.sol\":929:8979  contract Campaign {... */\n              0xff\n                /* \"Campaign.sol\":2478:2503  Request[] public requests */\n              0x07\n              tag_139\n              0x06\n              dup9\n              add\n              tag_9\n              jump\t// in\n            tag_139:\n              swap7\n              add\n                /* \"Campaign.sol\":929:8979  contract Campaign {... */\n              sload\n              swap8\n              mload(0x40)\n              swap11\n              dup12\n              swap11\n              0x0100\n              dup13\n              mstore\n              0x0100\n              dup13\n              add\n              swap1\n              tag_10\n              jump\t// in\n            tag_39:\n              jumpi(tag_65, callvalue)\n              jumpi(tag_65, slt(add(not(0x03), calldatasize), 0x00))\n              tag_67\n              tag_68\n              tag_4\n              jump\t// in\n            tag_37:\n              jumpi(tag_65, callvalue)\n              jumpi(tag_65, slt(add(not(0x03), calldatasize), 0x00))\n              tag_67\n              tag_68\n              tag_6\n              jump\t// in\n            tag_35:\n              jumpi(tag_65, callvalue)\n              jumpi(tag_65, slt(add(not(0x03), calldatasize), 0x00))\n              tag_67\n              tag_68\n              0x00\n              tag_9\n              jump\t// in\n            tag_33:\n              jumpi(tag_65, callvalue)\n              jumpi(tag_65, slt(add(not(0x03), calldatasize), 0x00))\n                /* \"Campaign.sol\":2510:2532  address public manager */\n              0x0a\n                /* \"Campaign.sol\":929:8979  contract Campaign {... */\n              sload\n              mload(0x40)\n              sub(shl(0xa0, 0x01), 0x01)\n              swap1\n              swap2\n              and\n              dup2\n              mstore\n              0x20\n              swap1\n              return\n            tag_31:\n              jumpi(tag_65, callvalue)\n              jumpi(tag_65, slt(add(not(0x03), calldatasize), 0x00))\n                /* \"Campaign.sol\":7894:7898  goal */\n              0x07\n                /* \"Campaign.sol\":929:8979  contract Campaign {... */\n              sload\n                /* \"Campaign.sol\":7900:7908  deadline */\n              0x08\n                /* \"Campaign.sol\":929:8979  contract Campaign {... */\n              sload\n                /* \"Campaign.sol\":7923:7942  minimumContribution */\n              0x0b\n                /* \"Campaign.sol\":929:8979  contract Campaign {... */\n              sload\n                /* \"Campaign.sol\":7957:7978  address(this).balance */\n              selfbalance\n                /* \"Campaign.sol\":7993:8007  approversCount */\n              0x0d\n                /* \"Campaign.sol\":929:8979  contract Campaign {... */\n              sload\n                /* \"Campaign.sol\":8022:8030  requests */\n              0x09\n                /* \"Campaign.sol\":929:8979  contract Campaign {... */\n              sload\n              swap1\n              0x01\n              dup1\n              0xa0\n              shl\n              sub\n                /* \"Campaign.sol\":8052:8059  manager */\n              0x0a\n                /* \"Campaign.sol\":929:8979  contract Campaign {... */\n              sload\n              and\n              swap3\n                /* \"Campaign.sol\":8074:8083  createdAt */\n              0x0e\n                /* \"Campaign.sol\":929:8979  contract Campaign {... */\n              sload\n              swap5\n                /* \"Campaign.sol\":8098:8115  lastContributedAt */\n              0x0f\n                /* \"Campaign.sol\":929:8979  contract Campaign {... */\n              sload\n              swap7\n              mload(0x40)\n              0x00\n              sload(0x00)\n              tag_166\n              dup2\n              tag_1\n              jump\t// in\n            tag_166:\n              dup1\n              dup5\n              mstore\n              swap1\n              0x01\n              dup2\n              and\n              swap1\n              dup2\n              iszero\n              tag_167\n              jumpi\n              pop\n              0x01\n              eq\n              tag_169\n              jumpi\n            tag_170:\n              pop\n              swap1\n              tag_171\n              dup2\n              tag_172\n              swap4\n              sub\n              dup3\n              tag_2\n              jump\t// in\n            tag_171:\n              tag_173\n              tag_174\n              tag_4\n              jump\t// in\n            tag_174:\n              tag_175\n              tag_176\n              tag_5\n              jump\t// in\n            tag_176:\n              tag_177\n              tag_178\n              tag_6\n              jump\t// in\n            tag_178:\n              tag_179\n              tag_180\n              tag_3\n              jump\t// in\n            tag_180:\n              swap4\n              tag_181\n              tag_182\n              tag_7\n              jump\t// in\n            tag_182:\n              swap8\n              tag_183\n              tag_184\n              tag_8\n              jump\t// in\n            tag_184:\n              swap12\n              mstore(0x80, mload(0x40))\n              mstore(mload(0x80), 0x0200)\n              add(mload(0x80), 0x0200)\n              swap1\n              tag_10\n              jump\t// in\n            tag_183:\n              swap1\n              mload(0x80)\n              dup3\n              sub\n              add(mload(0x80), 0x20)\n              mstore\n              tag_10\n              jump\t// in\n            tag_181:\n              swap1\n              mload(0x80)\n              dup3\n              sub\n              add(mload(0x80), 0x40)\n              mstore\n              tag_10\n              jump\t// in\n            tag_179:\n              swap1\n              mload(0x80)\n              dup3\n              sub\n              add(mload(0x80), 0x60)\n              mstore\n              tag_10\n              jump\t// in\n            tag_177:\n              swap1\n              mload(0x80)\n              dup3\n              sub\n              0x80\n              dup1\n              mload\n              add\n              mstore\n              tag_10\n              jump\t// in\n            tag_175:\n              swap1\n              mload(0x80)\n              dup3\n              sub\n              add(mload(0x80), 0xa0)\n              mstore\n              tag_10\n              jump\t// in\n            tag_173:\n              swap1\n              mload(0x80)\n              dup3\n              sub\n              add(mload(0x80), 0xc0)\n              mstore\n              tag_10\n              jump\t// in\n            tag_172:\n              swap9\n              add(mload(0x80), 0xe0)\n              mstore\n              add(mload(0x80), 0x0100)\n              mstore\n              add(mload(0x80), 0x0120)\n              mstore\n              add(mload(0x80), 0x0140)\n              mstore\n              add(mload(0x80), 0x0160)\n              mstore\n              add(mload(0x80), 0x0180)\n              mstore\n              add(mload(0x80), 0x01a0)\n              mstore\n              add(mload(0x80), 0x01c0)\n              mstore\n              add(mload(0x80), 0x01e0)\n              mstore\n              mload(0x80)\n              swap1\n              sub\n              mload(0x80)\n              return\n            tag_169:\n              0x00\n              dup1\n              dup1\n              mstore\n              0x290decd9548b62a8d60345a988386fc84ba6bc95484008f6362f93160ef3e563\n              swap4\n              swap3\n              pop\n              swap1\n            tag_185:\n              dup1\n              dup3\n              lt\n              tag_186\n              jumpi\n              pop\n              swap1\n              swap2\n              pop\n              dup2\n              add\n              0x20\n              add\n              tag_171\n              jump(tag_170)\n            tag_186:\n              swap2\n              swap3\n              0x01\n              dup2\n              0x20\n              swap3\n              sload\n              dup4\n              dup6\n              dup9\n              add\n              add\n              mstore\n              add\n              swap2\n              add\n              swap1\n              swap3\n              swap2\n              jump(tag_185)\n            tag_167:\n              not(0xff)\n              and\n              0x20\n              dup1\n              dup7\n              add\n              swap2\n              swap1\n              swap2\n              mstore\n              swap2\n              iszero\n              iszero\n              0x05\n              shl\n              dup5\n              add\n              swap1\n              swap2\n              add\n              swap2\n              pop\n              tag_171\n              swap1\n              pop\n              jump(tag_170)\n            tag_29:\n              jumpi(tag_65, callvalue)\n              jumpi(tag_65, slt(add(not(0x03), calldatasize), 0x00))\n              0x20\n                /* \"Campaign.sol\":2174:2193  uint256 public goal */\n              0x07\n                /* \"Campaign.sol\":929:8979  contract Campaign {... */\n              sload\n              mload(0x40)\n              swap1\n              dup2\n              mstore\n              return\n            tag_27:\n              jumpi(tag_65, callvalue)\n              jumpi(tag_65, slt(add(not(0x03), calldatasize), 0xa0))\n              calldataload(0x04)\n              0xffffffffffffffff\n              dup2\n              gt\n              tag_65\n              jumpi\n              tag_198\n              swap1\n              calldatasize\n              swap1\n              0x04\n              add\n              tag_11\n              jump\t// in\n            tag_198:\n              calldataload(0x44)\n              sub(shl(0xa0, 0x01), 0x01)\n              dup2\n              and\n              swap1\n              dup2\n              swap1\n              sub\n              tag_65\n              jumpi\n              calldataload(0x64)\n              0xffffffffffffffff\n              dup2\n              gt\n              tag_65\n              jumpi\n              tag_203\n              swap1\n              calldatasize\n              swap1\n              0x04\n              add\n              tag_11\n              jump\t// in\n            tag_203:\n              swap2\n              calldataload(0x84)\n              0xffffffffffffffff\n              dup2\n              gt\n              tag_65\n              jumpi\n              tag_206\n              swap1\n              calldatasize\n              swap1\n              0x04\n              add\n              tag_11\n              jump\t// in\n            tag_206:\n              swap2\n                /* \"Campaign.sol\":2978:3048  require(msg.sender == manager, \"Only manager can perform this action\") */\n              tag_207\n                /* \"Campaign.sol\":929:8979  contract Campaign {... */\n              0x01\n              dup1\n              0xa0\n              shl\n              sub\n                /* \"Campaign.sol\":3000:3007  manager */\n              0x0a\n                /* \"Campaign.sol\":929:8979  contract Campaign {... */\n              sload\n              and\n                /* \"Campaign.sol\":2986:2996  msg.sender */\n              caller\n                /* \"Campaign.sol\":2986:3007  msg.sender == manager */\n              eq\n                /* \"Campaign.sol\":2978:3048  require(msg.sender == manager, \"Only manager can perform this action\") */\n              tag_13\n              jump\t// in\n            tag_207:\n                /* \"Campaign.sol\":5157:5165  requests */\n              0x09\n                /* \"Campaign.sol\":929:8979  contract Campaign {... */\n              sload\n              0x010000000000000000\n              dup2\n              lt\n              iszero\n              tag_234\n              jumpi\n              0x01\n              dup2\n              add\n              dup1\n                /* \"Campaign.sol\":5157:5165  requests */\n              0x09\n                /* \"Campaign.sol\":929:8979  contract Campaign {... */\n              sstore\n              tag_210\n              dup3\n              tag_12\n              jump\t// in\n            tag_210:\n              pop\n              pop\n              dup2\n              gt\n              tag_211\n              jumpi\n                /* \"Campaign.sol\":5205:5234  requests[requests.length - 1] */\n              tag_213\n              swap1\n              tag_12\n              jump\t// in\n            tag_213:\n                /* \"Campaign.sol\":929:8979  contract Campaign {... */\n              pop\n              swap2\n              dup1\n              mload\n              swap1\n              0xffffffffffffffff\n              dup3\n              gt\n              tag_234\n              jumpi\n              dup2\n              swap1\n              tag_216\n              dup6\n              sload\n              tag_1\n              jump\t// in\n            tag_216:\n              0x1f\n              dup2\n              gt\n              tag_217\n              jumpi\n            tag_218:\n              pop\n              0x20\n              swap1\n              0x1f\n              dup4\n              gt\n              0x01\n              eq\n              tag_219\n              jumpi\n              0x00\n              swap3\n              tag_221\n              jumpi\n            tag_222:\n              pop\n              pop\n              dup2\n              0x01\n              shl\n              swap2\n              not(0x00)\n              swap1\n              0x03\n              shl\n              shr\n              not\n              and\n              or\n              dup3\n              sstore\n            tag_223:\n              calldataload(0x24)\n              0x01\n                /* \"Campaign.sol\":5290:5297  r.value */\n              dup4\n              add\n                /* \"Campaign.sol\":929:8979  contract Campaign {... */\n              sstore\n                /* \"Campaign.sol\":5328:5339  r.recipient */\n              0x02\n              dup3\n              add\n                /* \"Campaign.sol\":929:8979  contract Campaign {... */\n              swap1\n              shl(0xa8, 0xffffffffffffffffffffff)\n              dup3\n              sload\n              and\n              or\n              swap1\n              sstore\n              0x00\n                /* \"Campaign.sol\":5408:5423  r.approvalCount */\n              0x03\n              dup3\n              add\n                /* \"Campaign.sol\":929:8979  contract Campaign {... */\n              sstore\n                /* \"Campaign.sol\":5442:5453  r.proofLink */\n              0x05\n              dup2\n              add\n                /* \"Campaign.sol\":929:8979  contract Campaign {... */\n              dup4\n              mload\n              0xffffffffffffffff\n              dup2\n              gt\n              tag_234\n              jumpi\n              tag_226\n              dup3\n              sload\n              tag_1\n              jump\t// in\n            tag_226:\n              0x1f\n              dup2\n              gt\n              tag_227\n              jumpi\n            tag_228:\n              pop\n              0x20\n              swap5\n              0x1f\n              dup3\n              gt\n              0x01\n              eq\n              tag_229\n              jumpi\n              swap5\n              dup2\n              swap3\n              swap4\n              swap5\n              swap6\n              0x00\n              swap3\n              tag_231\n              jumpi\n            tag_232:\n              pop\n              pop\n              dup2\n              0x01\n              shl\n              swap2\n              not(0x00)\n              swap1\n                /* \"Campaign.sol\":5408:5423  r.approvalCount */\n              0x03\n                /* \"Campaign.sol\":929:8979  contract Campaign {... */\n              shl\n              shr\n              not\n              and\n              or\n              swap1\n              sstore\n            tag_233:\n                /* \"Campaign.sol\":5485:5498  r.requestType */\n              0x06\n              dup2\n              add\n                /* \"Campaign.sol\":929:8979  contract Campaign {... */\n              dup3\n              mload\n              0xffffffffffffffff\n              dup2\n              gt\n              tag_234\n              jumpi\n              tag_236\n              dup3\n              sload\n              tag_1\n              jump\t// in\n            tag_236:\n              0x1f\n              dup2\n              gt\n              tag_237\n              jumpi\n            tag_238:\n              pop\n              0x20\n              0x1f\n              dup3\n              gt\n              0x01\n              eq\n              tag_239\n              jumpi\n              dup2\n              swap3\n              swap4\n              swap5\n              0x00\n              swap3\n              tag_241\n              jumpi\n            tag_242:\n              pop\n              pop\n              dup2\n              0x01\n              shl\n              swap2\n              not(0x00)\n              swap1\n                /* \"Campaign.sol\":5408:5423  r.approvalCount */\n              0x03\n                /* \"Campaign.sol\":929:8979  contract Campaign {... */\n              shl\n              shr\n              not\n              and\n              or\n              swap1\n              sstore\n            tag_243:\n                /* \"Campaign.sol\":5530:5541  r.createdAt */\n              0x07\n                /* \"Campaign.sol\":5552:5567  block.timestamp */\n              timestamp\n                /* \"Campaign.sol\":5530:5541  r.createdAt */\n              swap2\n              add\n                /* \"Campaign.sol\":929:8979  contract Campaign {... */\n              sstore\n              0x00\n              dup1\n              return\n            tag_241:\n              add\n              mload\n              swap1\n              pop\n              dup5\n              dup1\n              jump(tag_242)\n            tag_239:\n              not(0x1f)\n              dup3\n              and\n              swap1\n              dup4\n              0x00\n              mstore\n              dup1\n              0x00\n              keccak256\n              swap2\n              0x00\n            tag_244:\n              dup2\n              dup2\n              lt\n              tag_245\n              jumpi\n              pop\n              swap6\n              dup4\n              0x01\n              swap6\n              swap7\n              swap8\n              lt\n              tag_247\n              jumpi\n            tag_248:\n              pop\n              pop\n              pop\n              dup2\n              shl\n              add\n              swap1\n              sstore\n              jump(tag_243)\n            tag_247:\n              add\n              mload\n              not(0x00)\n              0xf8\n              dup5\n                /* \"Campaign.sol\":5408:5423  r.approvalCount */\n              0x03\n                /* \"Campaign.sol\":929:8979  contract Campaign {... */\n              shl\n              and\n              shr\n              not\n              and\n              swap1\n              sstore\n              dup5\n              dup1\n              dup1\n              jump(tag_248)\n            tag_245:\n              swap2\n              swap3\n              0x20\n              0x01\n              dup2\n              swap3\n              dup7\n              dup12\n              add\n              mload\n              dup2\n              sstore\n              add\n              swap5\n              add\n              swap3\n              add\n              jump(tag_244)\n            tag_237:\n              dup2\n              dup2\n              gt\n              iszero\n              tag_238\n              jumpi\n              dup3\n              0x00\n              mstore\n              keccak256(0x00, 0x20)\n              0x1f\n              dup4\n              add\n                /* \"Campaign.sol\":5442:5453  r.proofLink */\n              0x05\n                /* \"Campaign.sol\":929:8979  contract Campaign {... */\n              shr\n              swap1\n              0x20\n              dup5\n              lt\n              tag_251\n              jumpi\n            tag_252:\n              dup2\n              0x1f\n              swap2\n              add\n              swap3\n              add\n                /* \"Campaign.sol\":5442:5453  r.proofLink */\n              0x05\n                /* \"Campaign.sol\":929:8979  contract Campaign {... */\n              shr\n              sub\n              swap1\n              0x00\n            tag_253:\n              dup3\n              dup2\n              lt\n              tag_254\n              jumpi\n              pop\n              pop\n              jump(tag_238)\n            tag_254:\n              0x00\n              dup3\n              dup3\n              add\n              sstore\n              0x01\n              add\n              jump(tag_253)\n            tag_251:\n              0x00\n              swap2\n              pop\n              jump(tag_252)\n            tag_234:\n              mstore(0x00, shl(0xe0, 0x4e487b71))\n              mstore(0x04, 0x41)\n              revert(0x00, 0x24)\n            tag_231:\n              add\n              mload\n              swap1\n              pop\n              dup6\n              dup1\n              jump(tag_232)\n            tag_229:\n              not(0x1f)\n              dup3\n              and\n              swap6\n              dup4\n              0x00\n              mstore\n              dup1\n              0x00\n              keccak256\n              swap2\n              0x00\n            tag_256:\n              dup9\n              dup2\n              lt\n              tag_257\n              jumpi\n              pop\n              dup4\n              0x01\n              swap6\n              swap7\n              swap8\n              swap9\n              lt\n              tag_259\n              jumpi\n            tag_260:\n              pop\n              pop\n              pop\n              dup2\n              shl\n              add\n              swap1\n              sstore\n              jump(tag_233)\n            tag_259:\n              add\n              mload\n              not(0x00)\n              0xf8\n              dup5\n                /* \"Campaign.sol\":5408:5423  r.approvalCount */\n              0x03\n                /* \"Campaign.sol\":929:8979  contract Campaign {... */\n              shl\n              and\n              shr\n              not\n              and\n              swap1\n              sstore\n              dup6\n              dup1\n              dup1\n              jump(tag_260)\n            tag_257:\n              swap2\n              swap3\n              0x20\n              0x01\n              dup2\n              swap3\n              dup7\n              dup6\n              add\n              mload\n              dup2\n              sstore\n              add\n              swap5\n              add\n              swap3\n              add\n              jump(tag_256)\n            tag_227:\n              dup2\n              dup2\n              gt\n              iszero\n              tag_228\n              jumpi\n              dup3\n              0x00\n              mstore\n              keccak256(0x00, 0x20)\n              0x1f\n              dup4\n              add\n                /* \"Campaign.sol\":5442:5453  r.proofLink */\n              0x05\n                /* \"Campaign.sol\":929:8979  contract Campaign {... */\n              shr\n              swap1\n              0x20\n              dup5\n              lt\n              tag_263\n              jumpi\n            tag_264:\n              dup2\n              0x1f\n              swap2\n              add\n              swap3\n              add\n                /* \"Campaign.sol\":5442:5453  r.proofLink */\n              0x05\n                /* \"Campaign.sol\":929:8979  contract Campaign {... */\n              shr\n              sub\n              swap1\n              0x00\n            tag_265:\n              dup3\n              dup2\n              lt\n              tag_266\n              jumpi\n              pop\n              pop\n              jump(tag_228)\n            tag_266:\n              0x00\n              dup3\n              dup3\n              add\n              sstore\n              0x01\n              add\n              jump(tag_265)\n            tag_263:\n              0x00\n              swap2\n              pop\n              jump(tag_264)\n            tag_221:\n              add\n              mload\n              swap1\n              pop\n              dup7\n              dup1\n              jump(tag_222)\n            tag_219:\n              0x00\n              dup7\n              dup2\n              mstore\n              dup3\n              dup2\n              keccak256\n              swap4\n              pop\n              not(0x1f)\n              dup6\n              and\n              swap1\n            tag_268:\n              dup2\n              dup2\n              lt\n              tag_269\n              jumpi\n              pop\n              swap1\n              dup5\n              0x01\n              swap6\n              swap5\n              swap4\n              swap3\n              lt\n              tag_271\n              jumpi\n            tag_272:\n              pop\n              pop\n              pop\n              dup2\n              shl\n              add\n              dup3\n              sstore\n              jump(tag_223)\n            tag_271:\n              add\n              mload\n              not(0x00)\n              0xf8\n              dup5\n              0x03\n              shl\n              and\n              shr\n              not\n              and\n              swap1\n              sstore\n              dup7\n              dup1\n              dup1\n              jump(tag_272)\n            tag_269:\n              swap3\n              swap4\n              0x20\n              0x01\n              dup2\n              swap3\n              dup8\n              dup7\n              add\n              mload\n              dup2\n              sstore\n              add\n              swap6\n              add\n              swap4\n              add\n              jump(tag_268)\n            tag_217:\n              dup3\n              dup2\n              gt\n              iszero\n              tag_218\n              jumpi\n              swap1\n              swap2\n              pop\n              dup5\n              0x00\n              mstore\n              keccak256(0x00, 0x20)\n              0x1f\n              dup5\n              add\n              0x05\n              shr\n              swap1\n              0x20\n              dup6\n              lt\n              tag_275\n              jumpi\n            tag_276:\n              dup5\n              swap4\n              swap3\n              0x1f\n              add\n              0x05\n              shr\n              dup3\n              swap1\n              sub\n              swap2\n              add\n              0x00\n            tag_277:\n              dup3\n              dup2\n              lt\n              tag_278\n              jumpi\n              pop\n              pop\n              jump(tag_218)\n            tag_278:\n              0x00\n              dup2\n              dup4\n              add\n              sstore\n              dup6\n              swap5\n              pop\n              0x01\n              add\n              jump(tag_277)\n            tag_275:\n              0x00\n              swap2\n              pop\n              jump(tag_276)\n            tag_211:\n              mstore(0x00, shl(0xe0, 0x4e487b71))\n              mstore(0x04, 0x11)\n              revert(0x00, 0x24)\n            tag_25:\n              jumpi(tag_65, callvalue)\n              jumpi(tag_65, slt(add(not(0x03), calldatasize), 0x00))\n              0x20\n                /* \"Campaign.sol\":7019:7027  requests */\n              0x09\n                /* \"Campaign.sol\":929:8979  contract Campaign {... */\n              sload\n              mload(0x40)\n              swap1\n              dup2\n              mstore\n              return\n            tag_23:\n              jumpi(tag_65, callvalue)\n              jumpi(tag_65, slt(add(not(0x03), calldatasize), 0x00))\n              0x20\n                /* \"Campaign.sol\":2200:2223  uint256 public deadline */\n              0x08\n                /* \"Campaign.sol\":929:8979  contract Campaign {... */\n              sload\n              mload(0x40)\n              swap1\n              dup2\n              mstore\n              return\n            tag_21:\n              jumpi(tag_65, callvalue)\n              jumpi(tag_65, slt(add(not(0x03), calldatasize), 0x00))\n              tag_67\n              tag_68\n              tag_3\n              jump\t// in\n            tag_19:\n              jumpi(tag_65, callvalue)\n              jumpi(tag_65, slt(add(not(0x03), calldatasize), 0x20))\n              calldataload(0x04)\n              sub(shl(0xa0, 0x01), 0x01)\n              dup2\n              and\n              swap1\n              dup2\n              swap1\n              sub\n              tag_65\n              jumpi\n              0x00\n              mstore\n                /* \"Campaign.sol\":2580:2621  mapping(address => bool) public approvers */\n              0x0c\n                /* \"Campaign.sol\":929:8979  contract Campaign {... */\n              0x20\n              mstore\n              0x20\n              and(sload(keccak256(0x00, 0x40)), 0xff)\n              mload(0x40)\n              swap1\n              iszero\n              iszero\n              dup2\n              mstore\n              return\n            tag_17:\n              jumpi(tag_65, callvalue)\n              jumpi(tag_65, slt(add(not(0x03), calldatasize), 0x20))\n                /* \"Campaign.sol\":2978:3048  require(msg.sender == manager, \"Only manager can perform this action\") */\n              tag_304\n                /* \"Campaign.sol\":929:8979  contract Campaign {... */\n              0x01\n              dup1\n              0xa0\n              shl\n              sub\n                /* \"Campaign.sol\":3000:3007  manager */\n              0x0a\n                /* \"Campaign.sol\":929:8979  contract Campaign {... */\n              sload\n              and\n                /* \"Campaign.sol\":2986:2996  msg.sender */\n              caller\n                /* \"Campaign.sol\":2986:3007  msg.sender == manager */\n              eq\n                /* \"Campaign.sol\":2978:3048  require(msg.sender == manager, \"Only manager can perform this action\") */\n              tag_13\n              jump\t// in\n            tag_304:\n                /* \"Campaign.sol\":6492:6507  requests[index] */\n              tag_305\n                /* \"Campaign.sol\":929:8979  contract Campaign {... */\n              calldataload(0x04)\n                /* \"Campaign.sol\":6492:6507  requests[index] */\n              tag_12\n              jump\t// in\n            tag_305:\n                /* \"Campaign.sol\":6526:6541  r.approvalCount */\n              pop\n              0x03\n              dup2\n              add\n                /* \"Campaign.sol\":929:8979  contract Campaign {... */\n              sload\n                /* \"Campaign.sol\":6545:6559  approversCount */\n              0x0d\n                /* \"Campaign.sol\":929:8979  contract Campaign {... */\n              sload\n              0x01\n              shr\n              lt\n              iszero\n              tag_306\n              jumpi\n                /* \"Campaign.sol\":6562:6563  2 */\n              0x02\n                /* \"Campaign.sol\":6609:6619  r.complete */\n              dup2\n              add\n                /* \"Campaign.sol\":929:8979  contract Campaign {... */\n              swap1\n              dup2\n              sload\n              swap1\n              0xff\n              dup3\n              0xa0\n              shr\n              and\n              tag_308\n              jumpi\n              0x00\n                /* \"Campaign.sol\":6702:6709  r.value */\n              dup1\n              dup1\n              swap4\n                /* \"Campaign.sol\":929:8979  contract Campaign {... */\n              0x01\n                /* \"Campaign.sol\":6702:6709  r.value */\n              dup3\n              swap5\n              add\n                /* \"Campaign.sol\":929:8979  contract Campaign {... */\n              sload\n                /* \"Campaign.sol\":6681:6710  r.recipient.transfer(r.value) */\n              swap1\n              dup3\n              swap1\n              dup3\n              iszero\n              tag_310\n              jumpi\n                /* \"Campaign.sol\":929:8979  contract Campaign {... */\n            tag_311:\n              sub(shl(0xa0, 0x01), 0x01)\n              and\n              swap1\n                /* \"Campaign.sol\":6681:6710  r.recipient.transfer(r.value) */\n              call\n              iszero\n              tag_312\n              jumpi\n                /* \"Campaign.sol\":929:8979  contract Campaign {... */\n              dup1\n              sload\n              not(shl(0xa0, 0xff))\n              and\n              shl(0xa0, 0x01)\n              or\n              swap1\n              sstore\n              stop\n                /* \"Campaign.sol\":6681:6710  r.recipient.transfer(r.value) */\n            tag_312:\n                /* \"Campaign.sol\":929:8979  contract Campaign {... */\n              mload(0x40)\n              returndatasize\n              0x00\n              dup3\n              returndatacopy\n              returndatasize\n              swap1\n              revert\n                /* \"Campaign.sol\":6681:6710  r.recipient.transfer(r.value) */\n            tag_310:\n              0x08fc\n              swap2\n              pop\n              jump(tag_311)\n                /* \"Campaign.sol\":929:8979  contract Campaign {... */\n            tag_308:\n              mload(0x40)\n              shl(0xe5, 0x461bcd)\n              dup2\n              mstore\n              0x20\n              0x04\n              dup3\n              add\n              mstore\n              0x11\n              0x24\n              dup3\n              add\n              mstore\n              shl(0x7a, 0x105b1c9958591e4818dbdb5c1b195d1959)\n              0x44\n              dup3\n              add\n              mstore\n              0x64\n              swap1\n              revert\n            tag_306:\n              mload(0x40)\n              shl(0xe5, 0x461bcd)\n              dup2\n              mstore\n              0x20\n              0x04\n              dup3\n              add\n              mstore\n              0x14\n              0x24\n              dup3\n              add\n              mstore\n              shl(0x60, 0x4e6f7420656e6f75676820617070726f76616c73)\n              0x44\n              dup3\n              add\n              mstore\n              0x64\n              swap1\n              revert\n            tag_1:\n              swap1\n              0x01\n              dup3\n              dup2\n              shr\n              swap3\n              and\n              dup1\n              iszero\n              tag_314\n              jumpi\n            tag_315:\n              0x20\n              dup4\n              lt\n              eq\n              tag_316\n              jumpi\n              jump\t// out\n            tag_316:\n              mstore(0x00, shl(0xe0, 0x4e487b71))\n              mstore(0x04, 0x22)\n              revert(0x00, 0x24)\n            tag_314:\n              swap2\n              0x7f\n              and\n              swap2\n              jump(tag_315)\n            tag_2:\n              swap1\n              0x1f\n              dup1\n              not\n              swap2\n              add\n              and\n              dup2\n              add\n              swap1\n              dup2\n              lt\n              0xffffffffffffffff\n              dup3\n              gt\n              or\n              tag_234\n              jumpi\n              0x40\n              mstore\n              jump\t// out\n            tag_3:\n              mload(0x40)\n              swap1\n              0x00\n              dup3\n              sload(0x04)\n              swap2\n              tag_320\n              dup4\n              tag_1\n              jump\t// in\n            tag_320:\n              dup1\n              dup4\n              mstore\n              swap3\n              0x01\n              dup2\n              and\n              swap1\n              dup2\n              iszero\n              tag_321\n              jumpi\n              pop\n              0x01\n              eq\n              tag_323\n              jumpi\n            tag_324:\n              tag_325\n              swap3\n              pop\n              sub\n              dup4\n              tag_2\n              jump\t// in\n            tag_325:\n              jump\t// out\n            tag_323:\n              pop\n              0x04\n              0x00\n              swap1\n              dup2\n              mstore\n              swap1\n              swap2\n              0x8a35acfbc15ff81a39ae7d344fd709f28e8600b4aa8c65c6b64bfe7fe36bd19b\n            tag_326:\n              dup2\n              dup4\n              lt\n              tag_327\n              jumpi\n              pop\n              pop\n              swap1\n              0x20\n              tag_325\n              swap3\n              dup3\n              add\n              add\n              jump(tag_324)\n            tag_327:\n              0x20\n              swap2\n              swap4\n              pop\n              dup1\n              0x01\n              swap2\n              sload\n              dup4\n              dup6\n              dup10\n              add\n              add\n              mstore\n              add\n              swap2\n              add\n              swap1\n              swap2\n              dup5\n              swap3\n              jump(tag_326)\n            tag_321:\n              0x20\n              swap3\n              pop\n              tag_325\n              swap5\n              swap2\n              pop\n              not(0xff)\n              and\n              dup3\n              dup5\n              add\n              mstore\n              iszero\n              iszero\n              0x05\n              shl\n              dup3\n              add\n              add\n              jump(tag_324)\n            tag_4:\n              mload(0x40)\n              swap1\n              0x00\n              dup3\n                /* \"Campaign.sol\":7799:7810  description */\n              0x01\n                /* \"Campaign.sol\":929:8979  contract Campaign {... */\n              sload\n              swap2\n              tag_329\n              dup4\n              tag_1\n              jump\t// in\n            tag_329:\n              dup1\n              dup4\n              mstore\n              swap3\n                /* \"Campaign.sol\":7799:7810  description */\n              0x01\n                /* \"Campaign.sol\":929:8979  contract Campaign {... */\n              dup2\n              and\n              swap1\n                /* \"Campaign.sol\":7799:7810  description */\n              dup2\n              iszero\n              tag_321\n              jumpi\n                /* \"Campaign.sol\":929:8979  contract Campaign {... */\n              pop\n              0x01\n              eq\n              tag_332\n              jumpi\n              tag_325\n              swap3\n              pop\n              sub\n              dup4\n              tag_2\n              jump\t// in\n            tag_332:\n              pop\n                /* \"Campaign.sol\":7799:7810  description */\n              0x01\n              0x00\n                /* \"Campaign.sol\":929:8979  contract Campaign {... */\n              swap1\n              dup2\n              mstore\n              swap1\n              swap2\n              0xb10e2d527612073b26eecdfd717e6a320cf44b4afac2b0732d9fcbe2b7fa0cf6\n            tag_335:\n              dup2\n              dup4\n              lt\n              tag_336\n              jumpi\n              pop\n              pop\n              swap1\n              0x20\n              tag_325\n              swap3\n              dup3\n              add\n              add\n              jump(tag_324)\n            tag_336:\n              0x20\n              swap2\n              swap4\n              pop\n              dup1\n                /* \"Campaign.sol\":7799:7810  description */\n              0x01\n                /* \"Campaign.sol\":929:8979  contract Campaign {... */\n              swap2\n              sload\n              dup4\n              dup6\n              dup10\n              add\n              add\n              mstore\n              add\n              swap2\n              add\n              swap1\n              swap2\n              dup5\n              swap3\n              jump(tag_335)\n            tag_5:\n              mload(0x40)\n              swap1\n              0x00\n              dup3\n                /* \"Campaign.sol\":7812:7820  category */\n              0x02\n                /* \"Campaign.sol\":929:8979  contract Campaign {... */\n              sload\n              swap2\n              tag_338\n              dup4\n              tag_1\n              jump\t// in\n            tag_338:\n              dup1\n              dup4\n              mstore\n              swap3\n              0x01\n              dup2\n              and\n              swap1\n              dup2\n              iszero\n              tag_321\n              jumpi\n              pop\n              0x01\n              eq\n              tag_341\n              jumpi\n              tag_325\n              swap3\n              pop\n              sub\n              dup4\n              tag_2\n              jump\t// in\n            tag_341:\n              pop\n                /* \"Campaign.sol\":7812:7820  category */\n              0x02\n              0x00\n                /* \"Campaign.sol\":929:8979  contract Campaign {... */\n              swap1\n              dup2\n              mstore\n              swap1\n              swap2\n              0x405787fa12a823e0f2b7631cc41b3ba8828b3321ca811111fa75cd3aa3bb5ace\n            tag_344:\n              dup2\n              dup4\n              lt\n              tag_345\n              jumpi\n              pop\n              pop\n              swap1\n              0x20\n              tag_325\n              swap3\n              dup3\n              add\n              add\n              jump(tag_324)\n            tag_345:\n              0x20\n              swap2\n              swap4\n              pop\n              dup1\n              0x01\n              swap2\n              sload\n              dup4\n              dup6\n              dup10\n              add\n              add\n              mstore\n              add\n              swap2\n              add\n              swap1\n              swap2\n              dup5\n              swap3\n              jump(tag_344)\n            tag_6:\n              mload(0x40)\n              swap1\n              0x00\n              dup3\n                /* \"Campaign.sol\":7822:7829  tagline */\n              0x03\n                /* \"Campaign.sol\":929:8979  contract Campaign {... */\n              sload\n              swap2\n              tag_347\n              dup4\n              tag_1\n              jump\t// in\n            tag_347:\n              dup1\n              dup4\n              mstore\n              swap3\n              0x01\n              dup2\n              and\n              swap1\n              dup2\n              iszero\n              tag_321\n              jumpi\n              pop\n              0x01\n              eq\n              tag_350\n              jumpi\n              tag_325\n              swap3\n              pop\n              sub\n              dup4\n              tag_2\n              jump\t// in\n            tag_350:\n              pop\n                /* \"Campaign.sol\":7822:7829  tagline */\n              0x03\n              0x00\n                /* \"Campaign.sol\":929:8979  contract Campaign {... */\n              swap1\n              dup2\n              mstore\n              swap1\n              swap2\n              0xc2575a0e9e593c00f959f8c92f12db2869c3395a3b0502d05e2516446f71f85b\n            tag_353:\n              dup2\n              dup4\n              lt\n              tag_354\n              jumpi\n              pop\n              pop\n              swap1\n              0x20\n              tag_325\n              swap3\n              dup3\n              add\n              add\n              jump(tag_324)\n            tag_354:\n              0x20\n              swap2\n              swap4\n              pop\n              dup1\n              0x01\n              swap2\n              sload\n              dup4\n              dup6\n              dup10\n              add\n              add\n              mstore\n              add\n              swap2\n              add\n              swap1\n              swap2\n              dup5\n              swap3\n              jump(tag_353)\n            tag_7:\n              mload(0x40)\n              swap1\n              0x00\n              dup3\n                /* \"Campaign.sol\":7857:7867  creatorBio */\n              0x05\n                /* \"Campaign.sol\":929:8979  contract Campaign {... */\n              sload\n              swap2\n              tag_356\n              dup4\n              tag_1\n              jump\t// in\n            tag_356:\n              dup1\n              dup4\n              mstore\n              swap3\n              0x01\n              dup2\n              and\n              swap1\n              dup2\n              iszero\n              tag_321\n              jumpi\n              pop\n              0x01\n              eq\n              tag_359\n              jumpi\n              tag_325\n              swap3\n              pop\n              sub\n              dup4\n              tag_2\n              jump\t// in\n            tag_359:\n              pop\n                /* \"Campaign.sol\":7857:7867  creatorBio */\n              0x05\n              0x00\n                /* \"Campaign.sol\":929:8979  contract Campaign {... */\n              swap1\n              dup2\n              mstore\n              swap1\n              swap2\n              0x036b6384b5eca791c62761152d0c79bb0604c104a5fb6f4eb0703f3154bb3db0\n            tag_362:\n              dup2\n              dup4\n              lt\n              tag_363\n              jumpi\n              pop\n              pop\n              swap1\n              0x20\n              tag_325\n              swap3\n              dup3\n              add\n              add\n              jump(tag_324)\n            tag_363:\n              0x20\n              swap2\n              swap4\n              pop\n              dup1\n              0x01\n              swap2\n              sload\n              dup4\n              dup6\n              dup10\n              add\n              add\n              mstore\n              add\n              swap2\n              add\n              swap1\n              swap2\n              dup5\n              swap3\n              jump(tag_362)\n            tag_8:\n              mload(0x40)\n              swap1\n              0x00\n              dup3\n                /* \"Campaign.sol\":7869:7879  coverImage */\n              0x06\n                /* \"Campaign.sol\":929:8979  contract Campaign {... */\n              sload\n              swap2\n              tag_365\n              dup4\n              tag_1\n              jump\t// in\n            tag_365:\n              dup1\n              dup4\n              mstore\n              swap3\n              0x01\n              dup2\n              and\n              swap1\n              dup2\n              iszero\n              tag_321\n              jumpi\n              pop\n              0x01\n              eq\n              tag_368\n              jumpi\n              tag_325\n              swap3\n              pop\n              sub\n              dup4\n              tag_2\n              jump\t// in\n            tag_368:\n              pop\n                /* \"Campaign.sol\":7869:7879  coverImage */\n              0x06\n              0x00\n                /* \"Campaign.sol\":929:8979  contract Campaign {... */\n              swap1\n              dup2\n              mstore\n              swap1\n              swap2\n              0xf652222313e28459528d920b65115c16c04f3efc82aaedc97be59f3f377c0d3f\n            tag_371:\n              dup2\n              dup4\n              lt\n              tag_372\n              jumpi\n              pop\n              pop\n              swap1\n              0x20\n              tag_325\n              swap3\n              dup3\n              add\n              add\n              jump(tag_324)\n            tag_372:\n              0x20\n              swap2\n              swap4\n              pop\n              dup1\n              0x01\n              swap2\n              sload\n              dup4\n              dup6\n              dup10\n              add\n              add\n              mstore\n              add\n              swap2\n              add\n              swap1\n              swap2\n              dup5\n              swap3\n              jump(tag_371)\n            tag_9:\n              swap1\n              mload(0x40)\n              swap2\n              dup3\n              0x00\n              dup3\n              sload\n              swap3\n              tag_374\n              dup5\n              tag_1\n              jump\t// in\n            tag_374:\n              dup1\n              dup5\n              mstore\n              swap4\n              0x01\n              dup2\n              and\n              swap1\n              dup2\n              iszero\n              tag_375\n              jumpi\n              pop\n              0x01\n              eq\n              tag_377\n              jumpi\n            tag_378:\n              pop\n              tag_325\n              swap3\n              pop\n              sub\n              dup4\n              tag_2\n              jump\t// in\n            tag_377:\n              swap1\n              pop\n              0x00\n              swap3\n              swap2\n              swap3\n              mstore\n              keccak256(0x00, 0x20)\n              swap1\n              0x00\n              swap2\n            tag_380:\n              dup2\n              dup4\n              lt\n              tag_381\n              jumpi\n              pop\n              pop\n              swap1\n              0x20\n              tag_325\n              swap3\n              dup3\n              add\n              add\n              0x00\n              jump(tag_378)\n            tag_381:\n              0x20\n              swap2\n              swap4\n              pop\n              dup1\n              0x01\n              swap2\n              sload\n              dup4\n              dup6\n              dup10\n              add\n              add\n              mstore\n              add\n              swap2\n              add\n              swap1\n              swap2\n              dup5\n              swap3\n              jump(tag_380)\n            tag_375:\n              swap1\n              pop\n              0x20\n              swap3\n              pop\n              tag_325\n              swap5\n              swap2\n              pop\n              not(0xff)\n              and\n              dup3\n              dup5\n              add\n              mstore\n              iszero\n              iszero\n              0x05\n              shl\n              dup3\n              add\n              add\n              0x00\n              jump(tag_378)\n            tag_10:\n              dup1\n              mload\n              dup1\n              dup4\n              mstore\n              0x20\n              swap3\n              swap2\n              dup2\n              swap1\n              dup5\n              add\n              dup5\n              dup5\n              add\n              mcopy\n              0x00\n              dup3\n              dup3\n              add\n              dup5\n              add\n              mstore\n              0x1f\n              add\n              not(0x1f)\n              and\n              add\n              add\n              swap1\n              jump\t// out\n            tag_11:\n              dup2\n              0x1f\n              dup3\n              add\n              slt\n              iszero\n              tag_65\n              jumpi\n              dup1\n              calldataload\n              swap1\n              0xffffffffffffffff\n              dup3\n              gt\n              tag_234\n              jumpi\n              mload(0x40)\n              swap3\n              tag_387\n              0x1f\n              dup5\n              add\n              not(0x1f)\n              and\n              0x20\n              add\n              dup6\n              tag_2\n              jump\t// in\n            tag_387:\n              dup3\n              dup5\n              mstore\n              0x20\n              dup4\n              dup4\n              add\n              add\n              gt\n              tag_65\n              jumpi\n              dup2\n              0x00\n              swap3\n              0x20\n              dup1\n              swap4\n              add\n              dup4\n              dup7\n              add\n              calldatacopy\n              dup4\n              add\n              add\n              mstore\n              swap1\n              jump\t// out\n            tag_12:\n                /* \"Campaign.sol\":6492:6500  requests */\n              0x09\n                /* \"Campaign.sol\":929:8979  contract Campaign {... */\n              sload\n              dup2\n              lt\n              iszero\n              tag_390\n              jumpi\n                /* \"Campaign.sol\":6492:6500  requests */\n              0x09\n              0x00\n                /* \"Campaign.sol\":929:8979  contract Campaign {... */\n              mstore\n              keccak256(0x00, 0x20)\n              swap1\n              0x03\n              shl\n              add\n              swap1\n              0x00\n              swap1\n              jump\t// out\n            tag_390:\n              mstore(0x00, shl(0xe0, 0x4e487b71))\n              mstore(0x04, 0x32)\n              revert(0x00, 0x24)\n            tag_13:\n              iszero\n              tag_392\n              jumpi\n              jump\t// out\n            tag_392:\n              mload(0x40)\n              shl(0xe5, 0x461bcd)\n              dup2\n              mstore\n              0x20\n              0x04\n              dup3\n              add\n              mstore\n              0x24\n              dup1\n              dup3\n              add\n              mstore\n              0x4f6e6c79206d616e616765722063616e20706572666f726d2074686973206163\n              0x44\n              dup3\n              add\n              mstore\n              shl(0xe1, 0x3a34b7b7)\n              0x64\n              dup3\n              add\n              mstore\n              0x84\n              swap1\n              revert\n            tag_14:\n              not(0x00)\n              dup2\n              eq\n              tag_211\n              jumpi\n              0x01\n              add\n              swap1\n              jump\t// out\n\n            auxdata: 0xa26469706673582212208f8c10d01eeddc8266b830869d799ba62da74d9fe28a77bffee142d4b62a04d664736f6c63430008220033\n        }\n    }\n\n    auxdata: 0xa2646970667358221220a115bd26307810d716d72c7281d2474bc6f91daf62d1d5b49ef535a7168598a764736f6c63430008220033\n}\n","bytecode":{"linkReferences":{},"object":"60808060405234601557612379908161001a8239f35b5f80fdfe60806040526004361015610011575f80fd5b5f3560e01c80631cdf942c14610145578063339d50a51461010457634acb9d4f1461003a575f80fd5b34610100575f366003190112610100576040518060205f54928381520180925f80527f290decd9548b62a8d60345a988386fc84ba6bc95484008f6362f93160ef3e563905f5b8181106100e15750505081610096910382610372565b604051918291602083019060208452518091526040830191905f5b8181106100bf575050500390f35b82516001600160a01b03168452859450602093840193909201916001016100b1565b82546001600160a01b0316845260209093019260019283019201610080565b5f80fd5b34610100576020366003190112610100576004355f548110156101005761012c6020916103ea565b905460405160039290921b1c6001600160a01b03168152f35b34610100576101403660031901126101005760243567ffffffffffffffff811161010057610177903690600401610394565b60443567ffffffffffffffff811161010057610197903690600401610394565b60643567ffffffffffffffff8111610100576101b7903690600401610394565b9060a43567ffffffffffffffff8111610100576101d8903690600401610394565b9160c43567ffffffffffffffff8111610100576101f9903690600401610394565b9060e43567ffffffffffffffff81116101005761021a903690600401610394565b906101043567ffffffffffffffff81116101005761023c903690600401610394565b9160405196611f0b948589019689881067ffffffffffffffff8911176103535789986102b66102e9966102a86102cc9461029a6102da988f8f6102f89f61016092610439903960043581523360208201528160408201520190610414565b8d810360608f015290610414565b908b820360808d0152610414565b9060843560a08b015289820360c08b0152610414565b9087820360e0890152610414565b90858203610100870152610414565b90838203610120850152610414565b906101406101243591015203905ff08015610367575f54680100000000000000008110156103535780600161032f92015f556103ea565b81546001600160a01b0393841660039290921b91821b9390911b1916919091179055005b634e487b7160e01b5f52604160045260245ffd5b6040513d5f823e3d90fd5b90601f8019910116810190811067ffffffffffffffff82111761035357604052565b81601f820112156101005780359067ffffffffffffffff821161035357604051926103c9601f8401601f191660200185610372565b8284526020838301011161010057815f926020809301838601378301015290565b5f54811015610400575f805260205f2001905f90565b634e487b7160e01b5f52603260045260245ffd5b805180835260209291819084018484015e5f828201840152601f01601f191601019056fe608060405234610ab157611f0b8038038061001981610ab5565b928339810161016082820312610ab157815160208301519092906001600160a01b03811690819003610ab15760408201516001600160401b038111610ab15783610064918401610ada565b60608301516001600160401b038111610ab15784610083918501610ada565b60808401516001600160401b038111610ab157856100a2918601610ada565b60a085015160c08601519092906001600160401b038111610ab157876100c9918801610ada565b60e08701519094906001600160401b038111610ab157886100eb918901610ada565b6101008801519099906001600160401b038111610ab1578961010e918a01610ada565b6101208901519099906001600160401b038111610ab15761014091610134918b01610ada565b980151600a80546001600160a01b031916909817909755600b558051906001600160401b038211610510575f5490600182811c92168015610aa7575b60208310146104f25781601f849311610a32575b50602090601f83116001146109cf575f926109c4575b50508160011b915f199060031b1c1916175f555b8051906001600160401b0382116105105760015490600182811c921680156109ba575b60208310146104f25781601f849311610944575b50602090601f83116001146108de575f926108d3575b50508160011b915f199060031b1c1916176001555b8051906001600160401b0382116105105760025490600182811c921680156108c9575b60208310146104f25781601f849311610853575b50602090601f83116001146107ed575f926107e2575b50508160011b915f199060031b1c1916176002555b6007558051906001600160401b0382116105105760035490600182811c921680156107d8575b60208310146104f25781601f849311610762575b50602090601f83116001146106fc575f926106f1575b50508160011b915f199060031b1c1916176003555b83516001600160401b03811161051057600454600181811c911680156106e7575b60208210146104f257601f8111610679575b50602094601f8211600114610616579481929394955f9261060b575b50508160011b915f199060031b1c1916176004555b82516001600160401b03811161051057600554600181811c91168015610601575b60208210146104f257601f8111610592575b506020601f821160011461052f57819293945f92610524575b50508160011b915f199060031b1c1916176005555b81516001600160401b03811161051057600654600181811c91168015610506575b60208210146104f257601f8111610484575b50602092601f821160011461042357928192935f92610418575b50508160011b915f199060031b1c1916176006555b60085542600e555f600f556040516113df9081610b2c8239f35b015190505f806103e9565b601f1982169360065f52805f20915f5b86811061046c5750836001959610610454575b505050811b016006556103fe565b01515f1960f88460031b161c191690555f8080610446565b91926020600181928685015181550194019201610433565b818111156103cf5760065f52601f820160051c7ff652222313e28459528d920b65115c16c04f3efc82aaedc97be59f3f377c0d3f602084106104ea575b81601f9101920160051c03905f5b8281106104dd5750506103cf565b5f828201556001016104cf565b5f91506104c1565b634e487b7160e01b5f52602260045260245ffd5b90607f16906103bd565b634e487b7160e01b5f52604160045260245ffd5b015190505f80610387565b601f1982169060055f52805f20915f5b81811061057a57509583600195969710610562575b505050811b0160055561039c565b01515f1960f88460031b161c191690555f8080610554565b9192602060018192868b01518155019401920161053f565b8181111561036e5760055f819052601f8301901c7f036b6384b5eca791c62761152d0c79bb0604c104a5fb6f4eb0703f3154bb3db0602084106105f9575b81601f9101920160051c03905f5b8281106105ec57505061036e565b5f828201556001016105de565b5f91506105d0565b90607f169061035c565b015190505f80610326565b601f1982169560045f52805f20915f5b88811061066157508360019596979810610649575b505050811b0160045561033b565b01515f1960f88460031b161c191690555f808061063b565b91926020600181928685015181550194019201610626565b8181111561030a5760045f52601f820160051c7f8a35acfbc15ff81a39ae7d344fd709f28e8600b4aa8c65c6b64bfe7fe36bd19b602084106106df575b81601f9101920160051c03905f5b8281106106d257505061030a565b5f828201556001016106c4565b5f91506106b6565b90607f16906102f8565b015190505f806102c2565b60035f9081528281209350601f198516905b81811061074a5750908460019594939210610732575b505050811b016003556102d7565b01515f1960f88460031b161c191690555f8080610724565b9293602060018192878601518155019501930161070e565b828111156102ac5760035f52909150601f830160051c7fc2575a0e9e593c00f959f8c92f12db2869c3395a3b0502d05e2516446f71f85b602085106107d0575b849392601f0160051c82900391015f5b8281106107c05750506102ac565b5f818301558594506001016107b2565b5f91506107a2565b91607f1691610298565b015190505f8061025d565b60025f9081528281209350601f198516905b81811061083b5750908460019594939210610823575b505050811b01600255610272565b01515f1960f88460031b161c191690555f8080610815565b929360206001819287860151815501950193016107ff565b828111156102475760025f52909150601f830160051c7f405787fa12a823e0f2b7631cc41b3ba8828b3321ca811111fa75cd3aa3bb5ace602085106108c1575b849392601f0160051c82900391015f5b8281106108b1575050610247565b5f818301558594506001016108a3565b5f9150610893565b91607f1691610233565b015190505f806101fb565b60015f9081528281209350601f198516905b81811061092c5750908460019594939210610914575b505050811b01600155610210565b01515f1960f88460031b161c191690555f8080610906565b929360206001819287860151815501950193016108f0565b828111156101e55760015f52909150601f830160051c7fb10e2d527612073b26eecdfd717e6a320cf44b4afac2b0732d9fcbe2b7fa0cf6602085106109b2575b849392601f0160051c82900391015f5b8281106109a25750506101e5565b5f81830155859450600101610994565b5f9150610984565b91607f16916101d1565b015190505f8061019a565b5f8080528281209350601f198516905b818110610a1a5750908460019594939210610a02575b505050811b015f556101ae565b01515f1960f88460031b161c191690555f80806109f5565b929360206001819287860151815501950193016109df565b82811115610184575f8052909150601f830160051c7f290decd9548b62a8d60345a988386fc84ba6bc95484008f6362f93160ef3e56360208510610a9f575b849392601f0160051c82900391015f5b828110610a8f575050610184565b5f81830155859450600101610a81565b5f9150610a71565b91607f1691610170565b5f80fd5b6040519190601f01601f191682016001600160401b0381118382101761051057604052565b81601f82011215610ab1578051906001600160401b03821161051057610b09601f8301601f1916602001610ab5565b9282845260208383010111610ab157815f9260208093018386015e830101529056fe60a06040526004361015610011575f80fd5b5f3560e01c80630344100614610cea5780630a14439114610ca95780631f6f90bd14610c8e57806329dcb0cf14610c715780633410452a14610c545780633433c7a2146107e657806340193883146107c95780634051ddac146105c0578063481c6a75146105985780634a79d50c1461057c57806363367f4d146105615780637284e4161461054657806381d12c58146104c357806382fde093146104a6578063937e09b114610489578063b4f735841461046c578063c58343ef146103ab578063cf09e0d01461038e578063d7bb99ba146102ef578063d7d1bbdb14610183578063dd5f4dc414610168578063e38240bd1461014d5763ef430aa614610116575f80fd5b34610149575f36600319011261014957610145610131610fa7565b604051918291602083526020830190611299565b0390f35b5f80fd5b34610149575f36600319011261014957610145610131611166565b34610149575f366003190112610149576101456101316110d1565b346101495760203660031901126101495761019f600435611313565b50335f52600c60205260ff60405f205416156102aa57600a546001600160a01b0316331461025957600481019060018060a01b0333165f528160205260ff60405f20541661021457335f9081526020929092526040909120805460ff1916600117905560030180546102109061139b565b9055005b60405162461bcd60e51b815260206004820152601d60248201527f416c726561647920766f746564206f6e207468697320726571756573740000006044820152606490fd5b60405162461bcd60e51b815260206004820152602360248201527f4d616e616765722063616e6e6f7420766f7465206f6e206f776e20726571756560448201526273747360e81b6064820152608490fd5b60405162461bcd60e51b815260206004820152601d60248201527f4d75737420636f6e7472696275746520666972737420746f20766f74650000006044820152606490fd5b5f36600319011261014957600b54341061034957335f52600c60205260ff60405f2054161561031f575b42600f55005b335f52600c60205260405f20600160ff19825416179055610341600d5461139b565b600d55610319565b60405162461bcd60e51b815260206004820152601a60248201527f42656c6f77206d696e696d756d20636f6e747269627574696f6e0000000000006044820152606490fd5b34610149575f366003190112610149576020600e54604051908152f35b34610149576020366003190112610149576104236103ca600435611313565b5060018101549061046260028201546104546003840154946007850154946103f1816111fb565b9660ff61040c6006610405600586016111fb565b94016111fb565b956040519a8b9a6101008c526101008c0190611299565b9460208b015260018060a01b03811660408b015260a01c1615156060890152608088015286820360a0880152611299565b9084820360c0860152611299565b9060e08301520390f35b34610149575f366003190112610149576020600f54604051908152f35b34610149575f366003190112610149576020600b54604051908152f35b34610149575f366003190112610149576020600d54604051908152f35b3461014957602036600319011261014957600435600954811015610149576104ed61042391611313565b506104f7816111fb565b90610462600182015491610454600282015493600383015461051b600585016111fb565b9060ff600761052c600688016111fb565b960154976040519a8b9a6101008c526101008c0190611299565b34610149575f36600319011261014957610145610131610f12565b34610149575f3660031901126101495761014561013161103c565b34610149575f366003190112610149576101456101315f6111fb565b34610149575f36600319011261014957600a546040516001600160a01b039091168152602090f35b34610149575f36600319011261014957600754600854600b5447600d546009549060018060a01b03600a541692600e5494600f54966040515f5f5461060481610e01565b80845290600181169081156107a55750600114610749575b509061062d816106f7930382610e39565b6106e5610638610f12565b6106d3610643610fa7565b6106c261064e61103c565b6106b0610659610e5b565b9361069e6106656110d1565b9761068c610671611166565b9b604051608052610200608051526102006080510190611299565b90608051820360206080510152611299565b90608051820360406080510152611299565b90608051820360606080510152611299565b906080518203608080510152611299565b90608051820360a06080510152611299565b90608051820360c06080510152611299565b9860e06080510152610100608051015261012060805101526101406080510152610160608051015261018060805101526101a060805101526101c060805101526101e060805101526080519003608051f35b5f8080527f290decd9548b62a8d60345a988386fc84ba6bc95484008f6362f93160ef3e563939250905b80821061078b5750909150810160200161062d61061c565b919260018160209254838588010152019101909291610773565b60ff191660208086019190915291151560051b8401909101915061062d905061061c565b34610149575f366003190112610149576020600754604051908152f35b346101495760a03660031901126101495760043567ffffffffffffffff8111610149576108179036906004016112bd565b6044356001600160a01b038116908190036101495760643567ffffffffffffffff81116101495761084c9036906004016112bd565b9160843567ffffffffffffffff81116101495761086d9036906004016112bd565b9161088360018060a01b03600a54163314611343565b60095468010000000000000000811015610aa85760018101806009556108a882611313565b50508111610c40576108b990611313565b509180519067ffffffffffffffff8211610aa85781906108d98554610e01565b601f8111610be7575b50602090601f8311600114610b84575f92610b79575b50508160011b915f199060031b1c19161782555b602435600183015560028201906affffffffffffffffffffff60a81b8254161790555f600382015560058101835167ffffffffffffffff8111610aa8576109538254610e01565b601f8111610b28575b50602094601f8211600114610ac7579481929394955f92610abc575b50508160011b915f199060031b1c19161790555b60068101825167ffffffffffffffff8111610aa8576109ab8254610e01565b601f8111610a57575b506020601f82116001146109f657819293945f926109eb575b50508160011b915f199060031b1c19161790555b6007429101555f80f35b0151905084806109cd565b601f19821690835f52805f20915f5b818110610a3f57509583600195969710610a27575b505050811b0190556109e1565b01515f1960f88460031b161c19169055848080610a1a565b9192602060018192868b015181550194019201610a05565b818111156109b457825f5260205f20601f830160051c9060208410610aa0575b81601f9101920160051c03905f5b828110610a935750506109b4565b5f82820155600101610a85565b5f9150610a77565b634e487b7160e01b5f52604160045260245ffd5b015190508580610978565b601f19821695835f52805f20915f5b888110610b1057508360019596979810610af8575b505050811b01905561098c565b01515f1960f88460031b161c19169055858080610aeb565b91926020600181928685015181550194019201610ad6565b8181111561095c57825f5260205f20601f830160051c9060208410610b71575b81601f9101920160051c03905f5b828110610b6457505061095c565b5f82820155600101610b56565b5f9150610b48565b0151905086806108f8565b5f8681528281209350601f198516905b818110610bcf5750908460019594939210610bb7575b505050811b01825561090c565b01515f1960f88460031b161c19169055868080610baa565b92936020600181928786015181550195019301610b94565b828111156108e257909150845f5260205f20601f840160051c9060208510610c38575b849392601f0160051c82900391015f5b828110610c285750506108e2565b5f81830155859450600101610c1a565b5f9150610c0a565b634e487b7160e01b5f52601160045260245ffd5b34610149575f366003190112610149576020600954604051908152f35b34610149575f366003190112610149576020600854604051908152f35b34610149575f36600319011261014957610145610131610e5b565b34610149576020366003190112610149576004356001600160a01b03811690819003610149575f52600c602052602060ff60405f2054166040519015158152f35b3461014957602036600319011261014957610d1060018060a01b03600a54163314611343565b610d1b600435611313565b506003810154600d5460011c1015610dc557600281019081549060ff8260a01c16610d8c575f8080936001829401549082908215610d82575b6001600160a01b031690f115610d7757805460ff60a01b1916600160a01b179055005b6040513d5f823e3d90fd5b6108fc9150610d54565b60405162461bcd60e51b8152602060048201526011602482015270105b1c9958591e4818dbdb5c1b195d1959607a1b6044820152606490fd5b60405162461bcd60e51b81526020600482015260146024820152734e6f7420656e6f75676820617070726f76616c7360601b6044820152606490fd5b90600182811c92168015610e2f575b6020831014610e1b57565b634e487b7160e01b5f52602260045260245ffd5b91607f1691610e10565b90601f8019910116810190811067ffffffffffffffff821117610aa857604052565b604051905f8260045491610e6e83610e01565b8083529260018116908115610ef35750600114610e94575b610e9292500383610e39565b565b5060045f90815290917f8a35acfbc15ff81a39ae7d344fd709f28e8600b4aa8c65c6b64bfe7fe36bd19b5b818310610ed7575050906020610e9292820101610e86565b6020919350806001915483858901015201910190918492610ebf565b60209250610e9294915060ff191682840152151560051b820101610e86565b604051905f8260015491610f2583610e01565b8083529260018116908115610ef35750600114610f4857610e9292500383610e39565b5060015f90815290917fb10e2d527612073b26eecdfd717e6a320cf44b4afac2b0732d9fcbe2b7fa0cf65b818310610f8b575050906020610e9292820101610e86565b6020919350806001915483858901015201910190918492610f73565b604051905f8260025491610fba83610e01565b8083529260018116908115610ef35750600114610fdd57610e9292500383610e39565b5060025f90815290917f405787fa12a823e0f2b7631cc41b3ba8828b3321ca811111fa75cd3aa3bb5ace5b818310611020575050906020610e9292820101610e86565b6020919350806001915483858901015201910190918492611008565b604051905f826003549161104f83610e01565b8083529260018116908115610ef3575060011461107257610e9292500383610e39565b5060035f90815290917fc2575a0e9e593c00f959f8c92f12db2869c3395a3b0502d05e2516446f71f85b5b8183106110b5575050906020610e9292820101610e86565b602091935080600191548385890101520191019091849261109d565b604051905f82600554916110e483610e01565b8083529260018116908115610ef3575060011461110757610e9292500383610e39565b5060055f90815290917f036b6384b5eca791c62761152d0c79bb0604c104a5fb6f4eb0703f3154bb3db05b81831061114a575050906020610e9292820101610e86565b6020919350806001915483858901015201910190918492611132565b604051905f826006549161117983610e01565b8083529260018116908115610ef3575060011461119c57610e9292500383610e39565b5060065f90815290917ff652222313e28459528d920b65115c16c04f3efc82aaedc97be59f3f377c0d3f5b8183106111df575050906020610e9292820101610e86565b60209193508060019154838589010152019101909184926111c7565b9060405191825f82549261120e84610e01565b80845293600181169081156112775750600114611233575b50610e9292500383610e39565b90505f9291925260205f20905f915b81831061125b575050906020610e92928201015f611226565b6020919350806001915483858901015201910190918492611242565b905060209250610e9294915060ff191682840152151560051b8201015f611226565b805180835260209291819084018484015e5f828201840152601f01601f1916010190565b81601f820112156101495780359067ffffffffffffffff8211610aa857604051926112f2601f8401601f191660200185610e39565b8284526020838301011161014957815f926020809301838601378301015290565b60095481101561132f5760095f5260205f209060031b01905f90565b634e487b7160e01b5f52603260045260245ffd5b1561134a57565b60405162461bcd60e51b8152602060048201526024808201527f4f6e6c79206d616e616765722063616e20706572666f726d20746869732061636044820152633a34b7b760e11b6064820152608490fd5b5f198114610c40576001019056fea26469706673582212208f8c10d01eeddc8266b830869d799ba62da74d9fe28a77bffee142d4b62a04d664736f6c63430008220033a2646970667358221220a115bd26307810d716d72c7281d2474bc6f91daf62d1d5b49ef535a7168598a764736f6c63430008220033","opcodes":"PUSH1 0x80 DUP1 PUSH1 0x40 MSTORE CALLVALUE PUSH1 0x15 JUMPI PUSH2 0x2379 SWAP1 DUP2 PUSH2 0x1A DUP3 CODECOPY RETURN JUMPDEST PUSH0 DUP1 REVERT INVALID PUSH1 0x80 PUSH1 0x40 MSTORE PUSH1 0x4 CALLDATASIZE LT ISZERO PUSH2 0x11 JUMPI PUSH0 DUP1 REVERT JUMPDEST PUSH0 CALLDATALOAD PUSH1 0xE0 SHR DUP1 PUSH4 0x1CDF942C EQ PUSH2 0x145 JUMPI DUP1 PUSH4 0x339D50A5 EQ PUSH2 0x104 JUMPI PUSH4 0x4ACB9D4F EQ PUSH2 0x3A JUMPI PUSH0 DUP1 REVERT JUMPDEST CALLVALUE PUSH2 0x100 JUMPI PUSH0 CALLDATASIZE PUSH1 0x3 NOT ADD SLT PUSH2 0x100 JUMPI PUSH1 0x40 MLOAD DUP1 PUSH1 0x20 PUSH0 SLOAD SWAP3 DUP4 DUP2 MSTORE ADD DUP1 SWAP3 PUSH0 DUP1 MSTORE PUSH32 0x290DECD9548B62A8D60345A988386FC84BA6BC95484008F6362F93160EF3E563 SWAP1 PUSH0 JUMPDEST DUP2 DUP2 LT PUSH2 0xE1 JUMPI POP POP POP DUP2 PUSH2 0x96 SWAP2 SUB DUP3 PUSH2 0x372 JUMP JUMPDEST PUSH1 0x40 MLOAD SWAP2 DUP3 SWAP2 PUSH1 0x20 DUP4 ADD SWAP1 PUSH1 0x20 DUP5 MSTORE MLOAD DUP1 SWAP2 MSTORE PUSH1 0x40 DUP4 ADD SWAP2 SWAP1 PUSH0 JUMPDEST DUP2 DUP2 LT PUSH2 0xBF JUMPI POP POP POP SUB SWAP1 RETURN JUMPDEST DUP3 MLOAD PUSH1 0x1 PUSH1 0x1 PUSH1 0xA0 SHL SUB AND DUP5 MSTORE DUP6 SWAP5 POP PUSH1 0x20 SWAP4 DUP5 ADD SWAP4 SWAP1 SWAP3 ADD SWAP2 PUSH1 0x1 ADD PUSH2 0xB1 JUMP JUMPDEST DUP3 SLOAD PUSH1 0x1 PUSH1 0x1 PUSH1 0xA0 SHL SUB AND DUP5 MSTORE PUSH1 0x20 SWAP1 SWAP4 ADD SWAP3 PUSH1 0x1 SWAP3 DUP4 ADD SWAP3 ADD PUSH2 0x80 JUMP JUMPDEST PUSH0 DUP1 REVERT JUMPDEST CALLVALUE PUSH2 0x100 JUMPI PUSH1 0x20 CALLDATASIZE PUSH1 0x3 NOT ADD SLT PUSH2 0x100 JUMPI PUSH1 0x4 CALLDATALOAD PUSH0 SLOAD DUP2 LT ISZERO PUSH2 0x100 JUMPI PUSH2 0x12C PUSH1 0x20 SWAP2 PUSH2 0x3EA JUMP JUMPDEST SWAP1 SLOAD PUSH1 0x40 MLOAD PUSH1 0x3 SWAP3 SWAP1 SWAP3 SHL SHR PUSH1 0x1 PUSH1 0x1 PUSH1 0xA0 SHL SUB AND DUP2 MSTORE RETURN JUMPDEST CALLVALUE PUSH2 0x100 JUMPI PUSH2 0x140 CALLDATASIZE PUSH1 0x3 NOT ADD SLT PUSH2 0x100 JUMPI PUSH1 0x24 CALLDATALOAD PUSH8 0xFFFFFFFFFFFFFFFF DUP2 GT PUSH2 0x100 JUMPI PUSH2 0x177 SWAP1 CALLDATASIZE SWAP1 PUSH1 0x4 ADD PUSH2 0x394 JUMP JUMPDEST PUSH1 0x44 CALLDATALOAD PUSH8 0xFFFFFFFFFFFFFFFF DUP2 GT PUSH2 0x100 JUMPI PUSH2 0x197 SWAP1 CALLDATASIZE SWAP1 PUSH1 0x4 ADD PUSH2 0x394 JUMP JUMPDEST PUSH1 0x64 CALLDATALOAD PUSH8 0xFFFFFFFFFFFFFFFF DUP2 GT PUSH2 0x100 JUMPI PUSH2 0x1B7 SWAP1 CALLDATASIZE SWAP1 PUSH1 0x4 ADD PUSH2 0x394 JUMP JUMPDEST SWAP1 PUSH1 0xA4 CALLDATALOAD PUSH8 0xFFFFFFFFFFFFFFFF DUP2 GT PUSH2 0x100 JUMPI PUSH2 0x1D8 SWAP1 CALLDATASIZE SWAP1 PUSH1 0x4 ADD PUSH2 0x394 JUMP JUMPDEST SWAP2 PUSH1 0xC4 CALLDATALOAD PUSH8 0xFFFFFFFFFFFFFFFF DUP2 GT PUSH2 0x100 JUMPI PUSH2 0x1F9 SWAP1 CALLDATASIZE SWAP1 PUSH1 0x4 ADD PUSH2 0x394 JUMP JUMPDEST SWAP1 PUSH1 0xE4 CALLDATALOAD PUSH8 0xFFFFFFFFFFFFFFFF DUP2 GT PUSH2 0x100 JUMPI PUSH2 0x21A SWAP1 CALLDATASIZE SWAP1 PUSH1 0x4 ADD PUSH2 0x394 JUMP JUMPDEST SWAP1 PUSH2 0x104 CALLDATALOAD PUSH8 0xFFFFFFFFFFFFFFFF DUP2 GT PUSH2 0x100 JUMPI PUSH2 0x23C SWAP1 CALLDATASIZE SWAP1 PUSH1 0x4 ADD PUSH2 0x394 JUMP JUMPDEST SWAP2 PUSH1 0x40 MLOAD SWAP7 PUSH2 0x1F0B SWAP5 DUP6 DUP10 ADD SWAP7 DUP10 DUP9 LT PUSH8 0xFFFFFFFFFFFFFFFF DUP10 GT OR PUSH2 0x353 JUMPI DUP10 SWAP9 PUSH2 0x2B6 PUSH2 0x2E9 SWAP7 PUSH2 0x2A8 PUSH2 0x2CC SWAP5 PUSH2 0x29A PUSH2 0x2DA SWAP9 DUP16 DUP16 PUSH2 0x2F8 SWAP16 PUSH2 0x160 SWAP3 PUSH2 0x439 SWAP1 CODECOPY PUSH1 0x4 CALLDATALOAD DUP2 MSTORE CALLER PUSH1 0x20 DUP3 ADD MSTORE DUP2 PUSH1 0x40 DUP3 ADD MSTORE ADD SWAP1 PUSH2 0x414 JUMP JUMPDEST DUP14 DUP2 SUB PUSH1 0x60 DUP16 ADD MSTORE SWAP1 PUSH2 0x414 JUMP JUMPDEST SWAP1 DUP12 DUP3 SUB PUSH1 0x80 DUP14 ADD MSTORE PUSH2 0x414 JUMP JUMPDEST SWAP1 PUSH1 0x84 CALLDATALOAD PUSH1 0xA0 DUP12 ADD MSTORE DUP10 DUP3 SUB PUSH1 0xC0 DUP12 ADD MSTORE PUSH2 0x414 JUMP JUMPDEST SWAP1 DUP8 DUP3 SUB PUSH1 0xE0 DUP10 ADD MSTORE PUSH2 0x414 JUMP JUMPDEST SWAP1 DUP6 DUP3 SUB PUSH2 0x100 DUP8 ADD MSTORE PUSH2 0x414 JUMP JUMPDEST SWAP1 DUP4 DUP3 SUB PUSH2 0x120 DUP6 ADD MSTORE PUSH2 0x414 JUMP JUMPDEST SWAP1 PUSH2 0x140 PUSH2 0x124 CALLDATALOAD SWAP2 ADD MSTORE SUB SWAP1 PUSH0 CREATE DUP1 ISZERO PUSH2 0x367 JUMPI PUSH0 SLOAD PUSH9 0x10000000000000000 DUP2 LT ISZERO PUSH2 0x353 JUMPI DUP1 PUSH1 0x1 PUSH2 0x32F SWAP3 ADD PUSH0 SSTORE PUSH2 0x3EA JUMP JUMPDEST DUP2 SLOAD PUSH1 0x1 PUSH1 0x1 PUSH1 0xA0 SHL SUB SWAP4 DUP5 AND PUSH1 0x3 SWAP3 SWAP1 SWAP3 SHL SWAP2 DUP3 SHL SWAP4 SWAP1 SWAP2 SHL NOT AND SWAP2 SWAP1 SWAP2 OR SWAP1 SSTORE STOP JUMPDEST PUSH4 0x4E487B71 PUSH1 0xE0 SHL PUSH0 MSTORE PUSH1 0x41 PUSH1 0x4 MSTORE PUSH1 0x24 PUSH0 REVERT JUMPDEST PUSH1 0x40 MLOAD RETURNDATASIZE PUSH0 DUP3 RETURNDATACOPY RETURNDATASIZE SWAP1 REVERT JUMPDEST SWAP1 PUSH1 0x1F DUP1 NOT SWAP2 ADD AND DUP2 ADD SWAP1 DUP2 LT PUSH8 0xFFFFFFFFFFFFFFFF DUP3 GT OR PUSH2 0x353 JUMPI PUSH1 0x40 MSTORE JUMP JUMPDEST DUP2 PUSH1 0x1F DUP3 ADD SLT ISZERO PUSH2 0x100 JUMPI DUP1 CALLDATALOAD SWAP1 PUSH8 0xFFFFFFFFFFFFFFFF DUP3 GT PUSH2 0x353 JUMPI PUSH1 0x40 MLOAD SWAP3 PUSH2 0x3C9 PUSH1 0x1F DUP5 ADD PUSH1 0x1F NOT AND PUSH1 0x20 ADD DUP6 PUSH2 0x372 JUMP JUMPDEST DUP3 DUP5 MSTORE PUSH1 0x20 DUP4 DUP4 ADD ADD GT PUSH2 0x100 JUMPI DUP2 PUSH0 SWAP3 PUSH1 0x20 DUP1 SWAP4 ADD DUP4 DUP7 ADD CALLDATACOPY DUP4 ADD ADD MSTORE SWAP1 JUMP JUMPDEST PUSH0 SLOAD DUP2 LT ISZERO PUSH2 0x400 JUMPI PUSH0 DUP1 MSTORE PUSH1 0x20 PUSH0 KECCAK256 ADD SWAP1 PUSH0 SWAP1 JUMP JUMPDEST PUSH4 0x4E487B71 PUSH1 0xE0 SHL PUSH0 MSTORE PUSH1 0x32 PUSH1 0x4 MSTORE PUSH1 0x24 PUSH0 REVERT JUMPDEST DUP1 MLOAD DUP1 DUP4 MSTORE PUSH1 0x20 SWAP3 SWAP2 DUP2 SWAP1 DUP5 ADD DUP5 DUP5 ADD MCOPY PUSH0 DUP3 DUP3 ADD DUP5 ADD MSTORE PUSH1 0x1F ADD PUSH1 0x1F NOT AND ADD ADD SWAP1 JUMP INVALID PUSH1 0x80 PUSH1 0x40 MSTORE CALLVALUE PUSH2 0xAB1 JUMPI PUSH2 0x1F0B DUP1 CODESIZE SUB DUP1 PUSH2 0x19 DUP2 PUSH2 0xAB5 JUMP JUMPDEST SWAP3 DUP4 CODECOPY DUP2 ADD PUSH2 0x160 DUP3 DUP3 SUB SLT PUSH2 0xAB1 JUMPI DUP2 MLOAD PUSH1 0x20 DUP4 ADD MLOAD SWAP1 SWAP3 SWAP1 PUSH1 0x1 PUSH1 0x1 PUSH1 0xA0 SHL SUB DUP2 AND SWAP1 DUP2 SWAP1 SUB PUSH2 0xAB1 JUMPI PUSH1 0x40 DUP3 ADD MLOAD PUSH1 0x1 PUSH1 0x1 PUSH1 0x40 SHL SUB DUP2 GT PUSH2 0xAB1 JUMPI DUP4 PUSH2 0x64 SWAP2 DUP5 ADD PUSH2 0xADA JUMP JUMPDEST PUSH1 0x60 DUP4 ADD MLOAD PUSH1 0x1 PUSH1 0x1 PUSH1 0x40 SHL SUB DUP2 GT PUSH2 0xAB1 JUMPI DUP5 PUSH2 0x83 SWAP2 DUP6 ADD PUSH2 0xADA JUMP JUMPDEST PUSH1 0x80 DUP5 ADD MLOAD PUSH1 0x1 PUSH1 0x1 PUSH1 0x40 SHL SUB DUP2 GT PUSH2 0xAB1 JUMPI DUP6 PUSH2 0xA2 SWAP2 DUP7 ADD PUSH2 0xADA JUMP JUMPDEST PUSH1 0xA0 DUP6 ADD MLOAD PUSH1 0xC0 DUP7 ADD MLOAD SWAP1 SWAP3 SWAP1 PUSH1 0x1 PUSH1 0x1 PUSH1 0x40 SHL SUB DUP2 GT PUSH2 0xAB1 JUMPI DUP8 PUSH2 0xC9 SWAP2 DUP9 ADD PUSH2 0xADA JUMP JUMPDEST PUSH1 0xE0 DUP8 ADD MLOAD SWAP1 SWAP5 SWAP1 PUSH1 0x1 PUSH1 0x1 PUSH1 0x40 SHL SUB DUP2 GT PUSH2 0xAB1 JUMPI DUP9 PUSH2 0xEB SWAP2 DUP10 ADD PUSH2 0xADA JUMP JUMPDEST PUSH2 0x100 DUP9 ADD MLOAD SWAP1 SWAP10 SWAP1 PUSH1 0x1 PUSH1 0x1 PUSH1 0x40 SHL SUB DUP2 GT PUSH2 0xAB1 JUMPI DUP10 PUSH2 0x10E SWAP2 DUP11 ADD PUSH2 0xADA JUMP JUMPDEST PUSH2 0x120 DUP10 ADD MLOAD SWAP1 SWAP10 SWAP1 PUSH1 0x1 PUSH1 0x1 PUSH1 0x40 SHL SUB DUP2 GT PUSH2 0xAB1 JUMPI PUSH2 0x140 SWAP2 PUSH2 0x134 SWAP2 DUP12 ADD PUSH2 0xADA JUMP JUMPDEST SWAP9 ADD MLOAD PUSH1 0xA DUP1 SLOAD PUSH1 0x1 PUSH1 0x1 PUSH1 0xA0 SHL SUB NOT AND SWAP1 SWAP9 OR SWAP1 SWAP8 SSTORE PUSH1 0xB SSTORE DUP1 MLOAD SWAP1 PUSH1 0x1 PUSH1 0x1 PUSH1 0x40 SHL SUB DUP3 GT PUSH2 0x510 JUMPI PUSH0 SLOAD SWAP1 PUSH1 0x1 DUP3 DUP2 SHR SWAP3 AND DUP1 ISZERO PUSH2 0xAA7 JUMPI JUMPDEST PUSH1 0x20 DUP4 LT EQ PUSH2 0x4F2 JUMPI DUP2 PUSH1 0x1F DUP5 SWAP4 GT PUSH2 0xA32 JUMPI JUMPDEST POP PUSH1 0x20 SWAP1 PUSH1 0x1F DUP4 GT PUSH1 0x1 EQ PUSH2 0x9CF JUMPI PUSH0 SWAP3 PUSH2 0x9C4 JUMPI JUMPDEST POP POP DUP2 PUSH1 0x1 SHL SWAP2 PUSH0 NOT SWAP1 PUSH1 0x3 SHL SHR NOT AND OR PUSH0 SSTORE JUMPDEST DUP1 MLOAD SWAP1 PUSH1 0x1 PUSH1 0x1 PUSH1 0x40 SHL SUB DUP3 GT PUSH2 0x510 JUMPI PUSH1 0x1 SLOAD SWAP1 PUSH1 0x1 DUP3 DUP2 SHR SWAP3 AND DUP1 ISZERO PUSH2 0x9BA JUMPI JUMPDEST PUSH1 0x20 DUP4 LT EQ PUSH2 0x4F2 JUMPI DUP2 PUSH1 0x1F DUP5 SWAP4 GT PUSH2 0x944 JUMPI JUMPDEST POP PUSH1 0x20 SWAP1 PUSH1 0x1F DUP4 GT PUSH1 0x1 EQ PUSH2 0x8DE JUMPI PUSH0 SWAP3 PUSH2 0x8D3 JUMPI JUMPDEST POP POP DUP2 PUSH1 0x1 SHL SWAP2 PUSH0 NOT SWAP1 PUSH1 0x3 SHL SHR NOT AND OR PUSH1 0x1 SSTORE JUMPDEST DUP1 MLOAD SWAP1 PUSH1 0x1 PUSH1 0x1 PUSH1 0x40 SHL SUB DUP3 GT PUSH2 0x510 JUMPI PUSH1 0x2 SLOAD SWAP1 PUSH1 0x1 DUP3 DUP2 SHR SWAP3 AND DUP1 ISZERO PUSH2 0x8C9 JUMPI JUMPDEST PUSH1 0x20 DUP4 LT EQ PUSH2 0x4F2 JUMPI DUP2 PUSH1 0x1F DUP5 SWAP4 GT PUSH2 0x853 JUMPI JUMPDEST POP PUSH1 0x20 SWAP1 PUSH1 0x1F DUP4 GT PUSH1 0x1 EQ PUSH2 0x7ED JUMPI PUSH0 SWAP3 PUSH2 0x7E2 JUMPI JUMPDEST POP POP DUP2 PUSH1 0x1 SHL SWAP2 PUSH0 NOT SWAP1 PUSH1 0x3 SHL SHR NOT AND OR PUSH1 0x2 SSTORE JUMPDEST PUSH1 0x7 SSTORE DUP1 MLOAD SWAP1 PUSH1 0x1 PUSH1 0x1 PUSH1 0x40 SHL SUB DUP3 GT PUSH2 0x510 JUMPI PUSH1 0x3 SLOAD SWAP1 PUSH1 0x1 DUP3 DUP2 SHR SWAP3 AND DUP1 ISZERO PUSH2 0x7D8 JUMPI JUMPDEST PUSH1 0x20 DUP4 LT EQ PUSH2 0x4F2 JUMPI DUP2 PUSH1 0x1F DUP5 SWAP4 GT PUSH2 0x762 JUMPI JUMPDEST POP PUSH1 0x20 SWAP1 PUSH1 0x1F DUP4 GT PUSH1 0x1 EQ PUSH2 0x6FC JUMPI PUSH0 SWAP3 PUSH2 0x6F1 JUMPI JUMPDEST POP POP DUP2 PUSH1 0x1 SHL SWAP2 PUSH0 NOT SWAP1 PUSH1 0x3 SHL SHR NOT AND OR PUSH1 0x3 SSTORE JUMPDEST DUP4 MLOAD PUSH1 0x1 PUSH1 0x1 PUSH1 0x40 SHL SUB DUP2 GT PUSH2 0x510 JUMPI PUSH1 0x4 SLOAD PUSH1 0x1 DUP2 DUP2 SHR SWAP2 AND DUP1 ISZERO PUSH2 0x6E7 JUMPI JUMPDEST PUSH1 0x20 DUP3 LT EQ PUSH2 0x4F2 JUMPI PUSH1 0x1F DUP2 GT PUSH2 0x679 JUMPI JUMPDEST POP PUSH1 0x20 SWAP5 PUSH1 0x1F DUP3 GT PUSH1 0x1 EQ PUSH2 0x616 JUMPI SWAP5 DUP2 SWAP3 SWAP4 SWAP5 SWAP6 PUSH0 SWAP3 PUSH2 0x60B JUMPI JUMPDEST POP POP DUP2 PUSH1 0x1 SHL SWAP2 PUSH0 NOT SWAP1 PUSH1 0x3 SHL SHR NOT AND OR PUSH1 0x4 SSTORE JUMPDEST DUP3 MLOAD PUSH1 0x1 PUSH1 0x1 PUSH1 0x40 SHL SUB DUP2 GT PUSH2 0x510 JUMPI PUSH1 0x5 SLOAD PUSH1 0x1 DUP2 DUP2 SHR SWAP2 AND DUP1 ISZERO PUSH2 0x601 JUMPI JUMPDEST PUSH1 0x20 DUP3 LT EQ PUSH2 0x4F2 JUMPI PUSH1 0x1F DUP2 GT PUSH2 0x592 JUMPI JUMPDEST POP PUSH1 0x20 PUSH1 0x1F DUP3 GT PUSH1 0x1 EQ PUSH2 0x52F JUMPI DUP2 SWAP3 SWAP4 SWAP5 PUSH0 SWAP3 PUSH2 0x524 JUMPI JUMPDEST POP POP DUP2 PUSH1 0x1 SHL SWAP2 PUSH0 NOT SWAP1 PUSH1 0x3 SHL SHR NOT AND OR PUSH1 0x5 SSTORE JUMPDEST DUP2 MLOAD PUSH1 0x1 PUSH1 0x1 PUSH1 0x40 SHL SUB DUP2 GT PUSH2 0x510 JUMPI PUSH1 0x6 SLOAD PUSH1 0x1 DUP2 DUP2 SHR SWAP2 AND DUP1 ISZERO PUSH2 0x506 JUMPI JUMPDEST PUSH1 0x20 DUP3 LT EQ PUSH2 0x4F2 JUMPI PUSH1 0x1F DUP2 GT PUSH2 0x484 JUMPI JUMPDEST POP PUSH1 0x20 SWAP3 PUSH1 0x1F DUP3 GT PUSH1 0x1 EQ PUSH2 0x423 JUMPI SWAP3 DUP2 SWAP3 SWAP4 PUSH0 SWAP3 PUSH2 0x418 JUMPI JUMPDEST POP POP DUP2 PUSH1 0x1 SHL SWAP2 PUSH0 NOT SWAP1 PUSH1 0x3 SHL SHR NOT AND OR PUSH1 0x6 SSTORE JUMPDEST PUSH1 0x8 SSTORE TIMESTAMP PUSH1 0xE SSTORE PUSH0 PUSH1 0xF SSTORE PUSH1 0x40 MLOAD PUSH2 0x13DF SWAP1 DUP2 PUSH2 0xB2C DUP3 CODECOPY RETURN JUMPDEST ADD MLOAD SWAP1 POP PUSH0 DUP1 PUSH2 0x3E9 JUMP JUMPDEST PUSH1 0x1F NOT DUP3 AND SWAP4 PUSH1 0x6 PUSH0 MSTORE DUP1 PUSH0 KECCAK256 SWAP2 PUSH0 JUMPDEST DUP7 DUP2 LT PUSH2 0x46C JUMPI POP DUP4 PUSH1 0x1 SWAP6 SWAP7 LT PUSH2 0x454 JUMPI JUMPDEST POP POP POP DUP2 SHL ADD PUSH1 0x6 SSTORE PUSH2 0x3FE JUMP JUMPDEST ADD MLOAD PUSH0 NOT PUSH1 0xF8 DUP5 PUSH1 0x3 SHL AND SHR NOT AND SWAP1 SSTORE PUSH0 DUP1 DUP1 PUSH2 0x446 JUMP JUMPDEST SWAP2 SWAP3 PUSH1 0x20 PUSH1 0x1 DUP2 SWAP3 DUP7 DUP6 ADD MLOAD DUP2 SSTORE ADD SWAP5 ADD SWAP3 ADD PUSH2 0x433 JUMP JUMPDEST DUP2 DUP2 GT ISZERO PUSH2 0x3CF JUMPI PUSH1 0x6 PUSH0 MSTORE PUSH1 0x1F DUP3 ADD PUSH1 0x5 SHR PUSH32 0xF652222313E28459528D920B65115C16C04F3EFC82AAEDC97BE59F3F377C0D3F PUSH1 0x20 DUP5 LT PUSH2 0x4EA JUMPI JUMPDEST DUP2 PUSH1 0x1F SWAP2 ADD SWAP3 ADD PUSH1 0x5 SHR SUB SWAP1 PUSH0 JUMPDEST DUP3 DUP2 LT PUSH2 0x4DD JUMPI POP POP PUSH2 0x3CF JUMP JUMPDEST PUSH0 DUP3 DUP3 ADD SSTORE PUSH1 0x1 ADD PUSH2 0x4CF JUMP JUMPDEST PUSH0 SWAP2 POP PUSH2 0x4C1 JUMP JUMPDEST PUSH4 0x4E487B71 PUSH1 0xE0 SHL PUSH0 MSTORE PUSH1 0x22 PUSH1 0x4 MSTORE PUSH1 0x24 PUSH0 REVERT JUMPDEST SWAP1 PUSH1 0x7F AND SWAP1 PUSH2 0x3BD JUMP JUMPDEST PUSH4 0x4E487B71 PUSH1 0xE0 SHL PUSH0 MSTORE PUSH1 0x41 PUSH1 0x4 MSTORE PUSH1 0x24 PUSH0 REVERT JUMPDEST ADD MLOAD SWAP1 POP PUSH0 DUP1 PUSH2 0x387 JUMP JUMPDEST PUSH1 0x1F NOT DUP3 AND SWAP1 PUSH1 0x5 PUSH0 MSTORE DUP1 PUSH0 KECCAK256 SWAP2 PUSH0 JUMPDEST DUP2 DUP2 LT PUSH2 0x57A JUMPI POP SWAP6 DUP4 PUSH1 0x1 SWAP6 SWAP7 SWAP8 LT PUSH2 0x562 JUMPI JUMPDEST POP POP POP DUP2 SHL ADD PUSH1 0x5 SSTORE PUSH2 0x39C JUMP JUMPDEST ADD MLOAD PUSH0 NOT PUSH1 0xF8 DUP5 PUSH1 0x3 SHL AND SHR NOT AND SWAP1 SSTORE PUSH0 DUP1 DUP1 PUSH2 0x554 JUMP JUMPDEST SWAP2 SWAP3 PUSH1 0x20 PUSH1 0x1 DUP2 SWAP3 DUP7 DUP12 ADD MLOAD DUP2 SSTORE ADD SWAP5 ADD SWAP3 ADD PUSH2 0x53F JUMP JUMPDEST DUP2 DUP2 GT ISZERO PUSH2 0x36E JUMPI PUSH1 0x5 PUSH0 DUP2 SWAP1 MSTORE PUSH1 0x1F DUP4 ADD SWAP1 SHR PUSH32 0x36B6384B5ECA791C62761152D0C79BB0604C104A5FB6F4EB0703F3154BB3DB0 PUSH1 0x20 DUP5 LT PUSH2 0x5F9 JUMPI JUMPDEST DUP2 PUSH1 0x1F SWAP2 ADD SWAP3 ADD PUSH1 0x5 SHR SUB SWAP1 PUSH0 JUMPDEST DUP3 DUP2 LT PUSH2 0x5EC JUMPI POP POP PUSH2 0x36E JUMP JUMPDEST PUSH0 DUP3 DUP3 ADD SSTORE PUSH1 0x1 ADD PUSH2 0x5DE JUMP JUMPDEST PUSH0 SWAP2 POP PUSH2 0x5D0 JUMP JUMPDEST SWAP1 PUSH1 0x7F AND SWAP1 PUSH2 0x35C JUMP JUMPDEST ADD MLOAD SWAP1 POP PUSH0 DUP1 PUSH2 0x326 JUMP JUMPDEST PUSH1 0x1F NOT DUP3 AND SWAP6 PUSH1 0x4 PUSH0 MSTORE DUP1 PUSH0 KECCAK256 SWAP2 PUSH0 JUMPDEST DUP9 DUP2 LT PUSH2 0x661 JUMPI POP DUP4 PUSH1 0x1 SWAP6 SWAP7 SWAP8 SWAP9 LT PUSH2 0x649 JUMPI JUMPDEST POP POP POP DUP2 SHL ADD PUSH1 0x4 SSTORE PUSH2 0x33B JUMP JUMPDEST ADD MLOAD PUSH0 NOT PUSH1 0xF8 DUP5 PUSH1 0x3 SHL AND SHR NOT AND SWAP1 SSTORE PUSH0 DUP1 DUP1 PUSH2 0x63B JUMP JUMPDEST SWAP2 SWAP3 PUSH1 0x20 PUSH1 0x1 DUP2 SWAP3 DUP7 DUP6 ADD MLOAD DUP2 SSTORE ADD SWAP5 ADD SWAP3 ADD PUSH2 0x626 JUMP JUMPDEST DUP2 DUP2 GT ISZERO PUSH2 0x30A JUMPI PUSH1 0x4 PUSH0 MSTORE PUSH1 0x1F DUP3 ADD PUSH1 0x5 SHR PUSH32 0x8A35ACFBC15FF81A39AE7D344FD709F28E8600B4AA8C65C6B64BFE7FE36BD19B PUSH1 0x20 DUP5 LT PUSH2 0x6DF JUMPI JUMPDEST DUP2 PUSH1 0x1F SWAP2 ADD SWAP3 ADD PUSH1 0x5 SHR SUB SWAP1 PUSH0 JUMPDEST DUP3 DUP2 LT PUSH2 0x6D2 JUMPI POP POP PUSH2 0x30A JUMP JUMPDEST PUSH0 DUP3 DUP3 ADD SSTORE PUSH1 0x1 ADD PUSH2 0x6C4 JUMP JUMPDEST PUSH0 SWAP2 POP PUSH2 0x6B6 JUMP JUMPDEST SWAP1 PUSH1 0x7F AND SWAP1 PUSH2 0x2F8 JUMP JUMPDEST ADD MLOAD SWAP1 POP PUSH0 DUP1 PUSH2 0x2C2 JUMP JUMPDEST PUSH1 0x3 PUSH0 SWAP1 DUP2 MSTORE DUP3 DUP2 KECCAK256 SWAP4 POP PUSH1 0x1F NOT DUP6 AND SWAP1 JUMPDEST DUP2 DUP2 LT PUSH2 0x74A JUMPI POP SWAP1 DUP5 PUSH1 0x1 SWAP6 SWAP5 SWAP4 SWAP3 LT PUSH2 0x732 JUMPI JUMPDEST POP POP POP DUP2 SHL ADD PUSH1 0x3 SSTORE PUSH2 0x2D7 JUMP JUMPDEST ADD MLOAD PUSH0 NOT PUSH1 0xF8 DUP5 PUSH1 0x3 SHL AND SHR NOT AND SWAP1 SSTORE PUSH0 DUP1 DUP1 PUSH2 0x724 JUMP JUMPDEST SWAP3 SWAP4 PUSH1 0x20 PUSH1 0x1 DUP2 SWAP3 DUP8 DUP7 ADD MLOAD DUP2 SSTORE ADD SWAP6 ADD SWAP4 ADD PUSH2 0x70E JUMP JUMPDEST DUP3 DUP2 GT ISZERO PUSH2 0x2AC JUMPI PUSH1 0x3 PUSH0 MSTORE SWAP1 SWAP2 POP PUSH1 0x1F DUP4 ADD PUSH1 0x5 SHR PUSH32 0xC2575A0E9E593C00F959F8C92F12DB2869C3395A3B0502D05E2516446F71F85B PUSH1 0x20 DUP6 LT PUSH2 0x7D0 JUMPI JUMPDEST DUP5 SWAP4 SWAP3 PUSH1 0x1F ADD PUSH1 0x5 SHR DUP3 SWAP1 SUB SWAP2 ADD PUSH0 JUMPDEST DUP3 DUP2 LT PUSH2 0x7C0 JUMPI POP POP PUSH2 0x2AC JUMP JUMPDEST PUSH0 DUP2 DUP4 ADD SSTORE DUP6 SWAP5 POP PUSH1 0x1 ADD PUSH2 0x7B2 JUMP JUMPDEST PUSH0 SWAP2 POP PUSH2 0x7A2 JUMP JUMPDEST SWAP2 PUSH1 0x7F AND SWAP2 PUSH2 0x298 JUMP JUMPDEST ADD MLOAD SWAP1 POP PUSH0 DUP1 PUSH2 0x25D JUMP JUMPDEST PUSH1 0x2 PUSH0 SWAP1 DUP2 MSTORE DUP3 DUP2 KECCAK256 SWAP4 POP PUSH1 0x1F NOT DUP6 AND SWAP1 JUMPDEST DUP2 DUP2 LT PUSH2 0x83B JUMPI POP SWAP1 DUP5 PUSH1 0x1 SWAP6 SWAP5 SWAP4 SWAP3 LT PUSH2 0x823 JUMPI JUMPDEST POP POP POP DUP2 SHL ADD PUSH1 0x2 SSTORE PUSH2 0x272 JUMP JUMPDEST ADD MLOAD PUSH0 NOT PUSH1 0xF8 DUP5 PUSH1 0x3 SHL AND SHR NOT AND SWAP1 SSTORE PUSH0 DUP1 DUP1 PUSH2 0x815 JUMP JUMPDEST SWAP3 SWAP4 PUSH1 0x20 PUSH1 0x1 DUP2 SWAP3 DUP8 DUP7 ADD MLOAD DUP2 SSTORE ADD SWAP6 ADD SWAP4 ADD PUSH2 0x7FF JUMP JUMPDEST DUP3 DUP2 GT ISZERO PUSH2 0x247 JUMPI PUSH1 0x2 PUSH0 MSTORE SWAP1 SWAP2 POP PUSH1 0x1F DUP4 ADD PUSH1 0x5 SHR PUSH32 0x405787FA12A823E0F2B7631CC41B3BA8828B3321CA811111FA75CD3AA3BB5ACE PUSH1 0x20 DUP6 LT PUSH2 0x8C1 JUMPI JUMPDEST DUP5 SWAP4 SWAP3 PUSH1 0x1F ADD PUSH1 0x5 SHR DUP3 SWAP1 SUB SWAP2 ADD PUSH0 JUMPDEST DUP3 DUP2 LT PUSH2 0x8B1 JUMPI POP POP PUSH2 0x247 JUMP JUMPDEST PUSH0 DUP2 DUP4 ADD SSTORE DUP6 SWAP5 POP PUSH1 0x1 ADD PUSH2 0x8A3 JUMP JUMPDEST PUSH0 SWAP2 POP PUSH2 0x893 JUMP JUMPDEST SWAP2 PUSH1 0x7F AND SWAP2 PUSH2 0x233 JUMP JUMPDEST ADD MLOAD SWAP1 POP PUSH0 DUP1 PUSH2 0x1FB JUMP JUMPDEST PUSH1 0x1 PUSH0 SWAP1 DUP2 MSTORE DUP3 DUP2 KECCAK256 SWAP4 POP PUSH1 0x1F NOT DUP6 AND SWAP1 JUMPDEST DUP2 DUP2 LT PUSH2 0x92C JUMPI POP SWAP1 DUP5 PUSH1 0x1 SWAP6 SWAP5 SWAP4 SWAP3 LT PUSH2 0x914 JUMPI JUMPDEST POP POP POP DUP2 SHL ADD PUSH1 0x1 SSTORE PUSH2 0x210 JUMP JUMPDEST ADD MLOAD PUSH0 NOT PUSH1 0xF8 DUP5 PUSH1 0x3 SHL AND SHR NOT AND SWAP1 SSTORE PUSH0 DUP1 DUP1 PUSH2 0x906 JUMP JUMPDEST SWAP3 SWAP4 PUSH1 0x20 PUSH1 0x1 DUP2 SWAP3 DUP8 DUP7 ADD MLOAD DUP2 SSTORE ADD SWAP6 ADD SWAP4 ADD PUSH2 0x8F0 JUMP JUMPDEST DUP3 DUP2 GT ISZERO PUSH2 0x1E5 JUMPI PUSH1 0x1 PUSH0 MSTORE SWAP1 SWAP2 POP PUSH1 0x1F DUP4 ADD PUSH1 0x5 SHR PUSH32 0xB10E2D527612073B26EECDFD717E6A320CF44B4AFAC2B0732D9FCBE2B7FA0CF6 PUSH1 0x20 DUP6 LT PUSH2 0x9B2 JUMPI JUMPDEST DUP5 SWAP4 SWAP3 PUSH1 0x1F ADD PUSH1 0x5 SHR DUP3 SWAP1 SUB SWAP2 ADD PUSH0 JUMPDEST DUP3 DUP2 LT PUSH2 0x9A2 JUMPI POP POP PUSH2 0x1E5 JUMP JUMPDEST PUSH0 DUP2 DUP4 ADD SSTORE DUP6 SWAP5 POP PUSH1 0x1 ADD PUSH2 0x994 JUMP JUMPDEST PUSH0 SWAP2 POP PUSH2 0x984 JUMP JUMPDEST SWAP2 PUSH1 0x7F AND SWAP2 PUSH2 0x1D1 JUMP JUMPDEST ADD MLOAD SWAP1 POP PUSH0 DUP1 PUSH2 0x19A JUMP JUMPDEST PUSH0 DUP1 DUP1 MSTORE DUP3 DUP2 KECCAK256 SWAP4 POP PUSH1 0x1F NOT DUP6 AND SWAP1 JUMPDEST DUP2 DUP2 LT PUSH2 0xA1A JUMPI POP SWAP1 DUP5 PUSH1 0x1 SWAP6 SWAP5 SWAP4 SWAP3 LT PUSH2 0xA02 JUMPI JUMPDEST POP POP POP DUP2 SHL ADD PUSH0 SSTORE PUSH2 0x1AE JUMP JUMPDEST ADD MLOAD PUSH0 NOT PUSH1 0xF8 DUP5 PUSH1 0x3 SHL AND SHR NOT AND SWAP1 SSTORE PUSH0 DUP1 DUP1 PUSH2 0x9F5 JUMP JUMPDEST SWAP3 SWAP4 PUSH1 0x20 PUSH1 0x1 DUP2 SWAP3 DUP8 DUP7 ADD MLOAD DUP2 SSTORE ADD SWAP6 ADD SWAP4 ADD PUSH2 0x9DF JUMP JUMPDEST DUP3 DUP2 GT ISZERO PUSH2 0x184 JUMPI PUSH0 DUP1 MSTORE SWAP1 SWAP2 POP PUSH1 0x1F DUP4 ADD PUSH1 0x5 SHR PUSH32 0x290DECD9548B62A8D60345A988386FC84BA6BC95484008F6362F93160EF3E563 PUSH1 0x20 DUP6 LT PUSH2 0xA9F JUMPI JUMPDEST DUP5 SWAP4 SWAP3 PUSH1 0x1F ADD PUSH1 0x5 SHR DUP3 SWAP1 SUB SWAP2 ADD PUSH0 JUMPDEST DUP3 DUP2 LT PUSH2 0xA8F JUMPI POP POP PUSH2 0x184 JUMP JUMPDEST PUSH0 DUP2 DUP4 ADD SSTORE DUP6 SWAP5 POP PUSH1 0x1 ADD PUSH2 0xA81 JUMP JUMPDEST PUSH0 SWAP2 POP PUSH2 0xA71 JUMP JUMPDEST SWAP2 PUSH1 0x7F AND SWAP2 PUSH2 0x170 JUMP JUMPDEST PUSH0 DUP1 REVERT JUMPDEST PUSH1 0x40 MLOAD SWAP2 SWAP1 PUSH1 0x1F ADD PUSH1 0x1F NOT AND DUP3 ADD PUSH1 0x1 PUSH1 0x1 PUSH1 0x40 SHL SUB DUP2 GT DUP4 DUP3 LT OR PUSH2 0x510 JUMPI PUSH1 0x40 MSTORE JUMP JUMPDEST DUP2 PUSH1 0x1F DUP3 ADD SLT ISZERO PUSH2 0xAB1 JUMPI DUP1 MLOAD SWAP1 PUSH1 0x1 PUSH1 0x1 PUSH1 0x40 SHL SUB DUP3 GT PUSH2 0x510 JUMPI PUSH2 0xB09 PUSH1 0x1F DUP4 ADD PUSH1 0x1F NOT AND PUSH1 0x20 ADD PUSH2 0xAB5 JUMP JUMPDEST SWAP3 DUP3 DUP5 MSTORE PUSH1 0x20 DUP4 DUP4 ADD ADD GT PUSH2 0xAB1 JUMPI DUP2 PUSH0 SWAP3 PUSH1 0x20 DUP1 SWAP4 ADD DUP4 DUP7 ADD MCOPY DUP4 ADD ADD MSTORE SWAP1 JUMP INVALID PUSH1 0xA0 PUSH1 0x40 MSTORE PUSH1 0x4 CALLDATASIZE LT ISZERO PUSH2 0x11 JUMPI PUSH0 DUP1 REVERT JUMPDEST PUSH0 CALLDATALOAD PUSH1 0xE0 SHR DUP1 PUSH4 0x3441006 EQ PUSH2 0xCEA JUMPI DUP1 PUSH4 0xA144391 EQ PUSH2 0xCA9 JUMPI DUP1 PUSH4 0x1F6F90BD EQ PUSH2 0xC8E JUMPI DUP1 PUSH4 0x29DCB0CF EQ PUSH2 0xC71 JUMPI DUP1 PUSH4 0x3410452A EQ PUSH2 0xC54 JUMPI DUP1 PUSH4 0x3433C7A2 EQ PUSH2 0x7E6 JUMPI DUP1 PUSH4 0x40193883 EQ PUSH2 0x7C9 JUMPI DUP1 PUSH4 0x4051DDAC EQ PUSH2 0x5C0 JUMPI DUP1 PUSH4 0x481C6A75 EQ PUSH2 0x598 JUMPI DUP1 PUSH4 0x4A79D50C EQ PUSH2 0x57C JUMPI DUP1 PUSH4 0x63367F4D EQ PUSH2 0x561 JUMPI DUP1 PUSH4 0x7284E416 EQ PUSH2 0x546 JUMPI DUP1 PUSH4 0x81D12C58 EQ PUSH2 0x4C3 JUMPI DUP1 PUSH4 0x82FDE093 EQ PUSH2 0x4A6 JUMPI DUP1 PUSH4 0x937E09B1 EQ PUSH2 0x489 JUMPI DUP1 PUSH4 0xB4F73584 EQ PUSH2 0x46C JUMPI DUP1 PUSH4 0xC58343EF EQ PUSH2 0x3AB JUMPI DUP1 PUSH4 0xCF09E0D0 EQ PUSH2 0x38E JUMPI DUP1 PUSH4 0xD7BB99BA EQ PUSH2 0x2EF JUMPI DUP1 PUSH4 0xD7D1BBDB EQ PUSH2 0x183 JUMPI DUP1 PUSH4 0xDD5F4DC4 EQ PUSH2 0x168 JUMPI DUP1 PUSH4 0xE38240BD EQ PUSH2 0x14D JUMPI PUSH4 0xEF430AA6 EQ PUSH2 0x116 JUMPI PUSH0 DUP1 REVERT JUMPDEST CALLVALUE PUSH2 0x149 JUMPI PUSH0 CALLDATASIZE PUSH1 0x3 NOT ADD SLT PUSH2 0x149 JUMPI PUSH2 0x145 PUSH2 0x131 PUSH2 0xFA7 JUMP JUMPDEST PUSH1 0x40 MLOAD SWAP2 DUP3 SWAP2 PUSH1 0x20 DUP4 MSTORE PUSH1 0x20 DUP4 ADD SWAP1 PUSH2 0x1299 JUMP JUMPDEST SUB SWAP1 RETURN JUMPDEST PUSH0 DUP1 REVERT JUMPDEST CALLVALUE PUSH2 0x149 JUMPI PUSH0 CALLDATASIZE PUSH1 0x3 NOT ADD SLT PUSH2 0x149 JUMPI PUSH2 0x145 PUSH2 0x131 PUSH2 0x1166 JUMP JUMPDEST CALLVALUE PUSH2 0x149 JUMPI PUSH0 CALLDATASIZE PUSH1 0x3 NOT ADD SLT PUSH2 0x149 JUMPI PUSH2 0x145 PUSH2 0x131 PUSH2 0x10D1 JUMP JUMPDEST CALLVALUE PUSH2 0x149 JUMPI PUSH1 0x20 CALLDATASIZE PUSH1 0x3 NOT ADD SLT PUSH2 0x149 JUMPI PUSH2 0x19F PUSH1 0x4 CALLDATALOAD PUSH2 0x1313 JUMP JUMPDEST POP CALLER PUSH0 MSTORE PUSH1 0xC PUSH1 0x20 MSTORE PUSH1 0xFF PUSH1 0x40 PUSH0 KECCAK256 SLOAD AND ISZERO PUSH2 0x2AA JUMPI PUSH1 0xA SLOAD PUSH1 0x1 PUSH1 0x1 PUSH1 0xA0 SHL SUB AND CALLER EQ PUSH2 0x259 JUMPI PUSH1 0x4 DUP2 ADD SWAP1 PUSH1 0x1 DUP1 PUSH1 0xA0 SHL SUB CALLER AND PUSH0 MSTORE DUP2 PUSH1 0x20 MSTORE PUSH1 0xFF PUSH1 0x40 PUSH0 KECCAK256 SLOAD AND PUSH2 0x214 JUMPI CALLER PUSH0 SWAP1 DUP2 MSTORE PUSH1 0x20 SWAP3 SWAP1 SWAP3 MSTORE PUSH1 0x40 SWAP1 SWAP2 KECCAK256 DUP1 SLOAD PUSH1 0xFF NOT AND PUSH1 0x1 OR SWAP1 SSTORE PUSH1 0x3 ADD DUP1 SLOAD PUSH2 0x210 SWAP1 PUSH2 0x139B JUMP JUMPDEST SWAP1 SSTORE STOP JUMPDEST PUSH1 0x40 MLOAD PUSH3 0x461BCD PUSH1 0xE5 SHL DUP2 MSTORE PUSH1 0x20 PUSH1 0x4 DUP3 ADD MSTORE PUSH1 0x1D PUSH1 0x24 DUP3 ADD MSTORE PUSH32 0x416C726561647920766F746564206F6E20746869732072657175657374000000 PUSH1 0x44 DUP3 ADD MSTORE PUSH1 0x64 SWAP1 REVERT JUMPDEST PUSH1 0x40 MLOAD PUSH3 0x461BCD PUSH1 0xE5 SHL DUP2 MSTORE PUSH1 0x20 PUSH1 0x4 DUP3 ADD MSTORE PUSH1 0x23 PUSH1 0x24 DUP3 ADD MSTORE PUSH32 0x4D616E616765722063616E6E6F7420766F7465206F6E206F776E207265717565 PUSH1 0x44 DUP3 ADD MSTORE PUSH3 0x737473 PUSH1 0xE8 SHL PUSH1 0x64 DUP3 ADD MSTORE PUSH1 0x84 SWAP1 REVERT JUMPDEST PUSH1 0x40 MLOAD PUSH3 0x461BCD PUSH1 0xE5 SHL DUP2 MSTORE PUSH1 0x20 PUSH1 0x4 DUP3 ADD MSTORE PUSH1 0x1D PUSH1 0x24 DUP3 ADD MSTORE PUSH32 0x4D75737420636F6E7472696275746520666972737420746F20766F7465000000 PUSH1 0x44 DUP3 ADD MSTORE PUSH1 0x64 SWAP1 REVERT JUMPDEST PUSH0 CALLDATASIZE PUSH1 0x3 NOT ADD SLT PUSH2 0x149 JUMPI PUSH1 0xB SLOAD CALLVALUE LT PUSH2 0x349 JUMPI CALLER PUSH0 MSTORE PUSH1 0xC PUSH1 0x20 MSTORE PUSH1 0xFF PUSH1 0x40 PUSH0 KECCAK256 SLOAD AND ISZERO PUSH2 0x31F JUMPI JUMPDEST TIMESTAMP PUSH1 0xF SSTORE STOP JUMPDEST CALLER PUSH0 MSTORE PUSH1 0xC PUSH1 0x20 MSTORE PUSH1 0x40 PUSH0 KECCAK256 PUSH1 0x1 PUSH1 0xFF NOT DUP3 SLOAD AND OR SWAP1 SSTORE PUSH2 0x341 PUSH1 0xD SLOAD PUSH2 0x139B JUMP JUMPDEST PUSH1 0xD SSTORE PUSH2 0x319 JUMP JUMPDEST PUSH1 0x40 MLOAD PUSH3 0x461BCD PUSH1 0xE5 SHL DUP2 MSTORE PUSH1 0x20 PUSH1 0x4 DUP3 ADD MSTORE PUSH1 0x1A PUSH1 0x24 DUP3 ADD MSTORE PUSH32 0x42656C6F77206D696E696D756D20636F6E747269627574696F6E000000000000 PUSH1 0x44 DUP3 ADD MSTORE PUSH1 0x64 SWAP1 REVERT JUMPDEST CALLVALUE PUSH2 0x149 JUMPI PUSH0 CALLDATASIZE PUSH1 0x3 NOT ADD SLT PUSH2 0x149 JUMPI PUSH1 0x20 PUSH1 0xE SLOAD PUSH1 0x40 MLOAD SWAP1 DUP2 MSTORE RETURN JUMPDEST CALLVALUE PUSH2 0x149 JUMPI PUSH1 0x20 CALLDATASIZE PUSH1 0x3 NOT ADD SLT PUSH2 0x149 JUMPI PUSH2 0x423 PUSH2 0x3CA PUSH1 0x4 CALLDATALOAD PUSH2 0x1313 JUMP JUMPDEST POP PUSH1 0x1 DUP2 ADD SLOAD SWAP1 PUSH2 0x462 PUSH1 0x2 DUP3 ADD SLOAD PUSH2 0x454 PUSH1 0x3 DUP5 ADD SLOAD SWAP5 PUSH1 0x7 DUP6 ADD SLOAD SWAP5 PUSH2 0x3F1 DUP2 PUSH2 0x11FB JUMP JUMPDEST SWAP7 PUSH1 0xFF PUSH2 0x40C PUSH1 0x6 PUSH2 0x405 PUSH1 0x5 DUP7 ADD PUSH2 0x11FB JUMP JUMPDEST SWAP5 ADD PUSH2 0x11FB JUMP JUMPDEST SWAP6 PUSH1 0x40 MLOAD SWAP11 DUP12 SWAP11 PUSH2 0x100 DUP13 MSTORE PUSH2 0x100 DUP13 ADD SWAP1 PUSH2 0x1299 JUMP JUMPDEST SWAP5 PUSH1 0x20 DUP12 ADD MSTORE PUSH1 0x1 DUP1 PUSH1 0xA0 SHL SUB DUP2 AND PUSH1 0x40 DUP12 ADD MSTORE PUSH1 0xA0 SHR AND ISZERO ISZERO PUSH1 0x60 DUP10 ADD MSTORE PUSH1 0x80 DUP9 ADD MSTORE DUP7 DUP3 SUB PUSH1 0xA0 DUP9 ADD MSTORE PUSH2 0x1299 JUMP JUMPDEST SWAP1 DUP5 DUP3 SUB PUSH1 0xC0 DUP7 ADD MSTORE PUSH2 0x1299 JUMP JUMPDEST SWAP1 PUSH1 0xE0 DUP4 ADD MSTORE SUB SWAP1 RETURN JUMPDEST CALLVALUE PUSH2 0x149 JUMPI PUSH0 CALLDATASIZE PUSH1 0x3 NOT ADD SLT PUSH2 0x149 JUMPI PUSH1 0x20 PUSH1 0xF SLOAD PUSH1 0x40 MLOAD SWAP1 DUP2 MSTORE RETURN JUMPDEST CALLVALUE PUSH2 0x149 JUMPI PUSH0 CALLDATASIZE PUSH1 0x3 NOT ADD SLT PUSH2 0x149 JUMPI PUSH1 0x20 PUSH1 0xB SLOAD PUSH1 0x40 MLOAD SWAP1 DUP2 MSTORE RETURN JUMPDEST CALLVALUE PUSH2 0x149 JUMPI PUSH0 CALLDATASIZE PUSH1 0x3 NOT ADD SLT PUSH2 0x149 JUMPI PUSH1 0x20 PUSH1 0xD SLOAD PUSH1 0x40 MLOAD SWAP1 DUP2 MSTORE RETURN JUMPDEST CALLVALUE PUSH2 0x149 JUMPI PUSH1 0x20 CALLDATASIZE PUSH1 0x3 NOT ADD SLT PUSH2 0x149 JUMPI PUSH1 0x4 CALLDATALOAD PUSH1 0x9 SLOAD DUP2 LT ISZERO PUSH2 0x149 JUMPI PUSH2 0x4ED PUSH2 0x423 SWAP2 PUSH2 0x1313 JUMP JUMPDEST POP PUSH2 0x4F7 DUP2 PUSH2 0x11FB JUMP JUMPDEST SWAP1 PUSH2 0x462 PUSH1 0x1 DUP3 ADD SLOAD SWAP2 PUSH2 0x454 PUSH1 0x2 DUP3 ADD SLOAD SWAP4 PUSH1 0x3 DUP4 ADD SLOAD PUSH2 0x51B PUSH1 0x5 DUP6 ADD PUSH2 0x11FB JUMP JUMPDEST SWAP1 PUSH1 0xFF PUSH1 0x7 PUSH2 0x52C PUSH1 0x6 DUP9 ADD PUSH2 0x11FB JUMP JUMPDEST SWAP7 ADD SLOAD SWAP8 PUSH1 0x40 MLOAD SWAP11 DUP12 SWAP11 PUSH2 0x100 DUP13 MSTORE PUSH2 0x100 DUP13 ADD SWAP1 PUSH2 0x1299 JUMP JUMPDEST CALLVALUE PUSH2 0x149 JUMPI PUSH0 CALLDATASIZE PUSH1 0x3 NOT ADD SLT PUSH2 0x149 JUMPI PUSH2 0x145 PUSH2 0x131 PUSH2 0xF12 JUMP JUMPDEST CALLVALUE PUSH2 0x149 JUMPI PUSH0 CALLDATASIZE PUSH1 0x3 NOT ADD SLT PUSH2 0x149 JUMPI PUSH2 0x145 PUSH2 0x131 PUSH2 0x103C JUMP JUMPDEST CALLVALUE PUSH2 0x149 JUMPI PUSH0 CALLDATASIZE PUSH1 0x3 NOT ADD SLT PUSH2 0x149 JUMPI PUSH2 0x145 PUSH2 0x131 PUSH0 PUSH2 0x11FB JUMP JUMPDEST CALLVALUE PUSH2 0x149 JUMPI PUSH0 CALLDATASIZE PUSH1 0x3 NOT ADD SLT PUSH2 0x149 JUMPI PUSH1 0xA SLOAD PUSH1 0x40 MLOAD PUSH1 0x1 PUSH1 0x1 PUSH1 0xA0 SHL SUB SWAP1 SWAP2 AND DUP2 MSTORE PUSH1 0x20 SWAP1 RETURN JUMPDEST CALLVALUE PUSH2 0x149 JUMPI PUSH0 CALLDATASIZE PUSH1 0x3 NOT ADD SLT PUSH2 0x149 JUMPI PUSH1 0x7 SLOAD PUSH1 0x8 SLOAD PUSH1 0xB SLOAD SELFBALANCE PUSH1 0xD SLOAD PUSH1 0x9 SLOAD SWAP1 PUSH1 0x1 DUP1 PUSH1 0xA0 SHL SUB PUSH1 0xA SLOAD AND SWAP3 PUSH1 0xE SLOAD SWAP5 PUSH1 0xF SLOAD SWAP7 PUSH1 0x40 MLOAD PUSH0 PUSH0 SLOAD PUSH2 0x604 DUP2 PUSH2 0xE01 JUMP JUMPDEST DUP1 DUP5 MSTORE SWAP1 PUSH1 0x1 DUP2 AND SWAP1 DUP2 ISZERO PUSH2 0x7A5 JUMPI POP PUSH1 0x1 EQ PUSH2 0x749 JUMPI JUMPDEST POP SWAP1 PUSH2 0x62D DUP2 PUSH2 0x6F7 SWAP4 SUB DUP3 PUSH2 0xE39 JUMP JUMPDEST PUSH2 0x6E5 PUSH2 0x638 PUSH2 0xF12 JUMP JUMPDEST PUSH2 0x6D3 PUSH2 0x643 PUSH2 0xFA7 JUMP JUMPDEST PUSH2 0x6C2 PUSH2 0x64E PUSH2 0x103C JUMP JUMPDEST PUSH2 0x6B0 PUSH2 0x659 PUSH2 0xE5B JUMP JUMPDEST SWAP4 PUSH2 0x69E PUSH2 0x665 PUSH2 0x10D1 JUMP JUMPDEST SWAP8 PUSH2 0x68C PUSH2 0x671 PUSH2 0x1166 JUMP JUMPDEST SWAP12 PUSH1 0x40 MLOAD PUSH1 0x80 MSTORE PUSH2 0x200 PUSH1 0x80 MLOAD MSTORE PUSH2 0x200 PUSH1 0x80 MLOAD ADD SWAP1 PUSH2 0x1299 JUMP JUMPDEST SWAP1 PUSH1 0x80 MLOAD DUP3 SUB PUSH1 0x20 PUSH1 0x80 MLOAD ADD MSTORE PUSH2 0x1299 JUMP JUMPDEST SWAP1 PUSH1 0x80 MLOAD DUP3 SUB PUSH1 0x40 PUSH1 0x80 MLOAD ADD MSTORE PUSH2 0x1299 JUMP JUMPDEST SWAP1 PUSH1 0x80 MLOAD DUP3 SUB PUSH1 0x60 PUSH1 0x80 MLOAD ADD MSTORE PUSH2 0x1299 JUMP JUMPDEST SWAP1 PUSH1 0x80 MLOAD DUP3 SUB PUSH1 0x80 DUP1 MLOAD ADD MSTORE PUSH2 0x1299 JUMP JUMPDEST SWAP1 PUSH1 0x80 MLOAD DUP3 SUB PUSH1 0xA0 PUSH1 0x80 MLOAD ADD MSTORE PUSH2 0x1299 JUMP JUMPDEST SWAP1 PUSH1 0x80 MLOAD DUP3 SUB PUSH1 0xC0 PUSH1 0x80 MLOAD ADD MSTORE PUSH2 0x1299 JUMP JUMPDEST SWAP9 PUSH1 0xE0 PUSH1 0x80 MLOAD ADD MSTORE PUSH2 0x100 PUSH1 0x80 MLOAD ADD MSTORE PUSH2 0x120 PUSH1 0x80 MLOAD ADD MSTORE PUSH2 0x140 PUSH1 0x80 MLOAD ADD MSTORE PUSH2 0x160 PUSH1 0x80 MLOAD ADD MSTORE PUSH2 0x180 PUSH1 0x80 MLOAD ADD MSTORE PUSH2 0x1A0 PUSH1 0x80 MLOAD ADD MSTORE PUSH2 0x1C0 PUSH1 0x80 MLOAD ADD MSTORE PUSH2 0x1E0 PUSH1 0x80 MLOAD ADD MSTORE PUSH1 0x80 MLOAD SWAP1 SUB PUSH1 0x80 MLOAD RETURN JUMPDEST PUSH0 DUP1 DUP1 MSTORE PUSH32 0x290DECD9548B62A8D60345A988386FC84BA6BC95484008F6362F93160EF3E563 SWAP4 SWAP3 POP SWAP1 JUMPDEST DUP1 DUP3 LT PUSH2 0x78B JUMPI POP SWAP1 SWAP2 POP DUP2 ADD PUSH1 0x20 ADD PUSH2 0x62D PUSH2 0x61C JUMP JUMPDEST SWAP2 SWAP3 PUSH1 0x1 DUP2 PUSH1 0x20 SWAP3 SLOAD DUP4 DUP6 DUP9 ADD ADD MSTORE ADD SWAP2 ADD SWAP1 SWAP3 SWAP2 PUSH2 0x773 JUMP JUMPDEST PUSH1 0xFF NOT AND PUSH1 0x20 DUP1 DUP7 ADD SWAP2 SWAP1 SWAP2 MSTORE SWAP2 ISZERO ISZERO PUSH1 0x5 SHL DUP5 ADD SWAP1 SWAP2 ADD SWAP2 POP PUSH2 0x62D SWAP1 POP PUSH2 0x61C JUMP JUMPDEST CALLVALUE PUSH2 0x149 JUMPI PUSH0 CALLDATASIZE PUSH1 0x3 NOT ADD SLT PUSH2 0x149 JUMPI PUSH1 0x20 PUSH1 0x7 SLOAD PUSH1 0x40 MLOAD SWAP1 DUP2 MSTORE RETURN JUMPDEST CALLVALUE PUSH2 0x149 JUMPI PUSH1 0xA0 CALLDATASIZE PUSH1 0x3 NOT ADD SLT PUSH2 0x149 JUMPI PUSH1 0x4 CALLDATALOAD PUSH8 0xFFFFFFFFFFFFFFFF DUP2 GT PUSH2 0x149 JUMPI PUSH2 0x817 SWAP1 CALLDATASIZE SWAP1 PUSH1 0x4 ADD PUSH2 0x12BD JUMP JUMPDEST PUSH1 0x44 CALLDATALOAD PUSH1 0x1 PUSH1 0x1 PUSH1 0xA0 SHL SUB DUP2 AND SWAP1 DUP2 SWAP1 SUB PUSH2 0x149 JUMPI PUSH1 0x64 CALLDATALOAD PUSH8 0xFFFFFFFFFFFFFFFF DUP2 GT PUSH2 0x149 JUMPI PUSH2 0x84C SWAP1 CALLDATASIZE SWAP1 PUSH1 0x4 ADD PUSH2 0x12BD JUMP JUMPDEST SWAP2 PUSH1 0x84 CALLDATALOAD PUSH8 0xFFFFFFFFFFFFFFFF DUP2 GT PUSH2 0x149 JUMPI PUSH2 0x86D SWAP1 CALLDATASIZE SWAP1 PUSH1 0x4 ADD PUSH2 0x12BD JUMP JUMPDEST SWAP2 PUSH2 0x883 PUSH1 0x1 DUP1 PUSH1 0xA0 SHL SUB PUSH1 0xA SLOAD AND CALLER EQ PUSH2 0x1343 JUMP JUMPDEST PUSH1 0x9 SLOAD PUSH9 0x10000000000000000 DUP2 LT ISZERO PUSH2 0xAA8 JUMPI PUSH1 0x1 DUP2 ADD DUP1 PUSH1 0x9 SSTORE PUSH2 0x8A8 DUP3 PUSH2 0x1313 JUMP JUMPDEST POP POP DUP2 GT PUSH2 0xC40 JUMPI PUSH2 0x8B9 SWAP1 PUSH2 0x1313 JUMP JUMPDEST POP SWAP2 DUP1 MLOAD SWAP1 PUSH8 0xFFFFFFFFFFFFFFFF DUP3 GT PUSH2 0xAA8 JUMPI DUP2 SWAP1 PUSH2 0x8D9 DUP6 SLOAD PUSH2 0xE01 JUMP JUMPDEST PUSH1 0x1F DUP2 GT PUSH2 0xBE7 JUMPI JUMPDEST POP PUSH1 0x20 SWAP1 PUSH1 0x1F DUP4 GT PUSH1 0x1 EQ PUSH2 0xB84 JUMPI PUSH0 SWAP3 PUSH2 0xB79 JUMPI JUMPDEST POP POP DUP2 PUSH1 0x1 SHL SWAP2 PUSH0 NOT SWAP1 PUSH1 0x3 SHL SHR NOT AND OR DUP3 SSTORE JUMPDEST PUSH1 0x24 CALLDATALOAD PUSH1 0x1 DUP4 ADD SSTORE PUSH1 0x2 DUP3 ADD SWAP1 PUSH11 0xFFFFFFFFFFFFFFFFFFFFFF PUSH1 0xA8 SHL DUP3 SLOAD AND OR SWAP1 SSTORE PUSH0 PUSH1 0x3 DUP3 ADD SSTORE PUSH1 0x5 DUP2 ADD DUP4 MLOAD PUSH8 0xFFFFFFFFFFFFFFFF DUP2 GT PUSH2 0xAA8 JUMPI PUSH2 0x953 DUP3 SLOAD PUSH2 0xE01 JUMP JUMPDEST PUSH1 0x1F DUP2 GT PUSH2 0xB28 JUMPI JUMPDEST POP PUSH1 0x20 SWAP5 PUSH1 0x1F DUP3 GT PUSH1 0x1 EQ PUSH2 0xAC7 JUMPI SWAP5 DUP2 SWAP3 SWAP4 SWAP5 SWAP6 PUSH0 SWAP3 PUSH2 0xABC JUMPI JUMPDEST POP POP DUP2 PUSH1 0x1 SHL SWAP2 PUSH0 NOT SWAP1 PUSH1 0x3 SHL SHR NOT AND OR SWAP1 SSTORE JUMPDEST PUSH1 0x6 DUP2 ADD DUP3 MLOAD PUSH8 0xFFFFFFFFFFFFFFFF DUP2 GT PUSH2 0xAA8 JUMPI PUSH2 0x9AB DUP3 SLOAD PUSH2 0xE01 JUMP JUMPDEST PUSH1 0x1F DUP2 GT PUSH2 0xA57 JUMPI JUMPDEST POP PUSH1 0x20 PUSH1 0x1F DUP3 GT PUSH1 0x1 EQ PUSH2 0x9F6 JUMPI DUP2 SWAP3 SWAP4 SWAP5 PUSH0 SWAP3 PUSH2 0x9EB JUMPI JUMPDEST POP POP DUP2 PUSH1 0x1 SHL SWAP2 PUSH0 NOT SWAP1 PUSH1 0x3 SHL SHR NOT AND OR SWAP1 SSTORE JUMPDEST PUSH1 0x7 TIMESTAMP SWAP2 ADD SSTORE PUSH0 DUP1 RETURN JUMPDEST ADD MLOAD SWAP1 POP DUP5 DUP1 PUSH2 0x9CD JUMP JUMPDEST PUSH1 0x1F NOT DUP3 AND SWAP1 DUP4 PUSH0 MSTORE DUP1 PUSH0 KECCAK256 SWAP2 PUSH0 JUMPDEST DUP2 DUP2 LT PUSH2 0xA3F JUMPI POP SWAP6 DUP4 PUSH1 0x1 SWAP6 SWAP7 SWAP8 LT PUSH2 0xA27 JUMPI JUMPDEST POP POP POP DUP2 SHL ADD SWAP1 SSTORE PUSH2 0x9E1 JUMP JUMPDEST ADD MLOAD PUSH0 NOT PUSH1 0xF8 DUP5 PUSH1 0x3 SHL AND SHR NOT AND SWAP1 SSTORE DUP5 DUP1 DUP1 PUSH2 0xA1A JUMP JUMPDEST SWAP2 SWAP3 PUSH1 0x20 PUSH1 0x1 DUP2 SWAP3 DUP7 DUP12 ADD MLOAD DUP2 SSTORE ADD SWAP5 ADD SWAP3 ADD PUSH2 0xA05 JUMP JUMPDEST DUP2 DUP2 GT ISZERO PUSH2 0x9B4 JUMPI DUP3 PUSH0 MSTORE PUSH1 0x20 PUSH0 KECCAK256 PUSH1 0x1F DUP4 ADD PUSH1 0x5 SHR SWAP1 PUSH1 0x20 DUP5 LT PUSH2 0xAA0 JUMPI JUMPDEST DUP2 PUSH1 0x1F SWAP2 ADD SWAP3 ADD PUSH1 0x5 SHR SUB SWAP1 PUSH0 JUMPDEST DUP3 DUP2 LT PUSH2 0xA93 JUMPI POP POP PUSH2 0x9B4 JUMP JUMPDEST PUSH0 DUP3 DUP3 ADD SSTORE PUSH1 0x1 ADD PUSH2 0xA85 JUMP JUMPDEST PUSH0 SWAP2 POP PUSH2 0xA77 JUMP JUMPDEST PUSH4 0x4E487B71 PUSH1 0xE0 SHL PUSH0 MSTORE PUSH1 0x41 PUSH1 0x4 MSTORE PUSH1 0x24 PUSH0 REVERT JUMPDEST ADD MLOAD SWAP1 POP DUP6 DUP1 PUSH2 0x978 JUMP JUMPDEST PUSH1 0x1F NOT DUP3 AND SWAP6 DUP4 PUSH0 MSTORE DUP1 PUSH0 KECCAK256 SWAP2 PUSH0 JUMPDEST DUP9 DUP2 LT PUSH2 0xB10 JUMPI POP DUP4 PUSH1 0x1 SWAP6 SWAP7 SWAP8 SWAP9 LT PUSH2 0xAF8 JUMPI JUMPDEST POP POP POP DUP2 SHL ADD SWAP1 SSTORE PUSH2 0x98C JUMP JUMPDEST ADD MLOAD PUSH0 NOT PUSH1 0xF8 DUP5 PUSH1 0x3 SHL AND SHR NOT AND SWAP1 SSTORE DUP6 DUP1 DUP1 PUSH2 0xAEB JUMP JUMPDEST SWAP2 SWAP3 PUSH1 0x20 PUSH1 0x1 DUP2 SWAP3 DUP7 DUP6 ADD MLOAD DUP2 SSTORE ADD SWAP5 ADD SWAP3 ADD PUSH2 0xAD6 JUMP JUMPDEST DUP2 DUP2 GT ISZERO PUSH2 0x95C JUMPI DUP3 PUSH0 MSTORE PUSH1 0x20 PUSH0 KECCAK256 PUSH1 0x1F DUP4 ADD PUSH1 0x5 SHR SWAP1 PUSH1 0x20 DUP5 LT PUSH2 0xB71 JUMPI JUMPDEST DUP2 PUSH1 0x1F SWAP2 ADD SWAP3 ADD PUSH1 0x5 SHR SUB SWAP1 PUSH0 JUMPDEST DUP3 DUP2 LT PUSH2 0xB64 JUMPI POP POP PUSH2 0x95C JUMP JUMPDEST PUSH0 DUP3 DUP3 ADD SSTORE PUSH1 0x1 ADD PUSH2 0xB56 JUMP JUMPDEST PUSH0 SWAP2 POP PUSH2 0xB48 JUMP JUMPDEST ADD MLOAD SWAP1 POP DUP7 DUP1 PUSH2 0x8F8 JUMP JUMPDEST PUSH0 DUP7 DUP2 MSTORE DUP3 DUP2 KECCAK256 SWAP4 POP PUSH1 0x1F NOT DUP6 AND SWAP1 JUMPDEST DUP2 DUP2 LT PUSH2 0xBCF JUMPI POP SWAP1 DUP5 PUSH1 0x1 SWAP6 SWAP5 SWAP4 SWAP3 LT PUSH2 0xBB7 JUMPI JUMPDEST POP POP POP DUP2 SHL ADD DUP3 SSTORE PUSH2 0x90C JUMP JUMPDEST ADD MLOAD PUSH0 NOT PUSH1 0xF8 DUP5 PUSH1 0x3 SHL AND SHR NOT AND SWAP1 SSTORE DUP7 DUP1 DUP1 PUSH2 0xBAA JUMP JUMPDEST SWAP3 SWAP4 PUSH1 0x20 PUSH1 0x1 DUP2 SWAP3 DUP8 DUP7 ADD MLOAD DUP2 SSTORE ADD SWAP6 ADD SWAP4 ADD PUSH2 0xB94 JUMP JUMPDEST DUP3 DUP2 GT ISZERO PUSH2 0x8E2 JUMPI SWAP1 SWAP2 POP DUP5 PUSH0 MSTORE PUSH1 0x20 PUSH0 KECCAK256 PUSH1 0x1F DUP5 ADD PUSH1 0x5 SHR SWAP1 PUSH1 0x20 DUP6 LT PUSH2 0xC38 JUMPI JUMPDEST DUP5 SWAP4 SWAP3 PUSH1 0x1F ADD PUSH1 0x5 SHR DUP3 SWAP1 SUB SWAP2 ADD PUSH0 JUMPDEST DUP3 DUP2 LT PUSH2 0xC28 JUMPI POP POP PUSH2 0x8E2 JUMP JUMPDEST PUSH0 DUP2 DUP4 ADD SSTORE DUP6 SWAP5 POP PUSH1 0x1 ADD PUSH2 0xC1A JUMP JUMPDEST PUSH0 SWAP2 POP PUSH2 0xC0A JUMP JUMPDEST PUSH4 0x4E487B71 PUSH1 0xE0 SHL PUSH0 MSTORE PUSH1 0x11 PUSH1 0x4 MSTORE PUSH1 0x24 PUSH0 REVERT JUMPDEST CALLVALUE PUSH2 0x149 JUMPI PUSH0 CALLDATASIZE PUSH1 0x3 NOT ADD SLT PUSH2 0x149 JUMPI PUSH1 0x20 PUSH1 0x9 SLOAD PUSH1 0x40 MLOAD SWAP1 DUP2 MSTORE RETURN JUMPDEST CALLVALUE PUSH2 0x149 JUMPI PUSH0 CALLDATASIZE PUSH1 0x3 NOT ADD SLT PUSH2 0x149 JUMPI PUSH1 0x20 PUSH1 0x8 SLOAD PUSH1 0x40 MLOAD SWAP1 DUP2 MSTORE RETURN JUMPDEST CALLVALUE PUSH2 0x149 JUMPI PUSH0 CALLDATASIZE PUSH1 0x3 NOT ADD SLT PUSH2 0x149 JUMPI PUSH2 0x145 PUSH2 0x131 PUSH2 0xE5B JUMP JUMPDEST CALLVALUE PUSH2 0x149 JUMPI PUSH1 0x20 CALLDATASIZE PUSH1 0x3 NOT ADD SLT PUSH2 0x149 JUMPI PUSH1 0x4 CALLDATALOAD PUSH1 0x1 PUSH1 0x1 PUSH1 0xA0 SHL SUB DUP2 AND SWAP1 DUP2 SWAP1 SUB PUSH2 0x149 JUMPI PUSH0 MSTORE PUSH1 0xC PUSH1 0x20 MSTORE PUSH1 0x20 PUSH1 0xFF PUSH1 0x40 PUSH0 KECCAK256 SLOAD AND PUSH1 0x40 MLOAD SWAP1 ISZERO ISZERO DUP2 MSTORE RETURN JUMPDEST CALLVALUE PUSH2 0x149 JUMPI PUSH1 0x20 CALLDATASIZE PUSH1 0x3 NOT ADD SLT PUSH2 0x149 JUMPI PUSH2 0xD10 PUSH1 0x1 DUP1 PUSH1 0xA0 SHL SUB PUSH1 0xA SLOAD AND CALLER EQ PUSH2 0x1343 JUMP JUMPDEST PUSH2 0xD1B PUSH1 0x4 CALLDATALOAD PUSH2 0x1313 JUMP JUMPDEST POP PUSH1 0x3 DUP2 ADD SLOAD PUSH1 0xD SLOAD PUSH1 0x1 SHR LT ISZERO PUSH2 0xDC5 JUMPI PUSH1 0x2 DUP2 ADD SWAP1 DUP2 SLOAD SWAP1 PUSH1 0xFF DUP3 PUSH1 0xA0 SHR AND PUSH2 0xD8C JUMPI PUSH0 DUP1 DUP1 SWAP4 PUSH1 0x1 DUP3 SWAP5 ADD SLOAD SWAP1 DUP3 SWAP1 DUP3 ISZERO PUSH2 0xD82 JUMPI JUMPDEST PUSH1 0x1 PUSH1 0x1 PUSH1 0xA0 SHL SUB AND SWAP1 CALL ISZERO PUSH2 0xD77 JUMPI DUP1 SLOAD PUSH1 0xFF PUSH1 0xA0 SHL NOT AND PUSH1 0x1 PUSH1 0xA0 SHL OR SWAP1 SSTORE STOP JUMPDEST PUSH1 0x40 MLOAD RETURNDATASIZE PUSH0 DUP3 RETURNDATACOPY RETURNDATASIZE SWAP1 REVERT JUMPDEST PUSH2 0x8FC SWAP2 POP PUSH2 0xD54 JUMP JUMPDEST PUSH1 0x40 MLOAD PUSH3 0x461BCD PUSH1 0xE5 SHL DUP2 MSTORE PUSH1 0x20 PUSH1 0x4 DUP3 ADD MSTORE PUSH1 0x11 PUSH1 0x24 DUP3 ADD MSTORE PUSH17 0x105B1C9958591E4818DBDB5C1B195D1959 PUSH1 0x7A SHL PUSH1 0x44 DUP3 ADD MSTORE PUSH1 0x64 SWAP1 REVERT JUMPDEST PUSH1 0x40 MLOAD PUSH3 0x461BCD PUSH1 0xE5 SHL DUP2 MSTORE PUSH1 0x20 PUSH1 0x4 DUP3 ADD MSTORE PUSH1 0x14 PUSH1 0x24 DUP3 ADD MSTORE PUSH20 0x4E6F7420656E6F75676820617070726F76616C73 PUSH1 0x60 SHL PUSH1 0x44 DUP3 ADD MSTORE PUSH1 0x64 SWAP1 REVERT JUMPDEST SWAP1 PUSH1 0x1 DUP3 DUP2 SHR SWAP3 AND DUP1 ISZERO PUSH2 0xE2F JUMPI JUMPDEST PUSH1 0x20 DUP4 LT EQ PUSH2 0xE1B JUMPI JUMP JUMPDEST PUSH4 0x4E487B71 PUSH1 0xE0 SHL PUSH0 MSTORE PUSH1 0x22 PUSH1 0x4 MSTORE PUSH1 0x24 PUSH0 REVERT JUMPDEST SWAP2 PUSH1 0x7F AND SWAP2 PUSH2 0xE10 JUMP JUMPDEST SWAP1 PUSH1 0x1F DUP1 NOT SWAP2 ADD AND DUP2 ADD SWAP1 DUP2 LT PUSH8 0xFFFFFFFFFFFFFFFF DUP3 GT OR PUSH2 0xAA8 JUMPI PUSH1 0x40 MSTORE JUMP JUMPDEST PUSH1 0x40 MLOAD SWAP1 PUSH0 DUP3 PUSH1 0x4 SLOAD SWAP2 PUSH2 0xE6E DUP4 PUSH2 0xE01 JUMP JUMPDEST DUP1 DUP4 MSTORE SWAP3 PUSH1 0x1 DUP2 AND SWAP1 DUP2 ISZERO PUSH2 0xEF3 JUMPI POP PUSH1 0x1 EQ PUSH2 0xE94 JUMPI JUMPDEST PUSH2 0xE92 SWAP3 POP SUB DUP4 PUSH2 0xE39 JUMP JUMPDEST JUMP JUMPDEST POP PUSH1 0x4 PUSH0 SWAP1 DUP2 MSTORE SWAP1 SWAP2 PUSH32 0x8A35ACFBC15FF81A39AE7D344FD709F28E8600B4AA8C65C6B64BFE7FE36BD19B JUMPDEST DUP2 DUP4 LT PUSH2 0xED7 JUMPI POP POP SWAP1 PUSH1 0x20 PUSH2 0xE92 SWAP3 DUP3 ADD ADD PUSH2 0xE86 JUMP JUMPDEST PUSH1 0x20 SWAP2 SWAP4 POP DUP1 PUSH1 0x1 SWAP2 SLOAD DUP4 DUP6 DUP10 ADD ADD MSTORE ADD SWAP2 ADD SWAP1 SWAP2 DUP5 SWAP3 PUSH2 0xEBF JUMP JUMPDEST PUSH1 0x20 SWAP3 POP PUSH2 0xE92 SWAP5 SWAP2 POP PUSH1 0xFF NOT AND DUP3 DUP5 ADD MSTORE ISZERO ISZERO PUSH1 0x5 SHL DUP3 ADD ADD PUSH2 0xE86 JUMP JUMPDEST PUSH1 0x40 MLOAD SWAP1 PUSH0 DUP3 PUSH1 0x1 SLOAD SWAP2 PUSH2 0xF25 DUP4 PUSH2 0xE01 JUMP JUMPDEST DUP1 DUP4 MSTORE SWAP3 PUSH1 0x1 DUP2 AND SWAP1 DUP2 ISZERO PUSH2 0xEF3 JUMPI POP PUSH1 0x1 EQ PUSH2 0xF48 JUMPI PUSH2 0xE92 SWAP3 POP SUB DUP4 PUSH2 0xE39 JUMP JUMPDEST POP PUSH1 0x1 PUSH0 SWAP1 DUP2 MSTORE SWAP1 SWAP2 PUSH32 0xB10E2D527612073B26EECDFD717E6A320CF44B4AFAC2B0732D9FCBE2B7FA0CF6 JUMPDEST DUP2 DUP4 LT PUSH2 0xF8B JUMPI POP POP SWAP1 PUSH1 0x20 PUSH2 0xE92 SWAP3 DUP3 ADD ADD PUSH2 0xE86 JUMP JUMPDEST PUSH1 0x20 SWAP2 SWAP4 POP DUP1 PUSH1 0x1 SWAP2 SLOAD DUP4 DUP6 DUP10 ADD ADD MSTORE ADD SWAP2 ADD SWAP1 SWAP2 DUP5 SWAP3 PUSH2 0xF73 JUMP JUMPDEST PUSH1 0x40 MLOAD SWAP1 PUSH0 DUP3 PUSH1 0x2 SLOAD SWAP2 PUSH2 0xFBA DUP4 PUSH2 0xE01 JUMP JUMPDEST DUP1 DUP4 MSTORE SWAP3 PUSH1 0x1 DUP2 AND SWAP1 DUP2 ISZERO PUSH2 0xEF3 JUMPI POP PUSH1 0x1 EQ PUSH2 0xFDD JUMPI PUSH2 0xE92 SWAP3 POP SUB DUP4 PUSH2 0xE39 JUMP JUMPDEST POP PUSH1 0x2 PUSH0 SWAP1 DUP2 MSTORE SWAP1 SWAP2 PUSH32 0x405787FA12A823E0F2B7631CC41B3BA8828B3321CA811111FA75CD3AA3BB5ACE JUMPDEST DUP2 DUP4 LT PUSH2 0x1020 JUMPI POP POP SWAP1 PUSH1 0x20 PUSH2 0xE92 SWAP3 DUP3 ADD ADD PUSH2 0xE86 JUMP JUMPDEST PUSH1 0x20 SWAP2 SWAP4 POP DUP1 PUSH1 0x1 SWAP2 SLOAD DUP4 DUP6 DUP10 ADD ADD MSTORE ADD SWAP2 ADD SWAP1 SWAP2 DUP5 SWAP3 PUSH2 0x1008 JUMP JUMPDEST PUSH1 0x40 MLOAD SWAP1 PUSH0 DUP3 PUSH1 0x3 SLOAD SWAP2 PUSH2 0x104F DUP4 PUSH2 0xE01 JUMP JUMPDEST DUP1 DUP4 MSTORE SWAP3 PUSH1 0x1 DUP2 AND SWAP1 DUP2 ISZERO PUSH2 0xEF3 JUMPI POP PUSH1 0x1 EQ PUSH2 0x1072 JUMPI PUSH2 0xE92 SWAP3 POP SUB DUP4 PUSH2 0xE39 JUMP JUMPDEST POP PUSH1 0x3 PUSH0 SWAP1 DUP2 MSTORE SWAP1 SWAP2 PUSH32 0xC2575A0E9E593C00F959F8C92F12DB2869C3395A3B0502D05E2516446F71F85B JUMPDEST DUP2 DUP4 LT PUSH2 0x10B5 JUMPI POP POP SWAP1 PUSH1 0x20 PUSH2 0xE92 SWAP3 DUP3 ADD ADD PUSH2 0xE86 JUMP JUMPDEST PUSH1 0x20 SWAP2 SWAP4 POP DUP1 PUSH1 0x1 SWAP2 SLOAD DUP4 DUP6 DUP10 ADD ADD MSTORE ADD SWAP2 ADD SWAP1 SWAP2 DUP5 SWAP3 PUSH2 0x109D JUMP JUMPDEST PUSH1 0x40 MLOAD SWAP1 PUSH0 DUP3 PUSH1 0x5 SLOAD SWAP2 PUSH2 0x10E4 DUP4 PUSH2 0xE01 JUMP JUMPDEST DUP1 DUP4 MSTORE SWAP3 PUSH1 0x1 DUP2 AND SWAP1 DUP2 ISZERO PUSH2 0xEF3 JUMPI POP PUSH1 0x1 EQ PUSH2 0x1107 JUMPI PUSH2 0xE92 SWAP3 POP SUB DUP4 PUSH2 0xE39 JUMP JUMPDEST POP PUSH1 0x5 PUSH0 SWAP1 DUP2 MSTORE SWAP1 SWAP2 PUSH32 0x36B6384B5ECA791C62761152D0C79BB0604C104A5FB6F4EB0703F3154BB3DB0 JUMPDEST DUP2 DUP4 LT PUSH2 0x114A JUMPI POP POP SWAP1 PUSH1 0x20 PUSH2 0xE92 SWAP3 DUP3 ADD ADD PUSH2 0xE86 JUMP JUMPDEST PUSH1 0x20 SWAP2 SWAP4 POP DUP1 PUSH1 0x1 SWAP2 SLOAD DUP4 DUP6 DUP10 ADD ADD MSTORE ADD SWAP2 ADD SWAP1 SWAP2 DUP5 SWAP3 PUSH2 0x1132 JUMP JUMPDEST PUSH1 0x40 MLOAD SWAP1 PUSH0 DUP3 PUSH1 0x6 SLOAD SWAP2 PUSH2 0x1179 DUP4 PUSH2 0xE01 JUMP JUMPDEST DUP1 DUP4 MSTORE SWAP3 PUSH1 0x1 DUP2 AND SWAP1 DUP2 ISZERO PUSH2 0xEF3 JUMPI POP PUSH1 0x1 EQ PUSH2 0x119C JUMPI PUSH2 0xE92 SWAP3 POP SUB DUP4 PUSH2 0xE39 JUMP JUMPDEST POP PUSH1 0x6 PUSH0 SWAP1 DUP2 MSTORE SWAP1 SWAP2 PUSH32 0xF652222313E28459528D920B65115C16C04F3EFC82AAEDC97BE59F3F377C0D3F JUMPDEST DUP2 DUP4 LT PUSH2 0x11DF JUMPI POP POP SWAP1 PUSH1 0x20 PUSH2 0xE92 SWAP3 DUP3 ADD ADD PUSH2 0xE86 JUMP JUMPDEST PUSH1 0x20 SWAP2 SWAP4 POP DUP1 PUSH1 0x1 SWAP2 SLOAD DUP4 DUP6 DUP10 ADD ADD MSTORE ADD SWAP2 ADD SWAP1 SWAP2 DUP5 SWAP3 PUSH2 0x11C7 JUMP JUMPDEST SWAP1 PUSH1 0x40 MLOAD SWAP2 DUP3 PUSH0 DUP3 SLOAD SWAP3 PUSH2 0x120E DUP5 PUSH2 0xE01 JUMP JUMPDEST DUP1 DUP5 MSTORE SWAP4 PUSH1 0x1 DUP2 AND SWAP1 DUP2 ISZERO PUSH2 0x1277 JUMPI POP PUSH1 0x1 EQ PUSH2 0x1233 JUMPI JUMPDEST POP PUSH2 0xE92 SWAP3 POP SUB DUP4 PUSH2 0xE39 JUMP JUMPDEST SWAP1 POP PUSH0 SWAP3 SWAP2 SWAP3 MSTORE PUSH1 0x20 PUSH0 KECCAK256 SWAP1 PUSH0 SWAP2 JUMPDEST DUP2 DUP4 LT PUSH2 0x125B JUMPI POP POP SWAP1 PUSH1 0x20 PUSH2 0xE92 SWAP3 DUP3 ADD ADD PUSH0 PUSH2 0x1226 JUMP JUMPDEST PUSH1 0x20 SWAP2 SWAP4 POP DUP1 PUSH1 0x1 SWAP2 SLOAD DUP4 DUP6 DUP10 ADD ADD MSTORE ADD SWAP2 ADD SWAP1 SWAP2 DUP5 SWAP3 PUSH2 0x1242 JUMP JUMPDEST SWAP1 POP PUSH1 0x20 SWAP3 POP PUSH2 0xE92 SWAP5 SWAP2 POP PUSH1 0xFF NOT AND DUP3 DUP5 ADD MSTORE ISZERO ISZERO PUSH1 0x5 SHL DUP3 ADD ADD PUSH0 PUSH2 0x1226 JUMP JUMPDEST DUP1 MLOAD DUP1 DUP4 MSTORE PUSH1 0x20 SWAP3 SWAP2 DUP2 SWAP1 DUP5 ADD DUP5 DUP5 ADD MCOPY PUSH0 DUP3 DUP3 ADD DUP5 ADD MSTORE PUSH1 0x1F ADD PUSH1 0x1F NOT AND ADD ADD SWAP1 JUMP JUMPDEST DUP2 PUSH1 0x1F DUP3 ADD SLT ISZERO PUSH2 0x149 JUMPI DUP1 CALLDATALOAD SWAP1 PUSH8 0xFFFFFFFFFFFFFFFF DUP3 GT PUSH2 0xAA8 JUMPI PUSH1 0x40 MLOAD SWAP3 PUSH2 0x12F2 PUSH1 0x1F DUP5 ADD PUSH1 0x1F NOT AND PUSH1 0x20 ADD DUP6 PUSH2 0xE39 JUMP JUMPDEST DUP3 DUP5 MSTORE PUSH1 0x20 DUP4 DUP4 ADD ADD GT PUSH2 0x149 JUMPI DUP2 PUSH0 SWAP3 PUSH1 0x20 DUP1 SWAP4 ADD DUP4 DUP7 ADD CALLDATACOPY DUP4 ADD ADD MSTORE SWAP1 JUMP JUMPDEST PUSH1 0x9 SLOAD DUP2 LT ISZERO PUSH2 0x132F JUMPI PUSH1 0x9 PUSH0 MSTORE PUSH1 0x20 PUSH0 KECCAK256 SWAP1 PUSH1 0x3 SHL ADD SWAP1 PUSH0 SWAP1 JUMP JUMPDEST PUSH4 0x4E487B71 PUSH1 0xE0 SHL PUSH0 MSTORE PUSH1 0x32 PUSH1 0x4 MSTORE PUSH1 0x24 PUSH0 REVERT JUMPDEST ISZERO PUSH2 0x134A JUMPI JUMP JUMPDEST PUSH1 0x40 MLOAD PUSH3 0x461BCD PUSH1 0xE5 SHL DUP2 MSTORE PUSH1 0x20 PUSH1 0x4 DUP3 ADD MSTORE PUSH1 0x24 DUP1 DUP3 ADD MSTORE PUSH32 0x4F6E6C79206D616E616765722063616E20706572666F726D2074686973206163 PUSH1 0x44 DUP3 ADD MSTORE PUSH4 0x3A34B7B7 PUSH1 0xE1 SHL PUSH1 0x64 DUP3 ADD MSTORE PUSH1 0x84 SWAP1 REVERT JUMPDEST PUSH0 NOT DUP2 EQ PUSH2 0xC40 JUMPI PUSH1 0x1 ADD SWAP1 JUMP INVALID LOG2 PUSH5 0x6970667358 0x22 SLT KECCAK256 DUP16 DUP13 LT 0xD0 CLZ 0xED 0xDC DUP3 PUSH7 0xB830869D799BA6 0x2D 0xA7 0x4D SWAP16 0xE2 DUP11 PUSH24 0xBFFEE142D4B62A04D664736F6C63430008220033A2646970 PUSH7 0x7358221220A115 0xBD 0x26 ADDRESS PUSH25 0x10D716D72C7281D2474BC6F91DAF62D1D5B49EF535A7168598 0xA7 PUSH5 0x736F6C6343 STOP ADDMOD 0x22 STOP CALLER "},"gasEstimates":{"creation":{"codeDepositCost":"1816200","executionCost":"1923","totalCost":"1818123"},"external":{"createCampaign(uint256,string,string,string,uint256,string,string,string,string,uint256)":"infinite","deployedCampaigns(uint256)":"6645","getDeployedCampaigns()":"infinite"}},"methodIdentifiers":{"createCampaign(uint256,string,string,string,uint256,string,string,string,string,uint256)":"1cdf942c","deployedCampaigns(uint256)":"339d50a5","getDeployedCampaigns()":"4acb9d4f"}},"storageLayout":{"storage":[{"astId":4,"contract":"Campaign.sol:CampaignFactory","label":"deployedCampaigns","offset":0,"slot":"0","type":"t_array(t_address)dyn_storage"}],"types":{"t_address":{"encoding":"inplace","label":"address","numberOfBytes":"20"},"t_array(t_address)dyn_storage":{"base":"t_address","encoding":"dynamic_array","label":"address[]","numberOfBytes":"32"}}},"transientStorageLayout":{"storage":[],"types":null},"userdoc":{"kind":"user","methods":{},"version":1}}