{"abi":[{"inputs":[{"internalType":"uint256","name":"minimum","type":"uint256"},{"internalType":"address","name":"creator","type":"address"}],"stateMutability":"nonpayable","type":"constructor"},{"inputs":[{"internalType":"uint256","name":"index","type":"uint256"}],"name":"approveRequest","outputs":[],"stateMutability":"nonpayable","type":"function"},{"inputs":[{"internalType":"address","name":"","type":"address"}],"name":"approvers","outputs":[{"internalType":"bool","name":"","type":"bool"}],"stateMutability":"view","type":"function"},{"inputs":[],"name":"approversCount","outputs":[{"internalType":"uint256","name":"","type":"uint256"}],"stateMutability":"view","type":"function"},{"inputs":[],"name":"contribute","outputs":[],"stateMutability":"payable","type":"function"},{"inputs":[{"internalType":"string","name":"description","type":"string"},{"internalType":"uint256","name":"value","type":"uint256"},{"internalType":"address payable","name":"recipient","type":"address"}],"name":"createRequest","outputs":[],"stateMutability":"nonpayable","type":"function"},{"inputs":[{"internalType":"uint256","name":"index","type":"uint256"}],"name":"finalizeRequest","outputs":[],"stateMutability":"payable","type":"function"},{"inputs":[],"name":"getRequestsCount","outputs":[{"internalType":"uint256","name":"","type":"uint256"}],"stateMutability":"view","type":"function"},{"inputs":[],"name":"manager","outputs":[{"internalType":"address","name":"","type":"address"}],"stateMutability":"view","type":"function"},{"inputs":[],"name":"minimumContribution","outputs":[{"internalType":"uint256","name":"","type":"uint256"}],"stateMutability":"view","type":"function"},{"inputs":[{"internalType":"uint256","name":"","type":"uint256"}],"name":"requests","outputs":[{"internalType":"string","name":"description","type":"string"},{"internalType":"uint256","name":"value","type":"uint256"},{"internalType":"address payable","name":"recipient","type":"address"},{"internalType":"bool","name":"complete","type":"bool"},{"internalType":"uint256","name":"approvalCount","type":"uint256"}],"stateMutability":"view","type":"function"}],"devdoc":{"kind":"dev","methods":{},"version":1},"evm":{"assembly":"    /* \"Campaign.sol\":446:2856  contract Campaign {... */\n  mstore(0x40, 0x80)\n    /* \"Campaign.sol\":871:872  0 */\n  0x00\n    /* \"Campaign.sol\":842:872  uint public approversCount = 0 */\n  0x04\n  sstore\n    /* \"Campaign.sol\":1010:1132  constructor(uint256 minimum, address creator) {... */\n  callvalue\n  dup1\n  iszero\n  tag_1\n  jumpi\n  revert(0x00, 0x00)\ntag_1:\n  pop\n  mload(0x40)\n  sub(codesize, bytecodeSize)\n  dup1\n  bytecodeSize\n  dup4\n  codecopy\n  dup2\n  dup2\n  add\n  0x40\n  mstore\n  dup2\n  add\n  swap1\n  tag_2\n  swap2\n  swap1\n  tag_3\n  jump\t// in\ntag_2:\n    /* \"Campaign.sol\":1077:1084  creator */\n  dup1\n    /* \"Campaign.sol\":1067:1074  manager */\n  0x01\n  0x00\n    /* \"Campaign.sol\":1067:1084  manager = creator */\n  0x0100\n  exp\n  dup2\n  sload\n  dup2\n  0xffffffffffffffffffffffffffffffffffffffff\n  mul\n  not\n  and\n  swap1\n  dup4\n  0xffffffffffffffffffffffffffffffffffffffff\n  and\n  mul\n  or\n  swap1\n  sstore\n  pop\n    /* \"Campaign.sol\":1117:1124  minimum */\n  dup2\n    /* \"Campaign.sol\":1095:1114  minimumContribution */\n  0x02\n    /* \"Campaign.sol\":1095:1124  minimumContribution = minimum */\n  dup2\n  swap1\n  sstore\n  pop\n    /* \"Campaign.sol\":1010:1132  constructor(uint256 minimum, address creator) {... */\n  pop\n  pop\n    /* \"Campaign.sol\":446:2856  contract Campaign {... */\n  jump(tag_6)\n    /* \"#utility.yul\":88:205   */\ntag_8:\n    /* \"#utility.yul\":197:198   */\n  0x00\n    /* \"#utility.yul\":194:195   */\n  0x00\n    /* \"#utility.yul\":187:199   */\n  revert\n    /* \"#utility.yul\":334:411   */\ntag_10:\n    /* \"#utility.yul\":371:378   */\n  0x00\n    /* \"#utility.yul\":400:405   */\n  dup2\n    /* \"#utility.yul\":389:405   */\n  swap1\n  pop\n    /* \"#utility.yul\":334:411   */\n  swap2\n  swap1\n  pop\n  jump\t// out\n    /* \"#utility.yul\":417:539   */\ntag_11:\n    /* \"#utility.yul\":490:514   */\n  tag_23\n    /* \"#utility.yul\":508:513   */\n  dup2\n    /* \"#utility.yul\":490:514   */\n  tag_10\n  jump\t// in\ntag_23:\n    /* \"#utility.yul\":483:488   */\n  dup2\n    /* \"#utility.yul\":480:515   */\n  eq\n    /* \"#utility.yul\":470:533   */\n  tag_24\n  jumpi\n    /* \"#utility.yul\":529:530   */\n  0x00\n    /* \"#utility.yul\":526:527   */\n  0x00\n    /* \"#utility.yul\":519:531   */\n  revert\n    /* \"#utility.yul\":470:533   */\ntag_24:\n    /* \"#utility.yul\":417:539   */\n  pop\n  jump\t// out\n    /* \"#utility.yul\":545:688   */\ntag_12:\n    /* \"#utility.yul\":602:607   */\n  0x00\n    /* \"#utility.yul\":633:639   */\n  dup2\n    /* \"#utility.yul\":627:640   */\n  mload\n    /* \"#utility.yul\":618:640   */\n  swap1\n  pop\n    /* \"#utility.yul\":649:682   */\n  tag_26\n    /* \"#utility.yul\":676:681   */\n  dup2\n    /* \"#utility.yul\":649:682   */\n  tag_11\n  jump\t// in\ntag_26:\n    /* \"#utility.yul\":545:688   */\n  swap3\n  swap2\n  pop\n  pop\n  jump\t// out\n    /* \"#utility.yul\":694:820   */\ntag_13:\n    /* \"#utility.yul\":731:738   */\n  0x00\n    /* \"#utility.yul\":771:813   */\n  0xffffffffffffffffffffffffffffffffffffffff\n    /* \"#utility.yul\":764:769   */\n  dup3\n    /* \"#utility.yul\":760:814   */\n  and\n    /* \"#utility.yul\":749:814   */\n  swap1\n  pop\n    /* \"#utility.yul\":694:820   */\n  swap2\n  swap1\n  pop\n  jump\t// out\n    /* \"#utility.yul\":826:922   */\ntag_14:\n    /* \"#utility.yul\":863:870   */\n  0x00\n    /* \"#utility.yul\":892:916   */\n  tag_29\n    /* \"#utility.yul\":910:915   */\n  dup3\n    /* \"#utility.yul\":892:916   */\n  tag_13\n  jump\t// in\ntag_29:\n    /* \"#utility.yul\":881:916   */\n  swap1\n  pop\n    /* \"#utility.yul\":826:922   */\n  swap2\n  swap1\n  pop\n  jump\t// out\n    /* \"#utility.yul\":928:1050   */\ntag_15:\n    /* \"#utility.yul\":1001:1025   */\n  tag_31\n    /* \"#utility.yul\":1019:1024   */\n  dup2\n    /* \"#utility.yul\":1001:1025   */\n  tag_14\n  jump\t// in\ntag_31:\n    /* \"#utility.yul\":994:999   */\n  dup2\n    /* \"#utility.yul\":991:1026   */\n  eq\n    /* \"#utility.yul\":981:1044   */\n  tag_32\n  jumpi\n    /* \"#utility.yul\":1040:1041   */\n  0x00\n    /* \"#utility.yul\":1037:1038   */\n  0x00\n    /* \"#utility.yul\":1030:1042   */\n  revert\n    /* \"#utility.yul\":981:1044   */\ntag_32:\n    /* \"#utility.yul\":928:1050   */\n  pop\n  jump\t// out\n    /* \"#utility.yul\":1056:1199   */\ntag_16:\n    /* \"#utility.yul\":1113:1118   */\n  0x00\n    /* \"#utility.yul\":1144:1150   */\n  dup2\n    /* \"#utility.yul\":1138:1151   */\n  mload\n    /* \"#utility.yul\":1129:1151   */\n  swap1\n  pop\n    /* \"#utility.yul\":1160:1193   */\n  tag_34\n    /* \"#utility.yul\":1187:1192   */\n  dup2\n    /* \"#utility.yul\":1160:1193   */\n  tag_15\n  jump\t// in\ntag_34:\n    /* \"#utility.yul\":1056:1199   */\n  swap3\n  swap2\n  pop\n  pop\n  jump\t// out\n    /* \"#utility.yul\":1205:1712   */\ntag_3:\n    /* \"#utility.yul\":1284:1290   */\n  0x00\n    /* \"#utility.yul\":1292:1298   */\n  0x00\n    /* \"#utility.yul\":1341:1343   */\n  0x40\n    /* \"#utility.yul\":1329:1338   */\n  dup4\n    /* \"#utility.yul\":1320:1327   */\n  dup6\n    /* \"#utility.yul\":1316:1339   */\n  sub\n    /* \"#utility.yul\":1312:1344   */\n  slt\n    /* \"#utility.yul\":1309:1428   */\n  iszero\n  tag_36\n  jumpi\n    /* \"#utility.yul\":1347:1426   */\n  tag_37\n  tag_8\n  jump\t// in\ntag_37:\n    /* \"#utility.yul\":1309:1428   */\ntag_36:\n    /* \"#utility.yul\":1467:1468   */\n  0x00\n    /* \"#utility.yul\":1492:1556   */\n  tag_38\n    /* \"#utility.yul\":1548:1555   */\n  dup6\n    /* \"#utility.yul\":1539:1545   */\n  dup3\n    /* \"#utility.yul\":1528:1537   */\n  dup7\n    /* \"#utility.yul\":1524:1546   */\n  add\n    /* \"#utility.yul\":1492:1556   */\n  tag_12\n  jump\t// in\ntag_38:\n    /* \"#utility.yul\":1482:1556   */\n  swap3\n  pop\n    /* \"#utility.yul\":1438:1566   */\n  pop\n    /* \"#utility.yul\":1605:1607   */\n  0x20\n    /* \"#utility.yul\":1631:1695   */\n  tag_39\n    /* \"#utility.yul\":1687:1694   */\n  dup6\n    /* \"#utility.yul\":1678:1684   */\n  dup3\n    /* \"#utility.yul\":1667:1676   */\n  dup7\n    /* \"#utility.yul\":1663:1685   */\n  add\n    /* \"#utility.yul\":1631:1695   */\n  tag_16\n  jump\t// in\ntag_39:\n    /* \"#utility.yul\":1621:1695   */\n  swap2\n  pop\n    /* \"#utility.yul\":1576:1705   */\n  pop\n    /* \"#utility.yul\":1205:1712   */\n  swap3\n  pop\n  swap3\n  swap1\n  pop\n  jump\t// out\n    /* \"Campaign.sol\":446:2856  contract Campaign {... */\ntag_6:\n  dataSize(sub_0)\n  dup1\n  dataOffset(sub_0)\n  0x00\n  codecopy\n  0x00\n  return\nstop\n\nsub_0: assembly {\n        /* \"Campaign.sol\":446:2856  contract Campaign {... */\n      mstore(0x40, 0x80)\n      jumpi(tag_1, lt(calldatasize, 0x04))\n      shr(0xe0, calldataload(0x00))\n      dup1\n      0x82fde093\n      gt\n      tag_12\n      jumpi\n      dup1\n      0x82fde093\n      eq\n      tag_7\n      jumpi\n      dup1\n      0x8a9cfd55\n      eq\n      tag_8\n      jumpi\n      dup1\n      0x937e09b1\n      eq\n      tag_9\n      jumpi\n      dup1\n      0xd7bb99ba\n      eq\n      tag_10\n      jumpi\n      dup1\n      0xd7d1bbdb\n      eq\n      tag_11\n      jumpi\n      jump(tag_1)\n    tag_12:\n      dup1\n      0x03441006\n      eq\n      tag_2\n      jumpi\n      dup1\n      0x0a144391\n      eq\n      tag_3\n      jumpi\n      dup1\n      0x3410452a\n      eq\n      tag_4\n      jumpi\n      dup1\n      0x481c6a75\n      eq\n      tag_5\n      jumpi\n      dup1\n      0x81d12c58\n      eq\n      tag_6\n      jumpi\n    tag_1:\n      revert(0x00, 0x00)\n        /* \"Campaign.sol\":2352:2745  function finalizeRequest(uint index) public payable restricted {... */\n    tag_2:\n      tag_13\n      0x04\n      dup1\n      calldatasize\n      sub\n      dup2\n      add\n      swap1\n      tag_14\n      swap2\n      swap1\n      tag_15\n      jump\t// in\n    tag_14:\n      tag_16\n      jump\t// in\n    tag_13:\n      stop\n        /* \"Campaign.sol\":794:835  mapping(address => bool) public approvers */\n    tag_3:\n      callvalue\n      dup1\n      iszero\n      tag_17\n      jumpi\n      revert(0x00, 0x00)\n    tag_17:\n      pop\n      tag_18\n      0x04\n      dup1\n      calldatasize\n      sub\n      dup2\n      add\n      swap1\n      tag_19\n      swap2\n      swap1\n      tag_20\n      jump\t// in\n    tag_19:\n      tag_21\n      jump\t// in\n    tag_18:\n      mload(0x40)\n      tag_22\n      swap2\n      swap1\n      tag_23\n      jump\t// in\n    tag_22:\n      mload(0x40)\n      dup1\n      swap2\n      sub\n      swap1\n      return\n        /* \"Campaign.sol\":2753:2849  function getRequestsCount() public view returns (uint) {... */\n    tag_4:\n      callvalue\n      dup1\n      iszero\n      tag_24\n      jumpi\n      revert(0x00, 0x00)\n    tag_24:\n      pop\n      tag_25\n      tag_26\n      jump\t// in\n    tag_25:\n      mload(0x40)\n      tag_27\n      swap2\n      swap1\n      tag_28\n      jump\t// in\n    tag_27:\n      mload(0x40)\n      dup1\n      swap2\n      sub\n      swap1\n      return\n        /* \"Campaign.sol\":724:746  address public manager */\n    tag_5:\n      callvalue\n      dup1\n      iszero\n      tag_29\n      jumpi\n      revert(0x00, 0x00)\n    tag_29:\n      pop\n      tag_30\n      tag_31\n      jump\t// in\n    tag_30:\n      mload(0x40)\n      tag_32\n      swap2\n      swap1\n      tag_33\n      jump\t// in\n    tag_32:\n      mload(0x40)\n      dup1\n      swap2\n      sub\n      swap1\n      return\n        /* \"Campaign.sol\":692:717  Request[] public requests */\n    tag_6:\n      callvalue\n      dup1\n      iszero\n      tag_34\n      jumpi\n      revert(0x00, 0x00)\n    tag_34:\n      pop\n      tag_35\n      0x04\n      dup1\n      calldatasize\n      sub\n      dup2\n      add\n      swap1\n      tag_36\n      swap2\n      swap1\n      tag_15\n      jump\t// in\n    tag_36:\n      tag_37\n      jump\t// in\n    tag_35:\n      mload(0x40)\n      tag_38\n      swap6\n      swap5\n      swap4\n      swap3\n      swap2\n      swap1\n      tag_39\n      jump\t// in\n    tag_38:\n      mload(0x40)\n      dup1\n      swap2\n      sub\n      swap1\n      return\n        /* \"Campaign.sol\":842:872  uint public approversCount = 0 */\n    tag_7:\n      callvalue\n      dup1\n      iszero\n      tag_40\n      jumpi\n      revert(0x00, 0x00)\n    tag_40:\n      pop\n      tag_41\n      tag_42\n      jump\t// in\n    tag_41:\n      mload(0x40)\n      tag_43\n      swap2\n      swap1\n      tag_28\n      jump\t// in\n    tag_43:\n      mload(0x40)\n      dup1\n      swap2\n      sub\n      swap1\n      return\n        /* \"Campaign.sol\":1393:1898  function createRequest(... */\n    tag_8:\n      callvalue\n      dup1\n      iszero\n      tag_44\n      jumpi\n      revert(0x00, 0x00)\n    tag_44:\n      pop\n      tag_45\n      0x04\n      dup1\n      calldatasize\n      sub\n      dup2\n      add\n      swap1\n      tag_46\n      swap2\n      swap1\n      tag_47\n      jump\t// in\n    tag_46:\n      tag_48\n      jump\t// in\n    tag_45:\n      stop\n        /* \"Campaign.sol\":753:787  uint256 public minimumContribution */\n    tag_9:\n      callvalue\n      dup1\n      iszero\n      tag_49\n      jumpi\n      revert(0x00, 0x00)\n    tag_49:\n      pop\n      tag_50\n      tag_51\n      jump\t// in\n    tag_50:\n      mload(0x40)\n      tag_52\n      swap2\n      swap1\n      tag_28\n      jump\t// in\n    tag_52:\n      mload(0x40)\n      dup1\n      swap2\n      sub\n      swap1\n      return\n        /* \"Campaign.sol\":1140:1385  function contribute() public payable {... */\n    tag_10:\n      tag_53\n      tag_54\n      jump\t// in\n    tag_53:\n      stop\n        /* \"Campaign.sol\":1906:2344  function approveRequest(uint256 index) public {... */\n    tag_11:\n      callvalue\n      dup1\n      iszero\n      tag_55\n      jumpi\n      revert(0x00, 0x00)\n    tag_55:\n      pop\n      tag_56\n      0x04\n      dup1\n      calldatasize\n      sub\n      dup2\n      add\n      swap1\n      tag_57\n      swap2\n      swap1\n      tag_15\n      jump\t// in\n    tag_57:\n      tag_58\n      jump\t// in\n    tag_56:\n      stop\n        /* \"Campaign.sol\":2352:2745  function finalizeRequest(uint index) public payable restricted {... */\n    tag_16:\n        /* \"Campaign.sol\":936:943  manager */\n      0x01\n      0x00\n      swap1\n      sload\n      swap1\n      0x0100\n      exp\n      swap1\n      div\n      0xffffffffffffffffffffffffffffffffffffffff\n      and\n        /* \"Campaign.sol\":922:943  msg.sender == manager */\n      0xffffffffffffffffffffffffffffffffffffffff\n      and\n        /* \"Campaign.sol\":922:932  msg.sender */\n      caller\n        /* \"Campaign.sol\":922:943  msg.sender == manager */\n      0xffffffffffffffffffffffffffffffffffffffff\n      and\n      eq\n        /* \"Campaign.sol\":914:982  require(msg.sender == manager, \"Only manager can Perform this task\") */\n      tag_60\n      jumpi\n      mload(0x40)\n      0x08c379a000000000000000000000000000000000000000000000000000000000\n      dup2\n      mstore\n      0x04\n      add\n      tag_61\n      swap1\n      tag_62\n      jump\t// in\n    tag_61:\n      mload(0x40)\n      dup1\n      swap2\n      sub\n      swap1\n      revert\n    tag_60:\n        /* \"Campaign.sol\":2426:2449  Request storage request */\n      0x00\n        /* \"Campaign.sol\":2452:2460  requests */\n      0x00\n        /* \"Campaign.sol\":2461:2466  index */\n      dup3\n        /* \"Campaign.sol\":2452:2467  requests[index] */\n      dup2\n      sload\n      dup2\n      lt\n      tag_64\n      jumpi\n      tag_65\n      tag_66\n      jump\t// in\n    tag_65:\n    tag_64:\n      swap1\n      0x00\n      mstore\n      keccak256(0x00, 0x20)\n      swap1\n      0x05\n      mul\n      add\n        /* \"Campaign.sol\":2426:2467  Request storage request = requests[index] */\n      swap1\n      pop\n        /* \"Campaign.sol\":2531:2532  2 */\n      0x02\n        /* \"Campaign.sol\":2514:2528  approversCount */\n      sload(0x04)\n        /* \"Campaign.sol\":2514:2532  approversCount / 2 */\n      tag_68\n      swap2\n      swap1\n      tag_69\n      jump\t// in\n    tag_68:\n        /* \"Campaign.sol\":2489:2496  request */\n      dup2\n        /* \"Campaign.sol\":2489:2510  request.approvalCount */\n      0x03\n      add\n      sload\n        /* \"Campaign.sol\":2489:2533  request.approvalCount > (approversCount / 2) */\n      gt\n        /* \"Campaign.sol\":2480:2569  require( request.approvalCount > (approversCount / 2), \"Not enough approvers have voted\") */\n      tag_70\n      jumpi\n      mload(0x40)\n      0x08c379a000000000000000000000000000000000000000000000000000000000\n      dup2\n      mstore\n      0x04\n      add\n      tag_71\n      swap1\n      tag_72\n      jump\t// in\n    tag_71:\n      mload(0x40)\n      dup1\n      swap2\n      sub\n      swap1\n      revert\n    tag_70:\n        /* \"Campaign.sol\":2609:2614  false */\n      0x00\n        /* \"Campaign.sol\":2589:2614  request.complete == false */\n      iszero\n      iszero\n        /* \"Campaign.sol\":2589:2596  request */\n      dup2\n        /* \"Campaign.sol\":2589:2605  request.complete */\n      0x02\n      add\n      0x14\n      swap1\n      sload\n      swap1\n      0x0100\n      exp\n      swap1\n      div\n      0xff\n      and\n        /* \"Campaign.sol\":2589:2614  request.complete == false */\n      iszero\n      iszero\n      eq\n        /* \"Campaign.sol\":2580:2647  require( request.complete == false, \"Request is already completed\") */\n      tag_73\n      jumpi\n      mload(0x40)\n      0x08c379a000000000000000000000000000000000000000000000000000000000\n      dup2\n      mstore\n      0x04\n      add\n      tag_74\n      swap1\n      tag_75\n      jump\t// in\n    tag_74:\n      mload(0x40)\n      dup1\n      swap2\n      sub\n      swap1\n      revert\n    tag_73:\n        /* \"Campaign.sol\":2660:2667  request */\n      dup1\n        /* \"Campaign.sol\":2660:2677  request.recipient */\n      0x02\n      add\n      0x00\n      swap1\n      sload\n      swap1\n      0x0100\n      exp\n      swap1\n      div\n      0xffffffffffffffffffffffffffffffffffffffff\n      and\n        /* \"Campaign.sol\":2660:2686  request.recipient.transfer */\n      0xffffffffffffffffffffffffffffffffffffffff\n      and\n        /* \"Campaign.sol\":2660:2701  request.recipient.transfer(request.value) */\n      0x08fc\n        /* \"Campaign.sol\":2687:2694  request */\n      dup3\n        /* \"Campaign.sol\":2687:2700  request.value */\n      0x01\n      add\n      sload\n        /* \"Campaign.sol\":2660:2701  request.recipient.transfer(request.value) */\n      swap1\n      dup2\n      iszero\n      mul\n      swap1\n      mload(0x40)\n      0x00\n      mload(0x40)\n      dup1\n      dup4\n      sub\n      dup2\n      dup6\n      dup9\n      dup9\n      call\n      swap4\n      pop\n      pop\n      pop\n      pop\n      iszero\n      dup1\n      iszero\n      tag_77\n      jumpi\n      returndatacopy(0x00, 0x00, returndatasize)\n      revert(0x00, returndatasize)\n    tag_77:\n      pop\n        /* \"Campaign.sol\":2733:2737  true */\n      0x01\n        /* \"Campaign.sol\":2714:2721  request */\n      dup2\n        /* \"Campaign.sol\":2714:2730  request.complete */\n      0x02\n      add\n      0x14\n        /* \"Campaign.sol\":2714:2737  request.complete = true */\n      0x0100\n      exp\n      dup2\n      sload\n      dup2\n      0xff\n      mul\n      not\n      and\n      swap1\n      dup4\n      iszero\n      iszero\n      mul\n      or\n      swap1\n      sstore\n      pop\n        /* \"Campaign.sol\":2415:2745  {... */\n      pop\n        /* \"Campaign.sol\":2352:2745  function finalizeRequest(uint index) public payable restricted {... */\n      pop\n      jump\t// out\n        /* \"Campaign.sol\":794:835  mapping(address => bool) public approvers */\n    tag_21:\n      mstore(0x20, 0x03)\n      dup1\n      0x00\n      mstore\n      keccak256(0x00, 0x40)\n      0x00\n      swap2\n      pop\n      sload\n      swap1\n      0x0100\n      exp\n      swap1\n      div\n      0xff\n      and\n      dup2\n      jump\t// out\n        /* \"Campaign.sol\":2753:2849  function getRequestsCount() public view returns (uint) {... */\n    tag_26:\n        /* \"Campaign.sol\":2802:2806  uint */\n      0x00\n        /* \"Campaign.sol\":2826:2834  requests */\n      0x00\n        /* \"Campaign.sol\":2826:2841  requests.length */\n      dup1\n      sload\n      swap1\n      pop\n        /* \"Campaign.sol\":2819:2841  return requests.length */\n      swap1\n      pop\n        /* \"Campaign.sol\":2753:2849  function getRequestsCount() public view returns (uint) {... */\n      swap1\n      jump\t// out\n        /* \"Campaign.sol\":724:746  address public manager */\n    tag_31:\n      0x01\n      0x00\n      swap1\n      sload\n      swap1\n      0x0100\n      exp\n      swap1\n      div\n      0xffffffffffffffffffffffffffffffffffffffff\n      and\n      dup2\n      jump\t// out\n        /* \"Campaign.sol\":692:717  Request[] public requests */\n    tag_37:\n      0x00\n      dup2\n      dup2\n      sload\n      dup2\n      lt\n      tag_79\n      jumpi\n      0x00\n      dup1\n      revert\n    tag_79:\n      swap1\n      0x00\n      mstore\n      keccak256(0x00, 0x20)\n      swap1\n      0x05\n      mul\n      add\n      0x00\n      swap2\n      pop\n      swap1\n      pop\n      dup1\n      0x00\n      add\n      dup1\n      sload\n      tag_81\n      swap1\n      tag_82\n      jump\t// in\n    tag_81:\n      dup1\n      0x1f\n      add\n      0x20\n      dup1\n      swap2\n      div\n      mul\n      0x20\n      add\n      mload(0x40)\n      swap1\n      dup2\n      add\n      0x40\n      mstore\n      dup1\n      swap3\n      swap2\n      swap1\n      dup2\n      dup2\n      mstore\n      0x20\n      add\n      dup3\n      dup1\n      sload\n      tag_83\n      swap1\n      tag_82\n      jump\t// in\n    tag_83:\n      dup1\n      iszero\n      tag_84\n      jumpi\n      dup1\n      0x1f\n      lt\n      tag_85\n      jumpi\n      0x0100\n      dup1\n      dup4\n      sload\n      div\n      mul\n      dup4\n      mstore\n      swap2\n      0x20\n      add\n      swap2\n      jump(tag_84)\n    tag_85:\n      dup3\n      add\n      swap2\n      swap1\n      0x00\n      mstore\n      keccak256(0x00, 0x20)\n      swap1\n    tag_86:\n      dup2\n      sload\n      dup2\n      mstore\n      swap1\n      0x01\n      add\n      swap1\n      0x20\n      add\n      dup1\n      dup4\n      gt\n      tag_86\n      jumpi\n      dup3\n      swap1\n      sub\n      0x1f\n      and\n      dup3\n      add\n      swap2\n    tag_84:\n      pop\n      pop\n      pop\n      pop\n      pop\n      swap1\n      dup1\n      0x01\n      add\n      sload\n      swap1\n      dup1\n      0x02\n      add\n      0x00\n      swap1\n      sload\n      swap1\n      0x0100\n      exp\n      swap1\n      div\n      0xffffffffffffffffffffffffffffffffffffffff\n      and\n      swap1\n      dup1\n      0x02\n      add\n      0x14\n      swap1\n      sload\n      swap1\n      0x0100\n      exp\n      swap1\n      div\n      0xff\n      and\n      swap1\n      dup1\n      0x03\n      add\n      sload\n      swap1\n      pop\n      dup6\n      jump\t// out\n        /* \"Campaign.sol\":842:872  uint public approversCount = 0 */\n    tag_42:\n      sload(0x04)\n      dup2\n      jump\t// out\n        /* \"Campaign.sol\":1393:1898  function createRequest(... */\n    tag_48:\n        /* \"Campaign.sol\":936:943  manager */\n      0x01\n      0x00\n      swap1\n      sload\n      swap1\n      0x0100\n      exp\n      swap1\n      div\n      0xffffffffffffffffffffffffffffffffffffffff\n      and\n        /* \"Campaign.sol\":922:943  msg.sender == manager */\n      0xffffffffffffffffffffffffffffffffffffffff\n      and\n        /* \"Campaign.sol\":922:932  msg.sender */\n      caller\n        /* \"Campaign.sol\":922:943  msg.sender == manager */\n      0xffffffffffffffffffffffffffffffffffffffff\n      and\n      eq\n        /* \"Campaign.sol\":914:982  require(msg.sender == manager, \"Only manager can Perform this task\") */\n      tag_88\n      jumpi\n      mload(0x40)\n      0x08c379a000000000000000000000000000000000000000000000000000000000\n      dup2\n      mstore\n      0x04\n      add\n      tag_89\n      swap1\n      tag_62\n      jump\t// in\n    tag_89:\n      mload(0x40)\n      dup1\n      swap2\n      sub\n      swap1\n      revert\n    tag_88:\n        /* \"Campaign.sol\":1558:1566  requests */\n      0x00\n        /* \"Campaign.sol\":1558:1573  requests.push() */\n      0x01\n      dup2\n      0x01\n      dup2\n      sload\n      add\n      dup1\n      dup3\n      sstore\n      dup1\n      swap2\n      pop\n      pop\n      sub\n      swap1\n      0x00\n      mstore\n      keccak256(0x00, 0x20)\n      swap1\n      pop\n      pop\n        /* \"Campaign.sol\":1626:1652  Request storage newRequest */\n      0x00\n        /* \"Campaign.sol\":1655:1663  requests */\n      0x00\n        /* \"Campaign.sol\":1682:1683  1 */\n      0x01\n        /* \"Campaign.sol\":1664:1672  requests */\n      0x00\n        /* \"Campaign.sol\":1664:1679  requests.length */\n      dup1\n      sload\n      swap1\n      pop\n        /* \"Campaign.sol\":1664:1683  requests.length - 1 */\n      tag_92\n      swap2\n      swap1\n      tag_93\n      jump\t// in\n    tag_92:\n        /* \"Campaign.sol\":1655:1684  requests[requests.length - 1] */\n      dup2\n      sload\n      dup2\n      lt\n      tag_94\n      jumpi\n      tag_95\n      tag_66\n      jump\t// in\n    tag_95:\n    tag_94:\n      swap1\n      0x00\n      mstore\n      keccak256(0x00, 0x20)\n      swap1\n      0x05\n      mul\n      add\n        /* \"Campaign.sol\":1626:1684  Request storage newRequest = requests[requests.length - 1] */\n      swap1\n      pop\n        /* \"Campaign.sol\":1722:1733  description */\n      dup4\n        /* \"Campaign.sol\":1697:1707  newRequest */\n      dup2\n        /* \"Campaign.sol\":1697:1719  newRequest.description */\n      0x00\n      add\n        /* \"Campaign.sol\":1697:1733  newRequest.description = description */\n      swap1\n      dup2\n      tag_97\n      swap2\n      swap1\n      tag_98\n      jump\t// in\n    tag_97:\n      pop\n        /* \"Campaign.sol\":1763:1768  value */\n      dup3\n        /* \"Campaign.sol\":1744:1754  newRequest */\n      dup2\n        /* \"Campaign.sol\":1744:1760  newRequest.value */\n      0x01\n      add\n        /* \"Campaign.sol\":1744:1768  newRequest.value = value */\n      dup2\n      swap1\n      sstore\n      pop\n        /* \"Campaign.sol\":1802:1811  recipient */\n      dup2\n        /* \"Campaign.sol\":1779:1789  newRequest */\n      dup2\n        /* \"Campaign.sol\":1779:1799  newRequest.recipient */\n      0x02\n      add\n      0x00\n        /* \"Campaign.sol\":1779:1811  newRequest.recipient = recipient */\n      0x0100\n      exp\n      dup2\n      sload\n      dup2\n      0xffffffffffffffffffffffffffffffffffffffff\n      mul\n      not\n      and\n      swap1\n      dup4\n      0xffffffffffffffffffffffffffffffffffffffff\n      and\n      mul\n      or\n      swap1\n      sstore\n      pop\n        /* \"Campaign.sol\":1844:1849  false */\n      0x00\n        /* \"Campaign.sol\":1822:1832  newRequest */\n      dup2\n        /* \"Campaign.sol\":1822:1841  newRequest.complete */\n      0x02\n      add\n      0x14\n        /* \"Campaign.sol\":1822:1849  newRequest.complete = false */\n      0x0100\n      exp\n      dup2\n      sload\n      dup2\n      0xff\n      mul\n      not\n      and\n      swap1\n      dup4\n      iszero\n      iszero\n      mul\n      or\n      swap1\n      sstore\n      pop\n        /* \"Campaign.sol\":1887:1888  0 */\n      0x00\n        /* \"Campaign.sol\":1860:1870  newRequest */\n      dup2\n        /* \"Campaign.sol\":1860:1884  newRequest.approvalCount */\n      0x03\n      add\n        /* \"Campaign.sol\":1860:1888  newRequest.approvalCount = 0 */\n      dup2\n      swap1\n      sstore\n      pop\n        /* \"Campaign.sol\":1537:1898  {... */\n      pop\n        /* \"Campaign.sol\":1393:1898  function createRequest(... */\n      pop\n      pop\n      pop\n      jump\t// out\n        /* \"Campaign.sol\":753:787  uint256 public minimumContribution */\n    tag_51:\n      sload(0x02)\n      dup2\n      jump\t// out\n        /* \"Campaign.sol\":1140:1385  function contribute() public payable {... */\n    tag_54:\n        /* \"Campaign.sol\":1222:1241  minimumContribution */\n      sload(0x02)\n        /* \"Campaign.sol\":1210:1219  msg.value */\n      callvalue\n        /* \"Campaign.sol\":1210:1241  msg.value > minimumContribution */\n      gt\n        /* \"Campaign.sol\":1188:1309  require(... */\n      tag_100\n      jumpi\n      mload(0x40)\n      0x08c379a000000000000000000000000000000000000000000000000000000000\n      dup2\n      mstore\n      0x04\n      add\n      tag_101\n      swap1\n      tag_102\n      jump\t// in\n    tag_101:\n      mload(0x40)\n      dup1\n      swap2\n      sub\n      swap1\n      revert\n    tag_100:\n        /* \"Campaign.sol\":1346:1350  true */\n      0x01\n        /* \"Campaign.sol\":1322:1331  approvers */\n      0x03\n        /* \"Campaign.sol\":1322:1343  approvers[msg.sender] */\n      0x00\n        /* \"Campaign.sol\":1332:1342  msg.sender */\n      caller\n        /* \"Campaign.sol\":1322:1343  approvers[msg.sender] */\n      0xffffffffffffffffffffffffffffffffffffffff\n      and\n      0xffffffffffffffffffffffffffffffffffffffff\n      and\n      dup2\n      mstore\n      0x20\n      add\n      swap1\n      dup2\n      mstore\n      0x20\n      add\n      0x00\n      keccak256\n      0x00\n        /* \"Campaign.sol\":1322:1350  approvers[msg.sender] = true */\n      0x0100\n      exp\n      dup2\n      sload\n      dup2\n      0xff\n      mul\n      not\n      and\n      swap1\n      dup4\n      iszero\n      iszero\n      mul\n      or\n      swap1\n      sstore\n      pop\n        /* \"Campaign.sol\":1361:1375  approversCount */\n      0x04\n      0x00\n        /* \"Campaign.sol\":1361:1377  approversCount++ */\n      dup2\n      sload\n      dup1\n      swap3\n      swap2\n      swap1\n      tag_103\n      swap1\n      tag_104\n      jump\t// in\n    tag_103:\n      swap2\n      swap1\n      pop\n      sstore\n      pop\n        /* \"Campaign.sol\":1140:1385  function contribute() public payable {... */\n      jump\t// out\n        /* \"Campaign.sol\":1906:2344  function approveRequest(uint256 index) public {... */\n    tag_58:\n        /* \"Campaign.sol\":1963:1986  Request storage request */\n      0x00\n        /* \"Campaign.sol\":1989:1997  requests */\n      0x00\n        /* \"Campaign.sol\":1998:2003  index */\n      dup3\n        /* \"Campaign.sol\":1989:2004  requests[index] */\n      dup2\n      sload\n      dup2\n      lt\n      tag_106\n      jumpi\n      tag_107\n      tag_66\n      jump\t// in\n    tag_107:\n    tag_106:\n      swap1\n      0x00\n      mstore\n      keccak256(0x00, 0x20)\n      swap1\n      0x05\n      mul\n      add\n        /* \"Campaign.sol\":1963:2004  Request storage request = requests[index] */\n      swap1\n      pop\n        /* \"Campaign.sol\":2064:2068  true */\n      0x01\n        /* \"Campaign.sol\":2039:2068  approvers[msg.sender] == true */\n      iszero\n      iszero\n        /* \"Campaign.sol\":2039:2048  approvers */\n      0x03\n        /* \"Campaign.sol\":2039:2060  approvers[msg.sender] */\n      0x00\n        /* \"Campaign.sol\":2049:2059  msg.sender */\n      caller\n        /* \"Campaign.sol\":2039:2060  approvers[msg.sender] */\n      0xffffffffffffffffffffffffffffffffffffffff\n      and\n      0xffffffffffffffffffffffffffffffffffffffff\n      and\n      dup2\n      mstore\n      0x20\n      add\n      swap1\n      dup2\n      mstore\n      0x20\n      add\n      0x00\n      keccak256\n      0x00\n      swap1\n      sload\n      swap1\n      0x0100\n      exp\n      swap1\n      div\n      0xff\n      and\n        /* \"Campaign.sol\":2039:2068  approvers[msg.sender] == true */\n      iszero\n      iszero\n      eq\n        /* \"Campaign.sol\":2017:2132  require(... */\n      tag_109\n      jumpi\n      mload(0x40)\n      0x08c379a000000000000000000000000000000000000000000000000000000000\n      dup2\n      mstore\n      0x04\n      add\n      tag_110\n      swap1\n      tag_111\n      jump\t// in\n    tag_110:\n      mload(0x40)\n      dup1\n      swap2\n      sub\n      swap1\n      revert\n    tag_109:\n        /* \"Campaign.sol\":2198:2203  false */\n      0x00\n        /* \"Campaign.sol\":2165:2203  request.approvals[msg.sender] == false */\n      iszero\n      iszero\n        /* \"Campaign.sol\":2165:2172  request */\n      dup2\n        /* \"Campaign.sol\":2165:2182  request.approvals */\n      0x04\n      add\n        /* \"Campaign.sol\":2165:2194  request.approvals[msg.sender] */\n      0x00\n        /* \"Campaign.sol\":2183:2193  msg.sender */\n      caller\n        /* \"Campaign.sol\":2165:2194  request.approvals[msg.sender] */\n      0xffffffffffffffffffffffffffffffffffffffff\n      and\n      0xffffffffffffffffffffffffffffffffffffffff\n      and\n      dup2\n      mstore\n      0x20\n      add\n      swap1\n      dup2\n      mstore\n      0x20\n      add\n      0x00\n      keccak256\n      0x00\n      swap1\n      sload\n      swap1\n      0x0100\n      exp\n      swap1\n      div\n      0xff\n      and\n        /* \"Campaign.sol\":2165:2203  request.approvals[msg.sender] == false */\n      iszero\n      iszero\n      eq\n        /* \"Campaign.sol\":2143:2253  require(... */\n      tag_112\n      jumpi\n      mload(0x40)\n      0x08c379a000000000000000000000000000000000000000000000000000000000\n      dup2\n      mstore\n      0x04\n      add\n      tag_113\n      swap1\n      tag_114\n      jump\t// in\n    tag_113:\n      mload(0x40)\n      dup1\n      swap2\n      sub\n      swap1\n      revert\n    tag_112:\n        /* \"Campaign.sol\":2298:2302  true */\n      0x01\n        /* \"Campaign.sol\":2266:2273  request */\n      dup2\n        /* \"Campaign.sol\":2266:2283  request.approvals */\n      0x04\n      add\n        /* \"Campaign.sol\":2266:2295  request.approvals[msg.sender] */\n      0x00\n        /* \"Campaign.sol\":2284:2294  msg.sender */\n      caller\n        /* \"Campaign.sol\":2266:2295  request.approvals[msg.sender] */\n      0xffffffffffffffffffffffffffffffffffffffff\n      and\n      0xffffffffffffffffffffffffffffffffffffffff\n      and\n      dup2\n      mstore\n      0x20\n      add\n      swap1\n      dup2\n      mstore\n      0x20\n      add\n      0x00\n      keccak256\n      0x00\n        /* \"Campaign.sol\":2266:2302  request.approvals[msg.sender] = true */\n      0x0100\n      exp\n      dup2\n      sload\n      dup2\n      0xff\n      mul\n      not\n      and\n      swap1\n      dup4\n      iszero\n      iszero\n      mul\n      or\n      swap1\n      sstore\n      pop\n        /* \"Campaign.sol\":2313:2320  request */\n      dup1\n        /* \"Campaign.sol\":2313:2334  request.approvalCount */\n      0x03\n      add\n      0x00\n        /* \"Campaign.sol\":2313:2336  request.approvalCount++ */\n      dup2\n      sload\n      dup1\n      swap3\n      swap2\n      swap1\n      tag_115\n      swap1\n      tag_104\n      jump\t// in\n    tag_115:\n      swap2\n      swap1\n      pop\n      sstore\n      pop\n        /* \"Campaign.sol\":1952:2344  {... */\n      pop\n        /* \"Campaign.sol\":1906:2344  function approveRequest(uint256 index) public {... */\n      pop\n      jump\t// out\n        /* \"#utility.yul\":7:82   */\n    tag_116:\n        /* \"#utility.yul\":40:46   */\n      0x00\n        /* \"#utility.yul\":73:75   */\n      0x40\n        /* \"#utility.yul\":67:76   */\n      mload\n        /* \"#utility.yul\":57:76   */\n      swap1\n      pop\n        /* \"#utility.yul\":7:82   */\n      swap1\n      jump\t// out\n        /* \"#utility.yul\":88:205   */\n    tag_117:\n        /* \"#utility.yul\":197:198   */\n      0x00\n        /* \"#utility.yul\":194:195   */\n      0x00\n        /* \"#utility.yul\":187:199   */\n      revert\n        /* \"#utility.yul\":211:328   */\n    tag_118:\n        /* \"#utility.yul\":320:321   */\n      0x00\n        /* \"#utility.yul\":317:318   */\n      0x00\n        /* \"#utility.yul\":310:322   */\n      revert\n        /* \"#utility.yul\":334:411   */\n    tag_119:\n        /* \"#utility.yul\":371:378   */\n      0x00\n        /* \"#utility.yul\":400:405   */\n      dup2\n        /* \"#utility.yul\":389:405   */\n      swap1\n      pop\n        /* \"#utility.yul\":334:411   */\n      swap2\n      swap1\n      pop\n      jump\t// out\n        /* \"#utility.yul\":417:539   */\n    tag_120:\n        /* \"#utility.yul\":490:514   */\n      tag_184\n        /* \"#utility.yul\":508:513   */\n      dup2\n        /* \"#utility.yul\":490:514   */\n      tag_119\n      jump\t// in\n    tag_184:\n        /* \"#utility.yul\":483:488   */\n      dup2\n        /* \"#utility.yul\":480:515   */\n      eq\n        /* \"#utility.yul\":470:533   */\n      tag_185\n      jumpi\n        /* \"#utility.yul\":529:530   */\n      0x00\n        /* \"#utility.yul\":526:527   */\n      0x00\n        /* \"#utility.yul\":519:531   */\n      revert\n        /* \"#utility.yul\":470:533   */\n    tag_185:\n        /* \"#utility.yul\":417:539   */\n      pop\n      jump\t// out\n        /* \"#utility.yul\":545:684   */\n    tag_121:\n        /* \"#utility.yul\":591:596   */\n      0x00\n        /* \"#utility.yul\":629:635   */\n      dup2\n        /* \"#utility.yul\":616:636   */\n      calldataload\n        /* \"#utility.yul\":607:636   */\n      swap1\n      pop\n        /* \"#utility.yul\":645:678   */\n      tag_187\n        /* \"#utility.yul\":672:677   */\n      dup2\n        /* \"#utility.yul\":645:678   */\n      tag_120\n      jump\t// in\n    tag_187:\n        /* \"#utility.yul\":545:684   */\n      swap3\n      swap2\n      pop\n      pop\n      jump\t// out\n        /* \"#utility.yul\":690:1019   */\n    tag_15:\n        /* \"#utility.yul\":749:755   */\n      0x00\n        /* \"#utility.yul\":798:800   */\n      0x20\n        /* \"#utility.yul\":786:795   */\n      dup3\n        /* \"#utility.yul\":777:784   */\n      dup5\n        /* \"#utility.yul\":773:796   */\n      sub\n        /* \"#utility.yul\":769:801   */\n      slt\n        /* \"#utility.yul\":766:885   */\n      iszero\n      tag_189\n      jumpi\n        /* \"#utility.yul\":804:883   */\n      tag_190\n      tag_117\n      jump\t// in\n    tag_190:\n        /* \"#utility.yul\":766:885   */\n    tag_189:\n        /* \"#utility.yul\":924:925   */\n      0x00\n        /* \"#utility.yul\":949:1002   */\n      tag_191\n        /* \"#utility.yul\":994:1001   */\n      dup5\n        /* \"#utility.yul\":985:991   */\n      dup3\n        /* \"#utility.yul\":974:983   */\n      dup6\n        /* \"#utility.yul\":970:992   */\n      add\n        /* \"#utility.yul\":949:1002   */\n      tag_121\n      jump\t// in\n    tag_191:\n        /* \"#utility.yul\":939:1002   */\n      swap2\n      pop\n        /* \"#utility.yul\":895:1012   */\n      pop\n        /* \"#utility.yul\":690:1019   */\n      swap3\n      swap2\n      pop\n      pop\n      jump\t// out\n        /* \"#utility.yul\":1025:1151   */\n    tag_122:\n        /* \"#utility.yul\":1062:1069   */\n      0x00\n        /* \"#utility.yul\":1102:1144   */\n      0xffffffffffffffffffffffffffffffffffffffff\n        /* \"#utility.yul\":1095:1100   */\n      dup3\n        /* \"#utility.yul\":1091:1145   */\n      and\n        /* \"#utility.yul\":1080:1145   */\n      swap1\n      pop\n        /* \"#utility.yul\":1025:1151   */\n      swap2\n      swap1\n      pop\n      jump\t// out\n        /* \"#utility.yul\":1157:1253   */\n    tag_123:\n        /* \"#utility.yul\":1194:1201   */\n      0x00\n        /* \"#utility.yul\":1223:1247   */\n      tag_194\n        /* \"#utility.yul\":1241:1246   */\n      dup3\n        /* \"#utility.yul\":1223:1247   */\n      tag_122\n      jump\t// in\n    tag_194:\n        /* \"#utility.yul\":1212:1247   */\n      swap1\n      pop\n        /* \"#utility.yul\":1157:1253   */\n      swap2\n      swap1\n      pop\n      jump\t// out\n        /* \"#utility.yul\":1259:1381   */\n    tag_124:\n        /* \"#utility.yul\":1332:1356   */\n      tag_196\n        /* \"#utility.yul\":1350:1355   */\n      dup2\n        /* \"#utility.yul\":1332:1356   */\n      tag_123\n      jump\t// in\n    tag_196:\n        /* \"#utility.yul\":1325:1330   */\n      dup2\n        /* \"#utility.yul\":1322:1357   */\n      eq\n        /* \"#utility.yul\":1312:1375   */\n      tag_197\n      jumpi\n        /* \"#utility.yul\":1371:1372   */\n      0x00\n        /* \"#utility.yul\":1368:1369   */\n      0x00\n        /* \"#utility.yul\":1361:1373   */\n      revert\n        /* \"#utility.yul\":1312:1375   */\n    tag_197:\n        /* \"#utility.yul\":1259:1381   */\n      pop\n      jump\t// out\n        /* \"#utility.yul\":1387:1526   */\n    tag_125:\n        /* \"#utility.yul\":1433:1438   */\n      0x00\n        /* \"#utility.yul\":1471:1477   */\n      dup2\n        /* \"#utility.yul\":1458:1478   */\n      calldataload\n        /* \"#utility.yul\":1449:1478   */\n      swap1\n      pop\n        /* \"#utility.yul\":1487:1520   */\n      tag_199\n        /* \"#utility.yul\":1514:1519   */\n      dup2\n        /* \"#utility.yul\":1487:1520   */\n      tag_124\n      jump\t// in\n    tag_199:\n        /* \"#utility.yul\":1387:1526   */\n      swap3\n      swap2\n      pop\n      pop\n      jump\t// out\n        /* \"#utility.yul\":1532:1861   */\n    tag_20:\n        /* \"#utility.yul\":1591:1597   */\n      0x00\n        /* \"#utility.yul\":1640:1642   */\n      0x20\n        /* \"#utility.yul\":1628:1637   */\n      dup3\n        /* \"#utility.yul\":1619:1626   */\n      dup5\n        /* \"#utility.yul\":1615:1638   */\n      sub\n        /* \"#utility.yul\":1611:1643   */\n      slt\n        /* \"#utility.yul\":1608:1727   */\n      iszero\n      tag_201\n      jumpi\n        /* \"#utility.yul\":1646:1725   */\n      tag_202\n      tag_117\n      jump\t// in\n    tag_202:\n        /* \"#utility.yul\":1608:1727   */\n    tag_201:\n        /* \"#utility.yul\":1766:1767   */\n      0x00\n        /* \"#utility.yul\":1791:1844   */\n      tag_203\n        /* \"#utility.yul\":1836:1843   */\n      dup5\n        /* \"#utility.yul\":1827:1833   */\n      dup3\n        /* \"#utility.yul\":1816:1825   */\n      dup6\n        /* \"#utility.yul\":1812:1834   */\n      add\n        /* \"#utility.yul\":1791:1844   */\n      tag_125\n      jump\t// in\n    tag_203:\n        /* \"#utility.yul\":1781:1844   */\n      swap2\n      pop\n        /* \"#utility.yul\":1737:1854   */\n      pop\n        /* \"#utility.yul\":1532:1861   */\n      swap3\n      swap2\n      pop\n      pop\n      jump\t// out\n        /* \"#utility.yul\":1867:1957   */\n    tag_126:\n        /* \"#utility.yul\":1901:1908   */\n      0x00\n        /* \"#utility.yul\":1944:1949   */\n      dup2\n        /* \"#utility.yul\":1937:1950   */\n      iszero\n        /* \"#utility.yul\":1930:1951   */\n      iszero\n        /* \"#utility.yul\":1919:1951   */\n      swap1\n      pop\n        /* \"#utility.yul\":1867:1957   */\n      swap2\n      swap1\n      pop\n      jump\t// out\n        /* \"#utility.yul\":1963:2072   */\n    tag_127:\n        /* \"#utility.yul\":2044:2065   */\n      tag_206\n        /* \"#utility.yul\":2059:2064   */\n      dup2\n        /* \"#utility.yul\":2044:2065   */\n      tag_126\n      jump\t// in\n    tag_206:\n        /* \"#utility.yul\":2039:2042   */\n      dup3\n        /* \"#utility.yul\":2032:2066   */\n      mstore\n        /* \"#utility.yul\":1963:2072   */\n      pop\n      pop\n      jump\t// out\n        /* \"#utility.yul\":2078:2288   */\n    tag_23:\n        /* \"#utility.yul\":2165:2169   */\n      0x00\n        /* \"#utility.yul\":2203:2205   */\n      0x20\n        /* \"#utility.yul\":2192:2201   */\n      dup3\n        /* \"#utility.yul\":2188:2206   */\n      add\n        /* \"#utility.yul\":2180:2206   */\n      swap1\n      pop\n        /* \"#utility.yul\":2216:2281   */\n      tag_208\n        /* \"#utility.yul\":2278:2279   */\n      0x00\n        /* \"#utility.yul\":2267:2276   */\n      dup4\n        /* \"#utility.yul\":2263:2280   */\n      add\n        /* \"#utility.yul\":2254:2260   */\n      dup5\n        /* \"#utility.yul\":2216:2281   */\n      tag_127\n      jump\t// in\n    tag_208:\n        /* \"#utility.yul\":2078:2288   */\n      swap3\n      swap2\n      pop\n      pop\n      jump\t// out\n        /* \"#utility.yul\":2294:2412   */\n    tag_128:\n        /* \"#utility.yul\":2381:2405   */\n      tag_210\n        /* \"#utility.yul\":2399:2404   */\n      dup2\n        /* \"#utility.yul\":2381:2405   */\n      tag_119\n      jump\t// in\n    tag_210:\n        /* \"#utility.yul\":2376:2379   */\n      dup3\n        /* \"#utility.yul\":2369:2406   */\n      mstore\n        /* \"#utility.yul\":2294:2412   */\n      pop\n      pop\n      jump\t// out\n        /* \"#utility.yul\":2418:2640   */\n    tag_28:\n        /* \"#utility.yul\":2511:2515   */\n      0x00\n        /* \"#utility.yul\":2549:2551   */\n      0x20\n        /* \"#utility.yul\":2538:2547   */\n      dup3\n        /* \"#utility.yul\":2534:2552   */\n      add\n        /* \"#utility.yul\":2526:2552   */\n      swap1\n      pop\n        /* \"#utility.yul\":2562:2633   */\n      tag_212\n        /* \"#utility.yul\":2630:2631   */\n      0x00\n        /* \"#utility.yul\":2619:2628   */\n      dup4\n        /* \"#utility.yul\":2615:2632   */\n      add\n        /* \"#utility.yul\":2606:2612   */\n      dup5\n        /* \"#utility.yul\":2562:2633   */\n      tag_128\n      jump\t// in\n    tag_212:\n        /* \"#utility.yul\":2418:2640   */\n      swap3\n      swap2\n      pop\n      pop\n      jump\t// out\n        /* \"#utility.yul\":2646:2764   */\n    tag_129:\n        /* \"#utility.yul\":2733:2757   */\n      tag_214\n        /* \"#utility.yul\":2751:2756   */\n      dup2\n        /* \"#utility.yul\":2733:2757   */\n      tag_123\n      jump\t// in\n    tag_214:\n        /* \"#utility.yul\":2728:2731   */\n      dup3\n        /* \"#utility.yul\":2721:2758   */\n      mstore\n        /* \"#utility.yul\":2646:2764   */\n      pop\n      pop\n      jump\t// out\n        /* \"#utility.yul\":2770:2992   */\n    tag_33:\n        /* \"#utility.yul\":2863:2867   */\n      0x00\n        /* \"#utility.yul\":2901:2903   */\n      0x20\n        /* \"#utility.yul\":2890:2899   */\n      dup3\n        /* \"#utility.yul\":2886:2904   */\n      add\n        /* \"#utility.yul\":2878:2904   */\n      swap1\n      pop\n        /* \"#utility.yul\":2914:2985   */\n      tag_216\n        /* \"#utility.yul\":2982:2983   */\n      0x00\n        /* \"#utility.yul\":2971:2980   */\n      dup4\n        /* \"#utility.yul\":2967:2984   */\n      add\n        /* \"#utility.yul\":2958:2964   */\n      dup5\n        /* \"#utility.yul\":2914:2985   */\n      tag_129\n      jump\t// in\n    tag_216:\n        /* \"#utility.yul\":2770:2992   */\n      swap3\n      swap2\n      pop\n      pop\n      jump\t// out\n        /* \"#utility.yul\":2998:3097   */\n    tag_130:\n        /* \"#utility.yul\":3050:3056   */\n      0x00\n        /* \"#utility.yul\":3084:3089   */\n      dup2\n        /* \"#utility.yul\":3078:3090   */\n      mload\n        /* \"#utility.yul\":3068:3090   */\n      swap1\n      pop\n        /* \"#utility.yul\":2998:3097   */\n      swap2\n      swap1\n      pop\n      jump\t// out\n        /* \"#utility.yul\":3103:3272   */\n    tag_131:\n        /* \"#utility.yul\":3187:3198   */\n      0x00\n        /* \"#utility.yul\":3221:3227   */\n      dup3\n        /* \"#utility.yul\":3216:3219   */\n      dup3\n        /* \"#utility.yul\":3209:3228   */\n      mstore\n        /* \"#utility.yul\":3261:3265   */\n      0x20\n        /* \"#utility.yul\":3256:3259   */\n      dup3\n        /* \"#utility.yul\":3252:3266   */\n      add\n        /* \"#utility.yul\":3237:3266   */\n      swap1\n      pop\n        /* \"#utility.yul\":3103:3272   */\n      swap3\n      swap2\n      pop\n      pop\n      jump\t// out\n        /* \"#utility.yul\":3278:3417   */\n    tag_132:\n        /* \"#utility.yul\":3367:3373   */\n      dup3\n        /* \"#utility.yul\":3362:3365   */\n      dup2\n        /* \"#utility.yul\":3357:3360   */\n      dup4\n        /* \"#utility.yul\":3351:3374   */\n      mcopy\n        /* \"#utility.yul\":3408:3409   */\n      0x00\n        /* \"#utility.yul\":3399:3405   */\n      dup4\n        /* \"#utility.yul\":3394:3397   */\n      dup4\n        /* \"#utility.yul\":3390:3406   */\n      add\n        /* \"#utility.yul\":3383:3410   */\n      mstore\n        /* \"#utility.yul\":3278:3417   */\n      pop\n      pop\n      pop\n      jump\t// out\n        /* \"#utility.yul\":3423:3525   */\n    tag_133:\n        /* \"#utility.yul\":3464:3470   */\n      0x00\n        /* \"#utility.yul\":3515:3517   */\n      0x1f\n        /* \"#utility.yul\":3511:3518   */\n      not\n        /* \"#utility.yul\":3506:3508   */\n      0x1f\n        /* \"#utility.yul\":3499:3504   */\n      dup4\n        /* \"#utility.yul\":3495:3509   */\n      add\n        /* \"#utility.yul\":3491:3519   */\n      and\n        /* \"#utility.yul\":3481:3519   */\n      swap1\n      pop\n        /* \"#utility.yul\":3423:3525   */\n      swap2\n      swap1\n      pop\n      jump\t// out\n        /* \"#utility.yul\":3531:3908   */\n    tag_134:\n        /* \"#utility.yul\":3619:3622   */\n      0x00\n        /* \"#utility.yul\":3647:3686   */\n      tag_222\n        /* \"#utility.yul\":3680:3685   */\n      dup3\n        /* \"#utility.yul\":3647:3686   */\n      tag_130\n      jump\t// in\n    tag_222:\n        /* \"#utility.yul\":3702:3773   */\n      tag_223\n        /* \"#utility.yul\":3766:3772   */\n      dup2\n        /* \"#utility.yul\":3761:3764   */\n      dup6\n        /* \"#utility.yul\":3702:3773   */\n      tag_131\n      jump\t// in\n    tag_223:\n        /* \"#utility.yul\":3695:3773   */\n      swap4\n      pop\n        /* \"#utility.yul\":3782:3847   */\n      tag_224\n        /* \"#utility.yul\":3840:3846   */\n      dup2\n        /* \"#utility.yul\":3835:3838   */\n      dup6\n        /* \"#utility.yul\":3828:3832   */\n      0x20\n        /* \"#utility.yul\":3821:3826   */\n      dup7\n        /* \"#utility.yul\":3817:3833   */\n      add\n        /* \"#utility.yul\":3782:3847   */\n      tag_132\n      jump\t// in\n    tag_224:\n        /* \"#utility.yul\":3872:3901   */\n      tag_225\n        /* \"#utility.yul\":3894:3900   */\n      dup2\n        /* \"#utility.yul\":3872:3901   */\n      tag_133\n      jump\t// in\n    tag_225:\n        /* \"#utility.yul\":3867:3870   */\n      dup5\n        /* \"#utility.yul\":3863:3902   */\n      add\n        /* \"#utility.yul\":3856:3902   */\n      swap2\n      pop\n        /* \"#utility.yul\":3623:3908   */\n      pop\n        /* \"#utility.yul\":3531:3908   */\n      swap3\n      swap2\n      pop\n      pop\n      jump\t// out\n        /* \"#utility.yul\":3914:4018   */\n    tag_135:\n        /* \"#utility.yul\":3959:3966   */\n      0x00\n        /* \"#utility.yul\":3988:4012   */\n      tag_227\n        /* \"#utility.yul\":4006:4011   */\n      dup3\n        /* \"#utility.yul\":3988:4012   */\n      tag_122\n      jump\t// in\n    tag_227:\n        /* \"#utility.yul\":3977:4012   */\n      swap1\n      pop\n        /* \"#utility.yul\":3914:4018   */\n      swap2\n      swap1\n      pop\n      jump\t// out\n        /* \"#utility.yul\":4024:4166   */\n    tag_136:\n        /* \"#utility.yul\":4127:4159   */\n      tag_229\n        /* \"#utility.yul\":4153:4158   */\n      dup2\n        /* \"#utility.yul\":4127:4159   */\n      tag_135\n      jump\t// in\n    tag_229:\n        /* \"#utility.yul\":4122:4125   */\n      dup3\n        /* \"#utility.yul\":4115:4160   */\n      mstore\n        /* \"#utility.yul\":4024:4166   */\n      pop\n      pop\n      jump\t// out\n        /* \"#utility.yul\":4172:4947   */\n    tag_39:\n        /* \"#utility.yul\":4407:4411   */\n      0x00\n        /* \"#utility.yul\":4445:4448   */\n      0xa0\n        /* \"#utility.yul\":4434:4443   */\n      dup3\n        /* \"#utility.yul\":4430:4449   */\n      add\n        /* \"#utility.yul\":4422:4449   */\n      swap1\n      pop\n        /* \"#utility.yul\":4495:4504   */\n      dup2\n        /* \"#utility.yul\":4489:4493   */\n      dup2\n        /* \"#utility.yul\":4485:4505   */\n      sub\n        /* \"#utility.yul\":4481:4482   */\n      0x00\n        /* \"#utility.yul\":4470:4479   */\n      dup4\n        /* \"#utility.yul\":4466:4483   */\n      add\n        /* \"#utility.yul\":4459:4506   */\n      mstore\n        /* \"#utility.yul\":4523:4601   */\n      tag_231\n        /* \"#utility.yul\":4596:4600   */\n      dup2\n        /* \"#utility.yul\":4587:4593   */\n      dup9\n        /* \"#utility.yul\":4523:4601   */\n      tag_134\n      jump\t// in\n    tag_231:\n        /* \"#utility.yul\":4515:4601   */\n      swap1\n      pop\n        /* \"#utility.yul\":4611:4683   */\n      tag_232\n        /* \"#utility.yul\":4679:4681   */\n      0x20\n        /* \"#utility.yul\":4668:4677   */\n      dup4\n        /* \"#utility.yul\":4664:4682   */\n      add\n        /* \"#utility.yul\":4655:4661   */\n      dup8\n        /* \"#utility.yul\":4611:4683   */\n      tag_128\n      jump\t// in\n    tag_232:\n        /* \"#utility.yul\":4693:4781   */\n      tag_233\n        /* \"#utility.yul\":4777:4779   */\n      0x40\n        /* \"#utility.yul\":4766:4775   */\n      dup4\n        /* \"#utility.yul\":4762:4780   */\n      add\n        /* \"#utility.yul\":4753:4759   */\n      dup7\n        /* \"#utility.yul\":4693:4781   */\n      tag_136\n      jump\t// in\n    tag_233:\n        /* \"#utility.yul\":4791:4857   */\n      tag_234\n        /* \"#utility.yul\":4853:4855   */\n      0x60\n        /* \"#utility.yul\":4842:4851   */\n      dup4\n        /* \"#utility.yul\":4838:4856   */\n      add\n        /* \"#utility.yul\":4829:4835   */\n      dup6\n        /* \"#utility.yul\":4791:4857   */\n      tag_127\n      jump\t// in\n    tag_234:\n        /* \"#utility.yul\":4867:4940   */\n      tag_235\n        /* \"#utility.yul\":4935:4938   */\n      0x80\n        /* \"#utility.yul\":4924:4933   */\n      dup4\n        /* \"#utility.yul\":4920:4939   */\n      add\n        /* \"#utility.yul\":4911:4917   */\n      dup5\n        /* \"#utility.yul\":4867:4940   */\n      tag_128\n      jump\t// in\n    tag_235:\n        /* \"#utility.yul\":4172:4947   */\n      swap7\n      swap6\n      pop\n      pop\n      pop\n      pop\n      pop\n      pop\n      jump\t// out\n        /* \"#utility.yul\":4953:5070   */\n    tag_137:\n        /* \"#utility.yul\":5062:5063   */\n      0x00\n        /* \"#utility.yul\":5059:5060   */\n      0x00\n        /* \"#utility.yul\":5052:5064   */\n      revert\n        /* \"#utility.yul\":5076:5193   */\n    tag_138:\n        /* \"#utility.yul\":5185:5186   */\n      0x00\n        /* \"#utility.yul\":5182:5183   */\n      0x00\n        /* \"#utility.yul\":5175:5187   */\n      revert\n        /* \"#utility.yul\":5199:5379   */\n    tag_139:\n        /* \"#utility.yul\":5247:5324   */\n      0x4e487b7100000000000000000000000000000000000000000000000000000000\n        /* \"#utility.yul\":5244:5245   */\n      0x00\n        /* \"#utility.yul\":5237:5325   */\n      mstore\n        /* \"#utility.yul\":5344:5348   */\n      0x41\n        /* \"#utility.yul\":5341:5342   */\n      0x04\n        /* \"#utility.yul\":5334:5349   */\n      mstore\n        /* \"#utility.yul\":5368:5372   */\n      0x24\n        /* \"#utility.yul\":5365:5366   */\n      0x00\n        /* \"#utility.yul\":5358:5373   */\n      revert\n        /* \"#utility.yul\":5385:5666   */\n    tag_140:\n        /* \"#utility.yul\":5468:5495   */\n      tag_240\n        /* \"#utility.yul\":5490:5494   */\n      dup3\n        /* \"#utility.yul\":5468:5495   */\n      tag_133\n      jump\t// in\n    tag_240:\n        /* \"#utility.yul\":5460:5466   */\n      dup2\n        /* \"#utility.yul\":5456:5496   */\n      add\n        /* \"#utility.yul\":5598:5604   */\n      dup2\n        /* \"#utility.yul\":5586:5596   */\n      dup2\n        /* \"#utility.yul\":5583:5605   */\n      lt\n        /* \"#utility.yul\":5562:5580   */\n      0xffffffffffffffff\n        /* \"#utility.yul\":5550:5560   */\n      dup3\n        /* \"#utility.yul\":5547:5581   */\n      gt\n        /* \"#utility.yul\":5544:5606   */\n      or\n        /* \"#utility.yul\":5541:5629   */\n      iszero\n      tag_241\n      jumpi\n        /* \"#utility.yul\":5609:5627   */\n      tag_242\n      tag_139\n      jump\t// in\n    tag_242:\n        /* \"#utility.yul\":5541:5629   */\n    tag_241:\n        /* \"#utility.yul\":5649:5659   */\n      dup1\n        /* \"#utility.yul\":5645:5647   */\n      0x40\n        /* \"#utility.yul\":5638:5660   */\n      mstore\n        /* \"#utility.yul\":5428:5666   */\n      pop\n        /* \"#utility.yul\":5385:5666   */\n      pop\n      pop\n      jump\t// out\n        /* \"#utility.yul\":5672:5801   */\n    tag_141:\n        /* \"#utility.yul\":5706:5712   */\n      0x00\n        /* \"#utility.yul\":5733:5753   */\n      tag_244\n      tag_116\n      jump\t// in\n    tag_244:\n        /* \"#utility.yul\":5723:5753   */\n      swap1\n      pop\n        /* \"#utility.yul\":5762:5795   */\n      tag_245\n        /* \"#utility.yul\":5790:5794   */\n      dup3\n        /* \"#utility.yul\":5782:5788   */\n      dup3\n        /* \"#utility.yul\":5762:5795   */\n      tag_140\n      jump\t// in\n    tag_245:\n        /* \"#utility.yul\":5672:5801   */\n      swap2\n      swap1\n      pop\n      jump\t// out\n        /* \"#utility.yul\":5807:6115   */\n    tag_142:\n        /* \"#utility.yul\":5869:5873   */\n      0x00\n        /* \"#utility.yul\":5959:5977   */\n      0xffffffffffffffff\n        /* \"#utility.yul\":5951:5957   */\n      dup3\n        /* \"#utility.yul\":5948:5978   */\n      gt\n        /* \"#utility.yul\":5945:6001   */\n      iszero\n      tag_247\n      jumpi\n        /* \"#utility.yul\":5981:5999   */\n      tag_248\n      tag_139\n      jump\t// in\n    tag_248:\n        /* \"#utility.yul\":5945:6001   */\n    tag_247:\n        /* \"#utility.yul\":6019:6048   */\n      tag_249\n        /* \"#utility.yul\":6041:6047   */\n      dup3\n        /* \"#utility.yul\":6019:6048   */\n      tag_133\n      jump\t// in\n    tag_249:\n        /* \"#utility.yul\":6011:6048   */\n      swap1\n      pop\n        /* \"#utility.yul\":6103:6107   */\n      0x20\n        /* \"#utility.yul\":6097:6101   */\n      dup2\n        /* \"#utility.yul\":6093:6108   */\n      add\n        /* \"#utility.yul\":6085:6108   */\n      swap1\n      pop\n        /* \"#utility.yul\":5807:6115   */\n      swap2\n      swap1\n      pop\n      jump\t// out\n        /* \"#utility.yul\":6121:6269   */\n    tag_143:\n        /* \"#utility.yul\":6219:6225   */\n      dup3\n        /* \"#utility.yul\":6214:6217   */\n      dup2\n        /* \"#utility.yul\":6209:6212   */\n      dup4\n        /* \"#utility.yul\":6196:6226   */\n      calldatacopy\n        /* \"#utility.yul\":6260:6261   */\n      0x00\n        /* \"#utility.yul\":6251:6257   */\n      dup4\n        /* \"#utility.yul\":6246:6249   */\n      dup4\n        /* \"#utility.yul\":6242:6258   */\n      add\n        /* \"#utility.yul\":6235:6262   */\n      mstore\n        /* \"#utility.yul\":6121:6269   */\n      pop\n      pop\n      pop\n      jump\t// out\n        /* \"#utility.yul\":6275:6700   */\n    tag_144:\n        /* \"#utility.yul\":6353:6358   */\n      0x00\n        /* \"#utility.yul\":6378:6444   */\n      tag_252\n        /* \"#utility.yul\":6394:6443   */\n      tag_253\n        /* \"#utility.yul\":6436:6442   */\n      dup5\n        /* \"#utility.yul\":6394:6443   */\n      tag_142\n      jump\t// in\n    tag_253:\n        /* \"#utility.yul\":6378:6444   */\n      tag_141\n      jump\t// in\n    tag_252:\n        /* \"#utility.yul\":6369:6444   */\n      swap1\n      pop\n        /* \"#utility.yul\":6467:6473   */\n      dup3\n        /* \"#utility.yul\":6460:6465   */\n      dup2\n        /* \"#utility.yul\":6453:6474   */\n      mstore\n        /* \"#utility.yul\":6505:6509   */\n      0x20\n        /* \"#utility.yul\":6498:6503   */\n      dup2\n        /* \"#utility.yul\":6494:6510   */\n      add\n        /* \"#utility.yul\":6543:6546   */\n      dup5\n        /* \"#utility.yul\":6534:6540   */\n      dup5\n        /* \"#utility.yul\":6529:6532   */\n      dup5\n        /* \"#utility.yul\":6525:6541   */\n      add\n        /* \"#utility.yul\":6522:6547   */\n      gt\n        /* \"#utility.yul\":6519:6631   */\n      iszero\n      tag_254\n      jumpi\n        /* \"#utility.yul\":6550:6629   */\n      tag_255\n      tag_138\n      jump\t// in\n    tag_255:\n        /* \"#utility.yul\":6519:6631   */\n    tag_254:\n        /* \"#utility.yul\":6640:6694   */\n      tag_256\n        /* \"#utility.yul\":6687:6693   */\n      dup5\n        /* \"#utility.yul\":6682:6685   */\n      dup3\n        /* \"#utility.yul\":6677:6680   */\n      dup6\n        /* \"#utility.yul\":6640:6694   */\n      tag_143\n      jump\t// in\n    tag_256:\n        /* \"#utility.yul\":6359:6700   */\n      pop\n        /* \"#utility.yul\":6275:6700   */\n      swap4\n      swap3\n      pop\n      pop\n      pop\n      jump\t// out\n        /* \"#utility.yul\":6720:7060   */\n    tag_145:\n        /* \"#utility.yul\":6776:6781   */\n      0x00\n        /* \"#utility.yul\":6825:6828   */\n      dup3\n        /* \"#utility.yul\":6818:6822   */\n      0x1f\n        /* \"#utility.yul\":6810:6816   */\n      dup4\n        /* \"#utility.yul\":6806:6823   */\n      add\n        /* \"#utility.yul\":6802:6829   */\n      slt\n        /* \"#utility.yul\":6792:6914   */\n      tag_258\n      jumpi\n        /* \"#utility.yul\":6833:6912   */\n      tag_259\n      tag_137\n      jump\t// in\n    tag_259:\n        /* \"#utility.yul\":6792:6914   */\n    tag_258:\n        /* \"#utility.yul\":6950:6956   */\n      dup2\n        /* \"#utility.yul\":6937:6957   */\n      calldataload\n        /* \"#utility.yul\":6975:7054   */\n      tag_260\n        /* \"#utility.yul\":7050:7053   */\n      dup5\n        /* \"#utility.yul\":7042:7048   */\n      dup3\n        /* \"#utility.yul\":7035:7039   */\n      0x20\n        /* \"#utility.yul\":7027:7033   */\n      dup7\n        /* \"#utility.yul\":7023:7040   */\n      add\n        /* \"#utility.yul\":6975:7054   */\n      tag_144\n      jump\t// in\n    tag_260:\n        /* \"#utility.yul\":6966:7054   */\n      swap2\n      pop\n        /* \"#utility.yul\":6782:7060   */\n      pop\n        /* \"#utility.yul\":6720:7060   */\n      swap3\n      swap2\n      pop\n      pop\n      jump\t// out\n        /* \"#utility.yul\":7066:7204   */\n    tag_146:\n        /* \"#utility.yul\":7147:7179   */\n      tag_262\n        /* \"#utility.yul\":7173:7178   */\n      dup2\n        /* \"#utility.yul\":7147:7179   */\n      tag_135\n      jump\t// in\n    tag_262:\n        /* \"#utility.yul\":7140:7145   */\n      dup2\n        /* \"#utility.yul\":7137:7180   */\n      eq\n        /* \"#utility.yul\":7127:7198   */\n      tag_263\n      jumpi\n        /* \"#utility.yul\":7194:7195   */\n      0x00\n        /* \"#utility.yul\":7191:7192   */\n      0x00\n        /* \"#utility.yul\":7184:7196   */\n      revert\n        /* \"#utility.yul\":7127:7198   */\n    tag_263:\n        /* \"#utility.yul\":7066:7204   */\n      pop\n      jump\t// out\n        /* \"#utility.yul\":7210:7365   */\n    tag_147:\n        /* \"#utility.yul\":7264:7269   */\n      0x00\n        /* \"#utility.yul\":7302:7308   */\n      dup2\n        /* \"#utility.yul\":7289:7309   */\n      calldataload\n        /* \"#utility.yul\":7280:7309   */\n      swap1\n      pop\n        /* \"#utility.yul\":7318:7359   */\n      tag_265\n        /* \"#utility.yul\":7353:7358   */\n      dup2\n        /* \"#utility.yul\":7318:7359   */\n      tag_146\n      jump\t// in\n    tag_265:\n        /* \"#utility.yul\":7210:7365   */\n      swap3\n      swap2\n      pop\n      pop\n      jump\t// out\n        /* \"#utility.yul\":7371:8186   */\n    tag_47:\n        /* \"#utility.yul\":7466:7472   */\n      0x00\n        /* \"#utility.yul\":7474:7480   */\n      0x00\n        /* \"#utility.yul\":7482:7488   */\n      0x00\n        /* \"#utility.yul\":7531:7533   */\n      0x60\n        /* \"#utility.yul\":7519:7528   */\n      dup5\n        /* \"#utility.yul\":7510:7517   */\n      dup7\n        /* \"#utility.yul\":7506:7529   */\n      sub\n        /* \"#utility.yul\":7502:7534   */\n      slt\n        /* \"#utility.yul\":7499:7618   */\n      iszero\n      tag_267\n      jumpi\n        /* \"#utility.yul\":7537:7616   */\n      tag_268\n      tag_117\n      jump\t// in\n    tag_268:\n        /* \"#utility.yul\":7499:7618   */\n    tag_267:\n        /* \"#utility.yul\":7685:7686   */\n      0x00\n        /* \"#utility.yul\":7674:7683   */\n      dup5\n        /* \"#utility.yul\":7670:7687   */\n      add\n        /* \"#utility.yul\":7657:7688   */\n      calldataload\n        /* \"#utility.yul\":7715:7733   */\n      0xffffffffffffffff\n        /* \"#utility.yul\":7707:7713   */\n      dup2\n        /* \"#utility.yul\":7704:7734   */\n      gt\n        /* \"#utility.yul\":7701:7818   */\n      iszero\n      tag_269\n      jumpi\n        /* \"#utility.yul\":7737:7816   */\n      tag_270\n      tag_118\n      jump\t// in\n    tag_270:\n        /* \"#utility.yul\":7701:7818   */\n    tag_269:\n        /* \"#utility.yul\":7842:7905   */\n      tag_271\n        /* \"#utility.yul\":7897:7904   */\n      dup7\n        /* \"#utility.yul\":7888:7894   */\n      dup3\n        /* \"#utility.yul\":7877:7886   */\n      dup8\n        /* \"#utility.yul\":7873:7895   */\n      add\n        /* \"#utility.yul\":7842:7905   */\n      tag_145\n      jump\t// in\n    tag_271:\n        /* \"#utility.yul\":7832:7905   */\n      swap4\n      pop\n        /* \"#utility.yul\":7628:7915   */\n      pop\n        /* \"#utility.yul\":7954:7956   */\n      0x20\n        /* \"#utility.yul\":7980:8033   */\n      tag_272\n        /* \"#utility.yul\":8025:8032   */\n      dup7\n        /* \"#utility.yul\":8016:8022   */\n      dup3\n        /* \"#utility.yul\":8005:8014   */\n      dup8\n        /* \"#utility.yul\":8001:8023   */\n      add\n        /* \"#utility.yul\":7980:8033   */\n      tag_121\n      jump\t// in\n    tag_272:\n        /* \"#utility.yul\":7970:8033   */\n      swap3\n      pop\n        /* \"#utility.yul\":7925:8043   */\n      pop\n        /* \"#utility.yul\":8082:8084   */\n      0x40\n        /* \"#utility.yul\":8108:8169   */\n      tag_273\n        /* \"#utility.yul\":8161:8168   */\n      dup7\n        /* \"#utility.yul\":8152:8158   */\n      dup3\n        /* \"#utility.yul\":8141:8150   */\n      dup8\n        /* \"#utility.yul\":8137:8159   */\n      add\n        /* \"#utility.yul\":8108:8169   */\n      tag_147\n      jump\t// in\n    tag_273:\n        /* \"#utility.yul\":8098:8169   */\n      swap2\n      pop\n        /* \"#utility.yul\":8053:8179   */\n      pop\n        /* \"#utility.yul\":7371:8186   */\n      swap3\n      pop\n      swap3\n      pop\n      swap3\n      jump\t// out\n        /* \"#utility.yul\":8192:8413   */\n    tag_148:\n        /* \"#utility.yul\":8332:8366   */\n      0x4f6e6c79206d616e616765722063616e20506572666f726d2074686973207461\n        /* \"#utility.yul\":8328:8329   */\n      0x00\n        /* \"#utility.yul\":8320:8326   */\n      dup3\n        /* \"#utility.yul\":8316:8330   */\n      add\n        /* \"#utility.yul\":8309:8367   */\n      mstore\n        /* \"#utility.yul\":8401:8405   */\n      0x736b000000000000000000000000000000000000000000000000000000000000\n        /* \"#utility.yul\":8396:8398   */\n      0x20\n        /* \"#utility.yul\":8388:8394   */\n      dup3\n        /* \"#utility.yul\":8384:8399   */\n      add\n        /* \"#utility.yul\":8377:8406   */\n      mstore\n        /* \"#utility.yul\":8192:8413   */\n      pop\n      jump\t// out\n        /* \"#utility.yul\":8419:8785   */\n    tag_149:\n        /* \"#utility.yul\":8561:8564   */\n      0x00\n        /* \"#utility.yul\":8582:8649   */\n      tag_276\n        /* \"#utility.yul\":8646:8648   */\n      0x22\n        /* \"#utility.yul\":8641:8644   */\n      dup4\n        /* \"#utility.yul\":8582:8649   */\n      tag_131\n      jump\t// in\n    tag_276:\n        /* \"#utility.yul\":8575:8649   */\n      swap2\n      pop\n        /* \"#utility.yul\":8658:8751   */\n      tag_277\n        /* \"#utility.yul\":8747:8750   */\n      dup3\n        /* \"#utility.yul\":8658:8751   */\n      tag_148\n      jump\t// in\n    tag_277:\n        /* \"#utility.yul\":8776:8778   */\n      0x40\n        /* \"#utility.yul\":8771:8774   */\n      dup3\n        /* \"#utility.yul\":8767:8779   */\n      add\n        /* \"#utility.yul\":8760:8779   */\n      swap1\n      pop\n        /* \"#utility.yul\":8419:8785   */\n      swap2\n      swap1\n      pop\n      jump\t// out\n        /* \"#utility.yul\":8791:9210   */\n    tag_62:\n        /* \"#utility.yul\":8957:8961   */\n      0x00\n        /* \"#utility.yul\":8995:8997   */\n      0x20\n        /* \"#utility.yul\":8984:8993   */\n      dup3\n        /* \"#utility.yul\":8980:8998   */\n      add\n        /* \"#utility.yul\":8972:8998   */\n      swap1\n      pop\n        /* \"#utility.yul\":9044:9053   */\n      dup2\n        /* \"#utility.yul\":9038:9042   */\n      dup2\n        /* \"#utility.yul\":9034:9054   */\n      sub\n        /* \"#utility.yul\":9030:9031   */\n      0x00\n        /* \"#utility.yul\":9019:9028   */\n      dup4\n        /* \"#utility.yul\":9015:9032   */\n      add\n        /* \"#utility.yul\":9008:9055   */\n      mstore\n        /* \"#utility.yul\":9072:9203   */\n      tag_279\n        /* \"#utility.yul\":9198:9202   */\n      dup2\n        /* \"#utility.yul\":9072:9203   */\n      tag_149\n      jump\t// in\n    tag_279:\n        /* \"#utility.yul\":9064:9203   */\n      swap1\n      pop\n        /* \"#utility.yul\":8791:9210   */\n      swap2\n      swap1\n      pop\n      jump\t// out\n        /* \"#utility.yul\":9216:9396   */\n    tag_66:\n        /* \"#utility.yul\":9264:9341   */\n      0x4e487b7100000000000000000000000000000000000000000000000000000000\n        /* \"#utility.yul\":9261:9262   */\n      0x00\n        /* \"#utility.yul\":9254:9342   */\n      mstore\n        /* \"#utility.yul\":9361:9365   */\n      0x32\n        /* \"#utility.yul\":9358:9359   */\n      0x04\n        /* \"#utility.yul\":9351:9366   */\n      mstore\n        /* \"#utility.yul\":9385:9389   */\n      0x24\n        /* \"#utility.yul\":9382:9383   */\n      0x00\n        /* \"#utility.yul\":9375:9390   */\n      revert\n        /* \"#utility.yul\":9402:9582   */\n    tag_150:\n        /* \"#utility.yul\":9450:9527   */\n      0x4e487b7100000000000000000000000000000000000000000000000000000000\n        /* \"#utility.yul\":9447:9448   */\n      0x00\n        /* \"#utility.yul\":9440:9528   */\n      mstore\n        /* \"#utility.yul\":9547:9551   */\n      0x12\n        /* \"#utility.yul\":9544:9545   */\n      0x04\n        /* \"#utility.yul\":9537:9552   */\n      mstore\n        /* \"#utility.yul\":9571:9575   */\n      0x24\n        /* \"#utility.yul\":9568:9569   */\n      0x00\n        /* \"#utility.yul\":9561:9576   */\n      revert\n        /* \"#utility.yul\":9588:9768   */\n    tag_151:\n        /* \"#utility.yul\":9636:9713   */\n      0x4e487b7100000000000000000000000000000000000000000000000000000000\n        /* \"#utility.yul\":9633:9634   */\n      0x00\n        /* \"#utility.yul\":9626:9714   */\n      mstore\n        /* \"#utility.yul\":9733:9737   */\n      0x11\n        /* \"#utility.yul\":9730:9731   */\n      0x04\n        /* \"#utility.yul\":9723:9738   */\n      mstore\n        /* \"#utility.yul\":9757:9761   */\n      0x24\n        /* \"#utility.yul\":9754:9755   */\n      0x00\n        /* \"#utility.yul\":9747:9762   */\n      revert\n        /* \"#utility.yul\":9774:9959   */\n    tag_69:\n        /* \"#utility.yul\":9814:9815   */\n      0x00\n        /* \"#utility.yul\":9831:9851   */\n      tag_284\n        /* \"#utility.yul\":9849:9850   */\n      dup3\n        /* \"#utility.yul\":9831:9851   */\n      tag_119\n      jump\t// in\n    tag_284:\n        /* \"#utility.yul\":9826:9851   */\n      swap2\n      pop\n        /* \"#utility.yul\":9865:9885   */\n      tag_285\n        /* \"#utility.yul\":9883:9884   */\n      dup4\n        /* \"#utility.yul\":9865:9885   */\n      tag_119\n      jump\t// in\n    tag_285:\n        /* \"#utility.yul\":9860:9885   */\n      swap3\n      pop\n        /* \"#utility.yul\":9904:9905   */\n      dup3\n        /* \"#utility.yul\":9894:9929   */\n      tag_286\n      jumpi\n        /* \"#utility.yul\":9909:9927   */\n      tag_287\n      tag_150\n      jump\t// in\n    tag_287:\n        /* \"#utility.yul\":9894:9929   */\n    tag_286:\n        /* \"#utility.yul\":9951:9952   */\n      dup3\n        /* \"#utility.yul\":9948:9949   */\n      dup3\n        /* \"#utility.yul\":9944:9953   */\n      div\n        /* \"#utility.yul\":9939:9953   */\n      swap1\n      pop\n        /* \"#utility.yul\":9774:9959   */\n      swap3\n      swap2\n      pop\n      pop\n      jump\t// out\n        /* \"#utility.yul\":9965:10146   */\n    tag_152:\n        /* \"#utility.yul\":10105:10138   */\n      0x4e6f7420656e6f75676820617070726f76657273206861766520766f74656400\n        /* \"#utility.yul\":10101:10102   */\n      0x00\n        /* \"#utility.yul\":10093:10099   */\n      dup3\n        /* \"#utility.yul\":10089:10103   */\n      add\n        /* \"#utility.yul\":10082:10139   */\n      mstore\n        /* \"#utility.yul\":9965:10146   */\n      pop\n      jump\t// out\n        /* \"#utility.yul\":10152:10518   */\n    tag_153:\n        /* \"#utility.yul\":10294:10297   */\n      0x00\n        /* \"#utility.yul\":10315:10382   */\n      tag_290\n        /* \"#utility.yul\":10379:10381   */\n      0x1f\n        /* \"#utility.yul\":10374:10377   */\n      dup4\n        /* \"#utility.yul\":10315:10382   */\n      tag_131\n      jump\t// in\n    tag_290:\n        /* \"#utility.yul\":10308:10382   */\n      swap2\n      pop\n        /* \"#utility.yul\":10391:10484   */\n      tag_291\n        /* \"#utility.yul\":10480:10483   */\n      dup3\n        /* \"#utility.yul\":10391:10484   */\n      tag_152\n      jump\t// in\n    tag_291:\n        /* \"#utility.yul\":10509:10511   */\n      0x20\n        /* \"#utility.yul\":10504:10507   */\n      dup3\n        /* \"#utility.yul\":10500:10512   */\n      add\n        /* \"#utility.yul\":10493:10512   */\n      swap1\n      pop\n        /* \"#utility.yul\":10152:10518   */\n      swap2\n      swap1\n      pop\n      jump\t// out\n        /* \"#utility.yul\":10524:10943   */\n    tag_72:\n        /* \"#utility.yul\":10690:10694   */\n      0x00\n        /* \"#utility.yul\":10728:10730   */\n      0x20\n        /* \"#utility.yul\":10717:10726   */\n      dup3\n        /* \"#utility.yul\":10713:10731   */\n      add\n        /* \"#utility.yul\":10705:10731   */\n      swap1\n      pop\n        /* \"#utility.yul\":10777:10786   */\n      dup2\n        /* \"#utility.yul\":10771:10775   */\n      dup2\n        /* \"#utility.yul\":10767:10787   */\n      sub\n        /* \"#utility.yul\":10763:10764   */\n      0x00\n        /* \"#utility.yul\":10752:10761   */\n      dup4\n        /* \"#utility.yul\":10748:10765   */\n      add\n        /* \"#utility.yul\":10741:10788   */\n      mstore\n        /* \"#utility.yul\":10805:10936   */\n      tag_293\n        /* \"#utility.yul\":10931:10935   */\n      dup2\n        /* \"#utility.yul\":10805:10936   */\n      tag_153\n      jump\t// in\n    tag_293:\n        /* \"#utility.yul\":10797:10936   */\n      swap1\n      pop\n        /* \"#utility.yul\":10524:10943   */\n      swap2\n      swap1\n      pop\n      jump\t// out\n        /* \"#utility.yul\":10949:11127   */\n    tag_154:\n        /* \"#utility.yul\":11089:11119   */\n      0x5265717565737420697320616c726561647920636f6d706c6574656400000000\n        /* \"#utility.yul\":11085:11086   */\n      0x00\n        /* \"#utility.yul\":11077:11083   */\n      dup3\n        /* \"#utility.yul\":11073:11087   */\n      add\n        /* \"#utility.yul\":11066:11120   */\n      mstore\n        /* \"#utility.yul\":10949:11127   */\n      pop\n      jump\t// out\n        /* \"#utility.yul\":11133:11499   */\n    tag_155:\n        /* \"#utility.yul\":11275:11278   */\n      0x00\n        /* \"#utility.yul\":11296:11363   */\n      tag_296\n        /* \"#utility.yul\":11360:11362   */\n      0x1c\n        /* \"#utility.yul\":11355:11358   */\n      dup4\n        /* \"#utility.yul\":11296:11363   */\n      tag_131\n      jump\t// in\n    tag_296:\n        /* \"#utility.yul\":11289:11363   */\n      swap2\n      pop\n        /* \"#utility.yul\":11372:11465   */\n      tag_297\n        /* \"#utility.yul\":11461:11464   */\n      dup3\n        /* \"#utility.yul\":11372:11465   */\n      tag_154\n      jump\t// in\n    tag_297:\n        /* \"#utility.yul\":11490:11492   */\n      0x20\n        /* \"#utility.yul\":11485:11488   */\n      dup3\n        /* \"#utility.yul\":11481:11493   */\n      add\n        /* \"#utility.yul\":11474:11493   */\n      swap1\n      pop\n        /* \"#utility.yul\":11133:11499   */\n      swap2\n      swap1\n      pop\n      jump\t// out\n        /* \"#utility.yul\":11505:11924   */\n    tag_75:\n        /* \"#utility.yul\":11671:11675   */\n      0x00\n        /* \"#utility.yul\":11709:11711   */\n      0x20\n        /* \"#utility.yul\":11698:11707   */\n      dup3\n        /* \"#utility.yul\":11694:11712   */\n      add\n        /* \"#utility.yul\":11686:11712   */\n      swap1\n      pop\n        /* \"#utility.yul\":11758:11767   */\n      dup2\n        /* \"#utility.yul\":11752:11756   */\n      dup2\n        /* \"#utility.yul\":11748:11768   */\n      sub\n        /* \"#utility.yul\":11744:11745   */\n      0x00\n        /* \"#utility.yul\":11733:11742   */\n      dup4\n        /* \"#utility.yul\":11729:11746   */\n      add\n        /* \"#utility.yul\":11722:11769   */\n      mstore\n        /* \"#utility.yul\":11786:11917   */\n      tag_299\n        /* \"#utility.yul\":11912:11916   */\n      dup2\n        /* \"#utility.yul\":11786:11917   */\n      tag_155\n      jump\t// in\n    tag_299:\n        /* \"#utility.yul\":11778:11917   */\n      swap1\n      pop\n        /* \"#utility.yul\":11505:11924   */\n      swap2\n      swap1\n      pop\n      jump\t// out\n        /* \"#utility.yul\":11930:12110   */\n    tag_156:\n        /* \"#utility.yul\":11978:12055   */\n      0x4e487b7100000000000000000000000000000000000000000000000000000000\n        /* \"#utility.yul\":11975:11976   */\n      0x00\n        /* \"#utility.yul\":11968:12056   */\n      mstore\n        /* \"#utility.yul\":12075:12079   */\n      0x22\n        /* \"#utility.yul\":12072:12073   */\n      0x04\n        /* \"#utility.yul\":12065:12080   */\n      mstore\n        /* \"#utility.yul\":12099:12103   */\n      0x24\n        /* \"#utility.yul\":12096:12097   */\n      0x00\n        /* \"#utility.yul\":12089:12104   */\n      revert\n        /* \"#utility.yul\":12116:12436   */\n    tag_82:\n        /* \"#utility.yul\":12160:12166   */\n      0x00\n        /* \"#utility.yul\":12197:12198   */\n      0x02\n        /* \"#utility.yul\":12191:12195   */\n      dup3\n        /* \"#utility.yul\":12187:12199   */\n      div\n        /* \"#utility.yul\":12177:12199   */\n      swap1\n      pop\n        /* \"#utility.yul\":12244:12245   */\n      0x01\n        /* \"#utility.yul\":12238:12242   */\n      dup3\n        /* \"#utility.yul\":12234:12246   */\n      and\n        /* \"#utility.yul\":12265:12283   */\n      dup1\n        /* \"#utility.yul\":12255:12336   */\n      tag_302\n      jumpi\n        /* \"#utility.yul\":12321:12325   */\n      0x7f\n        /* \"#utility.yul\":12313:12319   */\n      dup3\n        /* \"#utility.yul\":12309:12326   */\n      and\n        /* \"#utility.yul\":12299:12326   */\n      swap2\n      pop\n        /* \"#utility.yul\":12255:12336   */\n    tag_302:\n        /* \"#utility.yul\":12383:12385   */\n      0x20\n        /* \"#utility.yul\":12375:12381   */\n      dup3\n        /* \"#utility.yul\":12372:12386   */\n      lt\n        /* \"#utility.yul\":12352:12370   */\n      dup2\n        /* \"#utility.yul\":12349:12387   */\n      sub\n        /* \"#utility.yul\":12346:12430   */\n      tag_303\n      jumpi\n        /* \"#utility.yul\":12402:12420   */\n      tag_304\n      tag_156\n      jump\t// in\n    tag_304:\n        /* \"#utility.yul\":12346:12430   */\n    tag_303:\n        /* \"#utility.yul\":12167:12436   */\n      pop\n        /* \"#utility.yul\":12116:12436   */\n      swap2\n      swap1\n      pop\n      jump\t// out\n        /* \"#utility.yul\":12442:12636   */\n    tag_93:\n        /* \"#utility.yul\":12482:12486   */\n      0x00\n        /* \"#utility.yul\":12502:12522   */\n      tag_306\n        /* \"#utility.yul\":12520:12521   */\n      dup3\n        /* \"#utility.yul\":12502:12522   */\n      tag_119\n      jump\t// in\n    tag_306:\n        /* \"#utility.yul\":12497:12522   */\n      swap2\n      pop\n        /* \"#utility.yul\":12536:12556   */\n      tag_307\n        /* \"#utility.yul\":12554:12555   */\n      dup4\n        /* \"#utility.yul\":12536:12556   */\n      tag_119\n      jump\t// in\n    tag_307:\n        /* \"#utility.yul\":12531:12556   */\n      swap3\n      pop\n        /* \"#utility.yul\":12580:12581   */\n      dup3\n        /* \"#utility.yul\":12577:12578   */\n      dup3\n        /* \"#utility.yul\":12573:12582   */\n      sub\n        /* \"#utility.yul\":12565:12582   */\n      swap1\n      pop\n        /* \"#utility.yul\":12604:12605   */\n      dup2\n        /* \"#utility.yul\":12598:12602   */\n      dup2\n        /* \"#utility.yul\":12595:12606   */\n      gt\n        /* \"#utility.yul\":12592:12629   */\n      iszero\n      tag_308\n      jumpi\n        /* \"#utility.yul\":12609:12627   */\n      tag_309\n      tag_151\n      jump\t// in\n    tag_309:\n        /* \"#utility.yul\":12592:12629   */\n    tag_308:\n        /* \"#utility.yul\":12442:12636   */\n      swap3\n      swap2\n      pop\n      pop\n      jump\t// out\n        /* \"#utility.yul\":12642:12783   */\n    tag_157:\n        /* \"#utility.yul\":12691:12695   */\n      0x00\n        /* \"#utility.yul\":12714:12717   */\n      dup2\n        /* \"#utility.yul\":12706:12717   */\n      swap1\n      pop\n        /* \"#utility.yul\":12737:12740   */\n      dup2\n        /* \"#utility.yul\":12734:12735   */\n      0x00\n        /* \"#utility.yul\":12727:12741   */\n      mstore\n        /* \"#utility.yul\":12771:12775   */\n      0x20\n        /* \"#utility.yul\":12768:12769   */\n      0x00\n        /* \"#utility.yul\":12758:12776   */\n      keccak256\n        /* \"#utility.yul\":12750:12776   */\n      swap1\n      pop\n        /* \"#utility.yul\":12642:12783   */\n      swap2\n      swap1\n      pop\n      jump\t// out\n        /* \"#utility.yul\":12789:12882   */\n    tag_158:\n        /* \"#utility.yul\":12826:12832   */\n      0x00\n        /* \"#utility.yul\":12873:12875   */\n      0x20\n        /* \"#utility.yul\":12868:12870   */\n      0x1f\n        /* \"#utility.yul\":12861:12866   */\n      dup4\n        /* \"#utility.yul\":12857:12871   */\n      add\n        /* \"#utility.yul\":12853:12876   */\n      div\n        /* \"#utility.yul\":12843:12876   */\n      swap1\n      pop\n        /* \"#utility.yul\":12789:12882   */\n      swap2\n      swap1\n      pop\n      jump\t// out\n        /* \"#utility.yul\":12888:12995   */\n    tag_159:\n        /* \"#utility.yul\":12932:12940   */\n      0x00\n        /* \"#utility.yul\":12982:12987   */\n      dup3\n        /* \"#utility.yul\":12976:12980   */\n      dup3\n        /* \"#utility.yul\":12972:12988   */\n      shl\n        /* \"#utility.yul\":12951:12988   */\n      swap1\n      pop\n        /* \"#utility.yul\":12888:12995   */\n      swap3\n      swap2\n      pop\n      pop\n      jump\t// out\n        /* \"#utility.yul\":13001:13394   */\n    tag_160:\n        /* \"#utility.yul\":13070:13076   */\n      0x00\n        /* \"#utility.yul\":13120:13121   */\n      0x08\n        /* \"#utility.yul\":13108:13118   */\n      dup4\n        /* \"#utility.yul\":13104:13122   */\n      mul\n        /* \"#utility.yul\":13143:13240   */\n      tag_314\n        /* \"#utility.yul\":13173:13239   */\n      0xffffffffffffffffffffffffffffffffffffffffffffffffffffffffffffffff\n        /* \"#utility.yul\":13162:13171   */\n      dup3\n        /* \"#utility.yul\":13143:13240   */\n      tag_159\n      jump\t// in\n    tag_314:\n        /* \"#utility.yul\":13261:13300   */\n      tag_315\n        /* \"#utility.yul\":13291:13299   */\n      dup7\n        /* \"#utility.yul\":13280:13289   */\n      dup4\n        /* \"#utility.yul\":13261:13300   */\n      tag_159\n      jump\t// in\n    tag_315:\n        /* \"#utility.yul\":13249:13300   */\n      swap6\n      pop\n        /* \"#utility.yul\":13333:13337   */\n      dup1\n        /* \"#utility.yul\":13329:13338   */\n      not\n        /* \"#utility.yul\":13322:13327   */\n      dup5\n        /* \"#utility.yul\":13318:13339   */\n      and\n        /* \"#utility.yul\":13309:13339   */\n      swap4\n      pop\n        /* \"#utility.yul\":13382:13386   */\n      dup1\n        /* \"#utility.yul\":13372:13380   */\n      dup7\n        /* \"#utility.yul\":13368:13387   */\n      and\n        /* \"#utility.yul\":13361:13366   */\n      dup5\n        /* \"#utility.yul\":13358:13388   */\n      or\n        /* \"#utility.yul\":13348:13388   */\n      swap3\n      pop\n        /* \"#utility.yul\":13077:13394   */\n      pop\n      pop\n        /* \"#utility.yul\":13001:13394   */\n      swap4\n      swap3\n      pop\n      pop\n      pop\n      jump\t// out\n        /* \"#utility.yul\":13400:13460   */\n    tag_161:\n        /* \"#utility.yul\":13428:13431   */\n      0x00\n        /* \"#utility.yul\":13449:13454   */\n      dup2\n        /* \"#utility.yul\":13442:13454   */\n      swap1\n      pop\n        /* \"#utility.yul\":13400:13460   */\n      swap2\n      swap1\n      pop\n      jump\t// out\n        /* \"#utility.yul\":13466:13608   */\n    tag_162:\n        /* \"#utility.yul\":13516:13525   */\n      0x00\n        /* \"#utility.yul\":13549:13602   */\n      tag_318\n        /* \"#utility.yul\":13567:13601   */\n      tag_319\n        /* \"#utility.yul\":13576:13600   */\n      tag_320\n        /* \"#utility.yul\":13594:13599   */\n      dup5\n        /* \"#utility.yul\":13576:13600   */\n      tag_119\n      jump\t// in\n    tag_320:\n        /* \"#utility.yul\":13567:13601   */\n      tag_161\n      jump\t// in\n    tag_319:\n        /* \"#utility.yul\":13549:13602   */\n      tag_119\n      jump\t// in\n    tag_318:\n        /* \"#utility.yul\":13536:13602   */\n      swap1\n      pop\n        /* \"#utility.yul\":13466:13608   */\n      swap2\n      swap1\n      pop\n      jump\t// out\n        /* \"#utility.yul\":13614:13689   */\n    tag_163:\n        /* \"#utility.yul\":13657:13660   */\n      0x00\n        /* \"#utility.yul\":13678:13683   */\n      dup2\n        /* \"#utility.yul\":13671:13683   */\n      swap1\n      pop\n        /* \"#utility.yul\":13614:13689   */\n      swap2\n      swap1\n      pop\n      jump\t// out\n        /* \"#utility.yul\":13695:13964   */\n    tag_164:\n        /* \"#utility.yul\":13805:13844   */\n      tag_323\n        /* \"#utility.yul\":13836:13843   */\n      dup4\n        /* \"#utility.yul\":13805:13844   */\n      tag_162\n      jump\t// in\n    tag_323:\n        /* \"#utility.yul\":13866:13957   */\n      tag_324\n        /* \"#utility.yul\":13915:13956   */\n      tag_325\n        /* \"#utility.yul\":13939:13955   */\n      dup3\n        /* \"#utility.yul\":13915:13956   */\n      tag_163\n      jump\t// in\n    tag_325:\n        /* \"#utility.yul\":13907:13913   */\n      dup5\n        /* \"#utility.yul\":13900:13904   */\n      dup5\n        /* \"#utility.yul\":13894:13905   */\n      sload\n        /* \"#utility.yul\":13866:13957   */\n      tag_160\n      jump\t// in\n    tag_324:\n        /* \"#utility.yul\":13860:13864   */\n      dup3\n        /* \"#utility.yul\":13853:13958   */\n      sstore\n        /* \"#utility.yul\":13771:13964   */\n      pop\n        /* \"#utility.yul\":13695:13964   */\n      pop\n      pop\n      pop\n      jump\t// out\n        /* \"#utility.yul\":13970:14043   */\n    tag_165:\n        /* \"#utility.yul\":14015:14018   */\n      0x00\n        /* \"#utility.yul\":14036:14037   */\n      0x00\n        /* \"#utility.yul\":14029:14037   */\n      swap1\n      pop\n        /* \"#utility.yul\":13970:14043   */\n      swap1\n      jump\t// out\n        /* \"#utility.yul\":14049:14238   */\n    tag_166:\n        /* \"#utility.yul\":14126:14158   */\n      tag_328\n      tag_165\n      jump\t// in\n    tag_328:\n        /* \"#utility.yul\":14167:14232   */\n      tag_329\n        /* \"#utility.yul\":14225:14231   */\n      dup2\n        /* \"#utility.yul\":14217:14223   */\n      dup5\n        /* \"#utility.yul\":14211:14215   */\n      dup5\n        /* \"#utility.yul\":14167:14232   */\n      tag_164\n      jump\t// in\n    tag_329:\n        /* \"#utility.yul\":14102:14238   */\n      pop\n        /* \"#utility.yul\":14049:14238   */\n      pop\n      pop\n      jump\t// out\n        /* \"#utility.yul\":14244:14430   */\n    tag_167:\n        /* \"#utility.yul\":14304:14424   */\n    tag_331:\n        /* \"#utility.yul\":14321:14324   */\n      dup2\n        /* \"#utility.yul\":14314:14319   */\n      dup2\n        /* \"#utility.yul\":14311:14325   */\n      lt\n        /* \"#utility.yul\":14304:14424   */\n      iszero\n      tag_333\n      jumpi\n        /* \"#utility.yul\":14375:14414   */\n      tag_334\n        /* \"#utility.yul\":14412:14413   */\n      0x00\n        /* \"#utility.yul\":14405:14410   */\n      dup3\n        /* \"#utility.yul\":14375:14414   */\n      tag_166\n      jump\t// in\n    tag_334:\n        /* \"#utility.yul\":14348:14349   */\n      0x01\n        /* \"#utility.yul\":14341:14346   */\n      dup2\n        /* \"#utility.yul\":14337:14350   */\n      add\n        /* \"#utility.yul\":14328:14350   */\n      swap1\n      pop\n        /* \"#utility.yul\":14304:14424   */\n      jump(tag_331)\n    tag_333:\n        /* \"#utility.yul\":14244:14430   */\n      pop\n      pop\n      jump\t// out\n        /* \"#utility.yul\":14436:14979   */\n    tag_168:\n        /* \"#utility.yul\":14537:14539   */\n      0x1f\n        /* \"#utility.yul\":14532:14535   */\n      dup3\n        /* \"#utility.yul\":14529:14540   */\n      gt\n        /* \"#utility.yul\":14526:14972   */\n      iszero\n      tag_336\n      jumpi\n        /* \"#utility.yul\":14571:14609   */\n      tag_337\n        /* \"#utility.yul\":14603:14608   */\n      dup2\n        /* \"#utility.yul\":14571:14609   */\n      tag_157\n      jump\t// in\n    tag_337:\n        /* \"#utility.yul\":14655:14684   */\n      tag_338\n        /* \"#utility.yul\":14673:14683   */\n      dup5\n        /* \"#utility.yul\":14655:14684   */\n      tag_158\n      jump\t// in\n    tag_338:\n        /* \"#utility.yul\":14645:14653   */\n      dup2\n        /* \"#utility.yul\":14641:14685   */\n      add\n        /* \"#utility.yul\":14838:14840   */\n      0x20\n        /* \"#utility.yul\":14826:14836   */\n      dup6\n        /* \"#utility.yul\":14823:14841   */\n      lt\n        /* \"#utility.yul\":14820:14869   */\n      iszero\n      tag_339\n      jumpi\n        /* \"#utility.yul\":14859:14867   */\n      dup2\n        /* \"#utility.yul\":14844:14867   */\n      swap1\n      pop\n        /* \"#utility.yul\":14820:14869   */\n    tag_339:\n        /* \"#utility.yul\":14882:14962   */\n      tag_340\n        /* \"#utility.yul\":14938:14960   */\n      tag_341\n        /* \"#utility.yul\":14956:14959   */\n      dup6\n        /* \"#utility.yul\":14938:14960   */\n      tag_158\n      jump\t// in\n    tag_341:\n        /* \"#utility.yul\":14928:14936   */\n      dup4\n        /* \"#utility.yul\":14924:14961   */\n      add\n        /* \"#utility.yul\":14911:14922   */\n      dup3\n        /* \"#utility.yul\":14882:14962   */\n      tag_167\n      jump\t// in\n    tag_340:\n        /* \"#utility.yul\":14541:14972   */\n      pop\n      pop\n        /* \"#utility.yul\":14526:14972   */\n    tag_336:\n        /* \"#utility.yul\":14436:14979   */\n      pop\n      pop\n      pop\n      jump\t// out\n        /* \"#utility.yul\":14985:15102   */\n    tag_169:\n        /* \"#utility.yul\":15039:15047   */\n      0x00\n        /* \"#utility.yul\":15089:15094   */\n      dup3\n        /* \"#utility.yul\":15083:15087   */\n      dup3\n        /* \"#utility.yul\":15079:15095   */\n      shr\n        /* \"#utility.yul\":15058:15095   */\n      swap1\n      pop\n        /* \"#utility.yul\":14985:15102   */\n      swap3\n      swap2\n      pop\n      pop\n      jump\t// out\n        /* \"#utility.yul\":15108:15277   */\n    tag_170:\n        /* \"#utility.yul\":15152:15158   */\n      0x00\n        /* \"#utility.yul\":15185:15236   */\n      tag_344\n        /* \"#utility.yul\":15233:15234   */\n      0x00\n        /* \"#utility.yul\":15229:15235   */\n      not\n        /* \"#utility.yul\":15221:15226   */\n      dup5\n        /* \"#utility.yul\":15218:15219   */\n      0x08\n        /* \"#utility.yul\":15214:15227   */\n      mul\n        /* \"#utility.yul\":15185:15236   */\n      tag_169\n      jump\t// in\n    tag_344:\n        /* \"#utility.yul\":15181:15237   */\n      not\n        /* \"#utility.yul\":15266:15270   */\n      dup1\n        /* \"#utility.yul\":15260:15264   */\n      dup4\n        /* \"#utility.yul\":15256:15271   */\n      and\n        /* \"#utility.yul\":15246:15271   */\n      swap2\n      pop\n        /* \"#utility.yul\":15159:15277   */\n      pop\n        /* \"#utility.yul\":15108:15277   */\n      swap3\n      swap2\n      pop\n      pop\n      jump\t// out\n        /* \"#utility.yul\":15282:15577   */\n    tag_171:\n        /* \"#utility.yul\":15358:15362   */\n      0x00\n        /* \"#utility.yul\":15504:15533   */\n      tag_346\n        /* \"#utility.yul\":15529:15532   */\n      dup4\n        /* \"#utility.yul\":15523:15527   */\n      dup4\n        /* \"#utility.yul\":15504:15533   */\n      tag_170\n      jump\t// in\n    tag_346:\n        /* \"#utility.yul\":15496:15533   */\n      swap2\n      pop\n        /* \"#utility.yul\":15566:15569   */\n      dup3\n        /* \"#utility.yul\":15563:15564   */\n      0x02\n        /* \"#utility.yul\":15559:15570   */\n      mul\n        /* \"#utility.yul\":15553:15557   */\n      dup3\n        /* \"#utility.yul\":15550:15571   */\n      or\n        /* \"#utility.yul\":15542:15571   */\n      swap1\n      pop\n        /* \"#utility.yul\":15282:15577   */\n      swap3\n      swap2\n      pop\n      pop\n      jump\t// out\n        /* \"#utility.yul\":15582:16977   */\n    tag_98:\n        /* \"#utility.yul\":15699:15736   */\n      tag_348\n        /* \"#utility.yul\":15732:15735   */\n      dup3\n        /* \"#utility.yul\":15699:15736   */\n      tag_130\n      jump\t// in\n    tag_348:\n        /* \"#utility.yul\":15801:15819   */\n      0xffffffffffffffff\n        /* \"#utility.yul\":15793:15799   */\n      dup2\n        /* \"#utility.yul\":15790:15820   */\n      gt\n        /* \"#utility.yul\":15787:15843   */\n      iszero\n      tag_349\n      jumpi\n        /* \"#utility.yul\":15823:15841   */\n      tag_350\n      tag_139\n      jump\t// in\n    tag_350:\n        /* \"#utility.yul\":15787:15843   */\n    tag_349:\n        /* \"#utility.yul\":15867:15905   */\n      tag_351\n        /* \"#utility.yul\":15899:15903   */\n      dup3\n        /* \"#utility.yul\":15893:15904   */\n      sload\n        /* \"#utility.yul\":15867:15905   */\n      tag_82\n      jump\t// in\n    tag_351:\n        /* \"#utility.yul\":15952:16019   */\n      tag_352\n        /* \"#utility.yul\":16012:16018   */\n      dup3\n        /* \"#utility.yul\":16004:16010   */\n      dup3\n        /* \"#utility.yul\":15998:16002   */\n      dup6\n        /* \"#utility.yul\":15952:16019   */\n      tag_168\n      jump\t// in\n    tag_352:\n        /* \"#utility.yul\":16046:16047   */\n      0x00\n        /* \"#utility.yul\":16070:16074   */\n      0x20\n        /* \"#utility.yul\":16057:16074   */\n      swap1\n      pop\n        /* \"#utility.yul\":16102:16104   */\n      0x1f\n        /* \"#utility.yul\":16094:16100   */\n      dup4\n        /* \"#utility.yul\":16091:16105   */\n      gt\n        /* \"#utility.yul\":16119:16120   */\n      0x01\n        /* \"#utility.yul\":16114:16732   */\n      dup2\n      eq\n      tag_354\n      jumpi\n        /* \"#utility.yul\":16776:16777   */\n      0x00\n        /* \"#utility.yul\":16793:16799   */\n      dup5\n        /* \"#utility.yul\":16790:16867   */\n      iszero\n      tag_355\n      jumpi\n        /* \"#utility.yul\":16842:16851   */\n      dup3\n        /* \"#utility.yul\":16837:16840   */\n      dup8\n        /* \"#utility.yul\":16833:16852   */\n      add\n        /* \"#utility.yul\":16827:16853   */\n      mload\n        /* \"#utility.yul\":16818:16853   */\n      swap1\n      pop\n        /* \"#utility.yul\":16790:16867   */\n    tag_355:\n        /* \"#utility.yul\":16893:16960   */\n      tag_356\n        /* \"#utility.yul\":16953:16959   */\n      dup6\n        /* \"#utility.yul\":16946:16951   */\n      dup3\n        /* \"#utility.yul\":16893:16960   */\n      tag_171\n      jump\t// in\n    tag_356:\n        /* \"#utility.yul\":16887:16891   */\n      dup7\n        /* \"#utility.yul\":16880:16961   */\n      sstore\n        /* \"#utility.yul\":16749:16971   */\n      pop\n        /* \"#utility.yul\":16084:16971   */\n      jump(tag_353)\n        /* \"#utility.yul\":16114:16732   */\n    tag_354:\n        /* \"#utility.yul\":16166:16170   */\n      0x1f\n        /* \"#utility.yul\":16162:16171   */\n      not\n        /* \"#utility.yul\":16154:16160   */\n      dup5\n        /* \"#utility.yul\":16150:16172   */\n      and\n        /* \"#utility.yul\":16200:16237   */\n      tag_357\n        /* \"#utility.yul\":16232:16236   */\n      dup7\n        /* \"#utility.yul\":16200:16237   */\n      tag_157\n      jump\t// in\n    tag_357:\n        /* \"#utility.yul\":16259:16260   */\n      0x00\n        /* \"#utility.yul\":16273:16481   */\n    tag_358:\n        /* \"#utility.yul\":16287:16294   */\n      dup3\n        /* \"#utility.yul\":16284:16285   */\n      dup2\n        /* \"#utility.yul\":16281:16295   */\n      lt\n        /* \"#utility.yul\":16273:16481   */\n      iszero\n      tag_360\n      jumpi\n        /* \"#utility.yul\":16366:16375   */\n      dup5\n        /* \"#utility.yul\":16361:16364   */\n      dup10\n        /* \"#utility.yul\":16357:16376   */\n      add\n        /* \"#utility.yul\":16351:16377   */\n      mload\n        /* \"#utility.yul\":16343:16349   */\n      dup3\n        /* \"#utility.yul\":16336:16378   */\n      sstore\n        /* \"#utility.yul\":16417:16418   */\n      0x01\n        /* \"#utility.yul\":16409:16415   */\n      dup3\n        /* \"#utility.yul\":16405:16419   */\n      add\n        /* \"#utility.yul\":16395:16419   */\n      swap2\n      pop\n        /* \"#utility.yul\":16464:16466   */\n      0x20\n        /* \"#utility.yul\":16453:16462   */\n      dup6\n        /* \"#utility.yul\":16449:16467   */\n      add\n        /* \"#utility.yul\":16436:16467   */\n      swap5\n      pop\n        /* \"#utility.yul\":16310:16314   */\n      0x20\n        /* \"#utility.yul\":16307:16308   */\n      dup2\n        /* \"#utility.yul\":16303:16315   */\n      add\n        /* \"#utility.yul\":16298:16315   */\n      swap1\n      pop\n        /* \"#utility.yul\":16273:16481   */\n      jump(tag_358)\n    tag_360:\n        /* \"#utility.yul\":16509:16515   */\n      dup7\n        /* \"#utility.yul\":16500:16507   */\n      dup4\n        /* \"#utility.yul\":16497:16516   */\n      lt\n        /* \"#utility.yul\":16494:16673   */\n      iszero\n      tag_361\n      jumpi\n        /* \"#utility.yul\":16567:16576   */\n      dup5\n        /* \"#utility.yul\":16562:16565   */\n      dup10\n        /* \"#utility.yul\":16558:16577   */\n      add\n        /* \"#utility.yul\":16552:16578   */\n      mload\n        /* \"#utility.yul\":16610:16658   */\n      tag_362\n        /* \"#utility.yul\":16652:16656   */\n      0x1f\n        /* \"#utility.yul\":16644:16650   */\n      dup10\n        /* \"#utility.yul\":16640:16657   */\n      and\n        /* \"#utility.yul\":16629:16638   */\n      dup3\n        /* \"#utility.yul\":16610:16658   */\n      tag_170\n      jump\t// in\n    tag_362:\n        /* \"#utility.yul\":16602:16608   */\n      dup4\n        /* \"#utility.yul\":16595:16659   */\n      sstore\n        /* \"#utility.yul\":16517:16673   */\n      pop\n        /* \"#utility.yul\":16494:16673   */\n    tag_361:\n        /* \"#utility.yul\":16719:16720   */\n      0x01\n        /* \"#utility.yul\":16715:16716   */\n      0x02\n        /* \"#utility.yul\":16707:16713   */\n      dup9\n        /* \"#utility.yul\":16703:16717   */\n      mul\n        /* \"#utility.yul\":16699:16721   */\n      add\n        /* \"#utility.yul\":16693:16697   */\n      dup9\n        /* \"#utility.yul\":16686:16722   */\n      sstore\n        /* \"#utility.yul\":16121:16732   */\n      pop\n      pop\n      pop\n        /* \"#utility.yul\":16084:16971   */\n    tag_353:\n      pop\n        /* \"#utility.yul\":15674:16977   */\n      pop\n      pop\n      pop\n        /* \"#utility.yul\":15582:16977   */\n      pop\n      pop\n      jump\t// out\n        /* \"#utility.yul\":16983:17210   */\n    tag_172:\n        /* \"#utility.yul\":17123:17157   */\n      0x416d6f756e74206973206c657373207468616e206d696e696d756d20436f6e74\n        /* \"#utility.yul\":17119:17120   */\n      0x00\n        /* \"#utility.yul\":17111:17117   */\n      dup3\n        /* \"#utility.yul\":17107:17121   */\n      add\n        /* \"#utility.yul\":17100:17158   */\n      mstore\n        /* \"#utility.yul\":17192:17202   */\n      0x7269627574696f6e000000000000000000000000000000000000000000000000\n        /* \"#utility.yul\":17187:17189   */\n      0x20\n        /* \"#utility.yul\":17179:17185   */\n      dup3\n        /* \"#utility.yul\":17175:17190   */\n      add\n        /* \"#utility.yul\":17168:17203   */\n      mstore\n        /* \"#utility.yul\":16983:17210   */\n      pop\n      jump\t// out\n        /* \"#utility.yul\":17216:17582   */\n    tag_173:\n        /* \"#utility.yul\":17358:17361   */\n      0x00\n        /* \"#utility.yul\":17379:17446   */\n      tag_365\n        /* \"#utility.yul\":17443:17445   */\n      0x28\n        /* \"#utility.yul\":17438:17441   */\n      dup4\n        /* \"#utility.yul\":17379:17446   */\n      tag_131\n      jump\t// in\n    tag_365:\n        /* \"#utility.yul\":17372:17446   */\n      swap2\n      pop\n        /* \"#utility.yul\":17455:17548   */\n      tag_366\n        /* \"#utility.yul\":17544:17547   */\n      dup3\n        /* \"#utility.yul\":17455:17548   */\n      tag_172\n      jump\t// in\n    tag_366:\n        /* \"#utility.yul\":17573:17575   */\n      0x40\n        /* \"#utility.yul\":17568:17571   */\n      dup3\n        /* \"#utility.yul\":17564:17576   */\n      add\n        /* \"#utility.yul\":17557:17576   */\n      swap1\n      pop\n        /* \"#utility.yul\":17216:17582   */\n      swap2\n      swap1\n      pop\n      jump\t// out\n        /* \"#utility.yul\":17588:18007   */\n    tag_102:\n        /* \"#utility.yul\":17754:17758   */\n      0x00\n        /* \"#utility.yul\":17792:17794   */\n      0x20\n        /* \"#utility.yul\":17781:17790   */\n      dup3\n        /* \"#utility.yul\":17777:17795   */\n      add\n        /* \"#utility.yul\":17769:17795   */\n      swap1\n      pop\n        /* \"#utility.yul\":17841:17850   */\n      dup2\n        /* \"#utility.yul\":17835:17839   */\n      dup2\n        /* \"#utility.yul\":17831:17851   */\n      sub\n        /* \"#utility.yul\":17827:17828   */\n      0x00\n        /* \"#utility.yul\":17816:17825   */\n      dup4\n        /* \"#utility.yul\":17812:17829   */\n      add\n        /* \"#utility.yul\":17805:17852   */\n      mstore\n        /* \"#utility.yul\":17869:18000   */\n      tag_368\n        /* \"#utility.yul\":17995:17999   */\n      dup2\n        /* \"#utility.yul\":17869:18000   */\n      tag_173\n      jump\t// in\n    tag_368:\n        /* \"#utility.yul\":17861:18000   */\n      swap1\n      pop\n        /* \"#utility.yul\":17588:18007   */\n      swap2\n      swap1\n      pop\n      jump\t// out\n        /* \"#utility.yul\":18013:18246   */\n    tag_104:\n        /* \"#utility.yul\":18052:18055   */\n      0x00\n        /* \"#utility.yul\":18075:18099   */\n      tag_370\n        /* \"#utility.yul\":18093:18098   */\n      dup3\n        /* \"#utility.yul\":18075:18099   */\n      tag_119\n      jump\t// in\n    tag_370:\n        /* \"#utility.yul\":18066:18099   */\n      swap2\n      pop\n        /* \"#utility.yul\":18121:18187   */\n      0xffffffffffffffffffffffffffffffffffffffffffffffffffffffffffffffff\n        /* \"#utility.yul\":18114:18119   */\n      dup3\n        /* \"#utility.yul\":18111:18188   */\n      sub\n        /* \"#utility.yul\":18108:18211   */\n      tag_371\n      jumpi\n        /* \"#utility.yul\":18191:18209   */\n      tag_372\n      tag_151\n      jump\t// in\n    tag_372:\n        /* \"#utility.yul\":18108:18211   */\n    tag_371:\n        /* \"#utility.yul\":18238:18239   */\n      0x01\n        /* \"#utility.yul\":18231:18236   */\n      dup3\n        /* \"#utility.yul\":18227:18240   */\n      add\n        /* \"#utility.yul\":18220:18240   */\n      swap1\n      pop\n        /* \"#utility.yul\":18013:18246   */\n      swap2\n      swap1\n      pop\n      jump\t// out\n        /* \"#utility.yul\":18252:18475   */\n    tag_174:\n        /* \"#utility.yul\":18392:18426   */\n      0x596f75206861766520746f20666972737420636f6e7472696275746520746f20\n        /* \"#utility.yul\":18388:18389   */\n      0x00\n        /* \"#utility.yul\":18380:18386   */\n      dup3\n        /* \"#utility.yul\":18376:18390   */\n      add\n        /* \"#utility.yul\":18369:18427   */\n      mstore\n        /* \"#utility.yul\":18461:18467   */\n      0x766f746500000000000000000000000000000000000000000000000000000000\n        /* \"#utility.yul\":18456:18458   */\n      0x20\n        /* \"#utility.yul\":18448:18454   */\n      dup3\n        /* \"#utility.yul\":18444:18459   */\n      add\n        /* \"#utility.yul\":18437:18468   */\n      mstore\n        /* \"#utility.yul\":18252:18475   */\n      pop\n      jump\t// out\n        /* \"#utility.yul\":18481:18847   */\n    tag_175:\n        /* \"#utility.yul\":18623:18626   */\n      0x00\n        /* \"#utility.yul\":18644:18711   */\n      tag_375\n        /* \"#utility.yul\":18708:18710   */\n      0x24\n        /* \"#utility.yul\":18703:18706   */\n      dup4\n        /* \"#utility.yul\":18644:18711   */\n      tag_131\n      jump\t// in\n    tag_375:\n        /* \"#utility.yul\":18637:18711   */\n      swap2\n      pop\n        /* \"#utility.yul\":18720:18813   */\n      tag_376\n        /* \"#utility.yul\":18809:18812   */\n      dup3\n        /* \"#utility.yul\":18720:18813   */\n      tag_174\n      jump\t// in\n    tag_376:\n        /* \"#utility.yul\":18838:18840   */\n      0x40\n        /* \"#utility.yul\":18833:18836   */\n      dup3\n        /* \"#utility.yul\":18829:18841   */\n      add\n        /* \"#utility.yul\":18822:18841   */\n      swap1\n      pop\n        /* \"#utility.yul\":18481:18847   */\n      swap2\n      swap1\n      pop\n      jump\t// out\n        /* \"#utility.yul\":18853:19272   */\n    tag_111:\n        /* \"#utility.yul\":19019:19023   */\n      0x00\n        /* \"#utility.yul\":19057:19059   */\n      0x20\n        /* \"#utility.yul\":19046:19055   */\n      dup3\n        /* \"#utility.yul\":19042:19060   */\n      add\n        /* \"#utility.yul\":19034:19060   */\n      swap1\n      pop\n        /* \"#utility.yul\":19106:19115   */\n      dup2\n        /* \"#utility.yul\":19100:19104   */\n      dup2\n        /* \"#utility.yul\":19096:19116   */\n      sub\n        /* \"#utility.yul\":19092:19093   */\n      0x00\n        /* \"#utility.yul\":19081:19090   */\n      dup4\n        /* \"#utility.yul\":19077:19094   */\n      add\n        /* \"#utility.yul\":19070:19117   */\n      mstore\n        /* \"#utility.yul\":19134:19265   */\n      tag_378\n        /* \"#utility.yul\":19260:19264   */\n      dup2\n        /* \"#utility.yul\":19134:19265   */\n      tag_175\n      jump\t// in\n    tag_378:\n        /* \"#utility.yul\":19126:19265   */\n      swap1\n      pop\n        /* \"#utility.yul\":18853:19272   */\n      swap2\n      swap1\n      pop\n      jump\t// out\n        /* \"#utility.yul\":19278:19450   */\n    tag_176:\n        /* \"#utility.yul\":19418:19442   */\n      0x596f75206861766520616c726561647920766f74656400000000000000000000\n        /* \"#utility.yul\":19414:19415   */\n      0x00\n        /* \"#utility.yul\":19406:19412   */\n      dup3\n        /* \"#utility.yul\":19402:19416   */\n      add\n        /* \"#utility.yul\":19395:19443   */\n      mstore\n        /* \"#utility.yul\":19278:19450   */\n      pop\n      jump\t// out\n        /* \"#utility.yul\":19456:19822   */\n    tag_177:\n        /* \"#utility.yul\":19598:19601   */\n      0x00\n        /* \"#utility.yul\":19619:19686   */\n      tag_381\n        /* \"#utility.yul\":19683:19685   */\n      0x16\n        /* \"#utility.yul\":19678:19681   */\n      dup4\n        /* \"#utility.yul\":19619:19686   */\n      tag_131\n      jump\t// in\n    tag_381:\n        /* \"#utility.yul\":19612:19686   */\n      swap2\n      pop\n        /* \"#utility.yul\":19695:19788   */\n      tag_382\n        /* \"#utility.yul\":19784:19787   */\n      dup3\n        /* \"#utility.yul\":19695:19788   */\n      tag_176\n      jump\t// in\n    tag_382:\n        /* \"#utility.yul\":19813:19815   */\n      0x20\n        /* \"#utility.yul\":19808:19811   */\n      dup3\n        /* \"#utility.yul\":19804:19816   */\n      add\n        /* \"#utility.yul\":19797:19816   */\n      swap1\n      pop\n        /* \"#utility.yul\":19456:19822   */\n      swap2\n      swap1\n      pop\n      jump\t// out\n        /* \"#utility.yul\":19828:20247   */\n    tag_114:\n        /* \"#utility.yul\":19994:19998   */\n      0x00\n        /* \"#utility.yul\":20032:20034   */\n      0x20\n        /* \"#utility.yul\":20021:20030   */\n      dup3\n        /* \"#utility.yul\":20017:20035   */\n      add\n        /* \"#utility.yul\":20009:20035   */\n      swap1\n      pop\n        /* \"#utility.yul\":20081:20090   */\n      dup2\n        /* \"#utility.yul\":20075:20079   */\n      dup2\n        /* \"#utility.yul\":20071:20091   */\n      sub\n        /* \"#utility.yul\":20067:20068   */\n      0x00\n        /* \"#utility.yul\":20056:20065   */\n      dup4\n        /* \"#utility.yul\":20052:20069   */\n      add\n        /* \"#utility.yul\":20045:20092   */\n      mstore\n        /* \"#utility.yul\":20109:20240   */\n      tag_384\n        /* \"#utility.yul\":20235:20239   */\n      dup2\n        /* \"#utility.yul\":20109:20240   */\n      tag_177\n      jump\t// in\n    tag_384:\n        /* \"#utility.yul\":20101:20240   */\n      swap1\n      pop\n        /* \"#utility.yul\":19828:20247   */\n      swap2\n      swap1\n      pop\n      jump\t// out\n\n    auxdata: 0xa26469706673582212206a81e5ebdb9ce654fe859645dc10eb2bce4ae71efc67e16f807bd6d0e0732a8b64736f6c634300081e0033\n}\n","bytecode":{"linkReferences":{},"object":"60806040525f600455348015610013575f5ffd5b506040516115c23803806115c283398181016040528101906100359190610114565b8060015f6101000a81548173ffffffffffffffffffffffffffffffffffffffff021916908373ffffffffffffffffffffffffffffffffffffffff160217905550816002819055505050610152565b5f5ffd5b5f819050919050565b61009981610087565b81146100a3575f5ffd5b50565b5f815190506100b481610090565b92915050565b5f73ffffffffffffffffffffffffffffffffffffffff82169050919050565b5f6100e3826100ba565b9050919050565b6100f3816100d9565b81146100fd575f5ffd5b50565b5f8151905061010e816100ea565b92915050565b5f5f6040838503121561012a57610129610083565b5b5f610137858286016100a6565b925050602061014885828601610100565b9150509250929050565b6114638061015f5f395ff3fe608060405260043610610090575f3560e01c806382fde0931161005857806382fde093146101805780638a9cfd55146101aa578063937e09b1146101d2578063d7bb99ba146101fc578063d7d1bbdb1461020657610090565b806303441006146100945780630a144391146100b05780633410452a146100ec578063481c6a751461011657806381d12c5814610140575b5f5ffd5b6100ae60048036038101906100a99190610971565b61022e565b005b3480156100bb575f5ffd5b506100d660048036038101906100d191906109f6565b610416565b6040516100e39190610a3b565b60405180910390f35b3480156100f7575f5ffd5b50610100610433565b60405161010d9190610a63565b60405180910390f35b348015610121575f5ffd5b5061012a61043e565b6040516101379190610a8b565b60405180910390f35b34801561014b575f5ffd5b5061016660048036038101906101619190610971565b610463565b604051610177959493929190610b34565b60405180910390f35b34801561018b575f5ffd5b50610194610555565b6040516101a19190610a63565b60405180910390f35b3480156101b5575f5ffd5b506101d060048036038101906101cb9190610ce2565b61055b565b005b3480156101dd575f5ffd5b506101e66106be565b6040516101f39190610a63565b60405180910390f35b6102046106c4565b005b348015610211575f5ffd5b5061022c60048036038101906102279190610971565b610776565b005b60015f9054906101000a900473ffffffffffffffffffffffffffffffffffffffff1673ffffffffffffffffffffffffffffffffffffffff163373ffffffffffffffffffffffffffffffffffffffff16146102bd576040517f08c379a00000000000000000000000000000000000000000000000000000000081526004016102b490610dbe565b60405180910390fd5b5f5f82815481106102d1576102d0610ddc565b5b905f5260205f209060050201905060026004546102ee9190610e63565b816003015411610333576040517f08c379a000000000000000000000000000000000000000000000000000000000815260040161032a90610edd565b60405180910390fd5b5f15158160020160149054906101000a900460ff1615151461038a576040517f08c379a000000000000000000000000000000000000000000000000000000000815260040161038190610f45565b60405180910390fd5b806002015f9054906101000a900473ffffffffffffffffffffffffffffffffffffffff1673ffffffffffffffffffffffffffffffffffffffff166108fc826001015490811502906040515f60405180830381858888f193505050501580156103f4573d5f5f3e3d5ffd5b5060018160020160146101000a81548160ff0219169083151502179055505050565b6003602052805f5260405f205f915054906101000a900460ff1681565b5f5f80549050905090565b60015f9054906101000a900473ffffffffffffffffffffffffffffffffffffffff1681565b5f8181548110610471575f80fd5b905f5260205f2090600502015f91509050805f01805461049090610f90565b80601f01602080910402602001604051908101604052809291908181526020018280546104bc90610f90565b80156105075780601f106104de57610100808354040283529160200191610507565b820191905f5260205f20905b8154815290600101906020018083116104ea57829003601f168201915b505050505090806001015490806002015f9054906101000a900473ffffffffffffffffffffffffffffffffffffffff16908060020160149054906101000a900460ff16908060030154905085565b60045481565b60015f9054906101000a900473ffffffffffffffffffffffffffffffffffffffff1673ffffffffffffffffffffffffffffffffffffffff163373ffffffffffffffffffffffffffffffffffffffff16146105ea576040517f08c379a00000000000000000000000000000000000000000000000000000000081526004016105e190610dbe565b60405180910390fd5b5f60018160018154018082558091505003905f5260205f209050505f5f60015f805490506106189190610fc0565b8154811061062957610628610ddc565b5b905f5260205f209060050201905083815f0190816106479190611193565b5082816001018190555081816002015f6101000a81548173ffffffffffffffffffffffffffffffffffffffff021916908373ffffffffffffffffffffffffffffffffffffffff1602179055505f8160020160146101000a81548160ff0219169083151502179055505f816003018190555050505050565b60025481565b6002543411610708576040517f08c379a00000000000000000000000000000000000000000000000000000000081526004016106ff906112d2565b60405180910390fd5b600160035f3373ffffffffffffffffffffffffffffffffffffffff1673ffffffffffffffffffffffffffffffffffffffff1681526020019081526020015f205f6101000a81548160ff02191690831515021790555060045f81548092919061076f906112f0565b9190505550565b5f5f828154811061078a57610789610ddc565b5b905f5260205f20906005020190506001151560035f3373ffffffffffffffffffffffffffffffffffffffff1673ffffffffffffffffffffffffffffffffffffffff1681526020019081526020015f205f9054906101000a900460ff16151514610828576040517f08c379a000000000000000000000000000000000000000000000000000000000815260040161081f906113a7565b60405180910390fd5b5f1515816004015f3373ffffffffffffffffffffffffffffffffffffffff1673ffffffffffffffffffffffffffffffffffffffff1681526020019081526020015f205f9054906101000a900460ff161515146108b9576040517f08c379a00000000000000000000000000000000000000000000000000000000081526004016108b09061140f565b60405180910390fd5b6001816004015f3373ffffffffffffffffffffffffffffffffffffffff1673ffffffffffffffffffffffffffffffffffffffff1681526020019081526020015f205f6101000a81548160ff021916908315150217905550806003015f815480929190610924906112f0565b91905055505050565b5f604051905090565b5f5ffd5b5f5ffd5b5f819050919050565b6109508161093e565b811461095a575f5ffd5b50565b5f8135905061096b81610947565b92915050565b5f6020828403121561098657610985610936565b5b5f6109938482850161095d565b91505092915050565b5f73ffffffffffffffffffffffffffffffffffffffff82169050919050565b5f6109c58261099c565b9050919050565b6109d5816109bb565b81146109df575f5ffd5b50565b5f813590506109f0816109cc565b92915050565b5f60208284031215610a0b57610a0a610936565b5b5f610a18848285016109e2565b91505092915050565b5f8115159050919050565b610a3581610a21565b82525050565b5f602082019050610a4e5f830184610a2c565b92915050565b610a5d8161093e565b82525050565b5f602082019050610a765f830184610a54565b92915050565b610a85816109bb565b82525050565b5f602082019050610a9e5f830184610a7c565b92915050565b5f81519050919050565b5f82825260208201905092915050565b8281835e5f83830152505050565b5f601f19601f8301169050919050565b5f610ae682610aa4565b610af08185610aae565b9350610b00818560208601610abe565b610b0981610acc565b840191505092915050565b5f610b1e8261099c565b9050919050565b610b2e81610b14565b82525050565b5f60a0820190508181035f830152610b4c8188610adc565b9050610b5b6020830187610a54565b610b686040830186610b25565b610b756060830185610a2c565b610b826080830184610a54565b9695505050505050565b5f5ffd5b5f5ffd5b7f4e487b71000000000000000000000000000000000000000000000000000000005f52604160045260245ffd5b610bca82610acc565b810181811067ffffffffffffffff82111715610be957610be8610b94565b5b80604052505050565b5f610bfb61092d565b9050610c078282610bc1565b919050565b5f67ffffffffffffffff821115610c2657610c25610b94565b5b610c2f82610acc565b9050602081019050919050565b828183375f83830152505050565b5f610c5c610c5784610c0c565b610bf2565b905082815260208101848484011115610c7857610c77610b90565b5b610c83848285610c3c565b509392505050565b5f82601f830112610c9f57610c9e610b8c565b5b8135610caf848260208601610c4a565b91505092915050565b610cc181610b14565b8114610ccb575f5ffd5b50565b5f81359050610cdc81610cb8565b92915050565b5f5f5f60608486031215610cf957610cf8610936565b5b5f84013567ffffffffffffffff811115610d1657610d1561093a565b5b610d2286828701610c8b565b9350506020610d338682870161095d565b9250506040610d4486828701610cce565b9150509250925092565b7f4f6e6c79206d616e616765722063616e20506572666f726d20746869732074615f8201527f736b000000000000000000000000000000000000000000000000000000000000602082015250565b5f610da8602283610aae565b9150610db382610d4e565b604082019050919050565b5f6020820190508181035f830152610dd581610d9c565b9050919050565b7f4e487b71000000000000000000000000000000000000000000000000000000005f52603260045260245ffd5b7f4e487b71000000000000000000000000000000000000000000000000000000005f52601260045260245ffd5b7f4e487b71000000000000000000000000000000000000000000000000000000005f52601160045260245ffd5b5f610e6d8261093e565b9150610e788361093e565b925082610e8857610e87610e09565b5b828204905092915050565b7f4e6f7420656e6f75676820617070726f76657273206861766520766f746564005f82015250565b5f610ec7601f83610aae565b9150610ed282610e93565b602082019050919050565b5f6020820190508181035f830152610ef481610ebb565b9050919050565b7f5265717565737420697320616c726561647920636f6d706c65746564000000005f82015250565b5f610f2f601c83610aae565b9150610f3a82610efb565b602082019050919050565b5f6020820190508181035f830152610f5c81610f23565b9050919050565b7f4e487b71000000000000000000000000000000000000000000000000000000005f52602260045260245ffd5b5f6002820490506001821680610fa757607f821691505b602082108103610fba57610fb9610f63565b5b50919050565b5f610fca8261093e565b9150610fd58361093e565b9250828203905081811115610fed57610fec610e36565b5b92915050565b5f819050815f5260205f209050919050565b5f6020601f8301049050919050565b5f82821b905092915050565b5f6008830261104f7fffffffffffffffffffffffffffffffffffffffffffffffffffffffffffffffff82611014565b6110598683611014565b95508019841693508086168417925050509392505050565b5f819050919050565b5f61109461108f61108a8461093e565b611071565b61093e565b9050919050565b5f819050919050565b6110ad8361107a565b6110c16110b98261109b565b848454611020565b825550505050565b5f5f905090565b6110d86110c9565b6110e38184846110a4565b505050565b5b81811015611106576110fb5f826110d0565b6001810190506110e9565b5050565b601f82111561114b5761111c81610ff3565b61112584611005565b81016020851015611134578190505b61114861114085611005565b8301826110e8565b50505b505050565b5f82821c905092915050565b5f61116b5f1984600802611150565b1980831691505092915050565b5f611183838361115c565b9150826002028217905092915050565b61119c82610aa4565b67ffffffffffffffff8111156111b5576111b4610b94565b5b6111bf8254610f90565b6111ca82828561110a565b5f60209050601f8311600181146111fb575f84156111e9578287015190505b6111f38582611178565b86555061125a565b601f19841661120986610ff3565b5f5b828110156112305784890151825560018201915060208501945060208101905061120b565b8683101561124d5784890151611249601f89168261115c565b8355505b6001600288020188555050505b505050505050565b7f416d6f756e74206973206c657373207468616e206d696e696d756d20436f6e745f8201527f7269627574696f6e000000000000000000000000000000000000000000000000602082015250565b5f6112bc602883610aae565b91506112c782611262565b604082019050919050565b5f6020820190508181035f8301526112e9816112b0565b9050919050565b5f6112fa8261093e565b91507fffffffffffffffffffffffffffffffffffffffffffffffffffffffffffffffff820361132c5761132b610e36565b5b600182019050919050565b7f596f75206861766520746f20666972737420636f6e7472696275746520746f205f8201527f766f746500000000000000000000000000000000000000000000000000000000602082015250565b5f611391602483610aae565b915061139c82611337565b604082019050919050565b5f6020820190508181035f8301526113be81611385565b9050919050565b7f596f75206861766520616c726561647920766f746564000000000000000000005f82015250565b5f6113f9601683610aae565b9150611404826113c5565b602082019050919050565b5f6020820190508181035f830152611426816113ed565b905091905056fea26469706673582212206a81e5ebdb9ce654fe859645dc10eb2bce4ae71efc67e16f807bd6d0e0732a8b64736f6c634300081e0033","opcodes":"PUSH1 0x80 PUSH1 0x40 MSTORE PUSH0 PUSH1 0x4 SSTORE CALLVALUE DUP1 ISZERO PUSH2 0x13 JUMPI PUSH0 PUSH0 REVERT JUMPDEST POP PUSH1 0x40 MLOAD PUSH2 0x15C2 CODESIZE SUB DUP1 PUSH2 0x15C2 DUP4 CODECOPY DUP2 DUP2 ADD PUSH1 0x40 MSTORE DUP2 ADD SWAP1 PUSH2 0x35 SWAP2 SWAP1 PUSH2 0x114 JUMP JUMPDEST DUP1 PUSH1 0x1 PUSH0 PUSH2 0x100 EXP DUP2 SLOAD DUP2 PUSH20 0xFFFFFFFFFFFFFFFFFFFFFFFFFFFFFFFFFFFFFFFF MUL NOT AND SWAP1 DUP4 PUSH20 0xFFFFFFFFFFFFFFFFFFFFFFFFFFFFFFFFFFFFFFFF AND MUL OR SWAP1 SSTORE POP DUP2 PUSH1 0x2 DUP2 SWAP1 SSTORE POP POP POP PUSH2 0x152 JUMP JUMPDEST PUSH0 PUSH0 REVERT JUMPDEST PUSH0 DUP2 SWAP1 POP SWAP2 SWAP1 POP JUMP JUMPDEST PUSH2 0x99 DUP2 PUSH2 0x87 JUMP JUMPDEST DUP2 EQ PUSH2 0xA3 JUMPI PUSH0 PUSH0 REVERT JUMPDEST POP JUMP JUMPDEST PUSH0 DUP2 MLOAD SWAP1 POP PUSH2 0xB4 DUP2 PUSH2 0x90 JUMP JUMPDEST SWAP3 SWAP2 POP POP JUMP JUMPDEST PUSH0 PUSH20 0xFFFFFFFFFFFFFFFFFFFFFFFFFFFFFFFFFFFFFFFF DUP3 AND SWAP1 POP SWAP2 SWAP1 POP JUMP JUMPDEST PUSH0 PUSH2 0xE3 DUP3 PUSH2 0xBA JUMP JUMPDEST SWAP1 POP SWAP2 SWAP1 POP JUMP JUMPDEST PUSH2 0xF3 DUP2 PUSH2 0xD9 JUMP JUMPDEST DUP2 EQ PUSH2 0xFD JUMPI PUSH0 PUSH0 REVERT JUMPDEST POP JUMP JUMPDEST PUSH0 DUP2 MLOAD SWAP1 POP PUSH2 0x10E DUP2 PUSH2 0xEA JUMP JUMPDEST SWAP3 SWAP2 POP POP JUMP JUMPDEST PUSH0 PUSH0 PUSH1 0x40 DUP4 DUP6 SUB SLT ISZERO PUSH2 0x12A JUMPI PUSH2 0x129 PUSH2 0x83 JUMP JUMPDEST JUMPDEST PUSH0 PUSH2 0x137 DUP6 DUP3 DUP7 ADD PUSH2 0xA6 JUMP JUMPDEST SWAP3 POP POP PUSH1 0x20 PUSH2 0x148 DUP6 DUP3 DUP7 ADD PUSH2 0x100 JUMP JUMPDEST SWAP2 POP POP SWAP3 POP SWAP3 SWAP1 POP JUMP JUMPDEST PUSH2 0x1463 DUP1 PUSH2 0x15F PUSH0 CODECOPY PUSH0 RETURN INVALID PUSH1 0x80 PUSH1 0x40 MSTORE PUSH1 0x4 CALLDATASIZE LT PUSH2 0x90 JUMPI PUSH0 CALLDATALOAD PUSH1 0xE0 SHR DUP1 PUSH4 0x82FDE093 GT PUSH2 0x58 JUMPI DUP1 PUSH4 0x82FDE093 EQ PUSH2 0x180 JUMPI DUP1 PUSH4 0x8A9CFD55 EQ PUSH2 0x1AA JUMPI DUP1 PUSH4 0x937E09B1 EQ PUSH2 0x1D2 JUMPI DUP1 PUSH4 0xD7BB99BA EQ PUSH2 0x1FC JUMPI DUP1 PUSH4 0xD7D1BBDB EQ PUSH2 0x206 JUMPI PUSH2 0x90 JUMP JUMPDEST DUP1 PUSH4 0x3441006 EQ PUSH2 0x94 JUMPI DUP1 PUSH4 0xA144391 EQ PUSH2 0xB0 JUMPI DUP1 PUSH4 0x3410452A EQ PUSH2 0xEC JUMPI DUP1 PUSH4 0x481C6A75 EQ PUSH2 0x116 JUMPI DUP1 PUSH4 0x81D12C58 EQ PUSH2 0x140 JUMPI JUMPDEST PUSH0 PUSH0 REVERT JUMPDEST PUSH2 0xAE PUSH1 0x4 DUP1 CALLDATASIZE SUB DUP2 ADD SWAP1 PUSH2 0xA9 SWAP2 SWAP1 PUSH2 0x971 JUMP JUMPDEST PUSH2 0x22E JUMP JUMPDEST STOP JUMPDEST CALLVALUE DUP1 ISZERO PUSH2 0xBB JUMPI PUSH0 PUSH0 REVERT JUMPDEST POP PUSH2 0xD6 PUSH1 0x4 DUP1 CALLDATASIZE SUB DUP2 ADD SWAP1 PUSH2 0xD1 SWAP2 SWAP1 PUSH2 0x9F6 JUMP JUMPDEST PUSH2 0x416 JUMP JUMPDEST PUSH1 0x40 MLOAD PUSH2 0xE3 SWAP2 SWAP1 PUSH2 0xA3B JUMP JUMPDEST PUSH1 0x40 MLOAD DUP1 SWAP2 SUB SWAP1 RETURN JUMPDEST CALLVALUE DUP1 ISZERO PUSH2 0xF7 JUMPI PUSH0 PUSH0 REVERT JUMPDEST POP PUSH2 0x100 PUSH2 0x433 JUMP JUMPDEST PUSH1 0x40 MLOAD PUSH2 0x10D SWAP2 SWAP1 PUSH2 0xA63 JUMP JUMPDEST PUSH1 0x40 MLOAD DUP1 SWAP2 SUB SWAP1 RETURN JUMPDEST CALLVALUE DUP1 ISZERO PUSH2 0x121 JUMPI PUSH0 PUSH0 REVERT JUMPDEST POP PUSH2 0x12A PUSH2 0x43E JUMP JUMPDEST PUSH1 0x40 MLOAD PUSH2 0x137 SWAP2 SWAP1 PUSH2 0xA8B JUMP JUMPDEST PUSH1 0x40 MLOAD DUP1 SWAP2 SUB SWAP1 RETURN JUMPDEST CALLVALUE DUP1 ISZERO PUSH2 0x14B JUMPI PUSH0 PUSH0 REVERT JUMPDEST POP PUSH2 0x166 PUSH1 0x4 DUP1 CALLDATASIZE SUB DUP2 ADD SWAP1 PUSH2 0x161 SWAP2 SWAP1 PUSH2 0x971 JUMP JUMPDEST PUSH2 0x463 JUMP JUMPDEST PUSH1 0x40 MLOAD PUSH2 0x177 SWAP6 SWAP5 SWAP4 SWAP3 SWAP2 SWAP1 PUSH2 0xB34 JUMP JUMPDEST PUSH1 0x40 MLOAD DUP1 SWAP2 SUB SWAP1 RETURN JUMPDEST CALLVALUE DUP1 ISZERO PUSH2 0x18B JUMPI PUSH0 PUSH0 REVERT JUMPDEST POP PUSH2 0x194 PUSH2 0x555 JUMP JUMPDEST PUSH1 0x40 MLOAD PUSH2 0x1A1 SWAP2 SWAP1 PUSH2 0xA63 JUMP JUMPDEST PUSH1 0x40 MLOAD DUP1 SWAP2 SUB SWAP1 RETURN JUMPDEST CALLVALUE DUP1 ISZERO PUSH2 0x1B5 JUMPI PUSH0 PUSH0 REVERT JUMPDEST POP PUSH2 0x1D0 PUSH1 0x4 DUP1 CALLDATASIZE SUB DUP2 ADD SWAP1 PUSH2 0x1CB SWAP2 SWAP1 PUSH2 0xCE2 JUMP JUMPDEST PUSH2 0x55B JUMP JUMPDEST STOP JUMPDEST CALLVALUE DUP1 ISZERO PUSH2 0x1DD JUMPI PUSH0 PUSH0 REVERT JUMPDEST POP PUSH2 0x1E6 PUSH2 0x6BE JUMP JUMPDEST PUSH1 0x40 MLOAD PUSH2 0x1F3 SWAP2 SWAP1 PUSH2 0xA63 JUMP JUMPDEST PUSH1 0x40 MLOAD DUP1 SWAP2 SUB SWAP1 RETURN JUMPDEST PUSH2 0x204 PUSH2 0x6C4 JUMP JUMPDEST STOP JUMPDEST CALLVALUE DUP1 ISZERO PUSH2 0x211 JUMPI PUSH0 PUSH0 REVERT JUMPDEST POP PUSH2 0x22C PUSH1 0x4 DUP1 CALLDATASIZE SUB DUP2 ADD SWAP1 PUSH2 0x227 SWAP2 SWAP1 PUSH2 0x971 JUMP JUMPDEST PUSH2 0x776 JUMP JUMPDEST STOP JUMPDEST PUSH1 0x1 PUSH0 SWAP1 SLOAD SWAP1 PUSH2 0x100 EXP SWAP1 DIV PUSH20 0xFFFFFFFFFFFFFFFFFFFFFFFFFFFFFFFFFFFFFFFF AND PUSH20 0xFFFFFFFFFFFFFFFFFFFFFFFFFFFFFFFFFFFFFFFF AND CALLER PUSH20 0xFFFFFFFFFFFFFFFFFFFFFFFFFFFFFFFFFFFFFFFF AND EQ PUSH2 0x2BD JUMPI PUSH1 0x40 MLOAD PUSH32 0x8C379A000000000000000000000000000000000000000000000000000000000 DUP2 MSTORE PUSH1 0x4 ADD PUSH2 0x2B4 SWAP1 PUSH2 0xDBE JUMP JUMPDEST PUSH1 0x40 MLOAD DUP1 SWAP2 SUB SWAP1 REVERT JUMPDEST PUSH0 PUSH0 DUP3 DUP2 SLOAD DUP2 LT PUSH2 0x2D1 JUMPI PUSH2 0x2D0 PUSH2 0xDDC JUMP JUMPDEST JUMPDEST SWAP1 PUSH0 MSTORE PUSH1 0x20 PUSH0 KECCAK256 SWAP1 PUSH1 0x5 MUL ADD SWAP1 POP PUSH1 0x2 PUSH1 0x4 SLOAD PUSH2 0x2EE SWAP2 SWAP1 PUSH2 0xE63 JUMP JUMPDEST DUP2 PUSH1 0x3 ADD SLOAD GT PUSH2 0x333 JUMPI PUSH1 0x40 MLOAD PUSH32 0x8C379A000000000000000000000000000000000000000000000000000000000 DUP2 MSTORE PUSH1 0x4 ADD PUSH2 0x32A SWAP1 PUSH2 0xEDD JUMP JUMPDEST PUSH1 0x40 MLOAD DUP1 SWAP2 SUB SWAP1 REVERT JUMPDEST PUSH0 ISZERO ISZERO DUP2 PUSH1 0x2 ADD PUSH1 0x14 SWAP1 SLOAD SWAP1 PUSH2 0x100 EXP SWAP1 DIV PUSH1 0xFF AND ISZERO ISZERO EQ PUSH2 0x38A JUMPI PUSH1 0x40 MLOAD PUSH32 0x8C379A000000000000000000000000000000000000000000000000000000000 DUP2 MSTORE PUSH1 0x4 ADD PUSH2 0x381 SWAP1 PUSH2 0xF45 JUMP JUMPDEST PUSH1 0x40 MLOAD DUP1 SWAP2 SUB SWAP1 REVERT JUMPDEST DUP1 PUSH1 0x2 ADD PUSH0 SWAP1 SLOAD SWAP1 PUSH2 0x100 EXP SWAP1 DIV PUSH20 0xFFFFFFFFFFFFFFFFFFFFFFFFFFFFFFFFFFFFFFFF AND PUSH20 0xFFFFFFFFFFFFFFFFFFFFFFFFFFFFFFFFFFFFFFFF AND PUSH2 0x8FC DUP3 PUSH1 0x1 ADD SLOAD SWAP1 DUP2 ISZERO MUL SWAP1 PUSH1 0x40 MLOAD PUSH0 PUSH1 0x40 MLOAD DUP1 DUP4 SUB DUP2 DUP6 DUP9 DUP9 CALL SWAP4 POP POP POP POP ISZERO DUP1 ISZERO PUSH2 0x3F4 JUMPI RETURNDATASIZE PUSH0 PUSH0 RETURNDATACOPY RETURNDATASIZE PUSH0 REVERT JUMPDEST POP PUSH1 0x1 DUP2 PUSH1 0x2 ADD PUSH1 0x14 PUSH2 0x100 EXP DUP2 SLOAD DUP2 PUSH1 0xFF MUL NOT AND SWAP1 DUP4 ISZERO ISZERO MUL OR SWAP1 SSTORE POP POP POP JUMP JUMPDEST PUSH1 0x3 PUSH1 0x20 MSTORE DUP1 PUSH0 MSTORE PUSH1 0x40 PUSH0 KECCAK256 PUSH0 SWAP2 POP SLOAD SWAP1 PUSH2 0x100 EXP SWAP1 DIV PUSH1 0xFF AND DUP2 JUMP JUMPDEST PUSH0 PUSH0 DUP1 SLOAD SWAP1 POP SWAP1 POP SWAP1 JUMP JUMPDEST PUSH1 0x1 PUSH0 SWAP1 SLOAD SWAP1 PUSH2 0x100 EXP SWAP1 DIV PUSH20 0xFFFFFFFFFFFFFFFFFFFFFFFFFFFFFFFFFFFFFFFF AND DUP2 JUMP JUMPDEST PUSH0 DUP2 DUP2 SLOAD DUP2 LT PUSH2 0x471 JUMPI PUSH0 DUP1 REVERT JUMPDEST SWAP1 PUSH0 MSTORE PUSH1 0x20 PUSH0 KECCAK256 SWAP1 PUSH1 0x5 MUL ADD PUSH0 SWAP2 POP SWAP1 POP DUP1 PUSH0 ADD DUP1 SLOAD PUSH2 0x490 SWAP1 PUSH2 0xF90 JUMP JUMPDEST DUP1 PUSH1 0x1F ADD PUSH1 0x20 DUP1 SWAP2 DIV MUL PUSH1 0x20 ADD PUSH1 0x40 MLOAD SWAP1 DUP2 ADD PUSH1 0x40 MSTORE DUP1 SWAP3 SWAP2 SWAP1 DUP2 DUP2 MSTORE PUSH1 0x20 ADD DUP3 DUP1 SLOAD PUSH2 0x4BC SWAP1 PUSH2 0xF90 JUMP JUMPDEST DUP1 ISZERO PUSH2 0x507 JUMPI DUP1 PUSH1 0x1F LT PUSH2 0x4DE JUMPI PUSH2 0x100 DUP1 DUP4 SLOAD DIV MUL DUP4 MSTORE SWAP2 PUSH1 0x20 ADD SWAP2 PUSH2 0x507 JUMP JUMPDEST DUP3 ADD SWAP2 SWAP1 PUSH0 MSTORE PUSH1 0x20 PUSH0 KECCAK256 SWAP1 JUMPDEST DUP2 SLOAD DUP2 MSTORE SWAP1 PUSH1 0x1 ADD SWAP1 PUSH1 0x20 ADD DUP1 DUP4 GT PUSH2 0x4EA JUMPI DUP3 SWAP1 SUB PUSH1 0x1F AND DUP3 ADD SWAP2 JUMPDEST POP POP POP POP POP SWAP1 DUP1 PUSH1 0x1 ADD SLOAD SWAP1 DUP1 PUSH1 0x2 ADD PUSH0 SWAP1 SLOAD SWAP1 PUSH2 0x100 EXP SWAP1 DIV PUSH20 0xFFFFFFFFFFFFFFFFFFFFFFFFFFFFFFFFFFFFFFFF AND SWAP1 DUP1 PUSH1 0x2 ADD PUSH1 0x14 SWAP1 SLOAD SWAP1 PUSH2 0x100 EXP SWAP1 DIV PUSH1 0xFF AND SWAP1 DUP1 PUSH1 0x3 ADD SLOAD SWAP1 POP DUP6 JUMP JUMPDEST PUSH1 0x4 SLOAD DUP2 JUMP JUMPDEST PUSH1 0x1 PUSH0 SWAP1 SLOAD SWAP1 PUSH2 0x100 EXP SWAP1 DIV PUSH20 0xFFFFFFFFFFFFFFFFFFFFFFFFFFFFFFFFFFFFFFFF AND PUSH20 0xFFFFFFFFFFFFFFFFFFFFFFFFFFFFFFFFFFFFFFFF AND CALLER PUSH20 0xFFFFFFFFFFFFFFFFFFFFFFFFFFFFFFFFFFFFFFFF AND EQ PUSH2 0x5EA JUMPI PUSH1 0x40 MLOAD PUSH32 0x8C379A000000000000000000000000000000000000000000000000000000000 DUP2 MSTORE PUSH1 0x4 ADD PUSH2 0x5E1 SWAP1 PUSH2 0xDBE JUMP JUMPDEST PUSH1 0x40 MLOAD DUP1 SWAP2 SUB SWAP1 REVERT JUMPDEST PUSH0 PUSH1 0x1 DUP2 PUSH1 0x1 DUP2 SLOAD ADD DUP1 DUP3 SSTORE DUP1 SWAP2 POP POP SUB SWAP1 PUSH0 MSTORE PUSH1 0x20 PUSH0 KECCAK256 SWAP1 POP POP PUSH0 PUSH0 PUSH1 0x1 PUSH0 DUP1 SLOAD SWAP1 POP PUSH2 0x618 SWAP2 SWAP1 PUSH2 0xFC0 JUMP JUMPDEST DUP2 SLOAD DUP2 LT PUSH2 0x629 JUMPI PUSH2 0x628 PUSH2 0xDDC JUMP JUMPDEST JUMPDEST SWAP1 PUSH0 MSTORE PUSH1 0x20 PUSH0 KECCAK256 SWAP1 PUSH1 0x5 MUL ADD SWAP1 POP DUP4 DUP2 PUSH0 ADD SWAP1 DUP2 PUSH2 0x647 SWAP2 SWAP1 PUSH2 0x1193 JUMP JUMPDEST POP DUP3 DUP2 PUSH1 0x1 ADD DUP2 SWAP1 SSTORE POP DUP2 DUP2 PUSH1 0x2 ADD PUSH0 PUSH2 0x100 EXP DUP2 SLOAD DUP2 PUSH20 0xFFFFFFFFFFFFFFFFFFFFFFFFFFFFFFFFFFFFFFFF MUL NOT AND SWAP1 DUP4 PUSH20 0xFFFFFFFFFFFFFFFFFFFFFFFFFFFFFFFFFFFFFFFF AND MUL OR SWAP1 SSTORE POP PUSH0 DUP2 PUSH1 0x2 ADD PUSH1 0x14 PUSH2 0x100 EXP DUP2 SLOAD DUP2 PUSH1 0xFF MUL NOT AND SWAP1 DUP4 ISZERO ISZERO MUL OR SWAP1 SSTORE POP PUSH0 DUP2 PUSH1 0x3 ADD DUP2 SWAP1 SSTORE POP POP POP POP POP JUMP JUMPDEST PUSH1 0x2 SLOAD DUP2 JUMP JUMPDEST PUSH1 0x2 SLOAD CALLVALUE GT PUSH2 0x708 JUMPI PUSH1 0x40 MLOAD PUSH32 0x8C379A000000000000000000000000000000000000000000000000000000000 DUP2 MSTORE PUSH1 0x4 ADD PUSH2 0x6FF SWAP1 PUSH2 0x12D2 JUMP JUMPDEST PUSH1 0x40 MLOAD DUP1 SWAP2 SUB SWAP1 REVERT JUMPDEST PUSH1 0x1 PUSH1 0x3 PUSH0 CALLER PUSH20 0xFFFFFFFFFFFFFFFFFFFFFFFFFFFFFFFFFFFFFFFF AND PUSH20 0xFFFFFFFFFFFFFFFFFFFFFFFFFFFFFFFFFFFFFFFF AND DUP2 MSTORE PUSH1 0x20 ADD SWAP1 DUP2 MSTORE PUSH1 0x20 ADD PUSH0 KECCAK256 PUSH0 PUSH2 0x100 EXP DUP2 SLOAD DUP2 PUSH1 0xFF MUL NOT AND SWAP1 DUP4 ISZERO ISZERO MUL OR SWAP1 SSTORE POP PUSH1 0x4 PUSH0 DUP2 SLOAD DUP1 SWAP3 SWAP2 SWAP1 PUSH2 0x76F SWAP1 PUSH2 0x12F0 JUMP JUMPDEST SWAP2 SWAP1 POP SSTORE POP JUMP JUMPDEST PUSH0 PUSH0 DUP3 DUP2 SLOAD DUP2 LT PUSH2 0x78A JUMPI PUSH2 0x789 PUSH2 0xDDC JUMP JUMPDEST JUMPDEST SWAP1 PUSH0 MSTORE PUSH1 0x20 PUSH0 KECCAK256 SWAP1 PUSH1 0x5 MUL ADD SWAP1 POP PUSH1 0x1 ISZERO ISZERO PUSH1 0x3 PUSH0 CALLER PUSH20 0xFFFFFFFFFFFFFFFFFFFFFFFFFFFFFFFFFFFFFFFF AND PUSH20 0xFFFFFFFFFFFFFFFFFFFFFFFFFFFFFFFFFFFFFFFF AND DUP2 MSTORE PUSH1 0x20 ADD SWAP1 DUP2 MSTORE PUSH1 0x20 ADD PUSH0 KECCAK256 PUSH0 SWAP1 SLOAD SWAP1 PUSH2 0x100 EXP SWAP1 DIV PUSH1 0xFF AND ISZERO ISZERO EQ PUSH2 0x828 JUMPI PUSH1 0x40 MLOAD PUSH32 0x8C379A000000000000000000000000000000000000000000000000000000000 DUP2 MSTORE PUSH1 0x4 ADD PUSH2 0x81F SWAP1 PUSH2 0x13A7 JUMP JUMPDEST PUSH1 0x40 MLOAD DUP1 SWAP2 SUB SWAP1 REVERT JUMPDEST PUSH0 ISZERO ISZERO DUP2 PUSH1 0x4 ADD PUSH0 CALLER PUSH20 0xFFFFFFFFFFFFFFFFFFFFFFFFFFFFFFFFFFFFFFFF AND PUSH20 0xFFFFFFFFFFFFFFFFFFFFFFFFFFFFFFFFFFFFFFFF AND DUP2 MSTORE PUSH1 0x20 ADD SWAP1 DUP2 MSTORE PUSH1 0x20 ADD PUSH0 KECCAK256 PUSH0 SWAP1 SLOAD SWAP1 PUSH2 0x100 EXP SWAP1 DIV PUSH1 0xFF AND ISZERO ISZERO EQ PUSH2 0x8B9 JUMPI PUSH1 0x40 MLOAD PUSH32 0x8C379A000000000000000000000000000000000000000000000000000000000 DUP2 MSTORE PUSH1 0x4 ADD PUSH2 0x8B0 SWAP1 PUSH2 0x140F JUMP JUMPDEST PUSH1 0x40 MLOAD DUP1 SWAP2 SUB SWAP1 REVERT JUMPDEST PUSH1 0x1 DUP2 PUSH1 0x4 ADD PUSH0 CALLER PUSH20 0xFFFFFFFFFFFFFFFFFFFFFFFFFFFFFFFFFFFFFFFF AND PUSH20 0xFFFFFFFFFFFFFFFFFFFFFFFFFFFFFFFFFFFFFFFF AND DUP2 MSTORE PUSH1 0x20 ADD SWAP1 DUP2 MSTORE PUSH1 0x20 ADD PUSH0 KECCAK256 PUSH0 PUSH2 0x100 EXP DUP2 SLOAD DUP2 PUSH1 0xFF MUL NOT AND SWAP1 DUP4 ISZERO ISZERO MUL OR SWAP1 SSTORE POP DUP1 PUSH1 0x3 ADD PUSH0 DUP2 SLOAD DUP1 SWAP3 SWAP2 SWAP1 PUSH2 0x924 SWAP1 PUSH2 0x12F0 JUMP JUMPDEST SWAP2 SWAP1 POP SSTORE POP POP POP JUMP JUMPDEST PUSH0 PUSH1 0x40 MLOAD SWAP1 POP SWAP1 JUMP JUMPDEST PUSH0 PUSH0 REVERT JUMPDEST PUSH0 PUSH0 REVERT JUMPDEST PUSH0 DUP2 SWAP1 POP SWAP2 SWAP1 POP JUMP JUMPDEST PUSH2 0x950 DUP2 PUSH2 0x93E JUMP JUMPDEST DUP2 EQ PUSH2 0x95A JUMPI PUSH0 PUSH0 REVERT JUMPDEST POP JUMP JUMPDEST PUSH0 DUP2 CALLDATALOAD SWAP1 POP PUSH2 0x96B DUP2 PUSH2 0x947 JUMP JUMPDEST SWAP3 SWAP2 POP POP JUMP JUMPDEST PUSH0 PUSH1 0x20 DUP3 DUP5 SUB SLT ISZERO PUSH2 0x986 JUMPI PUSH2 0x985 PUSH2 0x936 JUMP JUMPDEST JUMPDEST PUSH0 PUSH2 0x993 DUP5 DUP3 DUP6 ADD PUSH2 0x95D JUMP JUMPDEST SWAP2 POP POP SWAP3 SWAP2 POP POP JUMP JUMPDEST PUSH0 PUSH20 0xFFFFFFFFFFFFFFFFFFFFFFFFFFFFFFFFFFFFFFFF DUP3 AND SWAP1 POP SWAP2 SWAP1 POP JUMP JUMPDEST PUSH0 PUSH2 0x9C5 DUP3 PUSH2 0x99C JUMP JUMPDEST SWAP1 POP SWAP2 SWAP1 POP JUMP JUMPDEST PUSH2 0x9D5 DUP2 PUSH2 0x9BB JUMP JUMPDEST DUP2 EQ PUSH2 0x9DF JUMPI PUSH0 PUSH0 REVERT JUMPDEST POP JUMP JUMPDEST PUSH0 DUP2 CALLDATALOAD SWAP1 POP PUSH2 0x9F0 DUP2 PUSH2 0x9CC JUMP JUMPDEST SWAP3 SWAP2 POP POP JUMP JUMPDEST PUSH0 PUSH1 0x20 DUP3 DUP5 SUB SLT ISZERO PUSH2 0xA0B JUMPI PUSH2 0xA0A PUSH2 0x936 JUMP JUMPDEST JUMPDEST PUSH0 PUSH2 0xA18 DUP5 DUP3 DUP6 ADD PUSH2 0x9E2 JUMP JUMPDEST SWAP2 POP POP SWAP3 SWAP2 POP POP JUMP JUMPDEST PUSH0 DUP2 ISZERO ISZERO SWAP1 POP SWAP2 SWAP1 POP JUMP JUMPDEST PUSH2 0xA35 DUP2 PUSH2 0xA21 JUMP JUMPDEST DUP3 MSTORE POP POP JUMP JUMPDEST PUSH0 PUSH1 0x20 DUP3 ADD SWAP1 POP PUSH2 0xA4E PUSH0 DUP4 ADD DUP5 PUSH2 0xA2C JUMP JUMPDEST SWAP3 SWAP2 POP POP JUMP JUMPDEST PUSH2 0xA5D DUP2 PUSH2 0x93E JUMP JUMPDEST DUP3 MSTORE POP POP JUMP JUMPDEST PUSH0 PUSH1 0x20 DUP3 ADD SWAP1 POP PUSH2 0xA76 PUSH0 DUP4 ADD DUP5 PUSH2 0xA54 JUMP JUMPDEST SWAP3 SWAP2 POP POP JUMP JUMPDEST PUSH2 0xA85 DUP2 PUSH2 0x9BB JUMP JUMPDEST DUP3 MSTORE POP POP JUMP JUMPDEST PUSH0 PUSH1 0x20 DUP3 ADD SWAP1 POP PUSH2 0xA9E PUSH0 DUP4 ADD DUP5 PUSH2 0xA7C JUMP JUMPDEST SWAP3 SWAP2 POP POP JUMP JUMPDEST PUSH0 DUP2 MLOAD SWAP1 POP SWAP2 SWAP1 POP JUMP JUMPDEST PUSH0 DUP3 DUP3 MSTORE PUSH1 0x20 DUP3 ADD SWAP1 POP SWAP3 SWAP2 POP POP JUMP JUMPDEST DUP3 DUP2 DUP4 MCOPY PUSH0 DUP4 DUP4 ADD MSTORE POP POP POP JUMP JUMPDEST PUSH0 PUSH1 0x1F NOT PUSH1 0x1F DUP4 ADD AND SWAP1 POP SWAP2 SWAP1 POP JUMP JUMPDEST PUSH0 PUSH2 0xAE6 DUP3 PUSH2 0xAA4 JUMP JUMPDEST PUSH2 0xAF0 DUP2 DUP6 PUSH2 0xAAE JUMP JUMPDEST SWAP4 POP PUSH2 0xB00 DUP2 DUP6 PUSH1 0x20 DUP7 ADD PUSH2 0xABE JUMP JUMPDEST PUSH2 0xB09 DUP2 PUSH2 0xACC JUMP JUMPDEST DUP5 ADD SWAP2 POP POP SWAP3 SWAP2 POP POP JUMP JUMPDEST PUSH0 PUSH2 0xB1E DUP3 PUSH2 0x99C JUMP JUMPDEST SWAP1 POP SWAP2 SWAP1 POP JUMP JUMPDEST PUSH2 0xB2E DUP2 PUSH2 0xB14 JUMP JUMPDEST DUP3 MSTORE POP POP JUMP JUMPDEST PUSH0 PUSH1 0xA0 DUP3 ADD SWAP1 POP DUP2 DUP2 SUB PUSH0 DUP4 ADD MSTORE PUSH2 0xB4C DUP2 DUP9 PUSH2 0xADC JUMP JUMPDEST SWAP1 POP PUSH2 0xB5B PUSH1 0x20 DUP4 ADD DUP8 PUSH2 0xA54 JUMP JUMPDEST PUSH2 0xB68 PUSH1 0x40 DUP4 ADD DUP7 PUSH2 0xB25 JUMP JUMPDEST PUSH2 0xB75 PUSH1 0x60 DUP4 ADD DUP6 PUSH2 0xA2C JUMP JUMPDEST PUSH2 0xB82 PUSH1 0x80 DUP4 ADD DUP5 PUSH2 0xA54 JUMP JUMPDEST SWAP7 SWAP6 POP POP POP POP POP POP JUMP JUMPDEST PUSH0 PUSH0 REVERT JUMPDEST PUSH0 PUSH0 REVERT JUMPDEST PUSH32 0x4E487B7100000000000000000000000000000000000000000000000000000000 PUSH0 MSTORE PUSH1 0x41 PUSH1 0x4 MSTORE PUSH1 0x24 PUSH0 REVERT JUMPDEST PUSH2 0xBCA DUP3 PUSH2 0xACC JUMP JUMPDEST DUP2 ADD DUP2 DUP2 LT PUSH8 0xFFFFFFFFFFFFFFFF DUP3 GT OR ISZERO PUSH2 0xBE9 JUMPI PUSH2 0xBE8 PUSH2 0xB94 JUMP JUMPDEST JUMPDEST DUP1 PUSH1 0x40 MSTORE POP POP POP JUMP JUMPDEST PUSH0 PUSH2 0xBFB PUSH2 0x92D JUMP JUMPDEST SWAP1 POP PUSH2 0xC07 DUP3 DUP3 PUSH2 0xBC1 JUMP JUMPDEST SWAP2 SWAP1 POP JUMP JUMPDEST PUSH0 PUSH8 0xFFFFFFFFFFFFFFFF DUP3 GT ISZERO PUSH2 0xC26 JUMPI PUSH2 0xC25 PUSH2 0xB94 JUMP JUMPDEST JUMPDEST PUSH2 0xC2F DUP3 PUSH2 0xACC JUMP JUMPDEST SWAP1 POP PUSH1 0x20 DUP2 ADD SWAP1 POP SWAP2 SWAP1 POP JUMP JUMPDEST DUP3 DUP2 DUP4 CALLDATACOPY PUSH0 DUP4 DUP4 ADD MSTORE POP POP POP JUMP JUMPDEST PUSH0 PUSH2 0xC5C PUSH2 0xC57 DUP5 PUSH2 0xC0C JUMP JUMPDEST PUSH2 0xBF2 JUMP JUMPDEST SWAP1 POP DUP3 DUP2 MSTORE PUSH1 0x20 DUP2 ADD DUP5 DUP5 DUP5 ADD GT ISZERO PUSH2 0xC78 JUMPI PUSH2 0xC77 PUSH2 0xB90 JUMP JUMPDEST JUMPDEST PUSH2 0xC83 DUP5 DUP3 DUP6 PUSH2 0xC3C JUMP JUMPDEST POP SWAP4 SWAP3 POP POP POP JUMP JUMPDEST PUSH0 DUP3 PUSH1 0x1F DUP4 ADD SLT PUSH2 0xC9F JUMPI PUSH2 0xC9E PUSH2 0xB8C JUMP JUMPDEST JUMPDEST DUP2 CALLDATALOAD PUSH2 0xCAF DUP5 DUP3 PUSH1 0x20 DUP7 ADD PUSH2 0xC4A JUMP JUMPDEST SWAP2 POP POP SWAP3 SWAP2 POP POP JUMP JUMPDEST PUSH2 0xCC1 DUP2 PUSH2 0xB14 JUMP JUMPDEST DUP2 EQ PUSH2 0xCCB JUMPI PUSH0 PUSH0 REVERT JUMPDEST POP JUMP JUMPDEST PUSH0 DUP2 CALLDATALOAD SWAP1 POP PUSH2 0xCDC DUP2 PUSH2 0xCB8 JUMP JUMPDEST SWAP3 SWAP2 POP POP JUMP JUMPDEST PUSH0 PUSH0 PUSH0 PUSH1 0x60 DUP5 DUP7 SUB SLT ISZERO PUSH2 0xCF9 JUMPI PUSH2 0xCF8 PUSH2 0x936 JUMP JUMPDEST JUMPDEST PUSH0 DUP5 ADD CALLDATALOAD PUSH8 0xFFFFFFFFFFFFFFFF DUP2 GT ISZERO PUSH2 0xD16 JUMPI PUSH2 0xD15 PUSH2 0x93A JUMP JUMPDEST JUMPDEST PUSH2 0xD22 DUP7 DUP3 DUP8 ADD PUSH2 0xC8B JUMP JUMPDEST SWAP4 POP POP PUSH1 0x20 PUSH2 0xD33 DUP7 DUP3 DUP8 ADD PUSH2 0x95D JUMP JUMPDEST SWAP3 POP POP PUSH1 0x40 PUSH2 0xD44 DUP7 DUP3 DUP8 ADD PUSH2 0xCCE JUMP JUMPDEST SWAP2 POP POP SWAP3 POP SWAP3 POP SWAP3 JUMP JUMPDEST PUSH32 0x4F6E6C79206D616E616765722063616E20506572666F726D2074686973207461 PUSH0 DUP3 ADD MSTORE PUSH32 0x736B000000000000000000000000000000000000000000000000000000000000 PUSH1 0x20 DUP3 ADD MSTORE POP JUMP JUMPDEST PUSH0 PUSH2 0xDA8 PUSH1 0x22 DUP4 PUSH2 0xAAE JUMP JUMPDEST SWAP2 POP PUSH2 0xDB3 DUP3 PUSH2 0xD4E JUMP JUMPDEST PUSH1 0x40 DUP3 ADD SWAP1 POP SWAP2 SWAP1 POP JUMP JUMPDEST PUSH0 PUSH1 0x20 DUP3 ADD SWAP1 POP DUP2 DUP2 SUB PUSH0 DUP4 ADD MSTORE PUSH2 0xDD5 DUP2 PUSH2 0xD9C JUMP JUMPDEST SWAP1 POP SWAP2 SWAP1 POP JUMP JUMPDEST PUSH32 0x4E487B7100000000000000000000000000000000000000000000000000000000 PUSH0 MSTORE PUSH1 0x32 PUSH1 0x4 MSTORE PUSH1 0x24 PUSH0 REVERT JUMPDEST PUSH32 0x4E487B7100000000000000000000000000000000000000000000000000000000 PUSH0 MSTORE PUSH1 0x12 PUSH1 0x4 MSTORE PUSH1 0x24 PUSH0 REVERT JUMPDEST PUSH32 0x4E487B7100000000000000000000000000000000000000000000000000000000 PUSH0 MSTORE PUSH1 0x11 PUSH1 0x4 MSTORE PUSH1 0x24 PUSH0 REVERT JUMPDEST PUSH0 PUSH2 0xE6D DUP3 PUSH2 0x93E JUMP JUMPDEST SWAP2 POP PUSH2 0xE78 DUP4 PUSH2 0x93E JUMP JUMPDEST SWAP3 POP DUP3 PUSH2 0xE88 JUMPI PUSH2 0xE87 PUSH2 0xE09 JUMP JUMPDEST JUMPDEST DUP3 DUP3 DIV SWAP1 POP SWAP3 SWAP2 POP POP JUMP JUMPDEST PUSH32 0x4E6F7420656E6F75676820617070726F76657273206861766520766F74656400 PUSH0 DUP3 ADD MSTORE POP JUMP JUMPDEST PUSH0 PUSH2 0xEC7 PUSH1 0x1F DUP4 PUSH2 0xAAE JUMP JUMPDEST SWAP2 POP PUSH2 0xED2 DUP3 PUSH2 0xE93 JUMP JUMPDEST PUSH1 0x20 DUP3 ADD SWAP1 POP SWAP2 SWAP1 POP JUMP JUMPDEST PUSH0 PUSH1 0x20 DUP3 ADD SWAP1 POP DUP2 DUP2 SUB PUSH0 DUP4 ADD MSTORE PUSH2 0xEF4 DUP2 PUSH2 0xEBB JUMP JUMPDEST SWAP1 POP SWAP2 SWAP1 POP JUMP JUMPDEST PUSH32 0x5265717565737420697320616C726561647920636F6D706C6574656400000000 PUSH0 DUP3 ADD MSTORE POP JUMP JUMPDEST PUSH0 PUSH2 0xF2F PUSH1 0x1C DUP4 PUSH2 0xAAE JUMP JUMPDEST SWAP2 POP PUSH2 0xF3A DUP3 PUSH2 0xEFB JUMP JUMPDEST PUSH1 0x20 DUP3 ADD SWAP1 POP SWAP2 SWAP1 POP JUMP JUMPDEST PUSH0 PUSH1 0x20 DUP3 ADD SWAP1 POP DUP2 DUP2 SUB PUSH0 DUP4 ADD MSTORE PUSH2 0xF5C DUP2 PUSH2 0xF23 JUMP JUMPDEST SWAP1 POP SWAP2 SWAP1 POP JUMP JUMPDEST PUSH32 0x4E487B7100000000000000000000000000000000000000000000000000000000 PUSH0 MSTORE PUSH1 0x22 PUSH1 0x4 MSTORE PUSH1 0x24 PUSH0 REVERT JUMPDEST PUSH0 PUSH1 0x2 DUP3 DIV SWAP1 POP PUSH1 0x1 DUP3 AND DUP1 PUSH2 0xFA7 JUMPI PUSH1 0x7F DUP3 AND SWAP2 POP JUMPDEST PUSH1 0x20 DUP3 LT DUP2 SUB PUSH2 0xFBA JUMPI PUSH2 0xFB9 PUSH2 0xF63 JUMP JUMPDEST JUMPDEST POP SWAP2 SWAP1 POP JUMP JUMPDEST PUSH0 PUSH2 0xFCA DUP3 PUSH2 0x93E JUMP JUMPDEST SWAP2 POP PUSH2 0xFD5 DUP4 PUSH2 0x93E JUMP JUMPDEST SWAP3 POP DUP3 DUP3 SUB SWAP1 POP DUP2 DUP2 GT ISZERO PUSH2 0xFED JUMPI PUSH2 0xFEC PUSH2 0xE36 JUMP JUMPDEST JUMPDEST SWAP3 SWAP2 POP POP JUMP JUMPDEST PUSH0 DUP2 SWAP1 POP DUP2 PUSH0 MSTORE PUSH1 0x20 PUSH0 KECCAK256 SWAP1 POP SWAP2 SWAP1 POP JUMP JUMPDEST PUSH0 PUSH1 0x20 PUSH1 0x1F DUP4 ADD DIV SWAP1 POP SWAP2 SWAP1 POP JUMP JUMPDEST PUSH0 DUP3 DUP3 SHL SWAP1 POP SWAP3 SWAP2 POP POP JUMP JUMPDEST PUSH0 PUSH1 0x8 DUP4 MUL PUSH2 0x104F PUSH32 0xFFFFFFFFFFFFFFFFFFFFFFFFFFFFFFFFFFFFFFFFFFFFFFFFFFFFFFFFFFFFFFFF DUP3 PUSH2 0x1014 JUMP JUMPDEST PUSH2 0x1059 DUP7 DUP4 PUSH2 0x1014 JUMP JUMPDEST SWAP6 POP DUP1 NOT DUP5 AND SWAP4 POP DUP1 DUP7 AND DUP5 OR SWAP3 POP POP POP SWAP4 SWAP3 POP POP POP JUMP JUMPDEST PUSH0 DUP2 SWAP1 POP SWAP2 SWAP1 POP JUMP JUMPDEST PUSH0 PUSH2 0x1094 PUSH2 0x108F PUSH2 0x108A DUP5 PUSH2 0x93E JUMP JUMPDEST PUSH2 0x1071 JUMP JUMPDEST PUSH2 0x93E JUMP JUMPDEST SWAP1 POP SWAP2 SWAP1 POP JUMP JUMPDEST PUSH0 DUP2 SWAP1 POP SWAP2 SWAP1 POP JUMP JUMPDEST PUSH2 0x10AD DUP4 PUSH2 0x107A JUMP JUMPDEST PUSH2 0x10C1 PUSH2 0x10B9 DUP3 PUSH2 0x109B JUMP JUMPDEST DUP5 DUP5 SLOAD PUSH2 0x1020 JUMP JUMPDEST DUP3 SSTORE POP POP POP POP JUMP JUMPDEST PUSH0 PUSH0 SWAP1 POP SWAP1 JUMP JUMPDEST PUSH2 0x10D8 PUSH2 0x10C9 JUMP JUMPDEST PUSH2 0x10E3 DUP2 DUP5 DUP5 PUSH2 0x10A4 JUMP JUMPDEST POP POP POP JUMP JUMPDEST JUMPDEST DUP2 DUP2 LT ISZERO PUSH2 0x1106 JUMPI PUSH2 0x10FB PUSH0 DUP3 PUSH2 0x10D0 JUMP JUMPDEST PUSH1 0x1 DUP2 ADD SWAP1 POP PUSH2 0x10E9 JUMP JUMPDEST POP POP JUMP JUMPDEST PUSH1 0x1F DUP3 GT ISZERO PUSH2 0x114B JUMPI PUSH2 0x111C DUP2 PUSH2 0xFF3 JUMP JUMPDEST PUSH2 0x1125 DUP5 PUSH2 0x1005 JUMP JUMPDEST DUP2 ADD PUSH1 0x20 DUP6 LT ISZERO PUSH2 0x1134 JUMPI DUP2 SWAP1 POP JUMPDEST PUSH2 0x1148 PUSH2 0x1140 DUP6 PUSH2 0x1005 JUMP JUMPDEST DUP4 ADD DUP3 PUSH2 0x10E8 JUMP JUMPDEST POP POP JUMPDEST POP POP POP JUMP JUMPDEST PUSH0 DUP3 DUP3 SHR SWAP1 POP SWAP3 SWAP2 POP POP JUMP JUMPDEST PUSH0 PUSH2 0x116B PUSH0 NOT DUP5 PUSH1 0x8 MUL PUSH2 0x1150 JUMP JUMPDEST NOT DUP1 DUP4 AND SWAP2 POP POP SWAP3 SWAP2 POP POP JUMP JUMPDEST PUSH0 PUSH2 0x1183 DUP4 DUP4 PUSH2 0x115C JUMP JUMPDEST SWAP2 POP DUP3 PUSH1 0x2 MUL DUP3 OR SWAP1 POP SWAP3 SWAP2 POP POP JUMP JUMPDEST PUSH2 0x119C DUP3 PUSH2 0xAA4 JUMP JUMPDEST PUSH8 0xFFFFFFFFFFFFFFFF DUP2 GT ISZERO PUSH2 0x11B5 JUMPI PUSH2 0x11B4 PUSH2 0xB94 JUMP JUMPDEST JUMPDEST PUSH2 0x11BF DUP3 SLOAD PUSH2 0xF90 JUMP JUMPDEST PUSH2 0x11CA DUP3 DUP3 DUP6 PUSH2 0x110A JUMP JUMPDEST PUSH0 PUSH1 0x20 SWAP1 POP PUSH1 0x1F DUP4 GT PUSH1 0x1 DUP2 EQ PUSH2 0x11FB JUMPI PUSH0 DUP5 ISZERO PUSH2 0x11E9 JUMPI DUP3 DUP8 ADD MLOAD SWAP1 POP JUMPDEST PUSH2 0x11F3 DUP6 DUP3 PUSH2 0x1178 JUMP JUMPDEST DUP7 SSTORE POP PUSH2 0x125A JUMP JUMPDEST PUSH1 0x1F NOT DUP5 AND PUSH2 0x1209 DUP7 PUSH2 0xFF3 JUMP JUMPDEST PUSH0 JUMPDEST DUP3 DUP2 LT ISZERO PUSH2 0x1230 JUMPI DUP5 DUP10 ADD MLOAD DUP3 SSTORE PUSH1 0x1 DUP3 ADD SWAP2 POP PUSH1 0x20 DUP6 ADD SWAP5 POP PUSH1 0x20 DUP2 ADD SWAP1 POP PUSH2 0x120B JUMP JUMPDEST DUP7 DUP4 LT ISZERO PUSH2 0x124D JUMPI DUP5 DUP10 ADD MLOAD PUSH2 0x1249 PUSH1 0x1F DUP10 AND DUP3 PUSH2 0x115C JUMP JUMPDEST DUP4 SSTORE POP JUMPDEST PUSH1 0x1 PUSH1 0x2 DUP9 MUL ADD DUP9 SSTORE POP POP POP JUMPDEST POP POP POP POP POP POP JUMP JUMPDEST PUSH32 0x416D6F756E74206973206C657373207468616E206D696E696D756D20436F6E74 PUSH0 DUP3 ADD MSTORE PUSH32 0x7269627574696F6E000000000000000000000000000000000000000000000000 PUSH1 0x20 DUP3 ADD MSTORE POP JUMP JUMPDEST PUSH0 PUSH2 0x12BC PUSH1 0x28 DUP4 PUSH2 0xAAE JUMP JUMPDEST SWAP2 POP PUSH2 0x12C7 DUP3 PUSH2 0x1262 JUMP JUMPDEST PUSH1 0x40 DUP3 ADD SWAP1 POP SWAP2 SWAP1 POP JUMP JUMPDEST PUSH0 PUSH1 0x20 DUP3 ADD SWAP1 POP DUP2 DUP2 SUB PUSH0 DUP4 ADD MSTORE PUSH2 0x12E9 DUP2 PUSH2 0x12B0 JUMP JUMPDEST SWAP1 POP SWAP2 SWAP1 POP JUMP JUMPDEST PUSH0 PUSH2 0x12FA DUP3 PUSH2 0x93E JUMP JUMPDEST SWAP2 POP PUSH32 0xFFFFFFFFFFFFFFFFFFFFFFFFFFFFFFFFFFFFFFFFFFFFFFFFFFFFFFFFFFFFFFFF DUP3 SUB PUSH2 0x132C JUMPI PUSH2 0x132B PUSH2 0xE36 JUMP JUMPDEST JUMPDEST PUSH1 0x1 DUP3 ADD SWAP1 POP SWAP2 SWAP1 POP JUMP JUMPDEST PUSH32 0x596F75206861766520746F20666972737420636F6E7472696275746520746F20 PUSH0 DUP3 ADD MSTORE PUSH32 0x766F746500000000000000000000000000000000000000000000000000000000 PUSH1 0x20 DUP3 ADD MSTORE POP JUMP JUMPDEST PUSH0 PUSH2 0x1391 PUSH1 0x24 DUP4 PUSH2 0xAAE JUMP JUMPDEST SWAP2 POP PUSH2 0x139C DUP3 PUSH2 0x1337 JUMP JUMPDEST PUSH1 0x40 DUP3 ADD SWAP1 POP SWAP2 SWAP1 POP JUMP JUMPDEST PUSH0 PUSH1 0x20 DUP3 ADD SWAP1 POP DUP2 DUP2 SUB PUSH0 DUP4 ADD MSTORE PUSH2 0x13BE DUP2 PUSH2 0x1385 JUMP JUMPDEST SWAP1 POP SWAP2 SWAP1 POP JUMP JUMPDEST PUSH32 0x596F75206861766520616C726561647920766F74656400000000000000000000 PUSH0 DUP3 ADD MSTORE POP JUMP JUMPDEST PUSH0 PUSH2 0x13F9 PUSH1 0x16 DUP4 PUSH2 0xAAE JUMP JUMPDEST SWAP2 POP PUSH2 0x1404 DUP3 PUSH2 0x13C5 JUMP JUMPDEST PUSH1 0x20 DUP3 ADD SWAP1 POP SWAP2 SWAP1 POP JUMP JUMPDEST PUSH0 PUSH1 0x20 DUP3 ADD SWAP1 POP DUP2 DUP2 SUB PUSH0 DUP4 ADD MSTORE PUSH2 0x1426 DUP2 PUSH2 0x13ED JUMP JUMPDEST SWAP1 POP SWAP2 SWAP1 POP JUMP INVALID LOG2 PUSH5 0x6970667358 0x22 SLT KECCAK256 PUSH11 0x81E5EBDB9CE654FE859645 0xDC LT 0xEB 0x2B 0xCE BLOBBASEFEE SWAPN 0x1E 0xFC PUSH8 0xE16F807BD6D0E073 0x2A DUP12 PUSH5 0x736F6C6343 STOP ADDMOD 0x1E STOP CALLER "},"gasEstimates":{"creation":{"codeDepositCost":"1043800","executionCost":"infinite","totalCost":"infinite"},"external":{"approveRequest(uint256)":"infinite","approvers(address)":"2856","approversCount()":"2425","contribute()":"51014","createRequest(string,uint256,address)":"infinite","finalizeRequest(uint256)":"infinite","getRequestsCount()":"2484","manager()":"2575","minimumContribution()":"2469","requests(uint256)":"infinite"}},"methodIdentifiers":{"approveRequest(uint256)":"d7d1bbdb","approvers(address)":"0a144391","approversCount()":"82fde093","contribute()":"d7bb99ba","createRequest(string,uint256,address)":"8a9cfd55","finalizeRequest(uint256)":"03441006","getRequestsCount()":"3410452a","manager()":"481c6a75","minimumContribution()":"937e09b1","requests(uint256)":"81d12c58"}},"storageLayout":{"storage":[{"astId":58,"contract":"Campaign.sol:Campaign","label":"requests","offset":0,"slot":"0","type":"t_array(t_struct(Request)54_storage)dyn_storage"},{"astId":60,"contract":"Campaign.sol:Campaign","label":"manager","offset":0,"slot":"1","type":"t_address"},{"astId":62,"contract":"Campaign.sol:Campaign","label":"minimumContribution","offset":0,"slot":"2","type":"t_uint256"},{"astId":66,"contract":"Campaign.sol:Campaign","label":"approvers","offset":0,"slot":"3","type":"t_mapping(t_address,t_bool)"},{"astId":69,"contract":"Campaign.sol:Campaign","label":"approversCount","offset":0,"slot":"4","type":"t_uint256"}],"types":{"t_address":{"encoding":"inplace","label":"address","numberOfBytes":"20"},"t_address_payable":{"encoding":"inplace","label":"address payable","numberOfBytes":"20"},"t_array(t_struct(Request)54_storage)dyn_storage":{"base":"t_struct(Request)54_storage","encoding":"dynamic_array","label":"struct Campaign.Request[]","numberOfBytes":"32"},"t_bool":{"encoding":"inplace","label":"bool","numberOfBytes":"1"},"t_mapping(t_address,t_bool)":{"encoding":"mapping","key":"t_address","label":"mapping(address => bool)","numberOfBytes":"32","value":"t_bool"},"t_string_storage":{"encoding":"bytes","label":"string","numberOfBytes":"32"},"t_struct(Request)54_storage":{"encoding":"inplace","label":"struct Campaign.Request","members":[{"astId":41,"contract":"Campaign.sol:Campaign","label":"description","offset":0,"slot":"0","type":"t_string_storage"},{"astId":43,"contract":"Campaign.sol:Campaign","label":"value","offset":0,"slot":"1","type":"t_uint256"},{"astId":45,"contract":"Campaign.sol:Campaign","label":"recipient","offset":0,"slot":"2","type":"t_address_payable"},{"astId":47,"contract":"Campaign.sol:Campaign","label":"complete","offset":20,"slot":"2","type":"t_bool"},{"astId":49,"contract":"Campaign.sol:Campaign","label":"approvalCount","offset":0,"slot":"3","type":"t_uint256"},{"astId":53,"contract":"Campaign.sol:Campaign","label":"approvals","offset":0,"slot":"4","type":"t_mapping(t_address,t_bool)"}],"numberOfBytes":"160"},"t_uint256":{"encoding":"inplace","label":"uint256","numberOfBytes":"32"}}},"transientStorageLayout":{"storage":[],"types":null},"userdoc":{"kind":"user","methods":{},"version":1}}